{
  "contractName": "EvidenceRegistry",
  "abi": [
    {
      "anonymous": false,
      "inputs": [
        {
          "indexed": true,
          "internalType": "uint32",
          "name": "evidenceId",
          "type": "uint32"
        },
        {
          "indexed": true,
          "internalType": "uint128",
          "name": "caseId",
          "type": "uint128"
        },
        {
          "indexed": false,
          "internalType": "string",
          "name": "description",
          "type": "string"
        },
        {
          "indexed": false,
          "internalType": "enum EvidenceRegistry.State",
          "name": "state",
          "type": "uint8"
        }
      ],
      "name": "EvidenceAdded",
      "type": "event"
    },
    {
      "anonymous": false,
      "inputs": [
        {
          "indexed": false,
          "internalType": "uint128",
          "name": "id",
          "type": "uint128"
        },
        {
          "indexed": true,
          "internalType": "address",
          "name": "checkedInBy",
          "type": "address"
        }
      ],
      "name": "EvidenceCheckedIn",
      "type": "event"
    },
    {
      "anonymous": false,
      "inputs": [
        {
          "indexed": false,
          "internalType": "uint128",
          "name": "id",
          "type": "uint128"
        },
        {
          "indexed": true,
          "internalType": "address",
          "name": "checkedOutBy",
          "type": "address"
        }
      ],
      "name": "EvidenceCheckedOut",
      "type": "event"
    },
    {
      "inputs": [
        {
          "internalType": "uint128",
          "name": "",
          "type": "uint128"
        },
        {
          "internalType": "uint256",
          "name": "",
          "type": "uint256"
        }
      ],
      "name": "caseToEvidence",
      "outputs": [
        {
          "internalType": "uint32",
          "name": "",
          "type": "uint32"
        }
      ],
      "stateMutability": "view",
      "type": "function"
    },
    {
      "inputs": [
        {
          "internalType": "uint32",
          "name": "",
          "type": "uint32"
        }
      ],
      "name": "evidenceMap",
      "outputs": [
        {
          "internalType": "uint32",
          "name": "id",
          "type": "uint32"
        },
        {
          "internalType": "string",
          "name": "description",
          "type": "string"
        },
        {
          "internalType": "enum EvidenceRegistry.State",
          "name": "state",
          "type": "uint8"
        },
        {
          "internalType": "uint128",
          "name": "caseId",
          "type": "uint128"
        }
      ],
      "stateMutability": "view",
      "type": "function"
    },
    {
      "inputs": [
        {
          "internalType": "uint32[]",
          "name": "itemIds",
          "type": "uint32[]"
        },
        {
          "internalType": "uint128",
          "name": "caseId",
          "type": "uint128"
        },
        {
          "internalType": "string[]",
          "name": "descriptions",
          "type": "string[]"
        }
      ],
      "name": "addEvidence",
      "outputs": [],
      "stateMutability": "nonpayable",
      "type": "function"
    },
    {
      "inputs": [
        {
          "internalType": "uint32",
          "name": "evidenceId",
          "type": "uint32"
        }
      ],
      "name": "checkoutEvidence",
      "outputs": [],
      "stateMutability": "nonpayable",
      "type": "function"
    },
    {
      "inputs": [
        {
          "internalType": "uint32",
          "name": "evidenceId",
          "type": "uint32"
        }
      ],
      "name": "checkinEvidence",
      "outputs": [],
      "stateMutability": "nonpayable",
      "type": "function"
    },
    {
      "inputs": [],
      "name": "getAllCaseIds",
      "outputs": [
        {
          "internalType": "uint128[]",
          "name": "",
          "type": "uint128[]"
        }
      ],
      "stateMutability": "view",
      "type": "function"
    }
  ],
  "bytecode": "0x608060405234801561000f575f80fd5b506117758061001d5f395ff3fe608060405234801561000f575f80fd5b5060043610610060575f3560e01c80636611a24f1461006457806382cfb23714610080578063833aed05146100b357806390d62ff8146100d1578063b8605b95146100ed578063cff1439b14610109575b5f80fd5b61007e60048036038101906100799190610dbd565b610139565b005b61009a60048036038101906100959190610e45565b6105af565b6040516100aa9493929190610f7b565b60405180910390f35b6100bb610698565b6040516100c8919061107c565b60405180910390f35b6100eb60048036038101906100e69190610e45565b610730565b005b61010760048036038101906101029190610e45565b61089e565b005b610123600480360381019061011e91906110cf565b610a0c565b604051610130919061110d565b60405180910390f35b805183511461017d576040517f08c379a000000000000000000000000000000000000000000000000000000000815260040161017490611196565b60405180910390fd5b5f5b83518163ffffffff161015610505575f848263ffffffff16815181106101a8576101a76111b4565b5b602002602001015190505f60015f8363ffffffff1663ffffffff1681526020019081526020015f205f015f9054906101000a900463ffffffff1663ffffffff1614610228576040517f08c379a000000000000000000000000000000000000000000000000000000000815260040161021f9061122b565b60405180910390fd5b845160025f866fffffffffffffffffffffffffffffffff166fffffffffffffffffffffffffffffffff1681526020019081526020015f2080549050036102cc575f84908060018154018082558091505060019003905f5260205f2090600291828204019190066010029091909190916101000a8154816fffffffffffffffffffffffffffffffff02191690836fffffffffffffffffffffffffffffffff1602179055505b60405180608001604052808263ffffffff168152602001848463ffffffff16815181106102fc576102fb6111b4565b5b602002602001015181526020015f600481111561031c5761031b610ef9565b5b8152602001856fffffffffffffffffffffffffffffffff1681525060015f8363ffffffff1663ffffffff1681526020019081526020015f205f820151815f015f6101000a81548163ffffffff021916908363ffffffff160217905550602082015181600101908161038d9190611443565b506040820151816002015f6101000a81548160ff021916908360048111156103b8576103b7610ef9565b5b021790555060608201518160020160016101000a8154816fffffffffffffffffffffffffffffffff02191690836fffffffffffffffffffffffffffffffff16021790555090505060025f856fffffffffffffffffffffffffffffffff166fffffffffffffffffffffffffffffffff1681526020019081526020015f2081908060018154018082558091505060019003905f5260205f2090600891828204019190066004029091909190916101000a81548163ffffffff021916908363ffffffff160217905550836fffffffffffffffffffffffffffffffff168163ffffffff167ff87bbc12815f856fa8a07b88bd58c1232d8812ab91997cb1cd61bfaa271bfd61858563ffffffff16815181106104d2576104d16111b4565b5b60200260200101515f6040516104e9929190611512565b60405180910390a35080806104fd9061156d565b91505061017f565b50825160025f846fffffffffffffffffffffffffffffffff166fffffffffffffffffffffffffffffffff1681526020019081526020015f2080549050036105aa575f82908060018154018082558091505060019003905f5260205f2090600291828204019190066010029091909190916101000a8154816fffffffffffffffffffffffffffffffff02191690836fffffffffffffffffffffffffffffffff1602179055505b505050565b6001602052805f5260405f205f91509050805f015f9054906101000a900463ffffffff16908060010180546105e390611276565b80601f016020809104026020016040519081016040528092919081815260200182805461060f90611276565b801561065a5780601f106106315761010080835404028352916020019161065a565b820191905f5260205f20905b81548152906001019060200180831161063d57829003601f168201915b505050505090806002015f9054906101000a900460ff16908060020160019054906101000a90046fffffffffffffffffffffffffffffffff16905084565b60605f80548060200260200160405190810160405280929190818152602001828054801561072657602002820191905f5260205f20905f905b82829054906101000a90046fffffffffffffffffffffffffffffffff166fffffffffffffffffffffffffffffffff1681526020019060100190602082600f010492830192600103820291508084116106d15790505b5050505050905090565b5f60015f8363ffffffff1663ffffffff1681526020019081526020015f2090505f815f015f9054906101000a900463ffffffff1663ffffffff16036107aa576040517f08c379a00000000000000000000000000000000000000000000000000000000081526004016107a1906115e2565b60405180910390fd5b5f60048111156107bd576107bc610ef9565b5b816002015f9054906101000a900460ff1660048111156107e0576107df610ef9565b5b14610820576040517f08c379a00000000000000000000000000000000000000000000000000000000081526004016108179061164a565b60405180910390fd5b6001816002015f6101000a81548160ff0219169083600481111561084757610846610ef9565b5b02179055503373ffffffffffffffffffffffffffffffffffffffff167fda9d94314cd4110a5eedae510ec691e8c63bdf1e3f176e07691a06261e2dc51f836040516108929190611698565b60405180910390a25050565b5f60015f8363ffffffff1663ffffffff1681526020019081526020015f2090505f815f015f9054906101000a900463ffffffff1663ffffffff1603610918576040517f08c379a000000000000000000000000000000000000000000000000000000000815260040161090f906115e2565b60405180910390fd5b6001600481111561092c5761092b610ef9565b5b816002015f9054906101000a900460ff16600481111561094f5761094e610ef9565b5b1461098f576040517f08c379a000000000000000000000000000000000000000000000000000000000815260040161098690611721565b60405180910390fd5b5f816002015f6101000a81548160ff021916908360048111156109b5576109b4610ef9565b5b02179055503373ffffffffffffffffffffffffffffffffffffffff167f072d19041a1f80d3a6c3fafa29c92df78f28488b030eface8b571ea4e14270d783604051610a009190611698565b60405180910390a25050565b6002602052815f5260405f208181548110610a25575f80fd5b905f5260205f209060089182820401919006600402915091509054906101000a900463ffffffff1681565b5f604051905090565b5f80fd5b5f80fd5b5f80fd5b5f601f19601f8301169050919050565b7f4e487b71000000000000000000000000000000000000000000000000000000005f52604160045260245ffd5b610aab82610a65565b810181811067ffffffffffffffff82111715610aca57610ac9610a75565b5b80604052505050565b5f610adc610a50565b9050610ae88282610aa2565b919050565b5f67ffffffffffffffff821115610b0757610b06610a75565b5b602082029050602081019050919050565b5f80fd5b5f63ffffffff82169050919050565b610b3481610b1c565b8114610b3e575f80fd5b50565b5f81359050610b4f81610b2b565b92915050565b5f610b67610b6284610aed565b610ad3565b90508083825260208201905060208402830185811115610b8a57610b89610b18565b5b835b81811015610bb35780610b9f8882610b41565b845260208401935050602081019050610b8c565b5050509392505050565b5f82601f830112610bd157610bd0610a61565b5b8135610be1848260208601610b55565b91505092915050565b5f6fffffffffffffffffffffffffffffffff82169050919050565b610c0e81610bea565b8114610c18575f80fd5b50565b5f81359050610c2981610c05565b92915050565b5f67ffffffffffffffff821115610c4957610c48610a75565b5b602082029050602081019050919050565b5f80fd5b5f67ffffffffffffffff821115610c7857610c77610a75565b5b610c8182610a65565b9050602081019050919050565b828183375f83830152505050565b5f610cae610ca984610c5e565b610ad3565b905082815260208101848484011115610cca57610cc9610c5a565b5b610cd5848285610c8e565b509392505050565b5f82601f830112610cf157610cf0610a61565b5b8135610d01848260208601610c9c565b91505092915050565b5f610d1c610d1784610c2f565b610ad3565b90508083825260208201905060208402830185811115610d3f57610d3e610b18565b5b835b81811015610d8657803567ffffffffffffffff811115610d6457610d63610a61565b5b808601610d718982610cdd565b85526020850194505050602081019050610d41565b5050509392505050565b5f82601f830112610da457610da3610a61565b5b8135610db4848260208601610d0a565b91505092915050565b5f805f60608486031215610dd457610dd3610a59565b5b5f84013567ffffffffffffffff811115610df157610df0610a5d565b5b610dfd86828701610bbd565b9350506020610e0e86828701610c1b565b925050604084013567ffffffffffffffff811115610e2f57610e2e610a5d565b5b610e3b86828701610d90565b9150509250925092565b5f60208284031215610e5a57610e59610a59565b5b5f610e6784828501610b41565b91505092915050565b610e7981610b1c565b82525050565b5f81519050919050565b5f82825260208201905092915050565b5f5b83811015610eb6578082015181840152602081019050610e9b565b5f8484015250505050565b5f610ecb82610e7f565b610ed58185610e89565b9350610ee5818560208601610e99565b610eee81610a65565b840191505092915050565b7f4e487b71000000000000000000000000000000000000000000000000000000005f52602160045260245ffd5b60058110610f3757610f36610ef9565b5b50565b5f819050610f4782610f26565b919050565b5f610f5682610f3a565b9050919050565b610f6681610f4c565b82525050565b610f7581610bea565b82525050565b5f608082019050610f8e5f830187610e70565b8181036020830152610fa08186610ec1565b9050610faf6040830185610f5d565b610fbc6060830184610f6c565b95945050505050565b5f81519050919050565b5f82825260208201905092915050565b5f819050602082019050919050565b610ff781610bea565b82525050565b5f6110088383610fee565b60208301905092915050565b5f602082019050919050565b5f61102a82610fc5565b6110348185610fcf565b935061103f83610fdf565b805f5b8381101561106f5781516110568882610ffd565b975061106183611014565b925050600181019050611042565b5085935050505092915050565b5f6020820190508181035f8301526110948184611020565b905092915050565b5f819050919050565b6110ae8161109c565b81146110b8575f80fd5b50565b5f813590506110c9816110a5565b92915050565b5f80604083850312156110e5576110e4610a59565b5b5f6110f285828601610c1b565b9250506020611103858286016110bb565b9150509250929050565b5f6020820190506111205f830184610e70565b92915050565b7f4974656d2049447320616e64206465736372697074696f6e7320636f756e74205f8201527f6d69736d61746368000000000000000000000000000000000000000000000000602082015250565b5f611180602883610e89565b915061118b82611126565b604082019050919050565b5f6020820190508181035f8301526111ad81611174565b9050919050565b7f4e487b71000000000000000000000000000000000000000000000000000000005f52603260045260245ffd5b7f45766964656e6365204944206d75737420626520756e697175650000000000005f82015250565b5f611215601a83610e89565b9150611220826111e1565b602082019050919050565b5f6020820190508181035f83015261124281611209565b9050919050565b7f4e487b71000000000000000000000000000000000000000000000000000000005f52602260045260245ffd5b5f600282049050600182168061128d57607f821691505b6020821081036112a05761129f611249565b5b50919050565b5f819050815f5260205f209050919050565b5f6020601f8301049050919050565b5f82821b905092915050565b5f600883026113027fffffffffffffffffffffffffffffffffffffffffffffffffffffffffffffffff826112c7565b61130c86836112c7565b95508019841693508086168417925050509392505050565b5f819050919050565b5f61134761134261133d8461109c565b611324565b61109c565b9050919050565b5f819050919050565b6113608361132d565b61137461136c8261134e565b8484546112d3565b825550505050565b5f90565b61138861137c565b611393818484611357565b505050565b5b818110156113b6576113ab5f82611380565b600181019050611399565b5050565b601f8211156113fb576113cc816112a6565b6113d5846112b8565b810160208510156113e4578190505b6113f86113f0856112b8565b830182611398565b50505b505050565b5f82821c905092915050565b5f61141b5f1984600802611400565b1980831691505092915050565b5f611433838361140c565b9150826002028217905092915050565b61144c82610e7f565b67ffffffffffffffff81111561146557611464610a75565b5b61146f8254611276565b61147a8282856113ba565b5f60209050601f8311600181146114ab575f8415611499578287015190505b6114a38582611428565b86555061150a565b601f1984166114b9866112a6565b5f5b828110156114e0578489015182556001820191506020850194506020810190506114bb565b868310156114fd57848901516114f9601f89168261140c565b8355505b6001600288020188555050505b505050505050565b5f6040820190508181035f83015261152a8185610ec1565b90506115396020830184610f5d565b9392505050565b7f4e487b71000000000000000000000000000000000000000000000000000000005f52601160045260245ffd5b5f61157782610b1c565b915063ffffffff820361158d5761158c611540565b5b600182019050919050565b7f45766964656e6365206974656d20646f6573206e6f74206578697374000000005f82015250565b5f6115cc601c83610e89565b91506115d782611598565b602082019050919050565b5f6020820190508181035f8301526115f9816115c0565b9050919050565b7f6974656d206973206e6f7420434845434b4544494e00000000000000000000005f82015250565b5f611634601583610e89565b915061163f82611600565b602082019050919050565b5f6020820190508181035f83015261166181611628565b9050919050565b5f61168261167d61167884610b1c565b611324565b610bea565b9050919050565b61169281611668565b82525050565b5f6020820190506116ab5f830184611689565b92915050565b7f45766964656e6365206974656d206973206e6f7420696e206120434845434b455f8201527f444f555420737461746500000000000000000000000000000000000000000000602082015250565b5f61170b602a83610e89565b9150611716826116b1565b604082019050919050565b5f6020820190508181035f830152611738816116ff565b905091905056fea26469706673582212206ad719b903fee00d997e5e2006b72f40969ee59c08d83e3536cc64ef1a8b6b5b64736f6c63430008150033",
  "immutableReferences": {},
  "source": "// SPDX-License-Identifier: MIT\npragma solidity ^0.8.0;\n\ncontract EvidenceRegistry {\n\t//event declarations\n\tevent EvidenceCheckedOut(uint128 id, address indexed checkedOutBy);\n\tevent EvidenceCheckedIn(uint128 id, address indexed checkedInBy);\n\n\tenum State { CHECKEDIN, CHECKEDOUT, DISPOSED, DESTROYED, RELEASED } // State of evidence\n\n\tstruct Evidence {\n\t\tuint32 id;\n    \t\tstring description;\n        \tState state;\n        \tuint128 caseId;\n   \t }\n\n    \tuint128[] private caseIds; // Dynamic array to store caseIds\n\n    \tmapping(uint32 => Evidence) public evidenceMap; // Maps evidence ID to Evidence\n    \tmapping(uint128 => uint32[]) public caseToEvidence; // Maps caseId to an array of evidence IDs\n\n    \tevent EvidenceAdded(uint32 indexed evidenceId, uint128 indexed caseId, string description, State state);\n\n    \t// Function to add a new evidence item or multiple items to a case\n    \tfunction addEvidence(uint32[] memory itemIds, uint128 caseId, string[] memory descriptions) public {\n        \trequire(itemIds.length == descriptions.length, \"Item IDs and descriptions count mismatch\");\n\n        \tfor (uint32 i = 0; i < itemIds.length; i++) {\n            \t\tuint32 itemId = itemIds[i];\n            \t\trequire(evidenceMap[itemId].id == 0, \"Evidence ID must be unique\");\n\n            \t\t// Create a new evidence item and add it to the evidence map\n\t    \t\t// If the caseId is new, add it to the caseIds array\n\t\t\tif (caseToEvidence[caseId].length == itemIds.length) {\n\t\t\t    caseIds.push(caseId);\n\t\t\t}\n\t\t    evidenceMap[itemId] = Evidence({\n\t\t\tid: itemId,\n\t\t\tdescription: descriptions[i],\n\t\t\tstate: State.CHECKEDIN,\n\t\t\tcaseId: caseId\n\t\t    });\n\n\t\t    // Associate the evidence item with the given case identifier\n\t\t    caseToEvidence[caseId].push(itemId);\n\n\t\t    emit EvidenceAdded(itemId, caseId, descriptions[i], State.CHECKEDIN);\n\t\t}\n\n\t\t// If the caseId is new, add it to the caseIds array\n\t\tif (caseToEvidence[caseId].length == itemIds.length) {\n\t\t    caseIds.push(caseId);\n\t\t}\n\t    }\n\n\t//checkout an evidence item\n\tfunction checkoutEvidence(uint32 evidenceId) public \n\t{\n\t\tEvidence storage evidence = evidenceMap[evidenceId];\n\t\trequire(evidence.id !=0, \"Evidence item does not exist\");\n\t\trequire(evidence.state == State.CHECKEDIN, \"item is not CHECKEDIN\");\n\t\t\n\t\tevidence.state = State.CHECKEDOUT;\n\t\temit EvidenceCheckedOut(evidenceId, msg.sender);\n\t}\n\tfunction checkinEvidence(uint32 evidenceId) public \n\t{\n\t\tEvidence storage evidence = evidenceMap[evidenceId];\n\t\trequire(evidence.id != 0, \"Evidence item does not exist\");\n\t\trequire(evidence.state == State.CHECKEDOUT, \"Evidence item is not in a CHECKEDOUT state\");\n\n\t\tevidence.state = State.CHECKEDIN; // Update the state of the evidence item to CHECKEDIN\n\n\t\temit EvidenceCheckedIn(evidenceId, msg.sender); // Emit an event for the check-in action\n\t}\n\n\t//show cases\n\tfunction getAllCaseIds() public view returns (uint128[] memory) {\n\t\treturn caseIds;\n\t}\n\t//show items\n\t//show history\n\t//remove\n\t//init\n\t//verify\n\t//-c case_id\n\t//-i item_id\n\t//-n num_entries\n\t//-y reason, --why reason\n\t//-o owner\n}\n\n",
  "sourcePath": "/Users/stephanieblossom/Downloads/bchoc/contracts/contract.sol",
  "compiler": {
    "name": "solc",
    "version": "0.8.21+commit.d9974bed.Emscripten.clang"
  },
  "schemaVersion": "3.4.16",
  "updatedAt": "2023-11-08T21:43:17.642Z",
  "devdoc": {
    "kind": "dev",
    "methods": {},
    "version": 1
  },
  "userdoc": {
    "kind": "user",
    "methods": {},
    "version": 1
  }
}