{
  "contractName": "ChainOfCustody",
  "abi": [
    {
      "anonymous": false,
      "inputs": [
        {
          "indexed": false,
          "internalType": "uint128",
          "name": "caseId",
          "type": "uint128"
        },
        {
          "indexed": false,
          "internalType": "uint32",
          "name": "evidenceItemId",
          "type": "uint32"
        },
        {
          "indexed": false,
          "internalType": "uint64",
          "name": "timestamp",
          "type": "uint64"
        },
        {
          "indexed": false,
          "internalType": "string",
          "name": "state",
          "type": "string"
        },
        {
          "indexed": false,
          "internalType": "string",
          "name": "handlerName",
          "type": "string"
        },
        {
          "indexed": false,
          "internalType": "string",
          "name": "organizationName",
          "type": "string"
        }
      ],
      "name": "EvidenceItemAdded",
      "type": "event"
    },
    {
      "anonymous": false,
      "inputs": [
        {
          "indexed": false,
          "internalType": "uint128",
          "name": "caseId",
          "type": "uint128"
        },
        {
          "indexed": false,
          "internalType": "uint32",
          "name": "evidenceItemId",
          "type": "uint32"
        },
        {
          "indexed": false,
          "internalType": "uint64",
          "name": "timestamp",
          "type": "uint64"
        },
        {
          "indexed": false,
          "internalType": "string",
          "name": "state",
          "type": "string"
        },
        {
          "indexed": false,
          "internalType": "string",
          "name": "handlerName",
          "type": "string"
        },
        {
          "indexed": false,
          "internalType": "string",
          "name": "organizationName",
          "type": "string"
        }
      ],
      "name": "EvidenceItemCheckedIn",
      "type": "event"
    },
    {
      "anonymous": false,
      "inputs": [
        {
          "indexed": false,
          "internalType": "uint128",
          "name": "caseId",
          "type": "uint128"
        },
        {
          "indexed": false,
          "internalType": "uint32",
          "name": "evidenceItemId",
          "type": "uint32"
        },
        {
          "indexed": false,
          "internalType": "string",
          "name": "handlerName",
          "type": "string"
        },
        {
          "indexed": false,
          "internalType": "string",
          "name": "organizationName",
          "type": "string"
        },
        {
          "indexed": false,
          "internalType": "uint64",
          "name": "timestamp",
          "type": "uint64"
        },
        {
          "indexed": false,
          "internalType": "string",
          "name": "state",
          "type": "string"
        }
      ],
      "name": "EvidenceItemCheckedOut",
      "type": "event"
    },
    {
      "anonymous": false,
      "inputs": [
        {
          "indexed": false,
          "internalType": "uint128",
          "name": "caseId",
          "type": "uint128"
        },
        {
          "indexed": false,
          "internalType": "uint32",
          "name": "evidenceItemId",
          "type": "uint32"
        },
        {
          "indexed": false,
          "internalType": "uint64",
          "name": "timestamp",
          "type": "uint64"
        },
        {
          "indexed": false,
          "internalType": "string",
          "name": "reason",
          "type": "string"
        },
        {
          "indexed": false,
          "internalType": "string",
          "name": "ownerInfo",
          "type": "string"
        }
      ],
      "name": "EvidenceItemRemoved",
      "type": "event"
    },
    {
      "inputs": [
        {
          "internalType": "uint256",
          "name": "",
          "type": "uint256"
        }
      ],
      "name": "blockchain",
      "outputs": [
        {
          "internalType": "bytes32",
          "name": "previousHash",
          "type": "bytes32"
        },
        {
          "internalType": "uint64",
          "name": "timestamp",
          "type": "uint64"
        },
        {
          "internalType": "uint128",
          "name": "caseId",
          "type": "uint128"
        },
        {
          "internalType": "uint32",
          "name": "evidenceItemId",
          "type": "uint32"
        },
        {
          "internalType": "string",
          "name": "state",
          "type": "string"
        },
        {
          "internalType": "string",
          "name": "handlerName",
          "type": "string"
        },
        {
          "internalType": "string",
          "name": "organizationName",
          "type": "string"
        },
        {
          "internalType": "string",
          "name": "reason",
          "type": "string"
        },
        {
          "internalType": "uint32",
          "name": "dataLength",
          "type": "uint32"
        },
        {
          "internalType": "bytes",
          "name": "data",
          "type": "bytes"
        }
      ],
      "stateMutability": "view",
      "type": "function",
      "constant": true
    },
    {
      "inputs": [
        {
          "internalType": "uint32",
          "name": "",
          "type": "uint32"
        }
      ],
      "name": "evidenceExists",
      "outputs": [
        {
          "internalType": "bool",
          "name": "",
          "type": "bool"
        }
      ],
      "stateMutability": "view",
      "type": "function",
      "constant": true
    },
    {
      "inputs": [
        {
          "internalType": "uint128",
          "name": "_caseId",
          "type": "uint128"
        },
        {
          "internalType": "uint32[]",
          "name": "_itemIds",
          "type": "uint32[]"
        },
        {
          "internalType": "string",
          "name": "_handlerName",
          "type": "string"
        },
        {
          "internalType": "string",
          "name": "_organizationName",
          "type": "string"
        }
      ],
      "name": "addEvidenceItems",
      "outputs": [],
      "stateMutability": "nonpayable",
      "type": "function"
    },
    {
      "inputs": [
        {
          "internalType": "uint32",
          "name": "_evidenceItemId",
          "type": "uint32"
        },
        {
          "internalType": "string",
          "name": "_handlerName",
          "type": "string"
        },
        {
          "internalType": "string",
          "name": "_organizationName",
          "type": "string"
        }
      ],
      "name": "checkoutEvidenceItem",
      "outputs": [],
      "stateMutability": "nonpayable",
      "type": "function"
    },
    {
      "inputs": [
        {
          "internalType": "uint32",
          "name": "_evidenceItemId",
          "type": "uint32"
        },
        {
          "internalType": "string",
          "name": "_handlerName",
          "type": "string"
        },
        {
          "internalType": "string",
          "name": "_organizationName",
          "type": "string"
        }
      ],
      "name": "checkinEvidenceItem",
      "outputs": [],
      "stateMutability": "nonpayable",
      "type": "function"
    },
    {
      "inputs": [],
      "name": "getCases",
      "outputs": [
        {
          "internalType": "uint128[]",
          "name": "",
          "type": "uint128[]"
        }
      ],
      "stateMutability": "view",
      "type": "function",
      "constant": true
    },
    {
      "inputs": [
        {
          "internalType": "uint128",
          "name": "_caseId",
          "type": "uint128"
        }
      ],
      "name": "getItemsForCase",
      "outputs": [
        {
          "internalType": "uint32[]",
          "name": "",
          "type": "uint32[]"
        }
      ],
      "stateMutability": "view",
      "type": "function",
      "constant": true
    },
    {
      "inputs": [
        {
          "internalType": "uint32",
          "name": "_itemId",
          "type": "uint32"
        }
      ],
      "name": "getItemHistory",
      "outputs": [
        {
          "components": [
            {
              "internalType": "uint64",
              "name": "timestamp",
              "type": "uint64"
            },
            {
              "internalType": "string",
              "name": "handlerName",
              "type": "string"
            },
            {
              "internalType": "string",
              "name": "state",
              "type": "string"
            }
          ],
          "internalType": "struct ChainOfCustody.BlockInfo[]",
          "name": "",
          "type": "tuple[]"
        }
      ],
      "stateMutability": "view",
      "type": "function",
      "constant": true
    },
    {
      "inputs": [
        {
          "internalType": "uint32",
          "name": "_evidenceItemId",
          "type": "uint32"
        },
        {
          "internalType": "string",
          "name": "_reason",
          "type": "string"
        },
        {
          "internalType": "string",
          "name": "_ownerInfo",
          "type": "string"
        }
      ],
      "name": "removeEvidenceItem",
      "outputs": [],
      "stateMutability": "nonpayable",
      "type": "function"
    }
  ],
  "bytecode": "0x608060405234801561001057600080fd5b50613549806100206000396000f3fe608060405234801561001057600080fd5b50600436106100935760003560e01c8063b35af6c311610066578063b35af6c31461011e578063bfc260de1461014e578063c25b1eaf1461016a578063d2bacbc8146101a3578063e61f36ae146101bf57610093565b8063065cb594146100985780631da10984146100b6578063458c2682146100d25780634f54e92414610102575b600080fd5b6100a06101ef565b6040516100ad9190612d3a565b60405180910390f35b6100d060048036038101906100cb91906124a4565b6105b8565b005b6100ec60048036038101906100e7919061247b565b610874565b6040516100f99190612d18565b60405180910390f35b61011c600480360381019061011791906124a4565b610d36565b005b6101386004803603810190610133919061247b565b61116c565b6040516101459190612d7e565b60405180910390f35b610168600480360381019061016391906123a7565b61118c565b005b610184600480360381019061017f9190612452565b611301565b60405161019a9a99989796959493929190612d99565b60405180910390f35b6101bd60048036038101906101b891906124a4565b61165d565b005b6101d960048036038101906101d4919061237e565b611a17565b6040516101e69190612d5c565b60405180910390f35b60606000808054905067ffffffffffffffff811115610237577f4e487b7100000000000000000000000000000000000000000000000000000000600052604160045260246000fd5b6040519080825280602002602001820160405280156102655781602001602082028036833780820191505090505b5090506000805b600080549050811015610470576000805b8381101561037457600083815481106102bf577f4e487b7100000000000000000000000000000000000000000000000000000000600052603260045260246000fd5b906000526020600020906008020160010160089054906101000a90046fffffffffffffffffffffffffffffffff166fffffffffffffffffffffffffffffffff16858281518110610338577f4e487b7100000000000000000000000000000000000000000000000000000000600052603260045260246000fd5b60200260200101516fffffffffffffffffffffffffffffffff1614156103615760019150610374565b808061036c90613380565b91505061027d565b508061045c57600082815481106103b4577f4e487b7100000000000000000000000000000000000000000000000000000000600052603260045260246000fd5b906000526020600020906008020160010160089054906101000a90046fffffffffffffffffffffffffffffffff1684848151811061041b577f4e487b7100000000000000000000000000000000000000000000000000000000600052603260045260246000fd5b60200260200101906fffffffffffffffffffffffffffffffff1690816fffffffffffffffffffffffffffffffff1681525050828061045890613380565b9350505b50808061046890613380565b91505061026c565b5060008167ffffffffffffffff8111156104b3577f4e487b7100000000000000000000000000000000000000000000000000000000600052604160045260246000fd5b6040519080825280602002602001820160405280156104e15781602001602082028036833780820191505090505b50905060005b828110156105ae57838181518110610528577f4e487b7100000000000000000000000000000000000000000000000000000000600052603260045260246000fd5b6020026020010151828281518110610569577f4e487b7100000000000000000000000000000000000000000000000000000000600052603260045260246000fd5b60200260200101906fffffffffffffffffffffffffffffffff1690816fffffffffffffffffffffffffffffffff168152505080806105a690613380565b9150506104e7565b5080935050505090565b600160008463ffffffff1663ffffffff16815260200190815260200160002060009054906101000a900460ff16610624576040517f08c379a000000000000000000000000000000000000000000000000000000000815260040161061b90612ed8565b60405180910390fd5b60008060016000805490506106399190613278565b81548110610670577f4e487b7100000000000000000000000000000000000000000000000000000000600052603260045260246000fd5b9060005260206000209060080201905060405160200161068f90612cee565b60405160208183030381529060405280519060200120816002016040516020016106b99190612cd7565b604051602081830303815290604052805190602001201415610710576040517f08c379a000000000000000000000000000000000000000000000000000000000815260040161070790612e78565b60405180910390fd5b61080f8160010160089054906101000a90046fffffffffffffffffffffffffffffffff16856040518060400160405280600981526020017f434845434b4544494e000000000000000000000000000000000000000000000081525086866040518060200160405280600081525087600701805461078c9061334e565b80601f01602080910402602001604051908101604052809291908181526020018280546107b89061334e565b80156108055780601f106107da57610100808354040283529160200191610805565b820191906000526020600020905b8154815290600101906020018083116107e857829003601f168201915b5050505050611d37565b7f44d659db232b167aceca42204e10ebf4f34fe865b7f8911e56bb7e4fe141eb248160010160089054906101000a90046fffffffffffffffffffffffffffffffff1685428686604051610866959493929190613043565b60405180910390a150505050565b60606000808054905067ffffffffffffffff8111156108bc577f4e487b7100000000000000000000000000000000000000000000000000000000600052604160045260246000fd5b6040519080825280602002602001820160405280156108f557816020015b6108e26120ed565b8152602001906001900390816108da5790505b5090506000805b600080549050811015610c08578463ffffffff166000828154811061094a577f4e487b7100000000000000000000000000000000000000000000000000000000600052603260045260246000fd5b906000526020600020906008020160010160189054906101000a900463ffffffff1663ffffffff161415610bf5576040518060600160405280600083815481106109bd577f4e487b7100000000000000000000000000000000000000000000000000000000600052603260045260246000fd5b906000526020600020906008020160010160009054906101000a900467ffffffffffffffff1667ffffffffffffffff16815260200160008381548110610a2c577f4e487b7100000000000000000000000000000000000000000000000000000000600052603260045260246000fd5b90600052602060002090600802016003018054610a489061334e565b80601f0160208091040260200160405190810160405280929190818152602001828054610a749061334e565b8015610ac15780601f10610a9657610100808354040283529160200191610ac1565b820191906000526020600020905b815481529060010190602001808311610aa457829003601f168201915b5050505050815260200160008381548110610b05577f4e487b7100000000000000000000000000000000000000000000000000000000600052603260045260246000fd5b90600052602060002090600802016002018054610b219061334e565b80601f0160208091040260200160405190810160405280929190818152602001828054610b4d9061334e565b8015610b9a5780601f10610b6f57610100808354040283529160200191610b9a565b820191906000526020600020905b815481529060010190602001808311610b7d57829003601f168201915b5050505050815250838381518110610bdb577f4e487b7100000000000000000000000000000000000000000000000000000000600052603260045260246000fd5b60200260200101819052508180610bf190613380565b9250505b8080610c0090613380565b9150506108fc565b5060008167ffffffffffffffff811115610c4b577f4e487b7100000000000000000000000000000000000000000000000000000000600052604160045260246000fd5b604051908082528060200260200182016040528015610c8457816020015b610c716120ed565b815260200190600190039081610c695790505b50905060005b82811015610d2a57838181518110610ccb577f4e487b7100000000000000000000000000000000000000000000000000000000600052603260045260246000fd5b6020026020010151828281518110610d0c577f4e487b7100000000000000000000000000000000000000000000000000000000600052603260045260246000fd5b60200260200101819052508080610d2290613380565b915050610c8a565b50809350505050919050565b600160008463ffffffff1663ffffffff16815260200190815260200160002060009054906101000a900460ff16610da2576040517f08c379a0000000000000000000000000000000000000000000000000000000008152600401610d9990612ed8565b60405180910390fd5b6000806001600080549050610db79190613278565b81548110610dee577f4e487b7100000000000000000000000000000000000000000000000000000000600052603260045260246000fd5b906000526020600020906008020190508363ffffffff168160010160189054906101000a900463ffffffff1663ffffffff1614610e60576040517f08c379a0000000000000000000000000000000000000000000000000000000008152600401610e5790612e98565b60405180910390fd5b604051602001610e6f90612d03565b6040516020818303038152906040528051906020012081600201604051602001610e999190612cd7565b604051602081830303815290604052805190602001201415610ef0576040517f08c379a0000000000000000000000000000000000000000000000000000000008152600401610ee790612e78565b60405180910390fd5b6111078160010160089054906101000a90046fffffffffffffffffffffffffffffffff16856040518060400160405280600a81526020017f434845434b45444f555400000000000000000000000000000000000000000000815250846003018054610f5a9061334e565b80601f0160208091040260200160405190810160405280929190818152602001828054610f869061334e565b8015610fd35780601f10610fa857610100808354040283529160200191610fd3565b820191906000526020600020905b815481529060010190602001808311610fb657829003601f168201915b5050505050856004018054610fe79061334e565b80601f01602080910402602001604051908101604052809291908181526020018280546110139061334e565b80156110605780601f1061103557610100808354040283529160200191611060565b820191906000526020600020905b81548152906001019060200180831161104357829003601f168201915b5050505050604051806020016040528060008152508760070180546110849061334e565b80601f01602080910402602001604051908101604052809291908181526020018280546110b09061334e565b80156110fd5780601f106110d2576101008083540402835291602001916110fd565b820191906000526020600020905b8154815290600101906020018083116110e057829003601f168201915b5050505050611d37565b7f8d091e6724281a24ed036e6fc30d2d911d68131901cf4e8e63b0ac0247f5047d8160010160089054906101000a90046fffffffffffffffffffffffffffffffff168585854260405161115e959493929190612ef8565b60405180910390a150505050565b60016020528060005260406000206000915054906101000a900460ff1681565b60005b83518110156112fa57600160008583815181106111d5577f4e487b7100000000000000000000000000000000000000000000000000000000600052603260045260246000fd5b602002602001015163ffffffff1663ffffffff16815260200190815260200160002060009054906101000a900460ff1615611245576040517f08c379a000000000000000000000000000000000000000000000000000000000815260040161123c90612eb8565b60405180910390fd5b6112e785858381518110611282577f4e487b7100000000000000000000000000000000000000000000000000000000600052603260045260246000fd5b60200260200101516040518060400160405280600981526020017f434845434b4544494e000000000000000000000000000000000000000000000081525086866040518060200160405280600081525060405180602001604052806000815250611d37565b80806112f290613380565b91505061118f565b5050505050565b6000818154811061131157600080fd5b90600052602060002090600802016000915090508060000154908060010160009054906101000a900467ffffffffffffffff16908060010160089054906101000a90046fffffffffffffffffffffffffffffffff16908060010160189054906101000a900463ffffffff169080600201805461138c9061334e565b80601f01602080910402602001604051908101604052809291908181526020018280546113b89061334e565b80156114055780601f106113da57610100808354040283529160200191611405565b820191906000526020600020905b8154815290600101906020018083116113e857829003601f168201915b50505050509080600301805461141a9061334e565b80601f01602080910402602001604051908101604052809291908181526020018280546114469061334e565b80156114935780601f1061146857610100808354040283529160200191611493565b820191906000526020600020905b81548152906001019060200180831161147657829003601f168201915b5050505050908060040180546114a89061334e565b80601f01602080910402602001604051908101604052809291908181526020018280546114d49061334e565b80156115215780601f106114f657610100808354040283529160200191611521565b820191906000526020600020905b81548152906001019060200180831161150457829003601f168201915b5050505050908060050180546115369061334e565b80601f01602080910402602001604051908101604052809291908181526020018280546115629061334e565b80156115af5780601f10611584576101008083540402835291602001916115af565b820191906000526020600020905b81548152906001019060200180831161159257829003601f168201915b5050505050908060060160009054906101000a900463ffffffff16908060070180546115da9061334e565b80601f01602080910402602001604051908101604052809291908181526020018280546116069061334e565b80156116535780601f1061162857610100808354040283529160200191611653565b820191906000526020600020905b81548152906001019060200180831161163657829003601f168201915b505050505090508a565b600160008463ffffffff1663ffffffff16815260200190815260200160002060009054906101000a900460ff166116c9576040517f08c379a00000000000000000000000000000000000000000000000000000000081526004016116c090612ed8565b60405180910390fd5b60008060016000805490506116de9190613278565b81548110611715577f4e487b7100000000000000000000000000000000000000000000000000000000600052603260045260246000fd5b906000526020600020906008020190508363ffffffff168160010160189054906101000a900463ffffffff1663ffffffff161480156117a0575060405160200161175e90612cee565b60405160208183030381529060405280519060200120816002016040516020016117889190612cd7565b60405160208183030381529060405280519060200120145b6117df576040517f08c379a00000000000000000000000000000000000000000000000000000000081526004016117d690612e58565b60405180910390fd5b6119b28160010160089054906101000a90046fffffffffffffffffffffffffffffffff1685858460030180546118149061334e565b80601f01602080910402602001604051908101604052809291908181526020018280546118409061334e565b801561188d5780601f106118625761010080835404028352916020019161188d565b820191906000526020600020905b81548152906001019060200180831161187057829003601f168201915b50505050508560040180546118a19061334e565b80601f01602080910402602001604051908101604052809291908181526020018280546118cd9061334e565b801561191a5780601f106118ef5761010080835404028352916020019161191a565b820191906000526020600020905b8154815290600101906020018083116118fd57829003601f168201915b50505050508787600701805461192f9061334e565b80601f016020809104026020016040519081016040528092919081815260200182805461195b9061334e565b80156119a85780601f1061197d576101008083540402835291602001916119a8565b820191906000526020600020905b81548152906001019060200180831161198b57829003601f168201915b5050505050611d37565b7f131b0104fffef9791a656820b9d5349cb76c71fee3129316cd22fb398cee5b5d8160010160089054906101000a90046fffffffffffffffffffffffffffffffff1685428686604051611a09959493929190612f6c565b60405180910390a150505050565b60606000808054905067ffffffffffffffff811115611a5f577f4e487b7100000000000000000000000000000000000000000000000000000000600052604160045260246000fd5b604051908082528060200260200182016040528015611a8d5781602001602082028036833780820191505090505b5090506000805b600080549050811015611c0557846fffffffffffffffffffffffffffffffff1660008281548110611aee577f4e487b7100000000000000000000000000000000000000000000000000000000600052603260045260246000fd5b906000526020600020906008020160010160089054906101000a90046fffffffffffffffffffffffffffffffff166fffffffffffffffffffffffffffffffff161415611bf25760008181548110611b6e577f4e487b7100000000000000000000000000000000000000000000000000000000600052603260045260246000fd5b906000526020600020906008020160010160189054906101000a900463ffffffff16838381518110611bc9577f4e487b7100000000000000000000000000000000000000000000000000000000600052603260045260246000fd5b602002602001019063ffffffff16908163ffffffff16815250508180611bee90613380565b9250505b8080611bfd90613380565b915050611a94565b5060008167ffffffffffffffff811115611c48577f4e487b7100000000000000000000000000000000000000000000000000000000600052604160045260246000fd5b604051908082528060200260200182016040528015611c765781602001602082028036833780820191505090505b50905060005b82811015611d2b57838181518110611cbd577f4e487b7100000000000000000000000000000000000000000000000000000000600052603260045260246000fd5b6020026020010151828281518110611cfe577f4e487b7100000000000000000000000000000000000000000000000000000000600052603260045260246000fd5b602002602001019063ffffffff16908163ffffffff16815250508080611d2390613380565b915050611c7c565b50809350505050919050565b60008060008054905011611d4e576000801b611d57565b611d56611fe2565b5b9050600042905060008351905060006040518061014001604052808581526020018467ffffffffffffffff1681526020018c6fffffffffffffffffffffffffffffffff1681526020018b63ffffffff1681526020018a81526020018981526020018881526020018781526020018363ffffffff16815260200186815250905060008190806001815401808255809150506001900390600052602060002090600802016000909190919091506000820151816000015560208201518160010160006101000a81548167ffffffffffffffff021916908367ffffffffffffffff16021790555060408201518160010160086101000a8154816fffffffffffffffffffffffffffffffff02191690836fffffffffffffffffffffffffffffffff16021790555060608201518160010160186101000a81548163ffffffff021916908363ffffffff1602179055506080820151816002019080519060200190611ebd929190612118565b5060a0820151816003019080519060200190611eda929190612118565b5060c0820151816004019080519060200190611ef7929190612118565b5060e0820151816005019080519060200190611f14929190612118565b506101008201518160060160006101000a81548163ffffffff021916908363ffffffff160217905550610120820151816007019080519060200190611f5a92919061219e565b50505060018060008c63ffffffff1663ffffffff16815260200190815260200160002060006101000a81548160ff0219169083151502179055507f33a1c1a3b9a16d06083c74dc302e2fcc5be80f5e5aa2ae9a270c78f82731b11b8b8b858c8c8c604051611fcd96959493929190612fcd565b60405180910390a15050505050505050505050565b60008060006001600080549050611ff99190613278565b81548110612030577f4e487b7100000000000000000000000000000000000000000000000000000000600052603260045260246000fd5b9060005260206000209060080201905080600001548160010160009054906101000a900467ffffffffffffffff168260010160089054906101000a90046fffffffffffffffffffffffffffffffff168360010160189054906101000a900463ffffffff168460020185600301866004018760060160009054906101000a900463ffffffff16886007016040516020016120d199989796959493929190612c44565b6040516020818303038152906040528051906020012091505090565b6040518060600160405280600067ffffffffffffffff16815260200160608152602001606081525090565b8280546121249061334e565b90600052602060002090601f016020900481019282612146576000855561218d565b82601f1061215f57805160ff191683800117855561218d565b8280016001018555821561218d579182015b8281111561218c578251825591602001919060010190612171565b5b50905061219a9190612224565b5090565b8280546121aa9061334e565b90600052602060002090601f0160209004810192826121cc5760008555612213565b82601f106121e557805160ff1916838001178555612213565b82800160010185558215612213579182015b828111156122125782518255916020019190600101906121f7565b5b5090506122209190612224565b5090565b5b8082111561223d576000816000905550600101612225565b5090565b600061225461224f846130e8565b6130b7565b9050808382526020820190508285602086028201111561227357600080fd5b60005b858110156122a357816122898882612369565b845260208401935060208301925050600181019050612276565b5050509392505050565b60006122c06122bb84613114565b6130b7565b9050828152602081018484840111156122d857600080fd5b6122e384828561330c565b509392505050565b600082601f8301126122fc57600080fd5b813561230c848260208601612241565b91505092915050565b600082601f83011261232657600080fd5b81356123368482602086016122ad565b91505092915050565b60008135905061234e816134ce565b92915050565b600081359050612363816134e5565b92915050565b600081359050612378816134fc565b92915050565b60006020828403121561239057600080fd5b600061239e8482850161233f565b91505092915050565b600080600080608085870312156123bd57600080fd5b60006123cb8782880161233f565b945050602085013567ffffffffffffffff8111156123e857600080fd5b6123f4878288016122eb565b935050604085013567ffffffffffffffff81111561241157600080fd5b61241d87828801612315565b925050606085013567ffffffffffffffff81111561243a57600080fd5b61244687828801612315565b91505092959194509250565b60006020828403121561246457600080fd5b600061247284828501612354565b91505092915050565b60006020828403121561248d57600080fd5b600061249b84828501612369565b91505092915050565b6000806000606084860312156124b957600080fd5b60006124c786828701612369565b935050602084013567ffffffffffffffff8111156124e457600080fd5b6124f086828701612315565b925050604084013567ffffffffffffffff81111561250d57600080fd5b61251986828701612315565b9150509250925092565b600061252f8383612b4e565b905092915050565b60006125438383612ba5565b60208301905092915050565b600061255b8383612bda565b60208301905092915050565b60006125728261319e565b61257c81856131fc565b93508360208202850161258e85613144565b8060005b858110156125ca57848403895281516125ab8582612523565b94506125b6836131d5565b925060208a01995050600181019050612592565b50829750879550505050505092915050565b60006125e7826131a9565b6125f1818561320d565b93506125fc83613154565b8060005b8381101561262d5781516126148882612537565b975061261f836131e2565b925050600181019050612600565b5085935050505092915050565b6000612645826131b4565b61264f818561321e565b935061265a83613164565b8060005b8381101561268b578151612672888261254f565b975061267d836131ef565b92505060018101905061265e565b5085935050505092915050565b6126a1816132ac565b82525050565b6126b0816132b8565b82525050565b6126c76126c2826132b8565b6133c9565b82525050565b60006126d8826131bf565b6126e2818561322f565b93506126f281856020860161331b565b6126fb81613496565b840191505092915050565b600081546127138161334e565b61271d8186613240565b9450600182166000811461273857600181146127495761277c565b60ff1983168652818601935061277c565b61275285613174565b60005b8381101561277457815481890152600182019150602081019050612755565b838801955050505b50505092915050565b6000612790826131ca565b61279a818561324b565b93506127aa81856020860161331b565b6127b381613496565b840191505092915050565b60006127c9826131ca565b6127d3818561325c565b93506127e381856020860161331b565b6127ec81613496565b840191505092915050565b600081546128048161334e565b61280e818661326d565b94506001821660008114612829576001811461283a5761286d565b60ff1983168652818601935061286d565b61284385613189565b60005b8381101561286557815481890152600182019150602081019050612846565b838801955050505b50505092915050565b600061288360098361325c565b91507f434845434b4544494e00000000000000000000000000000000000000000000006000830152602082019050919050565b60006128c360098361326d565b91507f434845434b4544494e00000000000000000000000000000000000000000000006000830152600982019050919050565b6000612903602d8361325c565b91507f4572726f723a204974656d206d75737420626520636865636b656420696e207460008301527f6f2062652072656d6f7665642e000000000000000000000000000000000000006020830152604082019050919050565b6000612969600a8361325c565b91507f434845434b45444f5554000000000000000000000000000000000000000000006000830152602082019050919050565b60006129a9600a8361326d565b91507f434845434b45444f5554000000000000000000000000000000000000000000006000830152600a82019050919050565b60006129e960438361325c565b91507f4572726f723a2043616e6e6f7420636865636b206f7574206120636865636b6560008301527f64206f7574206974656d2e204d75737420636865636b20697420696e2066697260208301527f73742e00000000000000000000000000000000000000000000000000000000006040830152606082019050919050565b6000612a75601b8361325c565b91507f4572726f723a2057726f6e672065766964656e6365206974656d2e00000000006000830152602082019050919050565b6000612ab5601f8361325c565b91507f45766964656e6365206974656d204944206d75737420626520756e69717565006000830152602082019050919050565b6000612af560248361325c565b91507f4572726f723a2045766964656e6365206974656d20646f6573206e6f7420657860008301527f6973742e000000000000000000000000000000000000000000000000000000006020830152604082019050919050565b6000606083016000830151612b666000860182612c0f565b5060208301518482036020860152612b7e8282612785565b91505060408301518482036040860152612b988282612785565b9150508091505092915050565b612bae816132c2565b82525050565b612bbd816132c2565b82525050565b612bd4612bcf826132c2565b6133d3565b82525050565b612be3816132e8565b82525050565b612bf2816132e8565b82525050565b612c09612c04826132e8565b6133e5565b82525050565b612c18816132f8565b82525050565b612c27816132f8565b82525050565b612c3e612c39826132f8565b6133f7565b82525050565b6000612c50828c6126b6565b602082019150612c60828b612c2d565b600882019150612c70828a612bc3565b601082019150612c808289612bf8565b600482019150612c9082886127f7565b9150612c9c82876127f7565b9150612ca882866127f7565b9150612cb48285612bf8565b600482019150612cc48284612706565b91508190509a9950505050505050505050565b6000612ce382846127f7565b915081905092915050565b6000612cf9826128b6565b9150819050919050565b6000612d0e8261299c565b9150819050919050565b60006020820190508181036000830152612d328184612567565b905092915050565b60006020820190508181036000830152612d5481846125dc565b905092915050565b60006020820190508181036000830152612d76818461263a565b905092915050565b6000602082019050612d936000830184612698565b92915050565b600061014082019050612daf600083018d6126a7565b612dbc602083018c612c1e565b612dc9604083018b612bb4565b612dd6606083018a612be9565b8181036080830152612de881896127be565b905081810360a0830152612dfc81886127be565b905081810360c0830152612e1081876127be565b905081810360e0830152612e2481866127be565b9050612e34610100830185612be9565b818103610120830152612e4781846126cd565b90509b9a5050505050505050505050565b60006020820190508181036000830152612e71816128f6565b9050919050565b60006020820190508181036000830152612e91816129dc565b9050919050565b60006020820190508181036000830152612eb181612a68565b9050919050565b60006020820190508181036000830152612ed181612aa8565b9050919050565b60006020820190508181036000830152612ef181612ae8565b9050919050565b600060c082019050612f0d6000830188612bb4565b612f1a6020830187612be9565b8181036040830152612f2c81866127be565b90508181036060830152612f4081856127be565b9050612f4f6080830184612c1e565b81810360a0830152612f608161295c565b90509695505050505050565b600060a082019050612f816000830188612bb4565b612f8e6020830187612be9565b612f9b6040830186612c1e565b8181036060830152612fad81856127be565b90508181036080830152612fc181846127be565b90509695505050505050565b600060c082019050612fe26000830189612bb4565b612fef6020830188612be9565b612ffc6040830187612c1e565b818103606083015261300e81866127be565b9050818103608083015261302281856127be565b905081810360a083015261303681846127be565b9050979650505050505050565b600060c0820190506130586000830188612bb4565b6130656020830187612be9565b6130726040830186612c1e565b818103606083015261308381612876565b9050818103608083015261309781856127be565b905081810360a08301526130ab81846127be565b90509695505050505050565b6000604051905081810181811067ffffffffffffffff821117156130de576130dd613467565b5b8060405250919050565b600067ffffffffffffffff82111561310357613102613467565b5b602082029050602081019050919050565b600067ffffffffffffffff82111561312f5761312e613467565b5b601f19601f8301169050602081019050919050565b6000819050602082019050919050565b6000819050602082019050919050565b6000819050602082019050919050565b60008190508160005260206000209050919050565b60008190508160005260206000209050919050565b600081519050919050565b600081519050919050565b600081519050919050565b600081519050919050565b600081519050919050565b6000602082019050919050565b6000602082019050919050565b6000602082019050919050565b600082825260208201905092915050565b600082825260208201905092915050565b600082825260208201905092915050565b600082825260208201905092915050565b600081905092915050565b600082825260208201905092915050565b600082825260208201905092915050565b600081905092915050565b6000613283826132de565b915061328e836132de565b9250828210156132a1576132a0613409565b5b828203905092915050565b60008115159050919050565b6000819050919050565b60006fffffffffffffffffffffffffffffffff82169050919050565b6000819050919050565b600063ffffffff82169050919050565b600067ffffffffffffffff82169050919050565b82818337600083830152505050565b60005b8381101561333957808201518184015260208101905061331e565b83811115613348576000848401525b50505050565b6000600282049050600182168061336657607f821691505b6020821081141561337a57613379613438565b5b50919050565b600061338b826132de565b91507fffffffffffffffffffffffffffffffffffffffffffffffffffffffffffffffff8214156133be576133bd613409565b5b600182019050919050565b6000819050919050565b60006133de826134a7565b9050919050565b60006133f0826134c1565b9050919050565b6000613402826134b4565b9050919050565b7f4e487b7100000000000000000000000000000000000000000000000000000000600052601160045260246000fd5b7f4e487b7100000000000000000000000000000000000000000000000000000000600052602260045260246000fd5b7f4e487b7100000000000000000000000000000000000000000000000000000000600052604160045260246000fd5b6000601f19601f8301169050919050565b60008160801b9050919050565b60008160c01b9050919050565b60008160e01b9050919050565b6134d7816132c2565b81146134e257600080fd5b50565b6134ee816132de565b81146134f957600080fd5b50565b613505816132e8565b811461351057600080fd5b5056fea2646970667358221220cd2494fabe18a026a0ce3a5507814c0baa760cd2800b09f78b9885f6fac2d55264736f6c63430008000033",
  "immutableReferences": {},
  "source": "// SPDX-License-Identifier: MIT\r\npragma solidity ^0.8.0;\r\n\r\ncontract ChainOfCustody {\r\n    struct Block {\r\n        bytes32 previousHash;\r\n        uint64 timestamp;\r\n        uint128 caseId;\r\n        uint32 evidenceItemId;\r\n        string state;\r\n        string handlerName; // Changed from bytes20 to string\r\n        string organizationName; // Changed from bytes20 to string\r\n        string reason;\r\n        uint32 dataLength;\r\n        bytes data;\r\n    }\r\n\r\n    Block[] public blockchain;\r\n    mapping(uint32 => bool) public evidenceExists;\r\n\r\n    // Updated event to use strings\r\n    event EvidenceItemAdded(\r\n        uint128 caseId,\r\n        uint32 evidenceItemId,\r\n        uint64 timestamp,\r\n        string state,\r\n        string handlerName,\r\n        string organizationName\r\n    );\r\n\r\n    // Updated function to accept string parameters\r\n    function addEvidenceItems(\r\n        uint128 _caseId,\r\n        uint32[] memory _itemIds,\r\n        string memory _handlerName,\r\n        string memory _organizationName\r\n    ) public {\r\n        for (uint i = 0; i < _itemIds.length; i++) {\r\n            require(\r\n                !evidenceExists[_itemIds[i]],\r\n                \"Evidence item ID must be unique\"\r\n            );\r\n            addBlock(\r\n                _caseId,\r\n                _itemIds[i],\r\n                \"CHECKEDIN\",\r\n                _handlerName,\r\n                _organizationName,\r\n                \"\",\r\n                \"\"\r\n            );\r\n        }\r\n    }\r\n\r\n    // Updated function to accept string parameters\r\n    function addBlock(\r\n        uint128 _caseId,\r\n        uint32 _evidenceItemId,\r\n        string memory _state,\r\n        string memory _handlerName,\r\n        string memory _organizationName,\r\n        string memory _reason,\r\n        bytes memory _data\r\n    ) private {\r\n        bytes32 previousHash = blockchain.length > 0\r\n            ? getLatestBlockHash()\r\n            : bytes32(0);\r\n        uint64 timestamp = uint64(block.timestamp);\r\n        uint32 dataLength = uint32(_data.length);\r\n\r\n        Block memory newBlock = Block(\r\n            previousHash,\r\n            timestamp,\r\n            _caseId,\r\n            _evidenceItemId,\r\n            _state,\r\n            _handlerName,\r\n            _organizationName,\r\n            _reason,\r\n            dataLength,\r\n            _data\r\n        );\r\n\r\n        blockchain.push(newBlock);\r\n        evidenceExists[_evidenceItemId] = true;\r\n\r\n        emit EvidenceItemAdded(\r\n            _caseId,\r\n            _evidenceItemId,\r\n            timestamp,\r\n            _state,\r\n            _handlerName,\r\n            _organizationName\r\n        );\r\n    }\r\n\r\n    function getLatestBlockHash() private view returns (bytes32) {\r\n        Block storage lastBlock = blockchain[blockchain.length - 1];\r\n        return\r\n            keccak256(\r\n                abi.encodePacked(\r\n                    lastBlock.previousHash,\r\n                    lastBlock.timestamp,\r\n                    lastBlock.caseId,\r\n                    lastBlock.evidenceItemId,\r\n                    lastBlock.state,\r\n                    lastBlock.handlerName,\r\n                    lastBlock.organizationName,\r\n                    lastBlock.dataLength,\r\n                    lastBlock.data\r\n                )\r\n            );\r\n    }\r\n\r\n    event EvidenceItemCheckedOut(\r\n        uint128 caseId,\r\n        uint32 evidenceItemId,\r\n        string handlerName,\r\n        string organizationName,\r\n        uint64 timestamp,\r\n        string state\r\n    );\r\n\r\n    function checkoutEvidenceItem(uint32 _evidenceItemId, string memory _handlerName, string memory _organizationName) public {\r\n        require(\r\n            evidenceExists[_evidenceItemId],\r\n            \"Error: Evidence item does not exist.\"\r\n        );\r\n        Block storage lastBlock = blockchain[blockchain.length - 1];\r\n        require(\r\n            lastBlock.evidenceItemId == _evidenceItemId,\r\n            \"Error: Wrong evidence item.\"\r\n        );\r\n        require(\r\n            keccak256(abi.encodePacked(lastBlock.state)) !=\r\n                keccak256(abi.encodePacked(\"CHECKEDOUT\")),\r\n            \"Error: Cannot check out a checked out item. Must check it in first.\"\r\n        );\r\n\r\n        // Assuming 'addBlock' function updates the state and creates a new block in the blockchain\r\n        addBlock(\r\n            lastBlock.caseId,\r\n            _evidenceItemId,\r\n            \"CHECKEDOUT\",\r\n            lastBlock.handlerName,\r\n            lastBlock.organizationName,\r\n            \"\",\r\n            lastBlock.data\r\n        );\r\n        emit EvidenceItemCheckedOut(\r\n            lastBlock.caseId,\r\n            _evidenceItemId,\r\n            _handlerName,\r\n            _organizationName,\r\n            uint64(block.timestamp),\r\n            \"CHECKEDOUT\"\r\n        );\r\n    }\r\n\r\n    event EvidenceItemCheckedIn(\r\n        uint128 caseId,\r\n        uint32 evidenceItemId,\r\n        uint64 timestamp,\r\n        string state,\r\n        string handlerName,\r\n        string organizationName\r\n    );\r\n\r\n    function checkinEvidenceItem(\r\n        uint32 _evidenceItemId,\r\n        string memory _handlerName,\r\n        string memory _organizationName\r\n        \r\n    ) public {\r\n        require(\r\n            evidenceExists[_evidenceItemId],\r\n            \"Error: Evidence item does not exist.\"\r\n        );\r\n\r\n        // Check if the item is not already checked in\r\n        Block storage lastBlock = blockchain[blockchain.length - 1];\r\n        require(\r\n            keccak256(abi.encodePacked(lastBlock.state)) !=\r\n                keccak256(abi.encodePacked(\"CHECKEDIN\")),\r\n            \"Error: Cannot check out a checked out item. Must check it in first.\"\r\n        );\r\n\r\n        // Add a new block for checkin\r\n        addBlock(\r\n            lastBlock.caseId,\r\n            _evidenceItemId,\r\n            \"CHECKEDIN\",\r\n            _handlerName,\r\n            _organizationName,\r\n            \"\",\r\n            lastBlock.data\r\n        );\r\n        emit EvidenceItemCheckedIn(\r\n            lastBlock.caseId,\r\n            _evidenceItemId,\r\n            uint64(block.timestamp),\r\n            \"CHECKEDIN\",\r\n            _handlerName,\r\n            _organizationName\r\n        );\r\n    }\r\n\r\n    function getCases() public view returns (uint128[] memory) {\r\n        uint128[] memory cases = new uint128[](blockchain.length);\r\n        uint count = 0;\r\n\r\n        for (uint i = 0; i < blockchain.length; i++) {\r\n            bool exists = false;\r\n            for (uint j = 0; j < count; j++) {\r\n                if (cases[j] == blockchain[i].caseId) {\r\n                    exists = true;\r\n                    break;\r\n                }\r\n            }\r\n            if (!exists) {\r\n                cases[count] = blockchain[i].caseId;\r\n                count++;\r\n            }\r\n        }\r\n\r\n        // Resize the array to fit the actual number of unique cases\r\n        uint128[] memory uniqueCases = new uint128[](count);\r\n        for (uint i = 0; i < count; i++) {\r\n            uniqueCases[i] = cases[i];\r\n        }\r\n\r\n        return uniqueCases;\r\n    }\r\n\r\n    function getItemsForCase(\r\n        uint128 _caseId\r\n    ) public view returns (uint32[] memory) {\r\n        uint32[] memory itemsTemp = new uint32[](blockchain.length);\r\n        uint count = 0;\r\n\r\n        for (uint i = 0; i < blockchain.length; i++) {\r\n            if (blockchain[i].caseId == _caseId) {\r\n                itemsTemp[count] = blockchain[i].evidenceItemId;\r\n                count++;\r\n            }\r\n        }\r\n\r\n        // Resize the array to fit the actual number of items for the case\r\n        uint32[] memory items = new uint32[](count);\r\n        for (uint i = 0; i < count; i++) {\r\n            items[i] = itemsTemp[i];\r\n        }\r\n\r\n        return items;\r\n    }\r\n\r\n    struct BlockInfo {\r\n        uint64 timestamp;\r\n        string handlerName;\r\n        string state;\r\n    }\r\n\r\n    function getItemHistory(\r\n        uint32 _itemId\r\n    ) public view returns (BlockInfo[] memory) {\r\n        BlockInfo[] memory history = new BlockInfo[](blockchain.length);\r\n        uint count = 0;\r\n\r\n        for (uint i = 0; i < blockchain.length; i++) {\r\n            if (blockchain[i].evidenceItemId == _itemId) {\r\n                history[count] = BlockInfo(\r\n                    blockchain[i].timestamp,\r\n                    blockchain[i].handlerName,\r\n                    blockchain[i].state\r\n                );\r\n                count++;\r\n            }\r\n        }\r\n\r\n        // Resize the array to fit the actual number of entries for the item\r\n        BlockInfo[] memory itemHistory = new BlockInfo[](count);\r\n        for (uint i = 0; i < count; i++) {\r\n            itemHistory[i] = history[i];\r\n        }\r\n\r\n        return itemHistory;\r\n    }\r\n\r\n    event EvidenceItemRemoved(\r\n        uint128 caseId,\r\n        uint32 evidenceItemId,\r\n        uint64 timestamp,\r\n        string reason,\r\n        string ownerInfo\r\n    );\r\n\r\n    function removeEvidenceItem(\r\n        uint32 _evidenceItemId,\r\n        string memory _reason,\r\n        string memory _ownerInfo\r\n    ) public {\r\n        require(\r\n            evidenceExists[_evidenceItemId],\r\n            \"Error: Evidence item does not exist.\"\r\n        );\r\n\r\n        Block storage lastBlock = blockchain[blockchain.length - 1];\r\n        require(\r\n            lastBlock.evidenceItemId == _evidenceItemId &&\r\n                keccak256(abi.encodePacked(lastBlock.state)) ==\r\n                keccak256(abi.encodePacked(\"CHECKEDIN\")),\r\n            \"Error: Item must be checked in to be removed.\"\r\n        );\r\n\r\n        // Assuming 'addBlock' function updates the state and creates a new block in the blockchain\r\n        addBlock(\r\n            lastBlock.caseId,\r\n            _evidenceItemId,\r\n            _reason, // Include _reason in the call\r\n            lastBlock.handlerName,\r\n            lastBlock.organizationName,\r\n            _ownerInfo, // Include _ownerInfo\r\n            lastBlock.data\r\n        );\r\n\r\n        emit EvidenceItemRemoved(\r\n            lastBlock.caseId,\r\n            _evidenceItemId,\r\n            uint64(block.timestamp),\r\n            _reason,\r\n            _ownerInfo\r\n        );\r\n    }\r\n}\r\n",
  "sourcePath": "C:\\Users\\ASUS\\Dropbox (ASU)\\MS ASU\\CSE 469 CNF\\GROUP PROJECT\\kuchbi\\blockchain_chain_of_custody\\chain_of_custody\\contracts\\ChainOfCustody.sol",
  "compiler": {
    "name": "solc",
    "version": "0.8.0+commit.c7dfd78e.Emscripten.clang"
  },
  "schemaVersion": "3.4.16",
  "updatedAt": "2023-11-26T07:59:25.596Z",
  "networkType": "ethereum",
  "devdoc": {
    "kind": "dev",
    "methods": {},
    "version": 1
  },
  "userdoc": {
    "kind": "user",
    "methods": {},
    "version": 1
  }
}