{
  "contractName": "ChainOfCustody",
  "abi": [
    {
      "anonymous": false,
      "inputs": [
        {
          "indexed": true,
          "internalType": "uint128",
          "name": "caseId",
          "type": "uint128"
        },
        {
          "indexed": true,
          "internalType": "uint32",
          "name": "evidenceItemId",
          "type": "uint32"
        },
        {
          "indexed": false,
          "internalType": "uint64",
          "name": "timestamp",
          "type": "uint64"
        },
        {
          "indexed": false,
          "internalType": "string",
          "name": "state",
          "type": "string"
        },
        {
          "indexed": false,
          "internalType": "string",
          "name": "handlerName",
          "type": "string"
        },
        {
          "indexed": false,
          "internalType": "string",
          "name": "organizationName",
          "type": "string"
        }
      ],
      "name": "EvidenceItemAdded",
      "type": "event"
    },
    {
      "anonymous": false,
      "inputs": [
        {
          "indexed": true,
          "internalType": "uint128",
          "name": "caseId",
          "type": "uint128"
        },
        {
          "indexed": true,
          "internalType": "uint32",
          "name": "evidenceItemId",
          "type": "uint32"
        },
        {
          "indexed": false,
          "internalType": "uint64",
          "name": "timestamp",
          "type": "uint64"
        },
        {
          "indexed": false,
          "internalType": "string",
          "name": "state",
          "type": "string"
        },
        {
          "indexed": false,
          "internalType": "string",
          "name": "handlerName",
          "type": "string"
        },
        {
          "indexed": false,
          "internalType": "string",
          "name": "organizationName",
          "type": "string"
        }
      ],
      "name": "EvidenceItemCheckedIn",
      "type": "event"
    },
    {
      "anonymous": false,
      "inputs": [
        {
          "indexed": true,
          "internalType": "uint128",
          "name": "caseId",
          "type": "uint128"
        },
        {
          "indexed": true,
          "internalType": "uint32",
          "name": "evidenceItemId",
          "type": "uint32"
        },
        {
          "indexed": false,
          "internalType": "string",
          "name": "handlerName",
          "type": "string"
        },
        {
          "indexed": false,
          "internalType": "string",
          "name": "organizationName",
          "type": "string"
        },
        {
          "indexed": false,
          "internalType": "uint64",
          "name": "timestamp",
          "type": "uint64"
        },
        {
          "indexed": false,
          "internalType": "string",
          "name": "state",
          "type": "string"
        }
      ],
      "name": "EvidenceItemCheckedOut",
      "type": "event"
    },
    {
      "anonymous": false,
      "inputs": [
        {
          "indexed": false,
          "internalType": "uint128",
          "name": "caseId",
          "type": "uint128"
        },
        {
          "indexed": false,
          "internalType": "uint32",
          "name": "evidenceItemId",
          "type": "uint32"
        },
        {
          "indexed": false,
          "internalType": "uint64",
          "name": "timestamp",
          "type": "uint64"
        },
        {
          "indexed": false,
          "internalType": "string",
          "name": "state",
          "type": "string"
        },
        {
          "indexed": false,
          "internalType": "string",
          "name": "reason",
          "type": "string"
        },
        {
          "indexed": false,
          "internalType": "string",
          "name": "ownerInfo",
          "type": "string"
        }
      ],
      "name": "EvidenceItemRemoved",
      "type": "event"
    },
    {
      "inputs": [
        {
          "internalType": "uint256",
          "name": "",
          "type": "uint256"
        }
      ],
      "name": "blockchain",
      "outputs": [
        {
          "internalType": "bytes32",
          "name": "previousHash",
          "type": "bytes32"
        },
        {
          "internalType": "uint64",
          "name": "timestamp",
          "type": "uint64"
        },
        {
          "internalType": "uint128",
          "name": "caseId",
          "type": "uint128"
        },
        {
          "internalType": "uint32",
          "name": "evidenceItemId",
          "type": "uint32"
        },
        {
          "internalType": "string",
          "name": "state",
          "type": "string"
        },
        {
          "internalType": "string",
          "name": "handlerName",
          "type": "string"
        },
        {
          "internalType": "string",
          "name": "organizationName",
          "type": "string"
        },
        {
          "internalType": "string",
          "name": "reason",
          "type": "string"
        },
        {
          "internalType": "string",
          "name": "ownerInfo",
          "type": "string"
        },
        {
          "internalType": "uint32",
          "name": "dataLength",
          "type": "uint32"
        },
        {
          "internalType": "bytes",
          "name": "data",
          "type": "bytes"
        }
      ],
      "stateMutability": "view",
      "type": "function"
    },
    {
      "inputs": [
        {
          "internalType": "uint32",
          "name": "",
          "type": "uint32"
        }
      ],
      "name": "evidenceExists",
      "outputs": [
        {
          "internalType": "bool",
          "name": "",
          "type": "bool"
        }
      ],
      "stateMutability": "view",
      "type": "function"
    },
    {
      "inputs": [
        {
          "internalType": "uint128",
          "name": "_caseId",
          "type": "uint128"
        },
        {
          "internalType": "uint32[]",
          "name": "_itemIds",
          "type": "uint32[]"
        },
        {
          "internalType": "string",
          "name": "_handlerName",
          "type": "string"
        },
        {
          "internalType": "string",
          "name": "_organizationName",
          "type": "string"
        }
      ],
      "name": "addEvidenceItems",
      "outputs": [],
      "stateMutability": "nonpayable",
      "type": "function"
    },
    {
      "inputs": [
        {
          "internalType": "uint32",
          "name": "_evidenceItemId",
          "type": "uint32"
        },
        {
          "internalType": "string",
          "name": "_handlerName",
          "type": "string"
        },
        {
          "internalType": "string",
          "name": "_organizationName",
          "type": "string"
        }
      ],
      "name": "checkoutEvidenceItem",
      "outputs": [],
      "stateMutability": "nonpayable",
      "type": "function"
    },
    {
      "inputs": [
        {
          "internalType": "uint32",
          "name": "_evidenceItemId",
          "type": "uint32"
        },
        {
          "internalType": "string",
          "name": "_handlerName",
          "type": "string"
        },
        {
          "internalType": "string",
          "name": "_organizationName",
          "type": "string"
        }
      ],
      "name": "checkinEvidenceItem",
      "outputs": [],
      "stateMutability": "nonpayable",
      "type": "function"
    },
    {
      "inputs": [],
      "name": "getCases",
      "outputs": [
        {
          "internalType": "uint128[]",
          "name": "",
          "type": "uint128[]"
        }
      ],
      "stateMutability": "view",
      "type": "function"
    },
    {
      "inputs": [
        {
          "internalType": "uint128",
          "name": "_caseId",
          "type": "uint128"
        }
      ],
      "name": "getItemsForCase",
      "outputs": [
        {
          "internalType": "uint32[]",
          "name": "",
          "type": "uint32[]"
        }
      ],
      "stateMutability": "view",
      "type": "function"
    },
    {
      "inputs": [
        {
          "internalType": "uint32",
          "name": "_itemId",
          "type": "uint32"
        }
      ],
      "name": "getItemHistory",
      "outputs": [
        {
          "components": [
            {
              "internalType": "uint128",
              "name": "caseId",
              "type": "uint128"
            },
            {
              "internalType": "uint32",
              "name": "evidenceItemId",
              "type": "uint32"
            },
            {
              "internalType": "uint64",
              "name": "timestamp",
              "type": "uint64"
            },
            {
              "internalType": "string",
              "name": "state",
              "type": "string"
            },
            {
              "internalType": "string",
              "name": "handlerName",
              "type": "string"
            }
          ],
          "internalType": "struct ChainOfCustody.BlockInfo[]",
          "name": "",
          "type": "tuple[]"
        }
      ],
      "stateMutability": "view",
      "type": "function"
    },
    {
      "inputs": [
        {
          "internalType": "uint32",
          "name": "_evidenceItemId",
          "type": "uint32"
        },
        {
          "internalType": "string",
          "name": "_reason",
          "type": "string"
        },
        {
          "internalType": "string",
          "name": "_ownerInfo",
          "type": "string"
        }
      ],
      "name": "removeEvidenceItem",
      "outputs": [],
      "stateMutability": "nonpayable",
      "type": "function"
    },
    {
      "inputs": [],
      "name": "getBlockCount",
      "outputs": [
        {
          "internalType": "uint256",
          "name": "",
          "type": "uint256"
        }
      ],
      "stateMutability": "view",
      "type": "function"
    },
    {
      "inputs": [],
      "name": "verifyBlockchain",
      "outputs": [
        {
          "internalType": "string",
          "name": "",
          "type": "string"
        }
      ],
      "stateMutability": "view",
      "type": "function"
    },
    {
      "inputs": [],
      "name": "getBadBlockInfo",
      "outputs": [
        {
          "internalType": "string",
          "name": "",
          "type": "string"
        },
        {
          "internalType": "string",
          "name": "",
          "type": "string"
        },
        {
          "internalType": "string",
          "name": "",
          "type": "string"
        }
      ],
      "stateMutability": "view",
      "type": "function"
    },
    {
      "inputs": [
        {
          "internalType": "bytes",
          "name": "data",
          "type": "bytes"
        }
      ],
      "name": "bytesToHexString",
      "outputs": [
        {
          "internalType": "string",
          "name": "",
          "type": "string"
        }
      ],
      "stateMutability": "pure",
      "type": "function"
    },
    {
      "inputs": [],
      "name": "getLatestBlockHash",
      "outputs": [
        {
          "internalType": "bytes32",
          "name": "",
          "type": "bytes32"
        }
      ],
      "stateMutability": "view",
      "type": "function"
    }
  ],
  "bytecode": "0x608060405234801561001057600080fd5b50615259806100206000396000f3fe608060405234801561001057600080fd5b50600436106100ea5760003560e01c8063b35af6c31161008c578063cc0bd62e11610066578063cc0bd62e14610267578063d2bacbc814610285578063e3f9c18b146102a1578063e61f36ae146102c1576100ea565b8063b35af6c3146101e1578063bfc260de14610211578063c25b1eaf1461022d576100ea565b8063458c2682116100c8578063458c2682146101475780634f54e9241461017757806354c07645146101935780637d520c22146101b1576100ea565b8063065cb594146100ef5780631da109841461010d57806342bcad2814610129575b600080fd5b6100f76102f1565b604051610104919061476e565b60405180910390f35b61012760048036038101906101229190613c18565b6106ba565b005b610131610951565b60405161013e91906147cd565b60405180910390f35b610161600480360381019061015c9190613bef565b610a5c565b60405161016e919061474c565b60405180910390f35b610191600480360381019061018c9190613c18565b611004565b005b61019b6114e0565b6040516101a891906148bd565b60405180910390f35b6101cb60048036038101906101c69190613ab1565b6115f3565b6040516101d891906148bd565b60405180910390f35b6101fb60048036038101906101f69190613bef565b61181a565b60405161020891906147b2565b60405180910390f35b61022b60048036038101906102269190613b1b565b61183a565b005b61024760048036038101906102429190613bc6565b611a9c565b60405161025e9b9a999897969594939291906147e8565b60405180910390f35b61026f611e86565b60405161027c9190614af7565b60405180910390f35b61029f600480360381019061029a9190613c18565b611e92565b005b6102a96121f5565b6040516102b8939291906148df565b60405180910390f35b6102db60048036038101906102d69190613af2565b612bfe565b6040516102e89190614790565b60405180910390f35b60606000808054905067ffffffffffffffff811115610339577f4e487b7100000000000000000000000000000000000000000000000000000000600052604160045260246000fd5b6040519080825280602002602001820160405280156103675781602001602082028036833780820191505090505b5090506000805b600080549050811015610572576000805b8381101561047657600083815481106103c1577f4e487b7100000000000000000000000000000000000000000000000000000000600052603260045260246000fd5b906000526020600020906009020160010160089054906101000a90046fffffffffffffffffffffffffffffffff166fffffffffffffffffffffffffffffffff1685828151811061043a577f4e487b7100000000000000000000000000000000000000000000000000000000600052603260045260246000fd5b60200260200101516fffffffffffffffffffffffffffffffff1614156104635760019150610476565b808061046e9061500c565b91505061037f565b508061055e57600082815481106104b6577f4e487b7100000000000000000000000000000000000000000000000000000000600052603260045260246000fd5b906000526020600020906009020160010160089054906101000a90046fffffffffffffffffffffffffffffffff1684848151811061051d577f4e487b7100000000000000000000000000000000000000000000000000000000600052603260045260246000fd5b60200260200101906fffffffffffffffffffffffffffffffff1690816fffffffffffffffffffffffffffffffff1681525050828061055a9061500c565b9350505b50808061056a9061500c565b91505061036e565b5060008167ffffffffffffffff8111156105b5577f4e487b7100000000000000000000000000000000000000000000000000000000600052604160045260246000fd5b6040519080825280602002602001820160405280156105e35781602001602082028036833780820191505090505b50905060005b828110156106b05783818151811061062a577f4e487b7100000000000000000000000000000000000000000000000000000000600052603260045260246000fd5b602002602001015182828151811061066b577f4e487b7100000000000000000000000000000000000000000000000000000000600052603260045260246000fd5b60200260200101906fffffffffffffffffffffffffffffffff1690816fffffffffffffffffffffffffffffffff168152505080806106a89061500c565b9150506105e9565b5080935050505090565b600160008463ffffffff1663ffffffff16815260200190815260200160002060009054906101000a900460ff16610726576040517f08c379a000000000000000000000000000000000000000000000000000000000815260040161071d90614a63565b60405180910390fd5b6000808060008054905090505b60008111156108525760008060018361074c9190614ecd565b81548110610783577f4e487b7100000000000000000000000000000000000000000000000000000000600052603260045260246000fd5b906000526020600020906009020190508663ffffffff168160010160189054906101000a900463ffffffff1663ffffffff16141561083e576040516020016107ca90614737565b60405160208183030381529060405280519060200120816002016040516020016107f491906146f6565b60405160208183030381529060405280519060200120141561083d57600193508060010160089054906101000a90046fffffffffffffffffffffffffffffffff16925050610852565b5b50808061084a90614fb0565b915050610733565b5081610893576040517f08c379a000000000000000000000000000000000000000000000000000000000815260040161088a90614983565b60405180910390fd5b6108f581866040518060400160405280600981526020017f434845434b4544494e000000000000000000000000000000000000000000000081525087876040518060200160405280600081525060405180602001604052806000815250612f1e565b8463ffffffff16816fffffffffffffffffffffffffffffffff167f44d659db232b167aceca42204e10ebf4f34fe865b7f8911e56bb7e4fe141eb2442878760405161094293929190614b6c565b60405180910390a35050505050565b600080600060016000805490506109689190614ecd565b8154811061099f577f4e487b7100000000000000000000000000000000000000000000000000000000600052603260045260246000fd5b9060005260206000209060090201905080600001548160010160009054906101000a900467ffffffffffffffff168260010160089054906101000a90046fffffffffffffffffffffffffffffffff168360010160189054906101000a900463ffffffff168460020185600301866004018760070160009054906101000a900463ffffffff1688600801604051602001610a4099989796959493929190614663565b6040516020818303038152906040528051906020012091505090565b60606000808054905067ffffffffffffffff811115610aa4577f4e487b7100000000000000000000000000000000000000000000000000000000600052604160045260246000fd5b604051908082528060200260200182016040528015610add57816020015b610aca613792565b815260200190600190039081610ac25790505b5090506000805b600080549050811015610ed6578463ffffffff1660008281548110610b32577f4e487b7100000000000000000000000000000000000000000000000000000000600052603260045260246000fd5b906000526020600020906009020160010160189054906101000a900463ffffffff1663ffffffff161415610ec3576040518060a0016040528060008381548110610ba5577f4e487b7100000000000000000000000000000000000000000000000000000000600052603260045260246000fd5b906000526020600020906009020160010160089054906101000a90046fffffffffffffffffffffffffffffffff166fffffffffffffffffffffffffffffffff16815260200160008381548110610c24577f4e487b7100000000000000000000000000000000000000000000000000000000600052603260045260246000fd5b906000526020600020906009020160010160189054906101000a900463ffffffff1663ffffffff16815260200160008381548110610c8b577f4e487b7100000000000000000000000000000000000000000000000000000000600052603260045260246000fd5b906000526020600020906009020160010160009054906101000a900467ffffffffffffffff1667ffffffffffffffff16815260200160008381548110610cfa577f4e487b7100000000000000000000000000000000000000000000000000000000600052603260045260246000fd5b90600052602060002090600902016002018054610d1690614fda565b80601f0160208091040260200160405190810160405280929190818152602001828054610d4290614fda565b8015610d8f5780601f10610d6457610100808354040283529160200191610d8f565b820191906000526020600020905b815481529060010190602001808311610d7257829003601f168201915b5050505050815260200160008381548110610dd3577f4e487b7100000000000000000000000000000000000000000000000000000000600052603260045260246000fd5b90600052602060002090600902016003018054610def90614fda565b80601f0160208091040260200160405190810160405280929190818152602001828054610e1b90614fda565b8015610e685780601f10610e3d57610100808354040283529160200191610e68565b820191906000526020600020905b815481529060010190602001808311610e4b57829003601f168201915b5050505050815250838381518110610ea9577f4e487b7100000000000000000000000000000000000000000000000000000000600052603260045260246000fd5b60200260200101819052508180610ebf9061500c565b9250505b8080610ece9061500c565b915050610ae4565b5060008167ffffffffffffffff811115610f19577f4e487b7100000000000000000000000000000000000000000000000000000000600052604160045260246000fd5b604051908082528060200260200182016040528015610f5257816020015b610f3f613792565b815260200190600190039081610f375790505b50905060005b82811015610ff857838181518110610f99577f4e487b7100000000000000000000000000000000000000000000000000000000600052603260045260246000fd5b6020026020010151828281518110610fda577f4e487b7100000000000000000000000000000000000000000000000000000000600052603260045260246000fd5b60200260200101819052508080610ff09061500c565b915050610f58565b50809350505050919050565b600160008463ffffffff1663ffffffff16815260200190815260200160002060009054906101000a900460ff16611070576040517f08c379a000000000000000000000000000000000000000000000000000000000815260040161106790614a63565b60405180910390fd5b60008060016000805490506110859190614ecd565b815481106110bc577f4e487b7100000000000000000000000000000000000000000000000000000000600052603260045260246000fd5b906000526020600020906009020190508363ffffffff168160010160189054906101000a900463ffffffff1663ffffffff161461112e576040517f08c379a0000000000000000000000000000000000000000000000000000000008152600401611125906149e3565b60405180910390fd5b60405160200161113d90614737565b604051602081830303815290604052805190602001208160020160405160200161116791906146f6565b6040516020818303038152906040528051906020012014156111be576040517f08c379a00000000000000000000000000000000000000000000000000000000081526004016111b5906149c3565b60405180910390fd5b6040516020016111cd90614722565b60405160208183030381529060405280519060200120816002016040516020016111f791906146f6565b60405160208183030381529060405280519060200120141561124e576040517f08c379a000000000000000000000000000000000000000000000000000000000815260040161124590614a03565b60405180910390fd5b6114658160010160089054906101000a90046fffffffffffffffffffffffffffffffff16856040518060400160405280600a81526020017f434845434b45444f5554000000000000000000000000000000000000000000008152508460030180546112b890614fda565b80601f01602080910402602001604051908101604052809291908181526020018280546112e490614fda565b80156113315780601f1061130657610100808354040283529160200191611331565b820191906000526020600020905b81548152906001019060200180831161131457829003601f168201915b505050505085600401805461134590614fda565b80601f016020809104026020016040519081016040528092919081815260200182805461137190614fda565b80156113be5780601f10611393576101008083540402835291602001916113be565b820191906000526020600020905b8154815290600101906020018083116113a157829003601f168201915b5050505050604051806020016040528060008152508760080180546113e290614fda565b80601f016020809104026020016040519081016040528092919081815260200182805461140e90614fda565b801561145b5780601f106114305761010080835404028352916020019161145b565b820191906000526020600020905b81548152906001019060200180831161143e57829003601f168201915b5050505050612f1e565b8363ffffffff168160010160089054906101000a90046fffffffffffffffffffffffffffffffff166fffffffffffffffffffffffffffffffff167f8d091e6724281a24ed036e6fc30d2d911d68131901cf4e8e63b0ac0247f5047d8585426040516114d29392919061492b565b60405180910390a350505050565b606060006114ec611e86565b90506000600190505b818110156115b55761151260018261150d9190614ecd565b613212565b6000828154811061154c577f4e487b7100000000000000000000000000000000000000000000000000000000600052603260045260246000fd5b906000526020600020906009020160000154146115a2576040518060400160405280600581526020017f4552524f52000000000000000000000000000000000000000000000000000000815250925050506115f0565b80806115ad9061500c565b9150506114f5565b506040518060400160405280600581526020017f434c45414e0000000000000000000000000000000000000000000000000000008152509150505b90565b60606000825160026116059190614e73565b67ffffffffffffffff811115611644577f4e487b7100000000000000000000000000000000000000000000000000000000600052604160045260246000fd5b6040519080825280601f01601f1916602001820160405280156116765781602001600182028036833780820191505090505b50905060005b83518110156118105760008482815181106116c0577f4e487b7100000000000000000000000000000000000000000000000000000000600052603260045260246000fd5b602001015160f81c60f81b60f81c905060306010826116df9190614e42565b6116e99190614e0b565b60f81b838360026116fa9190614e73565b81518110611731577f4e487b7100000000000000000000000000000000000000000000000000000000600052603260045260246000fd5b60200101907effffffffffffffffffffffffffffffffffffffffffffffffffffffffffffff1916908160001a905350603060108261176f9190615095565b6117799190614e0b565b60f81b83600184600261178c9190614e73565b6117969190614db5565b815181106117cd577f4e487b7100000000000000000000000000000000000000000000000000000000600052603260045260246000fd5b60200101907effffffffffffffffffffffffffffffffffffffffffffffffffffffffffffff1916908160001a9053505080806118089061500c565b91505061167c565b5080915050919050565b60016020528060005260406000206000915054906101000a900460ff1681565b600080600160008054905061184f9190614ecd565b81548110611886577f4e487b7100000000000000000000000000000000000000000000000000000000600052603260045260246000fd5b9060005260206000209060090201905060005b8451811015611a9457600160008683815181106118df577f4e487b7100000000000000000000000000000000000000000000000000000000600052603260045260246000fd5b602002602001015163ffffffff1663ffffffff16815260200190815260200160002060009054906101000a900460ff161561194f576040517f08c379a000000000000000000000000000000000000000000000000000000000815260040161194690614a23565b60405180910390fd5b60405160200161195e90614722565b604051602081830303815290604052805190602001208260020160405160200161198891906146f6565b6040516020818303038152906040528051906020012014156119df576040517f08c379a00000000000000000000000000000000000000000000000000000000081526004016119d690614a03565b60405180910390fd5b611a8186868381518110611a1c577f4e487b7100000000000000000000000000000000000000000000000000000000600052603260045260246000fd5b60200260200101516040518060400160405280600981526020017f434845434b4544494e000000000000000000000000000000000000000000000081525087876040518060200160405280600081525060405180602001604052806000815250612f1e565b8080611a8c9061500c565b915050611899565b505050505050565b60008181548110611aac57600080fd5b90600052602060002090600902016000915090508060000154908060010160009054906101000a900467ffffffffffffffff16908060010160089054906101000a90046fffffffffffffffffffffffffffffffff16908060010160189054906101000a900463ffffffff1690806002018054611b2790614fda565b80601f0160208091040260200160405190810160405280929190818152602001828054611b5390614fda565b8015611ba05780601f10611b7557610100808354040283529160200191611ba0565b820191906000526020600020905b815481529060010190602001808311611b8357829003601f168201915b505050505090806003018054611bb590614fda565b80601f0160208091040260200160405190810160405280929190818152602001828054611be190614fda565b8015611c2e5780601f10611c0357610100808354040283529160200191611c2e565b820191906000526020600020905b815481529060010190602001808311611c1157829003601f168201915b505050505090806004018054611c4390614fda565b80601f0160208091040260200160405190810160405280929190818152602001828054611c6f90614fda565b8015611cbc5780601f10611c9157610100808354040283529160200191611cbc565b820191906000526020600020905b815481529060010190602001808311611c9f57829003601f168201915b505050505090806005018054611cd190614fda565b80601f0160208091040260200160405190810160405280929190818152602001828054611cfd90614fda565b8015611d4a5780601f10611d1f57610100808354040283529160200191611d4a565b820191906000526020600020905b815481529060010190602001808311611d2d57829003601f168201915b505050505090806006018054611d5f90614fda565b80601f0160208091040260200160405190810160405280929190818152602001828054611d8b90614fda565b8015611dd85780601f10611dad57610100808354040283529160200191611dd8565b820191906000526020600020905b815481529060010190602001808311611dbb57829003601f168201915b5050505050908060070160009054906101000a900463ffffffff1690806008018054611e0390614fda565b80601f0160208091040260200160405190810160405280929190818152602001828054611e2f90614fda565b8015611e7c5780601f10611e5157610100808354040283529160200191611e7c565b820191906000526020600020905b815481529060010190602001808311611e5f57829003601f168201915b505050505090508b565b60008080549050905090565b600160008463ffffffff1663ffffffff16815260200190815260200160002060009054906101000a900460ff16611efe576040517f08c379a0000000000000000000000000000000000000000000000000000000008152600401611ef590614a63565b60405180910390fd5b6000806001600080549050611f139190614ecd565b81548110611f4a577f4e487b7100000000000000000000000000000000000000000000000000000000600052603260045260246000fd5b906000526020600020906009020190508363ffffffff168160010160189054906101000a900463ffffffff1663ffffffff16148015611fd55750604051602001611f939061470d565b6040516020818303038152906040528051906020012081600201604051602001611fbd91906146f6565b60405160208183030381529060405280519060200120145b612014576040517f08c379a000000000000000000000000000000000000000000000000000000000815260040161200b906149a3565b60405180910390fd5b6121908160010160089054906101000a90046fffffffffffffffffffffffffffffffff16856040518060400160405280600881526020017f52454c45415345440000000000000000000000000000000000000000000000008152508685600301805461207f90614fda565b80601f01602080910402602001604051908101604052809291908181526020018280546120ab90614fda565b80156120f85780601f106120cd576101008083540402835291602001916120f8565b820191906000526020600020905b8154815290600101906020018083116120db57829003601f168201915b505050505086600401805461210c90614fda565b80601f016020809104026020016040519081016040528092919081815260200182805461213890614fda565b80156121855780601f1061215a57610100808354040283529160200191612185565b820191906000526020600020905b81548152906001019060200180831161216857829003601f168201915b505050505088612f1e565b7f24bd21991d0b6494e1c76da1c49ea1d4508956d6e6eda1f700ad7d3c7fc073fa8160010160089054906101000a90046fffffffffffffffffffffffffffffffff16854286866040516121e7959493929190614a83565b60405180910390a150505050565b60608060606000612204611e86565b90506000600190505b81811015612bc05761222a6001826122259190614ecd565b613212565b60008281548110612264577f4e487b7100000000000000000000000000000000000000000000000000000000600052603260045260246000fd5b9060005260206000209060090201600001541461232f576122cf600082815481106122b8577f4e487b7100000000000000000000000000000000000000000000000000000000600052603260045260246000fd5b9060005260206000209060090201600001546136fb565b6122ec6122e76001846122e29190614ecd565b613212565b6136fb565b6040518060400160405280601081526020017f504152454e545f4e4f545f464f554e44000000000000000000000000000000008152509450945094505050612bf9565b6001811180156123e0575060006002826123499190614ecd565b81548110612380577f4e487b7100000000000000000000000000000000000000000000000000000000600052603260045260246000fd5b906000526020600020906009020160000154600082815481106123cc577f4e487b7100000000000000000000000000000000000000000000000000000000600052603260045260246000fd5b906000526020600020906009020160000154145b156124dc5761243960008281548110612422577f4e487b7100000000000000000000000000000000000000000000000000000000600052603260045260246000fd5b9060005260206000209060090201600001546136fb565b612499600060028461244b9190614ecd565b81548110612482577f4e487b7100000000000000000000000000000000000000000000000000000000600052603260045260246000fd5b9060005260206000209060090201600001546136fb565b6040518060400160405280601081526020017f4455504c49434154455f504152454e54000000000000000000000000000000008152509450945094505050612bf9565b60006129786000838154811061251b577f4e487b7100000000000000000000000000000000000000000000000000000000600052603260045260246000fd5b906000526020600020906009020160405180610160016040529081600082015481526020016001820160009054906101000a900467ffffffffffffffff1667ffffffffffffffff1667ffffffffffffffff1681526020016001820160089054906101000a90046fffffffffffffffffffffffffffffffff166fffffffffffffffffffffffffffffffff166fffffffffffffffffffffffffffffffff1681526020016001820160189054906101000a900463ffffffff1663ffffffff1663ffffffff1681526020016002820180546125f190614fda565b80601f016020809104026020016040519081016040528092919081815260200182805461261d90614fda565b801561266a5780601f1061263f5761010080835404028352916020019161266a565b820191906000526020600020905b81548152906001019060200180831161264d57829003601f168201915b5050505050815260200160038201805461268390614fda565b80601f01602080910402602001604051908101604052809291908181526020018280546126af90614fda565b80156126fc5780601f106126d1576101008083540402835291602001916126fc565b820191906000526020600020905b8154815290600101906020018083116126df57829003601f168201915b5050505050815260200160048201805461271590614fda565b80601f016020809104026020016040519081016040528092919081815260200182805461274190614fda565b801561278e5780601f106127635761010080835404028352916020019161278e565b820191906000526020600020905b81548152906001019060200180831161277157829003601f168201915b505050505081526020016005820180546127a790614fda565b80601f01602080910402602001604051908101604052809291908181526020018280546127d390614fda565b80156128205780601f106127f557610100808354040283529160200191612820565b820191906000526020600020905b81548152906001019060200180831161280357829003601f168201915b5050505050815260200160068201805461283990614fda565b80601f016020809104026020016040519081016040528092919081815260200182805461286590614fda565b80156128b25780601f10612887576101008083540402835291602001916128b2565b820191906000526020600020905b81548152906001019060200180831161289557829003601f168201915b505050505081526020016007820160009054906101000a900463ffffffff1663ffffffff1663ffffffff1681526020016008820180546128f190614fda565b80601f016020809104026020016040519081016040528092919081815260200182805461291d90614fda565b801561296a5780601f1061293f5761010080835404028352916020019161296a565b820191906000526020600020905b81548152906001019060200180831161294d57829003601f168201915b50505050508152505061372c565b905080600083815481106129b5577f4e487b7100000000000000000000000000000000000000000000000000000000600052603260045260246000fd5b90600052602060002090600902016000015414612a6d57612a2060008381548110612a09577f4e487b7100000000000000000000000000000000000000000000000000000000600052603260045260246000fd5b9060005260206000209060090201600001546136fb565b612a29826136fb565b6040518060400160405280601081526020017f434f4e54454e545f4d49534d4154434800000000000000000000000000000000815250955095509550505050612bf9565b604051602001612a7c90614737565b6040516020818303038152906040528051906020012060008381548110612acc577f4e487b7100000000000000000000000000000000000000000000000000000000600052603260045260246000fd5b9060005260206000209060090201600201604051602001612aed91906146f6565b60405160208183030381529060405280519060200120148015612b1b5750600183612b189190614ecd565b82105b15612bac57612b7460008381548110612b5d577f4e487b7100000000000000000000000000000000000000000000000000000000600052603260045260246000fd5b9060005260206000209060090201600001546136fb565b612b85612b8084613212565b6136fb565b60405180606001604052806024815260200161520060249139955095509550505050612bf9565b508080612bb89061500c565b91505061220d565b50604051806020016040528060008152506040518060200160405280600081525060405180602001604052806000815250935093509350505b909192565b60606000808054905067ffffffffffffffff811115612c46577f4e487b7100000000000000000000000000000000000000000000000000000000600052604160045260246000fd5b604051908082528060200260200182016040528015612c745781602001602082028036833780820191505090505b5090506000805b600080549050811015612dec57846fffffffffffffffffffffffffffffffff1660008281548110612cd5577f4e487b7100000000000000000000000000000000000000000000000000000000600052603260045260246000fd5b906000526020600020906009020160010160089054906101000a90046fffffffffffffffffffffffffffffffff166fffffffffffffffffffffffffffffffff161415612dd95760008181548110612d55577f4e487b7100000000000000000000000000000000000000000000000000000000600052603260045260246000fd5b906000526020600020906009020160010160189054906101000a900463ffffffff16838381518110612db0577f4e487b7100000000000000000000000000000000000000000000000000000000600052603260045260246000fd5b602002602001019063ffffffff16908163ffffffff16815250508180612dd59061500c565b9250505b8080612de49061500c565b915050612c7b565b5060008167ffffffffffffffff811115612e2f577f4e487b7100000000000000000000000000000000000000000000000000000000600052604160045260246000fd5b604051908082528060200260200182016040528015612e5d5781602001602082028036833780820191505090505b50905060005b82811015612f1257838181518110612ea4577f4e487b7100000000000000000000000000000000000000000000000000000000600052603260045260246000fd5b6020026020010151828281518110612ee5577f4e487b7100000000000000000000000000000000000000000000000000000000600052603260045260246000fd5b602002602001019063ffffffff16908163ffffffff16815250508080612f0a9061500c565b915050612e63565b50809350505050919050565b60008060008054905011612f35576000801b612f3e565b612f3d610951565b5b9050600042905060008351905060006040518061016001604052808581526020018467ffffffffffffffff1681526020018c6fffffffffffffffffffffffffffffffff1681526020018b63ffffffff1681526020018a81526020018981526020018881526020018781526020016040518060200160405280600081525081526020018363ffffffff16815260200186815250905060008190806001815401808255809150506001900390600052602060002090600902016000909190919091506000820151816000015560208201518160010160006101000a81548167ffffffffffffffff021916908367ffffffffffffffff16021790555060408201518160010160086101000a8154816fffffffffffffffffffffffffffffffff02191690836fffffffffffffffffffffffffffffffff16021790555060608201518160010160186101000a81548163ffffffff021916908363ffffffff16021790555060808201518160020190805190602001906130b99291906137e3565b5060a08201518160030190805190602001906130d69291906137e3565b5060c08201518160040190805190602001906130f39291906137e3565b5060e08201518160050190805190602001906131109291906137e3565b5061010082015181600601908051906020019061312e9291906137e3565b506101208201518160070160006101000a81548163ffffffff021916908363ffffffff160217905550610140820151816008019080519060200190613174929190613869565b50505060018060008c63ffffffff1663ffffffff16815260200190815260200160002060006101000a81548160ff0219169083151502179055508963ffffffff168b6fffffffffffffffffffffffffffffffff167f33a1c1a3b9a16d06083c74dc302e2fcc5be80f5e5aa2ae9a270c78f82731b11b858c8c8c6040516131fd9493929190614b12565b60405180910390a35050505050505050505050565b60008080549050821061325a576040517f08c379a000000000000000000000000000000000000000000000000000000000815260040161325190614a43565b60405180910390fd5b6136f460008381548110613297577f4e487b7100000000000000000000000000000000000000000000000000000000600052603260045260246000fd5b906000526020600020906009020160405180610160016040529081600082015481526020016001820160009054906101000a900467ffffffffffffffff1667ffffffffffffffff1667ffffffffffffffff1681526020016001820160089054906101000a90046fffffffffffffffffffffffffffffffff166fffffffffffffffffffffffffffffffff166fffffffffffffffffffffffffffffffff1681526020016001820160189054906101000a900463ffffffff1663ffffffff1663ffffffff16815260200160028201805461336d90614fda565b80601f016020809104026020016040519081016040528092919081815260200182805461339990614fda565b80156133e65780601f106133bb576101008083540402835291602001916133e6565b820191906000526020600020905b8154815290600101906020018083116133c957829003601f168201915b505050505081526020016003820180546133ff90614fda565b80601f016020809104026020016040519081016040528092919081815260200182805461342b90614fda565b80156134785780601f1061344d57610100808354040283529160200191613478565b820191906000526020600020905b81548152906001019060200180831161345b57829003601f168201915b5050505050815260200160048201805461349190614fda565b80601f01602080910402602001604051908101604052809291908181526020018280546134bd90614fda565b801561350a5780601f106134df5761010080835404028352916020019161350a565b820191906000526020600020905b8154815290600101906020018083116134ed57829003601f168201915b5050505050815260200160058201805461352390614fda565b80601f016020809104026020016040519081016040528092919081815260200182805461354f90614fda565b801561359c5780601f106135715761010080835404028352916020019161359c565b820191906000526020600020905b81548152906001019060200180831161357f57829003601f168201915b505050505081526020016006820180546135b590614fda565b80601f01602080910402602001604051908101604052809291908181526020018280546135e190614fda565b801561362e5780601f106136035761010080835404028352916020019161362e565b820191906000526020600020905b81548152906001019060200180831161361157829003601f168201915b505050505081526020016007820160009054906101000a900463ffffffff1663ffffffff1663ffffffff16815260200160088201805461366d90614fda565b80601f016020809104026020016040519081016040528092919081815260200182805461369990614fda565b80156136e65780601f106136bb576101008083540402835291602001916136e6565b820191906000526020600020905b8154815290600101906020018083116136c957829003601f168201915b50505050508152505061372c565b9050919050565b60606137258260405160200161371191906145b5565b6040516020818303038152906040526115f3565b9050919050565b6000816000015182602001518360400151846060015185608001518660a001518760c00151886101200151896101400151604051602001613775999897969594939291906145d0565b604051602081830303815290604052805190602001209050919050565b6040518060a0016040528060006fffffffffffffffffffffffffffffffff168152602001600063ffffffff168152602001600067ffffffffffffffff16815260200160608152602001606081525090565b8280546137ef90614fda565b90600052602060002090601f0160209004810192826138115760008555613858565b82601f1061382a57805160ff1916838001178555613858565b82800160010185558215613858579182015b8281111561385757825182559160200191906001019061383c565b5b50905061386591906138ef565b5090565b82805461387590614fda565b90600052602060002090601f01602090048101928261389757600085556138de565b82601f106138b057805160ff19168380011785556138de565b828001600101855582156138de579182015b828111156138dd5782518255916020019190600101906138c2565b5b5090506138eb91906138ef565b5090565b5b808211156139085760008160009055506001016138f0565b5090565b600061391f61391a84614bf5565b614bc4565b9050808382526020820190508285602086028201111561393e57600080fd5b60005b8581101561396e57816139548882613a9c565b845260208401935060208301925050600181019050613941565b5050509392505050565b600061398b61398684614c21565b614bc4565b9050828152602081018484840111156139a357600080fd5b6139ae848285614f6e565b509392505050565b60006139c96139c484614c51565b614bc4565b9050828152602081018484840111156139e157600080fd5b6139ec848285614f6e565b509392505050565b600082601f830112613a0557600080fd5b8135613a1584826020860161390c565b91505092915050565b600082601f830112613a2f57600080fd5b8135613a3f848260208601613978565b91505092915050565b600082601f830112613a5957600080fd5b8135613a698482602086016139b6565b91505092915050565b600081359050613a81816151ba565b92915050565b600081359050613a96816151d1565b92915050565b600081359050613aab816151e8565b92915050565b600060208284031215613ac357600080fd5b600082013567ffffffffffffffff811115613add57600080fd5b613ae984828501613a1e565b91505092915050565b600060208284031215613b0457600080fd5b6000613b1284828501613a72565b91505092915050565b60008060008060808587031215613b3157600080fd5b6000613b3f87828801613a72565b945050602085013567ffffffffffffffff811115613b5c57600080fd5b613b68878288016139f4565b935050604085013567ffffffffffffffff811115613b8557600080fd5b613b9187828801613a48565b925050606085013567ffffffffffffffff811115613bae57600080fd5b613bba87828801613a48565b91505092959194509250565b600060208284031215613bd857600080fd5b6000613be684828501613a87565b91505092915050565b600060208284031215613c0157600080fd5b6000613c0f84828501613a9c565b91505092915050565b600080600060608486031215613c2d57600080fd5b6000613c3b86828701613a9c565b935050602084013567ffffffffffffffff811115613c5857600080fd5b613c6486828701613a48565b925050604084013567ffffffffffffffff811115613c8157600080fd5b613c8d86828701613a48565b9150509250925092565b6000613ca3838361448a565b905092915050565b6000613cb78383614507565b60208301905092915050565b6000613ccf838361454b565b60208301905092915050565b6000613ce682614cdb565b613cf08185614d39565b935083602082028501613d0285614c81565b8060005b85811015613d3e5784840389528151613d1f8582613c97565b9450613d2a83614d12565b925060208a01995050600181019050613d06565b50829750879550505050505092915050565b6000613d5b82614ce6565b613d658185614d4a565b9350613d7083614c91565b8060005b83811015613da1578151613d888882613cab565b9750613d9383614d1f565b925050600181019050613d74565b5085935050505092915050565b6000613db982614cf1565b613dc38185614d5b565b9350613dce83614ca1565b8060005b83811015613dff578151613de68882613cc3565b9750613df183614d2c565b925050600181019050613dd2565b5085935050505092915050565b613e1581614f01565b82525050565b613e2481614f0d565b82525050565b613e3b613e3682614f0d565b615055565b82525050565b6000613e4c82614cfc565b613e568185614d6c565b9350613e66818560208601614f7d565b613e6f81615182565b840191505092915050565b6000613e8582614cfc565b613e8f8185614d7d565b9350613e9f818560208601614f7d565b80840191505092915050565b60008154613eb881614fda565b613ec28186614d7d565b94506001821660008114613edd5760018114613eee57613f21565b60ff19831686528186019350613f21565b613ef785614cb1565b60005b83811015613f1957815481890152600182019150602081019050613efa565b838801955050505b50505092915050565b6000613f3582614d07565b613f3f8185614d88565b9350613f4f818560208601614f7d565b613f5881615182565b840191505092915050565b6000613f6e82614d07565b613f788185614d99565b9350613f88818560208601614f7d565b613f9181615182565b840191505092915050565b6000613fa782614d07565b613fb18185614daa565b9350613fc1818560208601614f7d565b80840191505092915050565b60008154613fda81614fda565b613fe48186614daa565b94506001821660008114613fff576001811461401057614043565b60ff19831686528186019350614043565b61401985614cc6565b60005b8381101561403b5781548189015260018201915060208101905061401c565b838801955050505b50505092915050565b6000614059601f83614d99565b91507f4572726f723a204974656d206973206e6f7420636865636b6564206f75742e006000830152602082019050919050565b6000614099600983614d99565b91507f434845434b4544494e00000000000000000000000000000000000000000000006000830152602082019050919050565b60006140d9600983614daa565b91507f434845434b4544494e00000000000000000000000000000000000000000000006000830152600982019050919050565b6000614119602d83614d99565b91507f4572726f723a204974656d206d75737420626520636865636b656420696e207460008301527f6f2062652072656d6f7665642e000000000000000000000000000000000000006020830152604082019050919050565b600061417f600883614d99565b91507f52454c45415345440000000000000000000000000000000000000000000000006000830152602082019050919050565b60006141bf600883614daa565b91507f52454c45415345440000000000000000000000000000000000000000000000006000830152600882019050919050565b60006141ff600a83614d99565b91507f434845434b45444f5554000000000000000000000000000000000000000000006000830152602082019050919050565b600061423f600a83614daa565b91507f434845434b45444f5554000000000000000000000000000000000000000000006000830152600a82019050919050565b600061427f604383614d99565b91507f4572726f723a2043616e6e6f7420636865636b206f7574206120636865636b6560008301527f64206f7574206974656d2e204d75737420636865636b20697420696e2066697260208301527f73742e00000000000000000000000000000000000000000000000000000000006040830152606082019050919050565b600061430b601b83614d99565b91507f4572726f723a2057726f6e672065766964656e6365206974656d2e00000000006000830152602082019050919050565b600061434b602783614d99565b91507f4572726f723a2043616e6e6f7420636865636b206f757420612072656d6f766560008301527f64206974656d2e000000000000000000000000000000000000000000000000006020830152604082019050919050565b60006143b1601f83614d99565b91507f45766964656e6365206974656d204944206d75737420626520756e69717565006000830152602082019050919050565b60006143f1601383614d99565b91507f496e646578206f7574206f6620626f756e6473000000000000000000000000006000830152602082019050919050565b6000614431602483614d99565b91507f4572726f723a2045766964656e6365206974656d20646f6573206e6f7420657860008301527f6973742e000000000000000000000000000000000000000000000000000000006020830152604082019050919050565b600060a0830160008301516144a26000860182614507565b5060208301516144b5602086018261454b565b5060408301516144c86040860182614580565b50606083015184820360608601526144e08282613f2a565b915050608083015184820360808601526144fa8282613f2a565b9150508091505092915050565b61451081614f17565b82525050565b61451f81614f17565b82525050565b61453661453182614f17565b61505f565b82525050565b61454581614f33565b82525050565b61455481614f3d565b82525050565b61456381614f3d565b82525050565b61457a61457582614f3d565b615071565b82525050565b61458981614f4d565b82525050565b61459881614f4d565b82525050565b6145af6145aa82614f4d565b615083565b82525050565b60006145c18284613e2a565b60208201915081905092915050565b60006145dc828c613e2a565b6020820191506145ec828b61459e565b6008820191506145fc828a614525565b60108201915061460c8289614569565b60048201915061461c8288613f9c565b91506146288287613f9c565b91506146348286613f9c565b91506146408285614569565b6004820191506146508284613e7a565b91508190509a9950505050505050505050565b600061466f828c613e2a565b60208201915061467f828b61459e565b60088201915061468f828a614525565b60108201915061469f8289614569565b6004820191506146af8288613fcd565b91506146bb8287613fcd565b91506146c78286613fcd565b91506146d38285614569565b6004820191506146e38284613eab565b91508190509a9950505050505050505050565b60006147028284613fcd565b915081905092915050565b6000614718826140cc565b9150819050919050565b600061472d826141b2565b9150819050919050565b600061474282614232565b9150819050919050565b600060208201905081810360008301526147668184613cdb565b905092915050565b600060208201905081810360008301526147888184613d50565b905092915050565b600060208201905081810360008301526147aa8184613dae565b905092915050565b60006020820190506147c76000830184613e0c565b92915050565b60006020820190506147e26000830184613e1b565b92915050565b6000610160820190506147fe600083018e613e1b565b61480b602083018d61458f565b614818604083018c614516565b614825606083018b61455a565b8181036080830152614837818a613f63565b905081810360a083015261484b8189613f63565b905081810360c083015261485f8188613f63565b905081810360e08301526148738187613f63565b90508181036101008301526148888186613f63565b905061489861012083018561455a565b8181036101408301526148ab8184613e41565b90509c9b505050505050505050505050565b600060208201905081810360008301526148d78184613f63565b905092915050565b600060608201905081810360008301526148f98186613f63565b9050818103602083015261490d8185613f63565b905081810360408301526149218184613f63565b9050949350505050565b600060808201905081810360008301526149458186613f63565b905081810360208301526149598185613f63565b9050614968604083018461458f565b8181036060830152614979816141f2565b9050949350505050565b6000602082019050818103600083015261499c8161404c565b9050919050565b600060208201905081810360008301526149bc8161410c565b9050919050565b600060208201905081810360008301526149dc81614272565b9050919050565b600060208201905081810360008301526149fc816142fe565b9050919050565b60006020820190508181036000830152614a1c8161433e565b9050919050565b60006020820190508181036000830152614a3c816143a4565b9050919050565b60006020820190508181036000830152614a5c816143e4565b9050919050565b60006020820190508181036000830152614a7c81614424565b9050919050565b600060c082019050614a986000830188614516565b614aa5602083018761455a565b614ab2604083018661458f565b8181036060830152614ac381614172565b90508181036080830152614ad78185613f63565b905081810360a0830152614aeb8184613f63565b90509695505050505050565b6000602082019050614b0c600083018461453c565b92915050565b6000608082019050614b27600083018761458f565b8181036020830152614b398186613f63565b90508181036040830152614b4d8185613f63565b90508181036060830152614b618184613f63565b905095945050505050565b6000608082019050614b81600083018661458f565b8181036020830152614b928161408c565b90508181036040830152614ba68185613f63565b90508181036060830152614bba8184613f63565b9050949350505050565b6000604051905081810181811067ffffffffffffffff82111715614beb57614bea615153565b5b8060405250919050565b600067ffffffffffffffff821115614c1057614c0f615153565b5b602082029050602081019050919050565b600067ffffffffffffffff821115614c3c57614c3b615153565b5b601f19601f8301169050602081019050919050565b600067ffffffffffffffff821115614c6c57614c6b615153565b5b601f19601f8301169050602081019050919050565b6000819050602082019050919050565b6000819050602082019050919050565b6000819050602082019050919050565b60008190508160005260206000209050919050565b60008190508160005260206000209050919050565b600081519050919050565b600081519050919050565b600081519050919050565b600081519050919050565b600081519050919050565b6000602082019050919050565b6000602082019050919050565b6000602082019050919050565b600082825260208201905092915050565b600082825260208201905092915050565b600082825260208201905092915050565b600082825260208201905092915050565b600081905092915050565b600082825260208201905092915050565b600082825260208201905092915050565b600081905092915050565b6000614dc082614f33565b9150614dcb83614f33565b9250827fffffffffffffffffffffffffffffffffffffffffffffffffffffffffffffffff03821115614e0057614dff6150c6565b5b828201905092915050565b6000614e1682614f61565b9150614e2183614f61565b92508260ff03821115614e3757614e366150c6565b5b828201905092915050565b6000614e4d82614f61565b9150614e5883614f61565b925082614e6857614e676150f5565b5b828204905092915050565b6000614e7e82614f33565b9150614e8983614f33565b9250817fffffffffffffffffffffffffffffffffffffffffffffffffffffffffffffffff0483118215151615614ec257614ec16150c6565b5b828202905092915050565b6000614ed882614f33565b9150614ee383614f33565b925082821015614ef657614ef56150c6565b5b828203905092915050565b60008115159050919050565b6000819050919050565b60006fffffffffffffffffffffffffffffffff82169050919050565b6000819050919050565b600063ffffffff82169050919050565b600067ffffffffffffffff82169050919050565b600060ff82169050919050565b82818337600083830152505050565b60005b83811015614f9b578082015181840152602081019050614f80565b83811115614faa576000848401525b50505050565b6000614fbb82614f33565b91506000821415614fcf57614fce6150c6565b5b600182039050919050565b60006002820490506001821680614ff257607f821691505b6020821081141561500657615005615124565b5b50919050565b600061501782614f33565b91507fffffffffffffffffffffffffffffffffffffffffffffffffffffffffffffffff82141561504a576150496150c6565b5b600182019050919050565b6000819050919050565b600061506a82615193565b9050919050565b600061507c826151ad565b9050919050565b600061508e826151a0565b9050919050565b60006150a082614f61565b91506150ab83614f61565b9250826150bb576150ba6150f5565b5b828206905092915050565b7f4e487b7100000000000000000000000000000000000000000000000000000000600052601160045260246000fd5b7f4e487b7100000000000000000000000000000000000000000000000000000000600052601260045260246000fd5b7f4e487b7100000000000000000000000000000000000000000000000000000000600052602260045260246000fd5b7f4e487b7100000000000000000000000000000000000000000000000000000000600052604160045260246000fd5b6000601f19601f8301169050919050565b60008160801b9050919050565b60008160c01b9050919050565b60008160e01b9050919050565b6151c381614f17565b81146151ce57600080fd5b50565b6151da81614f33565b81146151e557600080fd5b50565b6151f181614f3d565b81146151fc57600080fd5b5056fe4954454d5f434845434b45445f4f55545f4f525f494e5f41465445525f52454d4f56414ca2646970667358221220300015990c5db099f4eed58e302d8c9443ecad78685eebe791a8c2d6d124354a64736f6c63430008000033",
  "immutableReferences": {},
  "source": "// SPDX-License-Identifier: MIT\r\npragma solidity ^0.8.0;\r\n\r\ncontract ChainOfCustody {\r\n    struct Block {\r\n        bytes32 previousHash;\r\n        uint64 timestamp;\r\n        uint128 caseId;\r\n        uint32 evidenceItemId;\r\n        string state;\r\n        string handlerName;\r\n        string organizationName;\r\n        string reason;\r\n        string ownerInfo;\r\n        uint32 dataLength;\r\n        bytes data;\r\n    }\r\n\r\n    Block[] public blockchain;\r\n    mapping(uint32 => bool) public evidenceExists;\r\n\r\n    function getLatestBlockHash() public view returns (bytes32) {\r\n        Block storage lastBlock = blockchain[blockchain.length - 1];\r\n        return\r\n            keccak256(\r\n                abi.encodePacked(\r\n                    lastBlock.previousHash,\r\n                    lastBlock.timestamp,\r\n                    lastBlock.caseId,\r\n                    lastBlock.evidenceItemId,\r\n                    lastBlock.state,\r\n                    lastBlock.handlerName,\r\n                    lastBlock.organizationName,\r\n                    lastBlock.dataLength,\r\n                    lastBlock.data\r\n                )\r\n            );\r\n    }\r\n\r\n    // Updated event to use strings\r\n    event EvidenceItemAdded(\r\n        uint128 indexed caseId,\r\n        uint32 indexed evidenceItemId,\r\n        uint64 timestamp,\r\n        string state,\r\n        string handlerName,\r\n        string organizationName\r\n    );\r\n\r\n    // Updated function to accept string parameters\r\n    function addEvidenceItems(\r\n        uint128 _caseId,\r\n        uint32[] memory _itemIds,\r\n        string memory _handlerName,\r\n        string memory _organizationName\r\n    ) public {\r\n        Block storage lastBlock = blockchain[blockchain.length - 1];\r\n        for (uint i = 0; i < _itemIds.length; i++) {\r\n            \r\n            require(\r\n                !evidenceExists[_itemIds[i]],\r\n                \"Evidence item ID must be unique\"\r\n            );\r\n            require(\r\n                keccak256(abi.encodePacked(lastBlock.state)) !=\r\n                    keccak256(abi.encodePacked(\"RELEASED\")),\r\n                \"Error: Cannot check out a removed item.\"\r\n            );\r\n            addBlock(\r\n                _caseId,\r\n                _itemIds[i],\r\n                \"CHECKEDIN\",\r\n                _handlerName,\r\n                _organizationName,\r\n                \"\",\r\n                \"\"\r\n            );\r\n        }\r\n    }\r\n\r\n    // Updated function to accept string parameters\r\n    function addBlock(\r\n        uint128 _caseId,\r\n        uint32 _evidenceItemId,\r\n        string memory _state,\r\n        string memory _handlerName,\r\n        string memory _organizationName,\r\n        string memory _reason,\r\n        bytes memory _data\r\n    ) internal {\r\n        bytes32 previousHash = blockchain.length > 0\r\n            ? getLatestBlockHash()\r\n            : bytes32(0);\r\n        uint64 timestamp = uint64(block.timestamp);\r\n        uint32 dataLength = uint32(_data.length);\r\n\r\n        Block memory newBlock = Block(\r\n            previousHash,\r\n            timestamp,\r\n            _caseId,\r\n            _evidenceItemId,\r\n            _state,\r\n            _handlerName,\r\n            _organizationName,\r\n            _reason,\r\n            \"\",\r\n            dataLength,\r\n            _data\r\n        );\r\n\r\n        blockchain.push(newBlock);\r\n        evidenceExists[_evidenceItemId] = true;\r\n\r\n        emit EvidenceItemAdded(\r\n            _caseId,\r\n            _evidenceItemId,\r\n            timestamp,\r\n            _state,\r\n            _handlerName,\r\n            _organizationName\r\n        );\r\n    }\r\n\r\n    event EvidenceItemCheckedOut(\r\n        uint128 indexed caseId,\r\n        uint32 indexed evidenceItemId,\r\n        string handlerName,\r\n        string organizationName,\r\n        uint64 timestamp,\r\n        string state\r\n    );\r\n\r\n    function checkoutEvidenceItem(\r\n        uint32 _evidenceItemId,\r\n        string memory _handlerName,\r\n        string memory _organizationName\r\n    ) public {\r\n        require(\r\n            evidenceExists[_evidenceItemId],\r\n            \"Error: Evidence item does not exist.\"\r\n        );\r\n        Block storage lastBlock = blockchain[blockchain.length - 1];\r\n        require(\r\n            lastBlock.evidenceItemId == _evidenceItemId,\r\n            \"Error: Wrong evidence item.\"\r\n        );\r\n        require(\r\n            keccak256(abi.encodePacked(lastBlock.state)) !=\r\n                keccak256(abi.encodePacked(\"CHECKEDOUT\")),\r\n            \"Error: Cannot check out a checked out item. Must check it in first.\"\r\n        );\r\n        require(\r\n            keccak256(abi.encodePacked(lastBlock.state)) !=\r\n                keccak256(abi.encodePacked(\"RELEASED\")),\r\n            \"Error: Cannot check out a removed item.\"\r\n        );\r\n\r\n        // Assuming 'addBlock' function updates the state and creates a new block in the blockchain\r\n        addBlock(\r\n            lastBlock.caseId,\r\n            _evidenceItemId,\r\n            \"CHECKEDOUT\",\r\n            lastBlock.handlerName,\r\n            lastBlock.organizationName,\r\n            \"\",\r\n            lastBlock.data\r\n        );\r\n        emit EvidenceItemCheckedOut(\r\n            lastBlock.caseId,\r\n            _evidenceItemId,\r\n            _handlerName,\r\n            _organizationName,\r\n            uint64(block.timestamp),\r\n            \"CHECKEDOUT\"\r\n        );\r\n    }\r\n\r\n    event EvidenceItemCheckedIn(\r\n        uint128 indexed caseId,\r\n        uint32 indexed evidenceItemId,\r\n        uint64 timestamp,\r\n        string state,\r\n        string handlerName,\r\n        string organizationName\r\n    );\r\n\r\n    function checkinEvidenceItem(\r\n        uint32 _evidenceItemId,\r\n        string memory _handlerName,\r\n        string memory _organizationName\r\n    ) public {\r\n        require(\r\n            evidenceExists[_evidenceItemId],\r\n            \"Error: Evidence item does not exist.\"\r\n        );\r\n\r\n        bool isItemCheckedOut = false;\r\n        uint128 caseIdForItem;\r\n\r\n        // Iterate through the blockchain to find the specific block with the evidence item\r\n        for (uint i = blockchain.length; i > 0; i--) {\r\n            Block storage blockItem = blockchain[i - 1];\r\n            if (blockItem.evidenceItemId == _evidenceItemId) {\r\n                // Check if the item is in a checked out state\r\n                if (\r\n                    keccak256(abi.encodePacked(blockItem.state)) ==\r\n                    keccak256(abi.encodePacked(\"CHECKEDOUT\"))\r\n                ) {\r\n                    isItemCheckedOut = true;\r\n                    caseIdForItem = blockItem.caseId;\r\n                    break;\r\n                }\r\n            }\r\n        }\r\n\r\n        require(isItemCheckedOut, \"Error: Item is not checked out.\");\r\n\r\n        // Add a new block for checkin\r\n        addBlock(\r\n            caseIdForItem,\r\n            _evidenceItemId,\r\n            \"CHECKEDIN\",\r\n            _handlerName,\r\n            _organizationName,\r\n            \"\",\r\n            \"\"\r\n        );\r\n\r\n        emit EvidenceItemCheckedIn(\r\n            caseIdForItem,\r\n            _evidenceItemId,\r\n            uint64(block.timestamp),\r\n            \"CHECKEDIN\",\r\n            _handlerName,\r\n            _organizationName\r\n        );\r\n    }\r\n\r\n    function getCases() public view returns (uint128[] memory) {\r\n        uint128[] memory cases = new uint128[](blockchain.length);\r\n        uint count = 0;\r\n\r\n        for (uint i = 0; i < blockchain.length; i++) {\r\n            bool exists = false;\r\n            for (uint j = 0; j < count; j++) {\r\n                if (cases[j] == blockchain[i].caseId) {\r\n                    exists = true;\r\n                    break;\r\n                }\r\n            }\r\n            if (!exists) {\r\n                cases[count] = blockchain[i].caseId;\r\n                count++;\r\n            }\r\n        }\r\n\r\n        // Resize the array to fit the actual number of unique cases\r\n        uint128[] memory uniqueCases = new uint128[](count);\r\n        for (uint i = 0; i < count; i++) {\r\n            uniqueCases[i] = cases[i];\r\n        }\r\n\r\n        return uniqueCases;\r\n    }\r\n\r\n    function getItemsForCase(\r\n        uint128 _caseId\r\n    ) public view returns (uint32[] memory) {\r\n        uint32[] memory itemsTemp = new uint32[](blockchain.length);\r\n        uint count = 0;\r\n\r\n        for (uint i = 0; i < blockchain.length; i++) {\r\n            if (blockchain[i].caseId == _caseId) {\r\n                itemsTemp[count] = blockchain[i].evidenceItemId;\r\n                count++;\r\n            }\r\n        }\r\n\r\n        // Resize the array to fit the actual number of items for the case\r\n        uint32[] memory items = new uint32[](count);\r\n        for (uint i = 0; i < count; i++) {\r\n            items[i] = itemsTemp[i];\r\n        }\r\n\r\n        return items;\r\n    }\r\n\r\n    struct BlockInfo {\r\n        uint128 caseId;\r\n        uint32 evidenceItemId;\r\n        uint64 timestamp;\r\n        string state;\r\n        string handlerName;\r\n    }\r\n\r\n    function getItemHistory(\r\n        uint32 _itemId\r\n    ) public view returns (BlockInfo[] memory) {\r\n        BlockInfo[] memory history = new BlockInfo[](blockchain.length);\r\n        uint count = 0;\r\n\r\n        for (uint i = 0; i < blockchain.length; i++) {\r\n            if (blockchain[i].evidenceItemId == _itemId) {\r\n                history[count] = BlockInfo(\r\n                    blockchain[i].caseId,\r\n                    blockchain[i].evidenceItemId,\r\n                    blockchain[i].timestamp,\r\n                    blockchain[i].state,\r\n                    blockchain[i].handlerName\r\n                );\r\n                count++;\r\n            }\r\n        }\r\n\r\n        BlockInfo[] memory itemHistory = new BlockInfo[](count);\r\n        for (uint i = 0; i < count; i++) {\r\n            itemHistory[i] = history[i];\r\n        }\r\n\r\n        return itemHistory;\r\n    }\r\n\r\n    event EvidenceItemRemoved(\r\n        uint128 caseId,\r\n        uint32 evidenceItemId,\r\n        uint64 timestamp,\r\n        string state,\r\n        string reason,\r\n        string ownerInfo\r\n    );\r\n\r\n    function removeEvidenceItem(\r\n        uint32 _evidenceItemId,\r\n        string memory _reason,\r\n        string memory _ownerInfo\r\n    ) public {\r\n        require(\r\n            evidenceExists[_evidenceItemId],\r\n            \"Error: Evidence item does not exist.\"\r\n        );\r\n\r\n        Block storage lastBlock = blockchain[blockchain.length - 1];\r\n        require(\r\n            lastBlock.evidenceItemId == _evidenceItemId &&\r\n                keccak256(abi.encodePacked(lastBlock.state)) ==\r\n                keccak256(abi.encodePacked(\"CHECKEDIN\")),\r\n            \"Error: Item must be checked in to be removed.\"\r\n        );\r\n\r\n        // Assuming 'addBlock' function updates the state and creates a new block in the blockchain\r\n        addBlock(\r\n            lastBlock.caseId,\r\n            _evidenceItemId,\r\n            \"RELEASED\",\r\n            _reason, // Include _reason in the call\r\n            lastBlock.handlerName,\r\n            lastBlock.organizationName,\r\n            bytes(_ownerInfo)\r\n        );\r\n\r\n        emit EvidenceItemRemoved(\r\n            lastBlock.caseId,\r\n            _evidenceItemId,\r\n            uint64(block.timestamp),\r\n            \"RELEASED\",\r\n            _reason,\r\n            _ownerInfo\r\n        );\r\n    }\r\n\r\n    function getBlockCount() public view returns (uint256) {\r\n        return blockchain.length;\r\n    }\r\n\r\n    function verifyBlockchain() public view returns (string memory) {\r\n        uint256 blockCount = getBlockCount();\r\n\r\n        for (uint256 i = 1; i < blockCount; i++) {\r\n            if (blockchain[i].previousHash != getLatestBlockHash(i - 1)) {\r\n                return \"ERROR\";\r\n            }\r\n        }\r\n\r\n        return \"CLEAN\";\r\n    }\r\n\r\n    function getBadBlockInfo()\r\n        public\r\n        view\r\n        returns (string memory, string memory, string memory)\r\n    {\r\n        uint256 blockCount = getBlockCount();\r\n\r\n        for (uint256 i = 1; i < blockCount; i++) {\r\n            if (blockchain[i].previousHash != getLatestBlockHash(i - 1)) {\r\n                // Placeholder values for demonstration purposes\r\n                return (\r\n                    blockHashToString(blockchain[i].previousHash),\r\n                    blockHashToString(getLatestBlockHash(i - 1)),\r\n                    \"PARENT_NOT_FOUND\"\r\n                );\r\n            }\r\n\r\n            if (\r\n                i > 1 &&\r\n                blockchain[i].previousHash == blockchain[i - 2].previousHash\r\n            ) {\r\n                // Placeholder values for demonstration purposes\r\n                return (\r\n                    blockHashToString(blockchain[i].previousHash),\r\n                    blockHashToString(blockchain[i - 2].previousHash),\r\n                    \"DUPLICATE_PARENT\"\r\n                );\r\n            }\r\n\r\n            bytes32 calculatedHash = calculateBlockHash(blockchain[i]);\r\n            if (blockchain[i].previousHash != calculatedHash) {\r\n                // Placeholder values for demonstration purposes\r\n                return (\r\n                    blockHashToString(blockchain[i].previousHash),\r\n                    blockHashToString(calculatedHash),\r\n                    \"CONTENT_MISMATCH\"\r\n                );\r\n            }\r\n\r\n            if (\r\n                keccak256(abi.encodePacked(blockchain[i].state)) ==\r\n                keccak256(abi.encodePacked(\"CHECKEDOUT\")) &&\r\n                i < blockCount - 1\r\n            ) {\r\n                // Placeholder values for demonstration purposes\r\n                return (\r\n                    blockHashToString(blockchain[i].previousHash),\r\n                    blockHashToString(getLatestBlockHash(i)),\r\n                    \"ITEM_CHECKED_OUT_OR_IN_AFTER_REMOVAL\"\r\n                );\r\n            }\r\n        }\r\n\r\n        // Placeholder values for demonstration purposes\r\n        return (\"\", \"\", \"\");\r\n    }\r\n\r\n    // Other existing functions...\r\n    function bytesToHexString(\r\n        bytes memory data\r\n    ) public pure returns (string memory) {\r\n        bytes memory hexString = new bytes(2 * data.length);\r\n\r\n        for (uint256 i = 0; i < data.length; i++) {\r\n            uint8 value = uint8(data[i]);\r\n            hexString[2 * i] = bytes1(uint8(value / 16 + 48));\r\n            hexString[2 * i + 1] = bytes1(uint8((value % 16) + 48));\r\n        }\r\n\r\n        return string(hexString);\r\n    }\r\n\r\n    // Utility function to convert bytes32 to string\r\n    function blockHashToString(\r\n        bytes32 hash\r\n    ) internal pure returns (string memory) {\r\n        return bytesToHexString(abi.encodePacked(hash));\r\n    }\r\n\r\n    // Utility function to calculate the hash of a block\r\n    function calculateBlockHash(\r\n        Block memory blockData\r\n    ) internal pure returns (bytes32) {\r\n        return\r\n            keccak256(\r\n                abi.encodePacked(\r\n                    blockData.previousHash,\r\n                    blockData.timestamp,\r\n                    blockData.caseId,\r\n                    blockData.evidenceItemId,\r\n                    blockData.state,\r\n                    blockData.handlerName,\r\n                    blockData.organizationName,\r\n                    blockData.dataLength,\r\n                    blockData.data\r\n                )\r\n            );\r\n    }\r\n\r\n    // Utility function to get the hash of the latest block\r\n    function getLatestBlockHash(uint256 index) internal view returns (bytes32) {\r\n        require(index < blockchain.length, \"Index out of bounds\");\r\n        return calculateBlockHash(blockchain[index]);\r\n    }\r\n}\r\n",
  "sourcePath": "C:\\Users\\sharm\\Dropbox (ASU)\\CSE 469 CNF\\Group Project\\blockchain_chain_of_custody\\chain_of_custody\\contracts\\ChainOfCustody.sol",
  "compiler": {
    "name": "solc",
    "version": "0.8.0+commit.c7dfd78e.Emscripten.clang"
  },
  "schemaVersion": "3.4.16",
  "updatedAt": "2023-11-30T23:10:34.980Z",
  "devdoc": {
    "kind": "dev",
    "methods": {},
    "version": 1
  },
  "userdoc": {
    "kind": "user",
    "methods": {},
    "version": 1
  }
}