{
  "contractName": "ChainOfCustody",
  "abi": [
    {
      "anonymous": false,
      "inputs": [
        {
          "indexed": false,
          "internalType": "uint128",
          "name": "caseId",
          "type": "uint128"
        },
        {
          "indexed": false,
          "internalType": "uint32",
          "name": "evidenceItemId",
          "type": "uint32"
        },
        {
          "indexed": false,
          "internalType": "uint64",
          "name": "timestamp",
          "type": "uint64"
        },
        {
          "indexed": false,
          "internalType": "string",
          "name": "state",
          "type": "string"
        },
        {
          "indexed": false,
          "internalType": "string",
          "name": "handlerName",
          "type": "string"
        },
        {
          "indexed": false,
          "internalType": "string",
          "name": "organizationName",
          "type": "string"
        }
      ],
      "name": "EvidenceItemAdded",
      "type": "event"
    },
    {
      "anonymous": false,
      "inputs": [
        {
          "indexed": false,
          "internalType": "uint128",
          "name": "caseId",
          "type": "uint128"
        },
        {
          "indexed": false,
          "internalType": "uint32",
          "name": "evidenceItemId",
          "type": "uint32"
        },
        {
          "indexed": false,
          "internalType": "uint64",
          "name": "timestamp",
          "type": "uint64"
        },
        {
          "indexed": false,
          "internalType": "bytes12",
          "name": "state",
          "type": "bytes12"
        },
        {
          "indexed": false,
          "internalType": "string",
          "name": "handlerName",
          "type": "string"
        },
        {
          "indexed": false,
          "internalType": "string",
          "name": "organizationName",
          "type": "string"
        }
      ],
      "name": "EvidenceItemCheckedIn",
      "type": "event"
    },
    {
      "anonymous": false,
      "inputs": [
        {
          "indexed": false,
          "internalType": "uint128",
          "name": "caseId",
          "type": "uint128"
        },
        {
          "indexed": false,
          "internalType": "uint32",
          "name": "evidenceItemId",
          "type": "uint32"
        },
        {
          "indexed": false,
          "internalType": "uint64",
          "name": "timestamp",
          "type": "uint64"
        },
        {
          "indexed": false,
          "internalType": "bytes12",
          "name": "state",
          "type": "bytes12"
        }
      ],
      "name": "EvidenceItemCheckedOut",
      "type": "event"
    },
    {
      "anonymous": false,
      "inputs": [
        {
          "indexed": false,
          "internalType": "uint128",
          "name": "caseId",
          "type": "uint128"
        },
        {
          "indexed": false,
          "internalType": "uint32",
          "name": "evidenceItemId",
          "type": "uint32"
        },
        {
          "indexed": false,
          "internalType": "uint64",
          "name": "timestamp",
          "type": "uint64"
        },
        {
          "indexed": false,
          "internalType": "string",
          "name": "reason",
          "type": "string"
        },
        {
          "indexed": false,
          "internalType": "string",
          "name": "ownerInfo",
          "type": "string"
        }
      ],
      "name": "EvidenceItemRemoved",
      "type": "event"
    },
    {
      "inputs": [
        {
          "internalType": "uint256",
          "name": "",
          "type": "uint256"
        }
      ],
      "name": "blockchain",
      "outputs": [
        {
          "internalType": "bytes32",
          "name": "previousHash",
          "type": "bytes32"
        },
        {
          "internalType": "uint64",
          "name": "timestamp",
          "type": "uint64"
        },
        {
          "internalType": "uint128",
          "name": "caseId",
          "type": "uint128"
        },
        {
          "internalType": "uint32",
          "name": "evidenceItemId",
          "type": "uint32"
        },
        {
          "internalType": "string",
          "name": "state",
          "type": "string"
        },
        {
          "internalType": "string",
          "name": "handlerName",
          "type": "string"
        },
        {
          "internalType": "string",
          "name": "organizationName",
          "type": "string"
        },
        {
          "internalType": "string",
          "name": "reason",
          "type": "string"
        },
        {
          "internalType": "uint32",
          "name": "dataLength",
          "type": "uint32"
        },
        {
          "internalType": "bytes",
          "name": "data",
          "type": "bytes"
        }
      ],
      "stateMutability": "view",
      "type": "function",
      "constant": true
    },
    {
      "inputs": [
        {
          "internalType": "uint32",
          "name": "",
          "type": "uint32"
        }
      ],
      "name": "evidenceExists",
      "outputs": [
        {
          "internalType": "bool",
          "name": "",
          "type": "bool"
        }
      ],
      "stateMutability": "view",
      "type": "function",
      "constant": true
    },
    {
      "inputs": [
        {
          "internalType": "uint128",
          "name": "_caseId",
          "type": "uint128"
        },
        {
          "internalType": "uint32[]",
          "name": "_itemIds",
          "type": "uint32[]"
        },
        {
          "internalType": "string",
          "name": "_handlerName",
          "type": "string"
        },
        {
          "internalType": "string",
          "name": "_organizationName",
          "type": "string"
        }
      ],
      "name": "addEvidenceItems",
      "outputs": [],
      "stateMutability": "nonpayable",
      "type": "function"
    },
    {
      "inputs": [
        {
          "internalType": "uint32",
          "name": "_evidenceItemId",
          "type": "uint32"
        }
      ],
      "name": "checkoutEvidenceItem",
      "outputs": [],
      "stateMutability": "nonpayable",
      "type": "function"
    },
    {
      "inputs": [
        {
          "internalType": "uint32",
          "name": "_evidenceItemId",
          "type": "uint32"
        },
        {
          "internalType": "string",
          "name": "_handlerName",
          "type": "string"
        },
        {
          "internalType": "string",
          "name": "_organizationName",
          "type": "string"
        },
        {
          "internalType": "string",
          "name": "_reason",
          "type": "string"
        }
      ],
      "name": "checkinEvidenceItem",
      "outputs": [],
      "stateMutability": "nonpayable",
      "type": "function"
    },
    {
      "inputs": [],
      "name": "getCases",
      "outputs": [
        {
          "internalType": "uint128[]",
          "name": "",
          "type": "uint128[]"
        }
      ],
      "stateMutability": "view",
      "type": "function",
      "constant": true
    },
    {
      "inputs": [
        {
          "internalType": "uint128",
          "name": "_caseId",
          "type": "uint128"
        }
      ],
      "name": "getItemsForCase",
      "outputs": [
        {
          "internalType": "uint32[]",
          "name": "",
          "type": "uint32[]"
        }
      ],
      "stateMutability": "view",
      "type": "function",
      "constant": true
    },
    {
      "inputs": [
        {
          "internalType": "uint32",
          "name": "_itemId",
          "type": "uint32"
        }
      ],
      "name": "getItemHistory",
      "outputs": [
        {
          "components": [
            {
              "internalType": "uint64",
              "name": "timestamp",
              "type": "uint64"
            },
            {
              "internalType": "string",
              "name": "handlerName",
              "type": "string"
            },
            {
              "internalType": "string",
              "name": "state",
              "type": "string"
            }
          ],
          "internalType": "struct ChainOfCustody.BlockInfo[]",
          "name": "",
          "type": "tuple[]"
        }
      ],
      "stateMutability": "view",
      "type": "function",
      "constant": true
    },
    {
      "inputs": [
        {
          "internalType": "uint32",
          "name": "_evidenceItemId",
          "type": "uint32"
        },
        {
          "internalType": "string",
          "name": "_reason",
          "type": "string"
        },
        {
          "internalType": "string",
          "name": "_ownerInfo",
          "type": "string"
        }
      ],
      "name": "removeEvidenceItem",
      "outputs": [],
      "stateMutability": "nonpayable",
      "type": "function"
    },
    {
      "inputs": [],
      "name": "getBlockchain",
      "outputs": [
        {
          "components": [
            {
              "internalType": "bytes32",
              "name": "previousHash",
              "type": "bytes32"
            },
            {
              "internalType": "uint64",
              "name": "timestamp",
              "type": "uint64"
            },
            {
              "internalType": "uint128",
              "name": "caseId",
              "type": "uint128"
            },
            {
              "internalType": "uint32",
              "name": "evidenceItemId",
              "type": "uint32"
            },
            {
              "internalType": "string",
              "name": "state",
              "type": "string"
            },
            {
              "internalType": "string",
              "name": "handlerName",
              "type": "string"
            },
            {
              "internalType": "string",
              "name": "organizationName",
              "type": "string"
            },
            {
              "internalType": "string",
              "name": "reason",
              "type": "string"
            },
            {
              "internalType": "uint32",
              "name": "dataLength",
              "type": "uint32"
            },
            {
              "internalType": "bytes",
              "name": "data",
              "type": "bytes"
            }
          ],
          "internalType": "struct ChainOfCustody.Block[]",
          "name": "",
          "type": "tuple[]"
        }
      ],
      "stateMutability": "view",
      "type": "function",
      "constant": true
    },
    {
      "inputs": [
        {
          "internalType": "uint256",
          "name": "index",
          "type": "uint256"
        }
      ],
      "name": "getBlock",
      "outputs": [
        {
          "components": [
            {
              "internalType": "bytes32",
              "name": "previousHash",
              "type": "bytes32"
            },
            {
              "internalType": "uint64",
              "name": "timestamp",
              "type": "uint64"
            },
            {
              "internalType": "uint128",
              "name": "caseId",
              "type": "uint128"
            },
            {
              "internalType": "uint32",
              "name": "evidenceItemId",
              "type": "uint32"
            },
            {
              "internalType": "string",
              "name": "state",
              "type": "string"
            },
            {
              "internalType": "string",
              "name": "handlerName",
              "type": "string"
            },
            {
              "internalType": "string",
              "name": "organizationName",
              "type": "string"
            },
            {
              "internalType": "string",
              "name": "reason",
              "type": "string"
            },
            {
              "internalType": "uint32",
              "name": "dataLength",
              "type": "uint32"
            },
            {
              "internalType": "bytes",
              "name": "data",
              "type": "bytes"
            }
          ],
          "internalType": "struct ChainOfCustody.Block",
          "name": "",
          "type": "tuple"
        }
      ],
      "stateMutability": "view",
      "type": "function",
      "constant": true
    },
    {
      "inputs": [
        {
          "internalType": "uint32",
          "name": "_evidenceItemId",
          "type": "uint32"
        }
      ],
      "name": "init",
      "outputs": [
        {
          "internalType": "bool",
          "name": "",
          "type": "bool"
        }
      ],
      "stateMutability": "view",
      "type": "function",
      "constant": true
    }
  ],
  "bytecode": "0x608060405234801561001057600080fd5b506143ac806100206000396000f3fe608060405234801561001057600080fd5b50600436106100b45760003560e01c8063a358549711610071578063a3585497146101a1578063b35af6c3146101bd578063bfc260de146101ed578063c25b1eaf14610209578063d2bacbc814610242578063e61f36ae1461025e576100b4565b806304c07569146100b9578063065cb594146100e957806336c71d32146101075780633d46424f14610137578063458c26821461015557806382e7994014610185575b600080fd5b6100d360048036038101906100ce9190612ecb565b61028e565b6040516100e09190613d27565b60405180910390f35b6100f16106e4565b6040516100fe9190613b49565b60405180910390f35b610121600480360381019061011c9190612ef4565b610aad565b60405161012e9190613b8d565b60405180910390f35b61013f610bbb565b60405161014c9190613b27565b60405180910390f35b61016f600480360381019061016a9190612ef4565b610fc7565b60405161017c9190613b05565b60405180910390f35b61019f600480360381019061019a9190612f9c565b611489565b005b6101bb60048036038101906101b69190612ef4565b611737565b005b6101d760048036038101906101d29190612ef4565b611b67565b6040516101e49190613b8d565b60405180910390f35b61020760048036038101906102029190612e20565b611b87565b005b610223600480360381019061021e9190612ecb565b611cfc565b6040516102399a99989796959493929190613ba8565b60405180910390f35b61025c60048036038101906102579190612f1d565b612058565b005b61027860048036038101906102739190612df7565b612412565b6040516102859190613b6b565b60405180910390f35b610296612ae8565b60008054905082106102dd576040517f08c379a00000000000000000000000000000000000000000000000000000000081526004016102d490613ce7565b60405180910390fd5b60008281548110610317577f4e487b7100000000000000000000000000000000000000000000000000000000600052603260045260246000fd5b906000526020600020906008020160405180610140016040529081600082015481526020016001820160009054906101000a900467ffffffffffffffff1667ffffffffffffffff1667ffffffffffffffff1681526020016001820160089054906101000a90046fffffffffffffffffffffffffffffffff166fffffffffffffffffffffffffffffffff166fffffffffffffffffffffffffffffffff1681526020016001820160189054906101000a900463ffffffff1663ffffffff1663ffffffff1681526020016002820180546103ed906141b1565b80601f0160208091040260200160405190810160405280929190818152602001828054610419906141b1565b80156104665780601f1061043b57610100808354040283529160200191610466565b820191906000526020600020905b81548152906001019060200180831161044957829003601f168201915b5050505050815260200160038201805461047f906141b1565b80601f01602080910402602001604051908101604052809291908181526020018280546104ab906141b1565b80156104f85780601f106104cd576101008083540402835291602001916104f8565b820191906000526020600020905b8154815290600101906020018083116104db57829003601f168201915b50505050508152602001600482018054610511906141b1565b80601f016020809104026020016040519081016040528092919081815260200182805461053d906141b1565b801561058a5780601f1061055f5761010080835404028352916020019161058a565b820191906000526020600020905b81548152906001019060200180831161056d57829003601f168201915b505050505081526020016005820180546105a3906141b1565b80601f01602080910402602001604051908101604052809291908181526020018280546105cf906141b1565b801561061c5780601f106105f15761010080835404028352916020019161061c565b820191906000526020600020905b8154815290600101906020018083116105ff57829003601f168201915b505050505081526020016006820160009054906101000a900463ffffffff1663ffffffff1663ffffffff16815260200160078201805461065b906141b1565b80601f0160208091040260200160405190810160405280929190818152602001828054610687906141b1565b80156106d45780601f106106a9576101008083540402835291602001916106d4565b820191906000526020600020905b8154815290600101906020018083116106b757829003601f168201915b5050505050815250509050919050565b60606000808054905067ffffffffffffffff81111561072c577f4e487b7100000000000000000000000000000000000000000000000000000000600052604160045260246000fd5b60405190808252806020026020018201604052801561075a5781602001602082028036833780820191505090505b5090506000805b600080549050811015610965576000805b8381101561086957600083815481106107b4577f4e487b7100000000000000000000000000000000000000000000000000000000600052603260045260246000fd5b906000526020600020906008020160010160089054906101000a90046fffffffffffffffffffffffffffffffff166fffffffffffffffffffffffffffffffff1685828151811061082d577f4e487b7100000000000000000000000000000000000000000000000000000000600052603260045260246000fd5b60200260200101516fffffffffffffffffffffffffffffffff1614156108565760019150610869565b8080610861906141e3565b915050610772565b508061095157600082815481106108a9577f4e487b7100000000000000000000000000000000000000000000000000000000600052603260045260246000fd5b906000526020600020906008020160010160089054906101000a90046fffffffffffffffffffffffffffffffff16848481518110610910577f4e487b7100000000000000000000000000000000000000000000000000000000600052603260045260246000fd5b60200260200101906fffffffffffffffffffffffffffffffff1690816fffffffffffffffffffffffffffffffff1681525050828061094d906141e3565b9350505b50808061095d906141e3565b915050610761565b5060008167ffffffffffffffff8111156109a8577f4e487b7100000000000000000000000000000000000000000000000000000000600052604160045260246000fd5b6040519080825280602002602001820160405280156109d65781602001602082028036833780820191505090505b50905060005b82811015610aa357838181518110610a1d577f4e487b7100000000000000000000000000000000000000000000000000000000600052603260045260246000fd5b6020026020010151828281518110610a5e577f4e487b7100000000000000000000000000000000000000000000000000000000600052603260045260246000fd5b60200260200101906fffffffffffffffffffffffffffffffff1690816fffffffffffffffffffffffffffffffff16815250508080610a9b906141e3565b9150506109dc565b5080935050505090565b6000806000805490501415610ac55760009050610bb6565b60005b600080549050811015610bb0578263ffffffff1660008281548110610b16577f4e487b7100000000000000000000000000000000000000000000000000000000600052603260045260246000fd5b906000526020600020906008020160010160189054906101000a900463ffffffff1663ffffffff161415610b9d576000801b60008281548110610b82577f4e487b7100000000000000000000000000000000000000000000000000000000600052603260045260246000fd5b90600052602060002090600802016000015414915050610bb6565b8080610ba8906141e3565b915050610ac8565b50600090505b919050565b60606000805480602002602001604051908101604052809291908181526020016000905b82821015610fbe578382906000526020600020906008020160405180610140016040529081600082015481526020016001820160009054906101000a900467ffffffffffffffff1667ffffffffffffffff1667ffffffffffffffff1681526020016001820160089054906101000a90046fffffffffffffffffffffffffffffffff166fffffffffffffffffffffffffffffffff166fffffffffffffffffffffffffffffffff1681526020016001820160189054906101000a900463ffffffff1663ffffffff1663ffffffff168152602001600282018054610cbf906141b1565b80601f0160208091040260200160405190810160405280929190818152602001828054610ceb906141b1565b8015610d385780601f10610d0d57610100808354040283529160200191610d38565b820191906000526020600020905b815481529060010190602001808311610d1b57829003601f168201915b50505050508152602001600382018054610d51906141b1565b80601f0160208091040260200160405190810160405280929190818152602001828054610d7d906141b1565b8015610dca5780601f10610d9f57610100808354040283529160200191610dca565b820191906000526020600020905b815481529060010190602001808311610dad57829003601f168201915b50505050508152602001600482018054610de3906141b1565b80601f0160208091040260200160405190810160405280929190818152602001828054610e0f906141b1565b8015610e5c5780601f10610e3157610100808354040283529160200191610e5c565b820191906000526020600020905b815481529060010190602001808311610e3f57829003601f168201915b50505050508152602001600582018054610e75906141b1565b80601f0160208091040260200160405190810160405280929190818152602001828054610ea1906141b1565b8015610eee5780601f10610ec357610100808354040283529160200191610eee565b820191906000526020600020905b815481529060010190602001808311610ed157829003601f168201915b505050505081526020016006820160009054906101000a900463ffffffff1663ffffffff1663ffffffff168152602001600782018054610f2d906141b1565b80601f0160208091040260200160405190810160405280929190818152602001828054610f59906141b1565b8015610fa65780601f10610f7b57610100808354040283529160200191610fa6565b820191906000526020600020905b815481529060010190602001808311610f8957829003601f168201915b50505050508152505081526020019060010190610bdf565b50505050905090565b60606000808054905067ffffffffffffffff81111561100f577f4e487b7100000000000000000000000000000000000000000000000000000000600052604160045260246000fd5b60405190808252806020026020018201604052801561104857816020015b611035612b66565b81526020019060019003908161102d5790505b5090506000805b60008054905081101561135b578463ffffffff166000828154811061109d577f4e487b7100000000000000000000000000000000000000000000000000000000600052603260045260246000fd5b906000526020600020906008020160010160189054906101000a900463ffffffff1663ffffffff16141561134857604051806060016040528060008381548110611110577f4e487b7100000000000000000000000000000000000000000000000000000000600052603260045260246000fd5b906000526020600020906008020160010160009054906101000a900467ffffffffffffffff1667ffffffffffffffff1681526020016000838154811061117f577f4e487b7100000000000000000000000000000000000000000000000000000000600052603260045260246000fd5b9060005260206000209060080201600301805461119b906141b1565b80601f01602080910402602001604051908101604052809291908181526020018280546111c7906141b1565b80156112145780601f106111e957610100808354040283529160200191611214565b820191906000526020600020905b8154815290600101906020018083116111f757829003601f168201915b5050505050815260200160008381548110611258577f4e487b7100000000000000000000000000000000000000000000000000000000600052603260045260246000fd5b90600052602060002090600802016002018054611274906141b1565b80601f01602080910402602001604051908101604052809291908181526020018280546112a0906141b1565b80156112ed5780601f106112c2576101008083540402835291602001916112ed565b820191906000526020600020905b8154815290600101906020018083116112d057829003601f168201915b505050505081525083838151811061132e577f4e487b7100000000000000000000000000000000000000000000000000000000600052603260045260246000fd5b60200260200101819052508180611344906141e3565b9250505b8080611353906141e3565b91505061104f565b5060008167ffffffffffffffff81111561139e577f4e487b7100000000000000000000000000000000000000000000000000000000600052604160045260246000fd5b6040519080825280602002602001820160405280156113d757816020015b6113c4612b66565b8152602001906001900390816113bc5790505b50905060005b8281101561147d5783818151811061141e577f4e487b7100000000000000000000000000000000000000000000000000000000600052603260045260246000fd5b602002602001015182828151811061145f577f4e487b7100000000000000000000000000000000000000000000000000000000600052603260045260246000fd5b60200260200101819052508080611475906141e3565b9150506113dd565b50809350505050919050565b600160008563ffffffff1663ffffffff16815260200190815260200160002060009054906101000a900460ff166114f5576040517f08c379a00000000000000000000000000000000000000000000000000000000081526004016114ec90613d07565b60405180910390fd5b600080600160008054905061150a91906140db565b81548110611541577f4e487b7100000000000000000000000000000000000000000000000000000000600052603260045260246000fd5b9060005260206000209060080201905060405160200161156090613adb565b604051602081830303815290604052805190602001208160020160405160200161158a9190613ac4565b6040516020818303038152906040528051906020012014156115e1576040517f08c379a00000000000000000000000000000000000000000000000000000000081526004016115d890613c87565b60405180910390fd5b6116d18160010160089054906101000a90046fffffffffffffffffffffffffffffffff16866040518060400160405280600981526020017f434845434b4544494e000000000000000000000000000000000000000000000081525087878787600701805461164e906141b1565b80601f016020809104026020016040519081016040528092919081815260200182805461167a906141b1565b80156116c75780601f1061169c576101008083540402835291602001916116c7565b820191906000526020600020905b8154815290600101906020018083116116aa57829003601f168201915b5050505050612732565b7fd49b2c04b215ac50c6ff4b42e1d6b23fd458febea2c121b32c9289641fb633288160010160089054906101000a90046fffffffffffffffffffffffffffffffff1686428787604051611728959493929190613e20565b60405180910390a15050505050565b600160008263ffffffff1663ffffffff16815260200190815260200160002060009054906101000a900460ff166117a3576040517f08c379a000000000000000000000000000000000000000000000000000000000815260040161179a90613d07565b60405180910390fd5b60008060016000805490506117b891906140db565b815481106117ef577f4e487b7100000000000000000000000000000000000000000000000000000000600052603260045260246000fd5b906000526020600020906008020190508163ffffffff168160010160189054906101000a900463ffffffff1663ffffffff1614611861576040517f08c379a000000000000000000000000000000000000000000000000000000000815260040161185890613ca7565b60405180910390fd5b60405160200161187090613af0565b604051602081830303815290604052805190602001208160020160405160200161189a9190613ac4565b6040516020818303038152906040528051906020012014156118f1576040517f08c379a00000000000000000000000000000000000000000000000000000000081526004016118e890613c87565b60405180910390fd5b611b088160010160089054906101000a90046fffffffffffffffffffffffffffffffff16836040518060400160405280600a81526020017f434845434b45444f55540000000000000000000000000000000000000000000081525084600301805461195b906141b1565b80601f0160208091040260200160405190810160405280929190818152602001828054611987906141b1565b80156119d45780601f106119a9576101008083540402835291602001916119d4565b820191906000526020600020905b8154815290600101906020018083116119b757829003601f168201915b50505050508560040180546119e8906141b1565b80601f0160208091040260200160405190810160405280929190818152602001828054611a14906141b1565b8015611a615780601f10611a3657610100808354040283529160200191611a61565b820191906000526020600020905b815481529060010190602001808311611a4457829003601f168201915b505050505060405180602001604052806000815250876007018054611a85906141b1565b80601f0160208091040260200160405190810160405280929190818152602001828054611ab1906141b1565b8015611afe5780601f10611ad357610100808354040283529160200191611afe565b820191906000526020600020905b815481529060010190602001808311611ae157829003601f168201915b5050505050612732565b7f431bdc219b0c2d27308a12cb3b26a63cb93a3eb90bb495bd6db61ed74e2a89ce8160010160089054906101000a90046fffffffffffffffffffffffffffffffff168342604051611b5b93929190613e8d565b60405180910390a15050565b60016020528060005260406000206000915054906101000a900460ff1681565b60005b8351811015611cf55760016000858381518110611bd0577f4e487b7100000000000000000000000000000000000000000000000000000000600052603260045260246000fd5b602002602001015163ffffffff1663ffffffff16815260200190815260200160002060009054906101000a900460ff1615611c40576040517f08c379a0000000000000000000000000000000000000000000000000000000008152600401611c3790613cc7565b60405180910390fd5b611ce285858381518110611c7d577f4e487b7100000000000000000000000000000000000000000000000000000000600052603260045260246000fd5b60200260200101516040518060400160405280600981526020017f434845434b4544494e000000000000000000000000000000000000000000000081525086866040518060200160405280600081525060405180602001604052806000815250612732565b8080611ced906141e3565b915050611b8a565b5050505050565b60008181548110611d0c57600080fd5b90600052602060002090600802016000915090508060000154908060010160009054906101000a900467ffffffffffffffff16908060010160089054906101000a90046fffffffffffffffffffffffffffffffff16908060010160189054906101000a900463ffffffff1690806002018054611d87906141b1565b80601f0160208091040260200160405190810160405280929190818152602001828054611db3906141b1565b8015611e005780601f10611dd557610100808354040283529160200191611e00565b820191906000526020600020905b815481529060010190602001808311611de357829003601f168201915b505050505090806003018054611e15906141b1565b80601f0160208091040260200160405190810160405280929190818152602001828054611e41906141b1565b8015611e8e5780601f10611e6357610100808354040283529160200191611e8e565b820191906000526020600020905b815481529060010190602001808311611e7157829003601f168201915b505050505090806004018054611ea3906141b1565b80601f0160208091040260200160405190810160405280929190818152602001828054611ecf906141b1565b8015611f1c5780601f10611ef157610100808354040283529160200191611f1c565b820191906000526020600020905b815481529060010190602001808311611eff57829003601f168201915b505050505090806005018054611f31906141b1565b80601f0160208091040260200160405190810160405280929190818152602001828054611f5d906141b1565b8015611faa5780601f10611f7f57610100808354040283529160200191611faa565b820191906000526020600020905b815481529060010190602001808311611f8d57829003601f168201915b5050505050908060060160009054906101000a900463ffffffff1690806007018054611fd5906141b1565b80601f0160208091040260200160405190810160405280929190818152602001828054612001906141b1565b801561204e5780601f106120235761010080835404028352916020019161204e565b820191906000526020600020905b81548152906001019060200180831161203157829003601f168201915b505050505090508a565b600160008463ffffffff1663ffffffff16815260200190815260200160002060009054906101000a900460ff166120c4576040517f08c379a00000000000000000000000000000000000000000000000000000000081526004016120bb90613d07565b60405180910390fd5b60008060016000805490506120d991906140db565b81548110612110577f4e487b7100000000000000000000000000000000000000000000000000000000600052603260045260246000fd5b906000526020600020906008020190508363ffffffff168160010160189054906101000a900463ffffffff1663ffffffff1614801561219b575060405160200161215990613adb565b60405160208183030381529060405280519060200120816002016040516020016121839190613ac4565b60405160208183030381529060405280519060200120145b6121da576040517f08c379a00000000000000000000000000000000000000000000000000000000081526004016121d190613c67565b60405180910390fd5b6123ad8160010160089054906101000a90046fffffffffffffffffffffffffffffffff16858584600301805461220f906141b1565b80601f016020809104026020016040519081016040528092919081815260200182805461223b906141b1565b80156122885780601f1061225d57610100808354040283529160200191612288565b820191906000526020600020905b81548152906001019060200180831161226b57829003601f168201915b505050505085600401805461229c906141b1565b80601f01602080910402602001604051908101604052809291908181526020018280546122c8906141b1565b80156123155780601f106122ea57610100808354040283529160200191612315565b820191906000526020600020905b8154815290600101906020018083116122f857829003601f168201915b50505050508787600701805461232a906141b1565b80601f0160208091040260200160405190810160405280929190818152602001828054612356906141b1565b80156123a35780601f10612378576101008083540402835291602001916123a3565b820191906000526020600020905b81548152906001019060200180831161238657829003601f168201915b5050505050612732565b7f131b0104fffef9791a656820b9d5349cb76c71fee3129316cd22fb398cee5b5d8160010160089054906101000a90046fffffffffffffffffffffffffffffffff1685428686604051612404959493929190613d49565b60405180910390a150505050565b60606000808054905067ffffffffffffffff81111561245a577f4e487b7100000000000000000000000000000000000000000000000000000000600052604160045260246000fd5b6040519080825280602002602001820160405280156124885781602001602082028036833780820191505090505b5090506000805b60008054905081101561260057846fffffffffffffffffffffffffffffffff16600082815481106124e9577f4e487b7100000000000000000000000000000000000000000000000000000000600052603260045260246000fd5b906000526020600020906008020160010160089054906101000a90046fffffffffffffffffffffffffffffffff166fffffffffffffffffffffffffffffffff1614156125ed5760008181548110612569577f4e487b7100000000000000000000000000000000000000000000000000000000600052603260045260246000fd5b906000526020600020906008020160010160189054906101000a900463ffffffff168383815181106125c4577f4e487b7100000000000000000000000000000000000000000000000000000000600052603260045260246000fd5b602002602001019063ffffffff16908163ffffffff168152505081806125e9906141e3565b9250505b80806125f8906141e3565b91505061248f565b5060008167ffffffffffffffff811115612643577f4e487b7100000000000000000000000000000000000000000000000000000000600052604160045260246000fd5b6040519080825280602002602001820160405280156126715781602001602082028036833780820191505090505b50905060005b82811015612726578381815181106126b8577f4e487b7100000000000000000000000000000000000000000000000000000000600052603260045260246000fd5b60200260200101518282815181106126f9577f4e487b7100000000000000000000000000000000000000000000000000000000600052603260045260246000fd5b602002602001019063ffffffff16908163ffffffff1681525050808061271e906141e3565b915050612677565b50809350505050919050565b60008060008054905011612749576000801b612752565b6127516129dd565b5b9050600042905060008351905060006040518061014001604052808581526020018467ffffffffffffffff1681526020018c6fffffffffffffffffffffffffffffffff1681526020018b63ffffffff1681526020018a81526020018981526020018881526020018781526020018363ffffffff16815260200186815250905060008190806001815401808255809150506001900390600052602060002090600802016000909190919091506000820151816000015560208201518160010160006101000a81548167ffffffffffffffff021916908367ffffffffffffffff16021790555060408201518160010160086101000a8154816fffffffffffffffffffffffffffffffff02191690836fffffffffffffffffffffffffffffffff16021790555060608201518160010160186101000a81548163ffffffff021916908363ffffffff16021790555060808201518160020190805190602001906128b8929190612b91565b5060a08201518160030190805190602001906128d5929190612b91565b5060c08201518160040190805190602001906128f2929190612b91565b5060e082015181600501908051906020019061290f929190612b91565b506101008201518160060160006101000a81548163ffffffff021916908363ffffffff160217905550610120820151816007019080519060200190612955929190612c17565b50505060018060008c63ffffffff1663ffffffff16815260200190815260200160002060006101000a81548160ff0219169083151502179055507f33a1c1a3b9a16d06083c74dc302e2fcc5be80f5e5aa2ae9a270c78f82731b11b8b8b858c8c8c6040516129c896959493929190613daa565b60405180910390a15050505050505050505050565b600080600060016000805490506129f491906140db565b81548110612a2b577f4e487b7100000000000000000000000000000000000000000000000000000000600052603260045260246000fd5b9060005260206000209060080201905080600001548160010160009054906101000a900467ffffffffffffffff168260010160089054906101000a90046fffffffffffffffffffffffffffffffff168360010160189054906101000a900463ffffffff168460020185600301866004018760060160009054906101000a900463ffffffff1688600701604051602001612acc99989796959493929190613a31565b6040516020818303038152906040528051906020012091505090565b60405180610140016040528060008019168152602001600067ffffffffffffffff16815260200160006fffffffffffffffffffffffffffffffff168152602001600063ffffffff16815260200160608152602001606081526020016060815260200160608152602001600063ffffffff168152602001606081525090565b6040518060600160405280600067ffffffffffffffff16815260200160608152602001606081525090565b828054612b9d906141b1565b90600052602060002090601f016020900481019282612bbf5760008555612c06565b82601f10612bd857805160ff1916838001178555612c06565b82800160010185558215612c06579182015b82811115612c05578251825591602001919060010190612bea565b5b509050612c139190612c9d565b5090565b828054612c23906141b1565b90600052602060002090601f016020900481019282612c455760008555612c8c565b82601f10612c5e57805160ff1916838001178555612c8c565b82800160010185558215612c8c579182015b82811115612c8b578251825591602001919060010190612c70565b5b509050612c999190612c9d565b5090565b5b80821115612cb6576000816000905550600101612c9e565b5090565b6000612ccd612cc884613f01565b613ed0565b90508083825260208201905082856020860282011115612cec57600080fd5b60005b85811015612d1c5781612d028882612de2565b845260208401935060208301925050600181019050612cef565b5050509392505050565b6000612d39612d3484613f2d565b613ed0565b905082815260208101848484011115612d5157600080fd5b612d5c84828561416f565b509392505050565b600082601f830112612d7557600080fd5b8135612d85848260208601612cba565b91505092915050565b600082601f830112612d9f57600080fd5b8135612daf848260208601612d26565b91505092915050565b600081359050612dc781614331565b92915050565b600081359050612ddc81614348565b92915050565b600081359050612df18161435f565b92915050565b600060208284031215612e0957600080fd5b6000612e1784828501612db8565b91505092915050565b60008060008060808587031215612e3657600080fd5b6000612e4487828801612db8565b945050602085013567ffffffffffffffff811115612e6157600080fd5b612e6d87828801612d64565b935050604085013567ffffffffffffffff811115612e8a57600080fd5b612e9687828801612d8e565b925050606085013567ffffffffffffffff811115612eb357600080fd5b612ebf87828801612d8e565b91505092959194509250565b600060208284031215612edd57600080fd5b6000612eeb84828501612dcd565b91505092915050565b600060208284031215612f0657600080fd5b6000612f1484828501612de2565b91505092915050565b600080600060608486031215612f3257600080fd5b6000612f4086828701612de2565b935050602084013567ffffffffffffffff811115612f5d57600080fd5b612f6986828701612d8e565b925050604084013567ffffffffffffffff811115612f8657600080fd5b612f9286828701612d8e565b9150509250925092565b60008060008060808587031215612fb257600080fd5b6000612fc087828801612de2565b945050602085013567ffffffffffffffff811115612fdd57600080fd5b612fe987828801612d8e565b935050604085013567ffffffffffffffff81111561300657600080fd5b61301287828801612d8e565b925050606085013567ffffffffffffffff81111561302f57600080fd5b61303b87828801612d8e565b91505092959194509250565b6000613053838361374f565b905092915050565b600061306783836137a6565b905092915050565b600061307b8383613992565b60208301905092915050565b600061309383836139c7565b60208301905092915050565b60006130aa82613fc7565b6130b4818561403d565b9350836020820285016130c685613f5d565b8060005b8581101561310257848403895281516130e38582613047565b94506130ee83614009565b925060208a019950506001810190506130ca565b50829750879550505050505092915050565b600061311f82613fd2565b613129818561404e565b93508360208202850161313b85613f6d565b8060005b858110156131775784840389528151613158858261305b565b945061316383614016565b925060208a0199505060018101905061313f565b50829750879550505050505092915050565b600061319482613fdd565b61319e818561405f565b93506131a983613f7d565b8060005b838110156131da5781516131c1888261306f565b97506131cc83614023565b9250506001810190506131ad565b5085935050505092915050565b60006131f282613fe8565b6131fc8185614070565b935061320783613f8d565b8060005b8381101561323857815161321f8882613087565b975061322a83614030565b92505060018101905061320b565b5085935050505092915050565b61324e8161410f565b82525050565b61325d8161411b565b82525050565b61326c8161411b565b82525050565b61328361327e8261411b565b61422c565b82525050565b600061329482613ff3565b61329e8185614081565b93506132ae81856020860161417e565b6132b7816142f9565b840191505092915050565b60006132cd82613ff3565b6132d78185614092565b93506132e781856020860161417e565b6132f0816142f9565b840191505092915050565b60008154613308816141b1565b61331281866140a3565b9450600182166000811461332d576001811461333e57613371565b60ff19831686528186019350613371565b61334785613f9d565b60005b838110156133695781548189015260018201915060208101905061334a565b838801955050505b50505092915050565b600061338582613ffe565b61338f81856140ae565b935061339f81856020860161417e565b6133a8816142f9565b840191505092915050565b60006133be82613ffe565b6133c881856140bf565b93506133d881856020860161417e565b6133e1816142f9565b840191505092915050565b600081546133f9816141b1565b61340381866140d0565b9450600182166000811461341e576001811461342f57613462565b60ff19831686528186019350613462565b61343885613fb2565b60005b8381101561345a5781548189015260018201915060208101905061343b565b838801955050505b50505092915050565b7f434845434b4544494e0000000000000000000000000000000000000000000000815250565b600061349e6009836140d0565b91507f434845434b4544494e00000000000000000000000000000000000000000000006000830152600982019050919050565b60006134de602d836140bf565b91507f4572726f723a204974656d206d75737420626520636865636b656420696e207460008301527f6f2062652072656d6f7665642e000000000000000000000000000000000000006020830152604082019050919050565b7f434845434b45444f555400000000000000000000000000000000000000000000815250565b600061356a600a836140d0565b91507f434845434b45444f5554000000000000000000000000000000000000000000006000830152600a82019050919050565b60006135aa6043836140bf565b91507f4572726f723a2043616e6e6f7420636865636b206f7574206120636865636b6560008301527f64206f7574206974656d2e204d75737420636865636b20697420696e2066697260208301527f73742e00000000000000000000000000000000000000000000000000000000006040830152606082019050919050565b6000613636601b836140bf565b91507f4572726f723a2057726f6e672065766964656e6365206974656d2e00000000006000830152602082019050919050565b6000613676601f836140bf565b91507f45766964656e6365206974656d204944206d75737420626520756e69717565006000830152602082019050919050565b60006136b66013836140bf565b91507f496e646578206f7574206f6620626f756e6473000000000000000000000000006000830152602082019050919050565b60006136f66024836140bf565b91507f4572726f723a2045766964656e6365206974656d20646f6573206e6f7420657860008301527f6973742e000000000000000000000000000000000000000000000000000000006020830152604082019050919050565b600060608301600083015161376760008601826139fc565b506020830151848203602086015261377f828261337a565b91505060408301518482036040860152613799828261337a565b9150508091505092915050565b6000610140830160008301516137bf6000860182613254565b5060208301516137d260208601826139fc565b5060408301516137e56040860182613992565b5060608301516137f860608601826139c7565b5060808301518482036080860152613810828261337a565b91505060a083015184820360a086015261382a828261337a565b91505060c083015184820360c0860152613844828261337a565b91505060e083015184820360e086015261385e828261337a565b9150506101008301516138756101008601826139c7565b5061012083015184820361012086015261388f8282613289565b9150508091505092915050565b6000610140830160008301516138b56000860182613254565b5060208301516138c860208601826139fc565b5060408301516138db6040860182613992565b5060608301516138ee60608601826139c7565b5060808301518482036080860152613906828261337a565b91505060a083015184820360a0860152613920828261337a565b91505060c083015184820360c086015261393a828261337a565b91505060e083015184820360e0860152613954828261337a565b91505061010083015161396b6101008601826139c7565b506101208301518482036101208601526139858282613289565b9150508091505092915050565b61399b81614125565b82525050565b6139aa81614125565b82525050565b6139c16139bc82614125565b614236565b82525050565b6139d08161414b565b82525050565b6139df8161414b565b82525050565b6139f66139f18261414b565b614248565b82525050565b613a058161415b565b82525050565b613a148161415b565b82525050565b613a2b613a268261415b565b61425a565b82525050565b6000613a3d828c613272565b602082019150613a4d828b613a1a565b600882019150613a5d828a6139b0565b601082019150613a6d82896139e5565b600482019150613a7d82886133ec565b9150613a8982876133ec565b9150613a9582866133ec565b9150613aa182856139e5565b600482019150613ab182846132fb565b91508190509a9950505050505050505050565b6000613ad082846133ec565b915081905092915050565b6000613ae682613491565b9150819050919050565b6000613afb8261355d565b9150819050919050565b60006020820190508181036000830152613b1f818461309f565b905092915050565b60006020820190508181036000830152613b418184613114565b905092915050565b60006020820190508181036000830152613b638184613189565b905092915050565b60006020820190508181036000830152613b8581846131e7565b905092915050565b6000602082019050613ba26000830184613245565b92915050565b600061014082019050613bbe600083018d613263565b613bcb602083018c613a0b565b613bd8604083018b6139a1565b613be5606083018a6139d6565b8181036080830152613bf781896133b3565b905081810360a0830152613c0b81886133b3565b905081810360c0830152613c1f81876133b3565b905081810360e0830152613c3381866133b3565b9050613c436101008301856139d6565b818103610120830152613c5681846132c2565b90509b9a5050505050505050505050565b60006020820190508181036000830152613c80816134d1565b9050919050565b60006020820190508181036000830152613ca08161359d565b9050919050565b60006020820190508181036000830152613cc081613629565b9050919050565b60006020820190508181036000830152613ce081613669565b9050919050565b60006020820190508181036000830152613d00816136a9565b9050919050565b60006020820190508181036000830152613d20816136e9565b9050919050565b60006020820190508181036000830152613d41818461389c565b905092915050565b600060a082019050613d5e60008301886139a1565b613d6b60208301876139d6565b613d786040830186613a0b565b8181036060830152613d8a81856133b3565b90508181036080830152613d9e81846133b3565b90509695505050505050565b600060c082019050613dbf60008301896139a1565b613dcc60208301886139d6565b613dd96040830187613a0b565b8181036060830152613deb81866133b3565b90508181036080830152613dff81856133b3565b905081810360a0830152613e1381846133b3565b9050979650505050505050565b600060c082019050613e3560008301886139a1565b613e4260208301876139d6565b613e4f6040830186613a0b565b613e5b6060830161346b565b8181036080830152613e6d81856133b3565b905081810360a0830152613e8181846133b3565b90509695505050505050565b6000608082019050613ea260008301866139a1565b613eaf60208301856139d6565b613ebc6040830184613a0b565b613ec860608301613537565b949350505050565b6000604051905081810181811067ffffffffffffffff82111715613ef757613ef66142ca565b5b8060405250919050565b600067ffffffffffffffff821115613f1c57613f1b6142ca565b5b602082029050602081019050919050565b600067ffffffffffffffff821115613f4857613f476142ca565b5b601f19601f8301169050602081019050919050565b6000819050602082019050919050565b6000819050602082019050919050565b6000819050602082019050919050565b6000819050602082019050919050565b60008190508160005260206000209050919050565b60008190508160005260206000209050919050565b600081519050919050565b600081519050919050565b600081519050919050565b600081519050919050565b600081519050919050565b600081519050919050565b6000602082019050919050565b6000602082019050919050565b6000602082019050919050565b6000602082019050919050565b600082825260208201905092915050565b600082825260208201905092915050565b600082825260208201905092915050565b600082825260208201905092915050565b600082825260208201905092915050565b600082825260208201905092915050565b600081905092915050565b600082825260208201905092915050565b600082825260208201905092915050565b600081905092915050565b60006140e682614141565b91506140f183614141565b9250828210156141045761410361426c565b5b828203905092915050565b60008115159050919050565b6000819050919050565b60006fffffffffffffffffffffffffffffffff82169050919050565b6000819050919050565b600063ffffffff82169050919050565b600067ffffffffffffffff82169050919050565b82818337600083830152505050565b60005b8381101561419c578082015181840152602081019050614181565b838111156141ab576000848401525b50505050565b600060028204905060018216806141c957607f821691505b602082108114156141dd576141dc61429b565b5b50919050565b60006141ee82614141565b91507fffffffffffffffffffffffffffffffffffffffffffffffffffffffffffffffff8214156142215761422061426c565b5b600182019050919050565b6000819050919050565b60006142418261430a565b9050919050565b600061425382614324565b9050919050565b600061426582614317565b9050919050565b7f4e487b7100000000000000000000000000000000000000000000000000000000600052601160045260246000fd5b7f4e487b7100000000000000000000000000000000000000000000000000000000600052602260045260246000fd5b7f4e487b7100000000000000000000000000000000000000000000000000000000600052604160045260246000fd5b6000601f19601f8301169050919050565b60008160801b9050919050565b60008160c01b9050919050565b60008160e01b9050919050565b61433a81614125565b811461434557600080fd5b50565b61435181614141565b811461435c57600080fd5b50565b6143688161414b565b811461437357600080fd5b5056fea264697066735822122068b0ff5a2a6c0b1100ded7bc27654f2ddafbdaed671d474c3d0ff32a37787cb164736f6c63430008000033",
  "immutableReferences": {},
  "source": "// SPDX-License-Identifier: MIT\npragma solidity ^0.8.0;\n\ncontract ChainOfCustody {\n    struct Block {\n        bytes32 previousHash;\n        uint64 timestamp;\n        uint128 caseId;\n        uint32 evidenceItemId;\n        string state;\n        string handlerName; // Changed from bytes20 to string\n        string organizationName; // Changed from bytes20 to string\n        string reason;\n        uint32 dataLength;\n        bytes data;\n    }\n\n    Block[] public blockchain;\n    mapping(uint32 => bool) public evidenceExists;\n\n    // Updated event to use strings\n    event EvidenceItemAdded(\n        uint128 caseId,\n        uint32 evidenceItemId,\n        uint64 timestamp,\n        string state,\n        string handlerName,\n        string organizationName\n    );\n\n    // Updated function to accept string parameters\n    function addEvidenceItems(\n        uint128 _caseId,\n        uint32[] memory _itemIds,\n        string memory _handlerName,\n        string memory _organizationName\n    ) public {\n        for (uint i = 0; i < _itemIds.length; i++) {\n            require(\n                !evidenceExists[_itemIds[i]],\n                \"Evidence item ID must be unique\"\n            );\n            addBlock(\n                _caseId,\n                _itemIds[i],\n                \"CHECKEDIN\",\n                _handlerName,\n                _organizationName,\n                \"\",\n                \"\"\n            );\n        }\n    }\n\n    // Updated function to accept string parameters\n    function addBlock(\n        uint128 _caseId,\n        uint32 _evidenceItemId,\n        string memory _state,\n        string memory _handlerName,\n        string memory _organizationName,\n        string memory _reason,\n        bytes memory _data\n    ) private {\n        bytes32 previousHash = blockchain.length > 0\n            ? getLatestBlockHash()\n            : bytes32(0);\n        uint64 timestamp = uint64(block.timestamp);\n        uint32 dataLength = uint32(_data.length);\n\n        Block memory newBlock = Block(\n            previousHash,\n            timestamp,\n            _caseId,\n            _evidenceItemId,\n            _state,\n            _handlerName,\n            _organizationName,\n            _reason,\n            dataLength,\n            _data\n        );\n\n        blockchain.push(newBlock);\n        evidenceExists[_evidenceItemId] = true;\n\n        emit EvidenceItemAdded(\n            _caseId,\n            _evidenceItemId,\n            timestamp,\n            _state,\n            _handlerName,\n            _organizationName\n        );\n    }\n\n    function getLatestBlockHash() private view returns (bytes32) {\n        Block storage lastBlock = blockchain[blockchain.length - 1];\n        return\n            keccak256(\n                abi.encodePacked(\n                    lastBlock.previousHash,\n                    lastBlock.timestamp,\n                    lastBlock.caseId,\n                    lastBlock.evidenceItemId,\n                    lastBlock.state,\n                    lastBlock.handlerName,\n                    lastBlock.organizationName,\n                    lastBlock.dataLength,\n                    lastBlock.data\n                )\n            );\n    }\n\n    event EvidenceItemCheckedOut(\n        uint128 caseId,\n        uint32 evidenceItemId,\n        uint64 timestamp,\n        bytes12 state\n    );\n\n    function checkoutEvidenceItem(uint32 _evidenceItemId) public {\n        require(\n            evidenceExists[_evidenceItemId],\n            \"Error: Evidence item does not exist.\"\n        );\n        Block storage lastBlock = blockchain[blockchain.length - 1];\n        require(\n            lastBlock.evidenceItemId == _evidenceItemId,\n            \"Error: Wrong evidence item.\"\n        );\n        require(\n            keccak256(abi.encodePacked(lastBlock.state)) !=\n                keccak256(abi.encodePacked(\"CHECKEDOUT\")),\n            \"Error: Cannot check out a checked out item. Must check it in first.\"\n        );\n\n        // Assuming 'addBlock' function updates the state and creates a new block in the blockchain\n        addBlock(\n            lastBlock.caseId,\n            _evidenceItemId,\n            \"CHECKEDOUT\",\n            lastBlock.handlerName,\n            lastBlock.organizationName,\n            \"\",\n            lastBlock.data\n        );\n        emit EvidenceItemCheckedOut(\n            lastBlock.caseId,\n            _evidenceItemId,\n            uint64(block.timestamp),\n            \"CHECKEDOUT\"\n        );\n    }\n\n    event EvidenceItemCheckedIn(\n        uint128 caseId,\n        uint32 evidenceItemId,\n        uint64 timestamp,\n        bytes12 state,\n        string handlerName,\n        string organizationName\n    );\n\n    function checkinEvidenceItem(\n        uint32 _evidenceItemId,\n        string memory _handlerName,\n        string memory _organizationName,\n        string memory _reason\n    ) public {\n        require(\n            evidenceExists[_evidenceItemId],\n            \"Error: Evidence item does not exist.\"\n        );\n\n        // Check if the item is not already checked in\n        Block storage lastBlock = blockchain[blockchain.length - 1];\n        require(\n            keccak256(abi.encodePacked(lastBlock.state)) !=\n                keccak256(abi.encodePacked(\"CHECKEDIN\")),\n            \"Error: Cannot check out a checked out item. Must check it in first.\"\n        );\n\n        // Add a new block for checkin\n        addBlock(\n            lastBlock.caseId,\n            _evidenceItemId,\n            \"CHECKEDIN\",\n            _handlerName,\n            _organizationName,\n            _reason,\n            lastBlock.data\n        );\n        emit EvidenceItemCheckedIn(\n            lastBlock.caseId,\n            _evidenceItemId,\n            uint64(block.timestamp),\n            \"CHECKEDIN\",\n            _handlerName,\n            _organizationName\n        );\n    }\n\n    function getCases() public view returns (uint128[] memory) {\n        uint128[] memory cases = new uint128[](blockchain.length);\n        uint count = 0;\n\n        for (uint i = 0; i < blockchain.length; i++) {\n            bool exists = false;\n            for (uint j = 0; j < count; j++) {\n                if (cases[j] == blockchain[i].caseId) {\n                    exists = true;\n                    break;\n                }\n            }\n            if (!exists) {\n                cases[count] = blockchain[i].caseId;\n                count++;\n            }\n        }\n\n        // Resize the array to fit the actual number of unique cases\n        uint128[] memory uniqueCases = new uint128[](count);\n        for (uint i = 0; i < count; i++) {\n            uniqueCases[i] = cases[i];\n        }\n\n        return uniqueCases;\n    }\n\n    function getItemsForCase(\n        uint128 _caseId\n    ) public view returns (uint32[] memory) {\n        uint32[] memory itemsTemp = new uint32[](blockchain.length);\n        uint count = 0;\n\n        for (uint i = 0; i < blockchain.length; i++) {\n            if (blockchain[i].caseId == _caseId) {\n                itemsTemp[count] = blockchain[i].evidenceItemId;\n                count++;\n            }\n        }\n\n        // Resize the array to fit the actual number of items for the case\n        uint32[] memory items = new uint32[](count);\n        for (uint i = 0; i < count; i++) {\n            items[i] = itemsTemp[i];\n        }\n\n        return items;\n    }\n\n    struct BlockInfo {\n        uint64 timestamp;\n        string handlerName;\n        string state;\n    }\n\n    function getItemHistory(\n        uint32 _itemId\n    ) public view returns (BlockInfo[] memory) {\n        BlockInfo[] memory history = new BlockInfo[](blockchain.length);\n        uint count = 0;\n\n        for (uint i = 0; i < blockchain.length; i++) {\n            if (blockchain[i].evidenceItemId == _itemId) {\n                history[count] = BlockInfo(\n                    blockchain[i].timestamp,\n                    blockchain[i].handlerName,\n                    blockchain[i].state\n                );\n                count++;\n            }\n        }\n\n        // Resize the array to fit the actual number of entries for the item\n        BlockInfo[] memory itemHistory = new BlockInfo[](count);\n        for (uint i = 0; i < count; i++) {\n            itemHistory[i] = history[i];\n        }\n\n        return itemHistory;\n    }\n\n    event EvidenceItemRemoved(\n        uint128 caseId,\n        uint32 evidenceItemId,\n        uint64 timestamp,\n        string reason,\n        string ownerInfo\n    );\n\n    function removeEvidenceItem(\n        uint32 _evidenceItemId,\n        string memory _reason,\n        string memory _ownerInfo\n    ) public {\n        require(\n            evidenceExists[_evidenceItemId],\n            \"Error: Evidence item does not exist.\"\n        );\n\n        Block storage lastBlock = blockchain[blockchain.length - 1];\n        require(\n            lastBlock.evidenceItemId == _evidenceItemId &&\n                keccak256(abi.encodePacked(lastBlock.state)) ==\n                keccak256(abi.encodePacked(\"CHECKEDIN\")),\n            \"Error: Item must be checked in to be removed.\"\n        );\n\n        // Assuming 'addBlock' function updates the state and creates a new block in the blockchain\n        addBlock(\n            lastBlock.caseId,\n            _evidenceItemId,\n            _reason, // Include _reason in the call\n            lastBlock.handlerName,\n            lastBlock.organizationName,\n            _ownerInfo, // Include _ownerInfo\n            lastBlock.data\n        );\n\n        emit EvidenceItemRemoved(\n            lastBlock.caseId,\n            _evidenceItemId,\n            uint64(block.timestamp),\n            _reason,\n            _ownerInfo\n        );\n    }\n    // Part of verify: fetches the entire blockchain\n    function getBlockchain() public view returns (Block[] memory) {\n        return blockchain;\n    }\n\n    // Part of verify: fetches an individual block by index\n    function getBlock(uint index) public view returns (Block memory) {\n        require(index < blockchain.length, \"Index out of bounds\");\n        return blockchain[index];\n    }\n\n    function init(uint32 _evidenceItemId) public view returns (bool) {\n    // Check if the blockchain is empty\n    if (blockchain.length == 0) {\n        return false;\n    }\n\n    // Find a block from evidence ID\n    for (uint i = 0; i < blockchain.length; i++) {\n        if (blockchain[i].evidenceItemId == _evidenceItemId) {\n            // Initial block has a previous hash of 0\n            return blockchain[i].previousHash == bytes32(0);\n        }\n    }\n    return false;\n}\n}",
  "sourcePath": "/Users/stephanieblossom/blockchain_chain_of_custody/contracts/ChainOfCustody.sol",
  "compiler": {
    "name": "solc",
    "version": "0.8.0+commit.c7dfd78e.Emscripten.clang"
  },
  "schemaVersion": "3.4.16",
  "updatedAt": "2023-11-26T23:41:54.977Z",
  "networkType": "ethereum",
  "devdoc": {
    "kind": "dev",
    "methods": {},
    "version": 1
  },
  "userdoc": {
    "kind": "user",
    "methods": {},
    "version": 1
  }
}