{
  "contractName": "ChainOfCustody",
  "abi": [
    {
      "inputs": [],
      "stateMutability": "nonpayable",
      "type": "constructor"
    },
    {
      "anonymous": false,
      "inputs": [
        {
          "indexed": false,
          "internalType": "bytes12",
          "name": "action",
          "type": "bytes12"
        },
        {
          "indexed": false,
          "internalType": "uint32",
          "name": "evidenceItemId",
          "type": "uint32"
        },
        {
          "indexed": false,
          "internalType": "bytes16",
          "name": "caseId",
          "type": "bytes16"
        },
        {
          "indexed": false,
          "internalType": "bytes32",
          "name": "timestamp",
          "type": "bytes32"
        }
      ],
      "name": "BlockchainAction",
      "type": "event"
    },
    {
      "inputs": [
        {
          "internalType": "uint256",
          "name": "",
          "type": "uint256"
        }
      ],
      "name": "chain",
      "outputs": [
        {
          "internalType": "bytes32",
          "name": "previousHash",
          "type": "bytes32"
        },
        {
          "internalType": "uint64",
          "name": "timestamp",
          "type": "uint64"
        },
        {
          "internalType": "bytes16",
          "name": "caseId",
          "type": "bytes16"
        },
        {
          "internalType": "uint32",
          "name": "evidenceItemId",
          "type": "uint32"
        },
        {
          "internalType": "bytes12",
          "name": "state",
          "type": "bytes12"
        },
        {
          "internalType": "bytes20",
          "name": "handlerName",
          "type": "bytes20"
        },
        {
          "internalType": "bytes20",
          "name": "organizationName",
          "type": "bytes20"
        },
        {
          "internalType": "uint32",
          "name": "dataLength",
          "type": "uint32"
        },
        {
          "internalType": "bytes",
          "name": "data",
          "type": "bytes"
        }
      ],
      "stateMutability": "view",
      "type": "function",
      "constant": true
    },
    {
      "inputs": [
        {
          "internalType": "bytes16",
          "name": "_caseId",
          "type": "bytes16"
        },
        {
          "internalType": "uint32",
          "name": "_evidenceItemId",
          "type": "uint32"
        },
        {
          "internalType": "bytes12",
          "name": "_state",
          "type": "bytes12"
        },
        {
          "internalType": "bytes20",
          "name": "_handlerName",
          "type": "bytes20"
        },
        {
          "internalType": "bytes20",
          "name": "_organizationName",
          "type": "bytes20"
        },
        {
          "internalType": "uint32",
          "name": "_dataLength",
          "type": "uint32"
        },
        {
          "internalType": "bytes",
          "name": "_data",
          "type": "bytes"
        }
      ],
      "name": "add",
      "outputs": [],
      "stateMutability": "nonpayable",
      "type": "function"
    }
  ],
  "bytecode": "0x60806040523480156200001157600080fd5b50620000826000801b600060801b60007f494e495449414c000000000000000000000000000000000000000000000000007f53797374656d0000000000000000000000000000000000000000000000000000806000604051806020016040528060008152506200008860201b60201c565b6200053e565b60006040518061012001604052808a81526020014267ffffffffffffffff168152602001896fffffffffffffffffffffffffffffffff191681526020018863ffffffff1681526020018773ffffffffffffffffffffffffffffffffffffffff19168152602001866bffffffffffffffffffffffff19168152602001856bffffffffffffffffffffffff191681526020018463ffffffff16815260200183815250905060008190806001815401808255809150506001900390600052602060002090600502016000909190919091506000820151816000015560208201518160010160006101000a81548167ffffffffffffffff021916908367ffffffffffffffff16021790555060408201518160010160086101000a8154816fffffffffffffffffffffffffffffffff021916908360801c021790555060608201518160010160186101000a81548163ffffffff021916908363ffffffff16021790555060808201518160020160006101000a8154816bffffffffffffffffffffffff021916908360a01c021790555060a082015181600201600c6101000a81548173ffffffffffffffffffffffffffffffffffffffff021916908360601c021790555060c08201518160030160006101000a81548173ffffffffffffffffffffffffffffffffffffffff021916908360601c021790555060e08201518160030160146101000a81548163ffffffff021916908363ffffffff160217905550610100820151816004019080519060200190620002c092919062000326565b5050507fdb0e49512042cd0e8e1128c236760c5ed80651d504ab98ed337ec91743bc2e1f8682606001518360400151846020015167ffffffffffffffff1660001b6040516200031394939291906200041a565b60405180910390a1505050505050505050565b8280546200033490620004d9565b90600052602060002090601f016020900481019282620003585760008555620003a4565b82601f106200037357805160ff1916838001178555620003a4565b82800160010185558215620003a4579182015b82811115620003a357825182559160200191906001019062000386565b5b509050620003b39190620003b7565b5090565b5b80821115620003d2576000816000905550600101620003b8565b5090565b620003e18162000467565b82525050565b620003f28162000493565b82525050565b6200040381620004bf565b82525050565b6200041481620004c9565b82525050565b6000608082019050620004316000830187620003d6565b62000440602083018662000409565b6200044f6040830185620003e7565b6200045e6060830184620003f8565b95945050505050565b60007fffffffffffffffffffffffff000000000000000000000000000000000000000082169050919050565b60007fffffffffffffffffffffffffffffffff0000000000000000000000000000000082169050919050565b6000819050919050565b600063ffffffff82169050919050565b60006002820490506001821680620004f257607f821691505b602082108114156200050957620005086200050f565b5b50919050565b7f4e487b7100000000000000000000000000000000000000000000000000000000600052602260045260246000fd5b610cc4806200054e6000396000f3fe608060405234801561001057600080fd5b50600436106100365760003560e01c80635852cc0c1461003b5780635f951c6614610073575b600080fd5b61005560048036038101906100509190610796565b61008f565b60405161006a999897969594939291906108d7565b60405180910390f35b61008d600480360381019061008891906106e0565b6101dd565b005b6000818154811061009f57600080fd5b90600052602060002090600502016000915090508060000154908060010160009054906101000a900467ffffffffffffffff16908060010160089054906101000a900460801b908060010160189054906101000a900463ffffffff16908060020160009054906101000a900460a01b9080600201600c9054906101000a900460601b908060030160009054906101000a900460601b908060030160149054906101000a900463ffffffff169080600401805461015a90610b4b565b80601f016020809104026020016040519081016040528092919081815260200182805461018690610b4b565b80156101d35780601f106101a8576101008083540402835291602001916101d3565b820191906000526020600020905b8154815290600101906020018083116101b657829003601f168201915b5050505050905089565b600060801b6fffffffffffffffffffffffffffffffff1916876fffffffffffffffffffffffffffffffff19161415801561021e575060008663ffffffff1614155b61025d576040517f08c379a00000000000000000000000000000000000000000000000000000000081526004016102549061096b565b60405180910390fd5b6102c9600060016000805490506102749190610a19565b815481106102ab577f4e487b7100000000000000000000000000000000000000000000000000000000600052603260045260246000fd5b906000526020600020906005020160000154888888888888886102d2565b50505050505050565b60006040518061012001604052808a81526020014267ffffffffffffffff168152602001896fffffffffffffffffffffffffffffffff191681526020018863ffffffff1681526020018773ffffffffffffffffffffffffffffffffffffffff19168152602001866bffffffffffffffffffffffff19168152602001856bffffffffffffffffffffffff191681526020018463ffffffff16815260200183815250905060008190806001815401808255809150506001900390600052602060002090600502016000909190919091506000820151816000015560208201518160010160006101000a81548167ffffffffffffffff021916908367ffffffffffffffff16021790555060408201518160010160086101000a8154816fffffffffffffffffffffffffffffffff021916908360801c021790555060608201518160010160186101000a81548163ffffffff021916908363ffffffff16021790555060808201518160020160006101000a8154816bffffffffffffffffffffffff021916908360a01c021790555060a082015181600201600c6101000a81548173ffffffffffffffffffffffffffffffffffffffff021916908360601c021790555060c08201518160030160006101000a81548173ffffffffffffffffffffffffffffffffffffffff021916908360601c021790555060e08201518160030160146101000a81548163ffffffff021916908363ffffffff16021790555061010082015181600401908051906020019061050892919061056c565b5050507fdb0e49512042cd0e8e1128c236760c5ed80651d504ab98ed337ec91743bc2e1f8682606001518360400151846020015167ffffffffffffffff1660001b6040516105599493929190610892565b60405180910390a1505050505050505050565b82805461057890610b4b565b90600052602060002090601f01602090048101928261059a57600085556105e1565b82601f106105b357805160ff19168380011785556105e1565b828001600101855582156105e1579182015b828111156105e05782518255916020019190600101906105c5565b5b5090506105ee91906105f2565b5090565b5b8082111561060b5760008160009055506001016105f3565b5090565b600061062261061d846109bc565b61098b565b90508281526020810184848401111561063a57600080fd5b610645848285610b09565b509392505050565b60008135905061065c81610c1b565b92915050565b60008135905061067181610c32565b92915050565b60008135905061068681610c49565b92915050565b600082601f83011261069d57600080fd5b81356106ad84826020860161060f565b91505092915050565b6000813590506106c581610c60565b92915050565b6000813590506106da81610c77565b92915050565b600080600080600080600060e0888a0312156106fb57600080fd5b60006107098a828b01610662565b975050602061071a8a828b016106cb565b965050604061072b8a828b0161064d565b955050606061073c8a828b01610677565b945050608061074d8a828b01610677565b93505060a061075e8a828b016106cb565b92505060c088013567ffffffffffffffff81111561077b57600080fd5b6107878a828b0161068c565b91505092959891949750929550565b6000602082840312156107a857600080fd5b60006107b6848285016106b6565b91505092915050565b6107c881610a4d565b82525050565b6107d781610a79565b82525050565b6107e681610aa5565b82525050565b6107f581610ad1565b82525050565b6000610806826109ec565b61081081856109f7565b9350610820818560208601610b18565b61082981610c0a565b840191505092915050565b6000610841600e83610a08565b91507f496e76616c696420696e707574730000000000000000000000000000000000006000830152602082019050919050565b61087d81610ae5565b82525050565b61088c81610af5565b82525050565b60006080820190506108a760008301876107bf565b6108b46020830186610874565b6108c160408301856107ce565b6108ce60608301846107ec565b95945050505050565b6000610120820190506108ed600083018c6107ec565b6108fa602083018b610883565b610907604083018a6107ce565b6109146060830189610874565b61092160808301886107bf565b61092e60a08301876107dd565b61093b60c08301866107dd565b61094860e0830185610874565b81810361010083015261095b81846107fb565b90509a9950505050505050505050565b6000602082019050818103600083015261098481610834565b9050919050565b6000604051905081810181811067ffffffffffffffff821117156109b2576109b1610bdb565b5b8060405250919050565b600067ffffffffffffffff8211156109d7576109d6610bdb565b5b601f19601f8301169050602081019050919050565b600081519050919050565b600082825260208201905092915050565b600082825260208201905092915050565b6000610a2482610adb565b9150610a2f83610adb565b925082821015610a4257610a41610b7d565b5b828203905092915050565b60007fffffffffffffffffffffffff000000000000000000000000000000000000000082169050919050565b60007fffffffffffffffffffffffffffffffff0000000000000000000000000000000082169050919050565b60007fffffffffffffffffffffffffffffffffffffffff00000000000000000000000082169050919050565b6000819050919050565b6000819050919050565b600063ffffffff82169050919050565b600067ffffffffffffffff82169050919050565b82818337600083830152505050565b60005b83811015610b36578082015181840152602081019050610b1b565b83811115610b45576000848401525b50505050565b60006002820490506001821680610b6357607f821691505b60208210811415610b7757610b76610bac565b5b50919050565b7f4e487b7100000000000000000000000000000000000000000000000000000000600052601160045260246000fd5b7f4e487b7100000000000000000000000000000000000000000000000000000000600052602260045260246000fd5b7f4e487b7100000000000000000000000000000000000000000000000000000000600052604160045260246000fd5b6000601f19601f8301169050919050565b610c2481610a4d565b8114610c2f57600080fd5b50565b610c3b81610a79565b8114610c4657600080fd5b50565b610c5281610aa5565b8114610c5d57600080fd5b50565b610c6981610adb565b8114610c7457600080fd5b50565b610c8081610ae5565b8114610c8b57600080fd5b5056fea26469706673582212208ffd716579c9737edc74202edb070a3ec60cc45080a8a7ddbadf45d0016504d964736f6c63430008000033",
  "immutableReferences": {},
  "source": "// SPDX-License-Identifier: MIT\npragma solidity ^0.8.0;\n\ncontract ChainOfCustody {\n    struct Block {\n        bytes32 previousHash;\n        uint64 timestamp;\n        bytes16 caseId;\n        uint32 evidenceItemId;\n        bytes12 state;\n        bytes20 handlerName;\n        bytes20 organizationName;\n        uint32 dataLength;\n        bytes data;\n    }\n\n    Block[] public chain; // Array to store blocks\n\n    event BlockchainAction(\n        bytes12 action,\n        uint32 evidenceItemId,\n        bytes16 caseId,\n        bytes32 timestamp\n    );\n\n    constructor() {\n        // Initializing the blockchain with the initial block\n        _addBlock(bytes32(0), bytes16(0), 0, \"INITIAL\", \"System\", \"System\", 0, \"\");\n    }\n\n    function add(\n        bytes16 _caseId,\n        uint32 _evidenceItemId,\n        bytes12 _state,\n        bytes20 _handlerName,\n        bytes20 _organizationName,\n        uint32 _dataLength,\n        bytes memory _data\n    ) public {\n        require(_caseId != bytes16(0) && _evidenceItemId != 0, \"Invalid inputs\");\n\n        _addBlock(\n            chain[chain.length - 1].previousHash,\n            _caseId,\n            _evidenceItemId,\n            _state,\n            _handlerName,\n            _organizationName,\n            _dataLength,\n            _data\n        );\n    }\n\n    function _addBlock(\n        bytes32 _previousHash,\n        bytes16 _caseId,\n        uint32 _evidenceItemId,\n        bytes12 _state,\n        bytes20 _handlerName,\n        bytes20 _organizationName,\n        uint32 _dataLength,\n        bytes memory _data\n    ) internal {\n        Block memory newBlock = Block({\n            previousHash: _previousHash,\n            timestamp: uint64(block.timestamp),\n            caseId: _caseId,\n            evidenceItemId: _evidenceItemId,\n            state: _state,\n            handlerName: _handlerName,\n            organizationName: _organizationName,\n            dataLength: _dataLength,\n            data: _data\n        });\n\n        chain.push(newBlock);\n\n        emit BlockchainAction(\n            _state,\n            newBlock.evidenceItemId,\n            newBlock.caseId,\n            bytes32(uint256(newBlock.timestamp))\n        );\n    }\n}\n",
  "sourcePath": "C:\\Users\\sharm\\Dropbox (ASU)\\CSE 469 CNF\\Group Project\\blockchain_chain_of_custody\\chain_of_custody\\contracts\\ChainOfCustody.sol",
  "compiler": {
    "name": "solc",
    "version": "0.8.0+commit.c7dfd78e.Emscripten.clang"
  },
  "schemaVersion": "3.4.16",
  "updatedAt": "2023-11-15T02:23:16.003Z",
  "networkType": "ethereum",
  "devdoc": {
    "kind": "dev",
    "methods": {},
    "version": 1
  },
  "userdoc": {
    "kind": "user",
    "methods": {},
    "version": 1
  }
}