{
  "contractName": "ChainOfCustody",
  "abi": [
    {
      "anonymous": false,
      "inputs": [
        {
          "indexed": true,
          "internalType": "uint128",
          "name": "caseId",
          "type": "uint128"
        },
        {
          "indexed": true,
          "internalType": "uint32",
          "name": "evidenceItemId",
          "type": "uint32"
        },
        {
          "indexed": false,
          "internalType": "uint64",
          "name": "timestamp",
          "type": "uint64"
        },
        {
          "indexed": false,
          "internalType": "string",
          "name": "state",
          "type": "string"
        },
        {
          "indexed": false,
          "internalType": "string",
          "name": "handlerName",
          "type": "string"
        },
        {
          "indexed": false,
          "internalType": "string",
          "name": "organizationName",
          "type": "string"
        }
      ],
      "name": "EvidenceItemAdded",
      "type": "event"
    },
    {
      "anonymous": false,
      "inputs": [
        {
          "indexed": true,
          "internalType": "uint128",
          "name": "caseId",
          "type": "uint128"
        },
        {
          "indexed": true,
          "internalType": "uint32",
          "name": "evidenceItemId",
          "type": "uint32"
        },
        {
          "indexed": false,
          "internalType": "uint64",
          "name": "timestamp",
          "type": "uint64"
        },
        {
          "indexed": false,
          "internalType": "string",
          "name": "state",
          "type": "string"
        },
        {
          "indexed": false,
          "internalType": "string",
          "name": "handlerName",
          "type": "string"
        },
        {
          "indexed": false,
          "internalType": "string",
          "name": "organizationName",
          "type": "string"
        }
      ],
      "name": "EvidenceItemCheckedIn",
      "type": "event"
    },
    {
      "anonymous": false,
      "inputs": [
        {
          "indexed": true,
          "internalType": "uint128",
          "name": "caseId",
          "type": "uint128"
        },
        {
          "indexed": true,
          "internalType": "uint32",
          "name": "evidenceItemId",
          "type": "uint32"
        },
        {
          "indexed": false,
          "internalType": "string",
          "name": "handlerName",
          "type": "string"
        },
        {
          "indexed": false,
          "internalType": "string",
          "name": "organizationName",
          "type": "string"
        },
        {
          "indexed": false,
          "internalType": "uint64",
          "name": "timestamp",
          "type": "uint64"
        },
        {
          "indexed": false,
          "internalType": "string",
          "name": "state",
          "type": "string"
        }
      ],
      "name": "EvidenceItemCheckedOut",
      "type": "event"
    },
    {
      "anonymous": false,
      "inputs": [
        {
          "indexed": false,
          "internalType": "uint128",
          "name": "caseId",
          "type": "uint128"
        },
        {
          "indexed": false,
          "internalType": "uint32",
          "name": "evidenceItemId",
          "type": "uint32"
        },
        {
          "indexed": false,
          "internalType": "uint64",
          "name": "timestamp",
          "type": "uint64"
        },
        {
          "indexed": false,
          "internalType": "string",
          "name": "reason",
          "type": "string"
        },
        {
          "indexed": false,
          "internalType": "string",
          "name": "ownerInfo",
          "type": "string"
        }
      ],
      "name": "EvidenceItemRemoved",
      "type": "event"
    },
    {
      "inputs": [
        {
          "internalType": "uint256",
          "name": "",
          "type": "uint256"
        }
      ],
      "name": "blockchain",
      "outputs": [
        {
          "internalType": "bytes32",
          "name": "previousHash",
          "type": "bytes32"
        },
        {
          "internalType": "uint64",
          "name": "timestamp",
          "type": "uint64"
        },
        {
          "internalType": "uint128",
          "name": "caseId",
          "type": "uint128"
        },
        {
          "internalType": "uint32",
          "name": "evidenceItemId",
          "type": "uint32"
        },
        {
          "internalType": "string",
          "name": "state",
          "type": "string"
        },
        {
          "internalType": "string",
          "name": "handlerName",
          "type": "string"
        },
        {
          "internalType": "string",
          "name": "organizationName",
          "type": "string"
        },
        {
          "internalType": "string",
          "name": "reason",
          "type": "string"
        },
        {
          "internalType": "uint32",
          "name": "dataLength",
          "type": "uint32"
        },
        {
          "internalType": "bytes",
          "name": "data",
          "type": "bytes"
        }
      ],
      "stateMutability": "view",
      "type": "function",
      "constant": true
    },
    {
      "inputs": [
        {
          "internalType": "uint32",
          "name": "",
          "type": "uint32"
        }
      ],
      "name": "evidenceExists",
      "outputs": [
        {
          "internalType": "bool",
          "name": "",
          "type": "bool"
        }
      ],
      "stateMutability": "view",
      "type": "function",
      "constant": true
    },
    {
      "inputs": [
        {
          "internalType": "uint128",
          "name": "_caseId",
          "type": "uint128"
        },
        {
          "internalType": "uint32[]",
          "name": "_itemIds",
          "type": "uint32[]"
        },
        {
          "internalType": "string",
          "name": "_handlerName",
          "type": "string"
        },
        {
          "internalType": "string",
          "name": "_organizationName",
          "type": "string"
        }
      ],
      "name": "addEvidenceItems",
      "outputs": [],
      "stateMutability": "nonpayable",
      "type": "function"
    },
    {
      "inputs": [
        {
          "internalType": "uint32",
          "name": "_evidenceItemId",
          "type": "uint32"
        },
        {
          "internalType": "string",
          "name": "_handlerName",
          "type": "string"
        },
        {
          "internalType": "string",
          "name": "_organizationName",
          "type": "string"
        }
      ],
      "name": "checkoutEvidenceItem",
      "outputs": [],
      "stateMutability": "nonpayable",
      "type": "function"
    },
    {
      "inputs": [
        {
          "internalType": "uint32",
          "name": "_evidenceItemId",
          "type": "uint32"
        },
        {
          "internalType": "string",
          "name": "_handlerName",
          "type": "string"
        },
        {
          "internalType": "string",
          "name": "_organizationName",
          "type": "string"
        }
      ],
      "name": "checkinEvidenceItem",
      "outputs": [],
      "stateMutability": "nonpayable",
      "type": "function"
    },
    {
      "inputs": [],
      "name": "getCases",
      "outputs": [
        {
          "internalType": "uint128[]",
          "name": "",
          "type": "uint128[]"
        }
      ],
      "stateMutability": "view",
      "type": "function",
      "constant": true
    },
    {
      "inputs": [
        {
          "internalType": "uint128",
          "name": "_caseId",
          "type": "uint128"
        }
      ],
      "name": "getItemsForCase",
      "outputs": [
        {
          "internalType": "uint32[]",
          "name": "",
          "type": "uint32[]"
        }
      ],
      "stateMutability": "view",
      "type": "function",
      "constant": true
    },
    {
      "inputs": [
        {
          "internalType": "uint32",
          "name": "_itemId",
          "type": "uint32"
        }
      ],
      "name": "getItemHistory",
      "outputs": [
        {
          "components": [
            {
              "internalType": "uint128",
              "name": "caseId",
              "type": "uint128"
            },
            {
              "internalType": "uint32",
              "name": "evidenceItemId",
              "type": "uint32"
            },
            {
              "internalType": "uint64",
              "name": "timestamp",
              "type": "uint64"
            },
            {
              "internalType": "string",
              "name": "state",
              "type": "string"
            },
            {
              "internalType": "string",
              "name": "handlerName",
              "type": "string"
            }
          ],
          "internalType": "struct ChainOfCustody.BlockInfo[]",
          "name": "",
          "type": "tuple[]"
        }
      ],
      "stateMutability": "view",
      "type": "function",
      "constant": true
    },
    {
      "inputs": [
        {
          "internalType": "uint32",
          "name": "_evidenceItemId",
          "type": "uint32"
        },
        {
          "internalType": "string",
          "name": "_reason",
          "type": "string"
        },
        {
          "internalType": "string",
          "name": "_ownerInfo",
          "type": "string"
        }
      ],
      "name": "removeEvidenceItem",
      "outputs": [],
      "stateMutability": "nonpayable",
      "type": "function"
    },
    {
      "inputs": [],
      "name": "getBlockCount",
      "outputs": [
        {
          "internalType": "uint256",
          "name": "",
          "type": "uint256"
        }
      ],
      "stateMutability": "view",
      "type": "function",
      "constant": true
    },
    {
      "inputs": [],
      "name": "verifyBlockchain",
      "outputs": [
        {
          "internalType": "string",
          "name": "",
          "type": "string"
        }
      ],
      "stateMutability": "view",
      "type": "function",
      "constant": true
    },
    {
      "inputs": [],
      "name": "getBadBlockInfo",
      "outputs": [
        {
          "internalType": "string",
          "name": "",
          "type": "string"
        },
        {
          "internalType": "string",
          "name": "",
          "type": "string"
        },
        {
          "internalType": "string",
          "name": "",
          "type": "string"
        }
      ],
      "stateMutability": "view",
      "type": "function",
      "constant": true
    },
    {
      "inputs": [
        {
          "internalType": "bytes",
          "name": "data",
          "type": "bytes"
        }
      ],
      "name": "bytesToHexString",
      "outputs": [
        {
          "internalType": "string",
          "name": "",
          "type": "string"
        }
      ],
      "stateMutability": "pure",
      "type": "function",
      "constant": true
    },
    {
      "inputs": [],
      "name": "getLatestBlockHash",
      "outputs": [
        {
          "internalType": "bytes32",
          "name": "",
          "type": "bytes32"
        }
      ],
      "stateMutability": "view",
      "type": "function",
      "constant": true
    }
  ],
  "bytecode": "0x608060405234801561001057600080fd5b50614e09806100206000396000f3fe608060405234801561001057600080fd5b50600436106100ea5760003560e01c8063b35af6c31161008c578063cc0bd62e11610066578063cc0bd62e14610266578063d2bacbc814610284578063e3f9c18b146102a0578063e61f36ae146102c0576100ea565b8063b35af6c3146101e1578063bfc260de14610211578063c25b1eaf1461022d576100ea565b8063458c2682116100c8578063458c2682146101475780634f54e9241461017757806354c07645146101935780637d520c22146101b1576100ea565b8063065cb594146100ef5780631da109841461010d57806342bcad2814610129575b600080fd5b6100f76102f0565b6040516101049190614367565b60405180910390f35b6101276004803603810190610122919061390c565b6106b9565b005b610131610950565b60405161013e91906143c6565b60405180910390f35b610161600480360381019061015c91906138e3565b610a5b565b60405161016e9190614345565b60405180910390f35b610191600480360381019061018c919061390c565b611003565b005b61019b61144f565b6040516101a891906144a0565b60405180910390f35b6101cb60048036038101906101c691906137a5565b611562565b6040516101d891906144a0565b60405180910390f35b6101fb60048036038101906101f691906138e3565b611789565b60405161020891906143ab565b60405180910390f35b61022b6004803603810190610226919061380f565b6117a9565b005b610247600480360381019061024291906138ba565b61191e565b60405161025d9a999897969594939291906143e1565b60405180910390f35b61026e611c7a565b60405161027b91906146a7565b60405180910390f35b61029e6004803603810190610299919061390c565b611c86565b005b6102a8612040565b6040516102b7939291906144c2565b60405180910390f35b6102da60048036038101906102d591906137e6565b6129b7565b6040516102e79190614389565b60405180910390f35b60606000808054905067ffffffffffffffff811115610338577f4e487b7100000000000000000000000000000000000000000000000000000000600052604160045260246000fd5b6040519080825280602002602001820160405280156103665781602001602082028036833780820191505090505b5090506000805b600080549050811015610571576000805b8381101561047557600083815481106103c0577f4e487b7100000000000000000000000000000000000000000000000000000000600052603260045260246000fd5b906000526020600020906008020160010160089054906101000a90046fffffffffffffffffffffffffffffffff166fffffffffffffffffffffffffffffffff16858281518110610439577f4e487b7100000000000000000000000000000000000000000000000000000000600052603260045260246000fd5b60200260200101516fffffffffffffffffffffffffffffffff1614156104625760019150610475565b808061046d90614bbc565b91505061037e565b508061055d57600082815481106104b5577f4e487b7100000000000000000000000000000000000000000000000000000000600052603260045260246000fd5b906000526020600020906008020160010160089054906101000a90046fffffffffffffffffffffffffffffffff1684848151811061051c577f4e487b7100000000000000000000000000000000000000000000000000000000600052603260045260246000fd5b60200260200101906fffffffffffffffffffffffffffffffff1690816fffffffffffffffffffffffffffffffff1681525050828061055990614bbc565b9350505b50808061056990614bbc565b91505061036d565b5060008167ffffffffffffffff8111156105b4577f4e487b7100000000000000000000000000000000000000000000000000000000600052604160045260246000fd5b6040519080825280602002602001820160405280156105e25781602001602082028036833780820191505090505b50905060005b828110156106af57838181518110610629577f4e487b7100000000000000000000000000000000000000000000000000000000600052603260045260246000fd5b602002602001015182828151811061066a577f4e487b7100000000000000000000000000000000000000000000000000000000600052603260045260246000fd5b60200260200101906fffffffffffffffffffffffffffffffff1690816fffffffffffffffffffffffffffffffff168152505080806106a790614bbc565b9150506105e8565b5080935050505090565b600160008463ffffffff1663ffffffff16815260200190815260200160002060009054906101000a900460ff16610725576040517f08c379a000000000000000000000000000000000000000000000000000000000815260040161071c90614626565b60405180910390fd5b6000808060008054905090505b60008111156108515760008060018361074b9190614a7d565b81548110610782577f4e487b7100000000000000000000000000000000000000000000000000000000600052603260045260246000fd5b906000526020600020906008020190508663ffffffff168160010160189054906101000a900463ffffffff1663ffffffff16141561083d576040516020016107c990614330565b60405160208183030381529060405280519060200120816002016040516020016107f39190614304565b60405160208183030381529060405280519060200120141561083c57600193508060010160089054906101000a90046fffffffffffffffffffffffffffffffff16925050610851565b5b50808061084990614b60565b915050610732565b5081610892576040517f08c379a000000000000000000000000000000000000000000000000000000000815260040161088990614566565b60405180910390fd5b6108f481866040518060400160405280600981526020017f434845434b4544494e000000000000000000000000000000000000000000000081525087876040518060200160405280600081525060405180602001604052806000815250612cd7565b8463ffffffff16816fffffffffffffffffffffffffffffffff167f44d659db232b167aceca42204e10ebf4f34fe865b7f8911e56bb7e4fe141eb244287876040516109419392919061471c565b60405180910390a35050505050565b600080600060016000805490506109679190614a7d565b8154811061099e577f4e487b7100000000000000000000000000000000000000000000000000000000600052603260045260246000fd5b9060005260206000209060080201905080600001548160010160009054906101000a900467ffffffffffffffff168260010160089054906101000a90046fffffffffffffffffffffffffffffffff168360010160189054906101000a900463ffffffff168460020185600301866004018760060160009054906101000a900463ffffffff1688600701604051602001610a3f99989796959493929190614271565b6040516020818303038152906040528051906020012091505090565b60606000808054905067ffffffffffffffff811115610aa3577f4e487b7100000000000000000000000000000000000000000000000000000000600052604160045260246000fd5b604051908082528060200260200182016040528015610adc57816020015b610ac9613486565b815260200190600190039081610ac15790505b5090506000805b600080549050811015610ed5578463ffffffff1660008281548110610b31577f4e487b7100000000000000000000000000000000000000000000000000000000600052603260045260246000fd5b906000526020600020906008020160010160189054906101000a900463ffffffff1663ffffffff161415610ec2576040518060a0016040528060008381548110610ba4577f4e487b7100000000000000000000000000000000000000000000000000000000600052603260045260246000fd5b906000526020600020906008020160010160089054906101000a90046fffffffffffffffffffffffffffffffff166fffffffffffffffffffffffffffffffff16815260200160008381548110610c23577f4e487b7100000000000000000000000000000000000000000000000000000000600052603260045260246000fd5b906000526020600020906008020160010160189054906101000a900463ffffffff1663ffffffff16815260200160008381548110610c8a577f4e487b7100000000000000000000000000000000000000000000000000000000600052603260045260246000fd5b906000526020600020906008020160010160009054906101000a900467ffffffffffffffff1667ffffffffffffffff16815260200160008381548110610cf9577f4e487b7100000000000000000000000000000000000000000000000000000000600052603260045260246000fd5b90600052602060002090600802016002018054610d1590614b8a565b80601f0160208091040260200160405190810160405280929190818152602001828054610d4190614b8a565b8015610d8e5780601f10610d6357610100808354040283529160200191610d8e565b820191906000526020600020905b815481529060010190602001808311610d7157829003601f168201915b5050505050815260200160008381548110610dd2577f4e487b7100000000000000000000000000000000000000000000000000000000600052603260045260246000fd5b90600052602060002090600802016003018054610dee90614b8a565b80601f0160208091040260200160405190810160405280929190818152602001828054610e1a90614b8a565b8015610e675780601f10610e3c57610100808354040283529160200191610e67565b820191906000526020600020905b815481529060010190602001808311610e4a57829003601f168201915b5050505050815250838381518110610ea8577f4e487b7100000000000000000000000000000000000000000000000000000000600052603260045260246000fd5b60200260200101819052508180610ebe90614bbc565b9250505b8080610ecd90614bbc565b915050610ae3565b5060008167ffffffffffffffff811115610f18577f4e487b7100000000000000000000000000000000000000000000000000000000600052604160045260246000fd5b604051908082528060200260200182016040528015610f5157816020015b610f3e613486565b815260200190600190039081610f365790505b50905060005b82811015610ff757838181518110610f98577f4e487b7100000000000000000000000000000000000000000000000000000000600052603260045260246000fd5b6020026020010151828281518110610fd9577f4e487b7100000000000000000000000000000000000000000000000000000000600052603260045260246000fd5b60200260200101819052508080610fef90614bbc565b915050610f57565b50809350505050919050565b600160008463ffffffff1663ffffffff16815260200190815260200160002060009054906101000a900460ff1661106f576040517f08c379a000000000000000000000000000000000000000000000000000000000815260040161106690614626565b60405180910390fd5b60008060016000805490506110849190614a7d565b815481106110bb577f4e487b7100000000000000000000000000000000000000000000000000000000600052603260045260246000fd5b906000526020600020906008020190508363ffffffff168160010160189054906101000a900463ffffffff1663ffffffff161461112d576040517f08c379a0000000000000000000000000000000000000000000000000000000008152600401611124906145c6565b60405180910390fd5b60405160200161113c90614330565b60405160208183030381529060405280519060200120816002016040516020016111669190614304565b6040516020818303038152906040528051906020012014156111bd576040517f08c379a00000000000000000000000000000000000000000000000000000000081526004016111b4906145a6565b60405180910390fd5b6113d48160010160089054906101000a90046fffffffffffffffffffffffffffffffff16856040518060400160405280600a81526020017f434845434b45444f55540000000000000000000000000000000000000000000081525084600301805461122790614b8a565b80601f016020809104026020016040519081016040528092919081815260200182805461125390614b8a565b80156112a05780601f10611275576101008083540402835291602001916112a0565b820191906000526020600020905b81548152906001019060200180831161128357829003601f168201915b50505050508560040180546112b490614b8a565b80601f01602080910402602001604051908101604052809291908181526020018280546112e090614b8a565b801561132d5780601f106113025761010080835404028352916020019161132d565b820191906000526020600020905b81548152906001019060200180831161131057829003601f168201915b50505050506040518060200160405280600081525087600701805461135190614b8a565b80601f016020809104026020016040519081016040528092919081815260200182805461137d90614b8a565b80156113ca5780601f1061139f576101008083540402835291602001916113ca565b820191906000526020600020905b8154815290600101906020018083116113ad57829003601f168201915b5050505050612cd7565b8363ffffffff168160010160089054906101000a90046fffffffffffffffffffffffffffffffff166fffffffffffffffffffffffffffffffff167f8d091e6724281a24ed036e6fc30d2d911d68131901cf4e8e63b0ac0247f5047d8585426040516114419392919061450e565b60405180910390a350505050565b6060600061145b611c7a565b90506000600190505b818110156115245761148160018261147c9190614a7d565b612f98565b600082815481106114bb577f4e487b7100000000000000000000000000000000000000000000000000000000600052603260045260246000fd5b90600052602060002090600802016000015414611511576040518060400160405280600581526020017f4552524f520000000000000000000000000000000000000000000000000000008152509250505061155f565b808061151c90614bbc565b915050611464565b506040518060400160405280600581526020017f434c45414e0000000000000000000000000000000000000000000000000000008152509150505b90565b60606000825160026115749190614a23565b67ffffffffffffffff8111156115b3577f4e487b7100000000000000000000000000000000000000000000000000000000600052604160045260246000fd5b6040519080825280601f01601f1916602001820160405280156115e55781602001600182028036833780820191505090505b50905060005b835181101561177f57600084828151811061162f577f4e487b7100000000000000000000000000000000000000000000000000000000600052603260045260246000fd5b602001015160f81c60f81b60f81c9050603060108261164e91906149f2565b61165891906149bb565b60f81b838360026116699190614a23565b815181106116a0577f4e487b7100000000000000000000000000000000000000000000000000000000600052603260045260246000fd5b60200101907effffffffffffffffffffffffffffffffffffffffffffffffffffffffffffff1916908160001a90535060306010826116de9190614c45565b6116e891906149bb565b60f81b8360018460026116fb9190614a23565b6117059190614965565b8151811061173c577f4e487b7100000000000000000000000000000000000000000000000000000000600052603260045260246000fd5b60200101907effffffffffffffffffffffffffffffffffffffffffffffffffffffffffffff1916908160001a90535050808061177790614bbc565b9150506115eb565b5080915050919050565b60016020528060005260406000206000915054906101000a900460ff1681565b60005b835181101561191757600160008583815181106117f2577f4e487b7100000000000000000000000000000000000000000000000000000000600052603260045260246000fd5b602002602001015163ffffffff1663ffffffff16815260200190815260200160002060009054906101000a900460ff1615611862576040517f08c379a0000000000000000000000000000000000000000000000000000000008152600401611859906145e6565b60405180910390fd5b6119048585838151811061189f577f4e487b7100000000000000000000000000000000000000000000000000000000600052603260045260246000fd5b60200260200101516040518060400160405280600981526020017f434845434b4544494e000000000000000000000000000000000000000000000081525086866040518060200160405280600081525060405180602001604052806000815250612cd7565b808061190f90614bbc565b9150506117ac565b5050505050565b6000818154811061192e57600080fd5b90600052602060002090600802016000915090508060000154908060010160009054906101000a900467ffffffffffffffff16908060010160089054906101000a90046fffffffffffffffffffffffffffffffff16908060010160189054906101000a900463ffffffff16908060020180546119a990614b8a565b80601f01602080910402602001604051908101604052809291908181526020018280546119d590614b8a565b8015611a225780601f106119f757610100808354040283529160200191611a22565b820191906000526020600020905b815481529060010190602001808311611a0557829003601f168201915b505050505090806003018054611a3790614b8a565b80601f0160208091040260200160405190810160405280929190818152602001828054611a6390614b8a565b8015611ab05780601f10611a8557610100808354040283529160200191611ab0565b820191906000526020600020905b815481529060010190602001808311611a9357829003601f168201915b505050505090806004018054611ac590614b8a565b80601f0160208091040260200160405190810160405280929190818152602001828054611af190614b8a565b8015611b3e5780601f10611b1357610100808354040283529160200191611b3e565b820191906000526020600020905b815481529060010190602001808311611b2157829003601f168201915b505050505090806005018054611b5390614b8a565b80601f0160208091040260200160405190810160405280929190818152602001828054611b7f90614b8a565b8015611bcc5780601f10611ba157610100808354040283529160200191611bcc565b820191906000526020600020905b815481529060010190602001808311611baf57829003601f168201915b5050505050908060060160009054906101000a900463ffffffff1690806007018054611bf790614b8a565b80601f0160208091040260200160405190810160405280929190818152602001828054611c2390614b8a565b8015611c705780601f10611c4557610100808354040283529160200191611c70565b820191906000526020600020905b815481529060010190602001808311611c5357829003601f168201915b505050505090508a565b60008080549050905090565b600160008463ffffffff1663ffffffff16815260200190815260200160002060009054906101000a900460ff16611cf2576040517f08c379a0000000000000000000000000000000000000000000000000000000008152600401611ce990614626565b60405180910390fd5b6000806001600080549050611d079190614a7d565b81548110611d3e577f4e487b7100000000000000000000000000000000000000000000000000000000600052603260045260246000fd5b906000526020600020906008020190508363ffffffff168160010160189054906101000a900463ffffffff1663ffffffff16148015611dc95750604051602001611d879061431b565b6040516020818303038152906040528051906020012081600201604051602001611db19190614304565b60405160208183030381529060405280519060200120145b611e08576040517f08c379a0000000000000000000000000000000000000000000000000000000008152600401611dff90614586565b60405180910390fd5b611fdb8160010160089054906101000a90046fffffffffffffffffffffffffffffffff168585846003018054611e3d90614b8a565b80601f0160208091040260200160405190810160405280929190818152602001828054611e6990614b8a565b8015611eb65780601f10611e8b57610100808354040283529160200191611eb6565b820191906000526020600020905b815481529060010190602001808311611e9957829003601f168201915b5050505050856004018054611eca90614b8a565b80601f0160208091040260200160405190810160405280929190818152602001828054611ef690614b8a565b8015611f435780601f10611f1857610100808354040283529160200191611f43565b820191906000526020600020905b815481529060010190602001808311611f2657829003601f168201915b505050505087876007018054611f5890614b8a565b80601f0160208091040260200160405190810160405280929190818152602001828054611f8490614b8a565b8015611fd15780601f10611fa657610100808354040283529160200191611fd1565b820191906000526020600020905b815481529060010190602001808311611fb457829003601f168201915b5050505050612cd7565b7f131b0104fffef9791a656820b9d5349cb76c71fee3129316cd22fb398cee5b5d8160010160089054906101000a90046fffffffffffffffffffffffffffffffff1685428686604051612032959493929190614646565b60405180910390a150505050565b6060806060600061204f611c7a565b90506000600190505b81811015612979576120756001826120709190614a7d565b612f98565b600082815481106120af577f4e487b7100000000000000000000000000000000000000000000000000000000600052603260045260246000fd5b9060005260206000209060080201600001541461217a5761211a60008281548110612103577f4e487b7100000000000000000000000000000000000000000000000000000000600052603260045260246000fd5b9060005260206000209060080201600001546133ef565b61213761213260018461212d9190614a7d565b612f98565b6133ef565b6040518060400160405280601081526020017f504152454e545f4e4f545f464f554e440000000000000000000000000000000081525094509450945050506129b2565b60018111801561222b575060006002826121949190614a7d565b815481106121cb577f4e487b7100000000000000000000000000000000000000000000000000000000600052603260045260246000fd5b90600052602060002090600802016000015460008281548110612217577f4e487b7100000000000000000000000000000000000000000000000000000000600052603260045260246000fd5b906000526020600020906008020160000154145b15612327576122846000828154811061226d577f4e487b7100000000000000000000000000000000000000000000000000000000600052603260045260246000fd5b9060005260206000209060080201600001546133ef565b6122e460006002846122969190614a7d565b815481106122cd577f4e487b7100000000000000000000000000000000000000000000000000000000600052603260045260246000fd5b9060005260206000209060080201600001546133ef565b6040518060400160405280601081526020017f4455504c49434154455f504152454e540000000000000000000000000000000081525094509450945050506129b2565b600061273160008381548110612366577f4e487b7100000000000000000000000000000000000000000000000000000000600052603260045260246000fd5b906000526020600020906008020160405180610140016040529081600082015481526020016001820160009054906101000a900467ffffffffffffffff1667ffffffffffffffff1667ffffffffffffffff1681526020016001820160089054906101000a90046fffffffffffffffffffffffffffffffff166fffffffffffffffffffffffffffffffff166fffffffffffffffffffffffffffffffff1681526020016001820160189054906101000a900463ffffffff1663ffffffff1663ffffffff16815260200160028201805461243c90614b8a565b80601f016020809104026020016040519081016040528092919081815260200182805461246890614b8a565b80156124b55780601f1061248a576101008083540402835291602001916124b5565b820191906000526020600020905b81548152906001019060200180831161249857829003601f168201915b505050505081526020016003820180546124ce90614b8a565b80601f01602080910402602001604051908101604052809291908181526020018280546124fa90614b8a565b80156125475780601f1061251c57610100808354040283529160200191612547565b820191906000526020600020905b81548152906001019060200180831161252a57829003601f168201915b5050505050815260200160048201805461256090614b8a565b80601f016020809104026020016040519081016040528092919081815260200182805461258c90614b8a565b80156125d95780601f106125ae576101008083540402835291602001916125d9565b820191906000526020600020905b8154815290600101906020018083116125bc57829003601f168201915b505050505081526020016005820180546125f290614b8a565b80601f016020809104026020016040519081016040528092919081815260200182805461261e90614b8a565b801561266b5780601f106126405761010080835404028352916020019161266b565b820191906000526020600020905b81548152906001019060200180831161264e57829003601f168201915b505050505081526020016006820160009054906101000a900463ffffffff1663ffffffff1663ffffffff1681526020016007820180546126aa90614b8a565b80601f01602080910402602001604051908101604052809291908181526020018280546126d690614b8a565b80156127235780601f106126f857610100808354040283529160200191612723565b820191906000526020600020905b81548152906001019060200180831161270657829003601f168201915b505050505081525050613420565b9050806000838154811061276e577f4e487b7100000000000000000000000000000000000000000000000000000000600052603260045260246000fd5b90600052602060002090600802016000015414612826576127d9600083815481106127c2577f4e487b7100000000000000000000000000000000000000000000000000000000600052603260045260246000fd5b9060005260206000209060080201600001546133ef565b6127e2826133ef565b6040518060400160405280601081526020017f434f4e54454e545f4d49534d41544348000000000000000000000000000000008152509550955095505050506129b2565b60405160200161283590614330565b6040516020818303038152906040528051906020012060008381548110612885577f4e487b7100000000000000000000000000000000000000000000000000000000600052603260045260246000fd5b90600052602060002090600802016002016040516020016128a69190614304565b604051602081830303815290604052805190602001201480156128d457506001836128d19190614a7d565b82105b156129655761292d60008381548110612916577f4e487b7100000000000000000000000000000000000000000000000000000000600052603260045260246000fd5b9060005260206000209060080201600001546133ef565b61293e61293984612f98565b6133ef565b604051806060016040528060248152602001614db0602491399550955095505050506129b2565b50808061297190614bbc565b915050612058565b50604051806020016040528060008152506040518060200160405280600081525060405180602001604052806000815250935093509350505b909192565b60606000808054905067ffffffffffffffff8111156129ff577f4e487b7100000000000000000000000000000000000000000000000000000000600052604160045260246000fd5b604051908082528060200260200182016040528015612a2d5781602001602082028036833780820191505090505b5090506000805b600080549050811015612ba557846fffffffffffffffffffffffffffffffff1660008281548110612a8e577f4e487b7100000000000000000000000000000000000000000000000000000000600052603260045260246000fd5b906000526020600020906008020160010160089054906101000a90046fffffffffffffffffffffffffffffffff166fffffffffffffffffffffffffffffffff161415612b925760008181548110612b0e577f4e487b7100000000000000000000000000000000000000000000000000000000600052603260045260246000fd5b906000526020600020906008020160010160189054906101000a900463ffffffff16838381518110612b69577f4e487b7100000000000000000000000000000000000000000000000000000000600052603260045260246000fd5b602002602001019063ffffffff16908163ffffffff16815250508180612b8e90614bbc565b9250505b8080612b9d90614bbc565b915050612a34565b5060008167ffffffffffffffff811115612be8577f4e487b7100000000000000000000000000000000000000000000000000000000600052604160045260246000fd5b604051908082528060200260200182016040528015612c165781602001602082028036833780820191505090505b50905060005b82811015612ccb57838181518110612c5d577f4e487b7100000000000000000000000000000000000000000000000000000000600052603260045260246000fd5b6020026020010151828281518110612c9e577f4e487b7100000000000000000000000000000000000000000000000000000000600052603260045260246000fd5b602002602001019063ffffffff16908163ffffffff16815250508080612cc390614bbc565b915050612c1c565b50809350505050919050565b60008060008054905011612cee576000801b612cf7565b612cf6610950565b5b9050600042905060008351905060006040518061014001604052808581526020018467ffffffffffffffff1681526020018c6fffffffffffffffffffffffffffffffff1681526020018b63ffffffff1681526020018a81526020018981526020018881526020018781526020018363ffffffff16815260200186815250905060008190806001815401808255809150506001900390600052602060002090600802016000909190919091506000820151816000015560208201518160010160006101000a81548167ffffffffffffffff021916908367ffffffffffffffff16021790555060408201518160010160086101000a8154816fffffffffffffffffffffffffffffffff02191690836fffffffffffffffffffffffffffffffff16021790555060608201518160010160186101000a81548163ffffffff021916908363ffffffff1602179055506080820151816002019080519060200190612e5d9291906134d7565b5060a0820151816003019080519060200190612e7a9291906134d7565b5060c0820151816004019080519060200190612e979291906134d7565b5060e0820151816005019080519060200190612eb49291906134d7565b506101008201518160060160006101000a81548163ffffffff021916908363ffffffff160217905550610120820151816007019080519060200190612efa92919061355d565b50505060018060008c63ffffffff1663ffffffff16815260200190815260200160002060006101000a81548160ff0219169083151502179055508963ffffffff168b6fffffffffffffffffffffffffffffffff167f33a1c1a3b9a16d06083c74dc302e2fcc5be80f5e5aa2ae9a270c78f82731b11b858c8c8c604051612f8394939291906146c2565b60405180910390a35050505050505050505050565b600080805490508210612fe0576040517f08c379a0000000000000000000000000000000000000000000000000000000008152600401612fd790614606565b60405180910390fd5b6133e86000838154811061301d577f4e487b7100000000000000000000000000000000000000000000000000000000600052603260045260246000fd5b906000526020600020906008020160405180610140016040529081600082015481526020016001820160009054906101000a900467ffffffffffffffff1667ffffffffffffffff1667ffffffffffffffff1681526020016001820160089054906101000a90046fffffffffffffffffffffffffffffffff166fffffffffffffffffffffffffffffffff166fffffffffffffffffffffffffffffffff1681526020016001820160189054906101000a900463ffffffff1663ffffffff1663ffffffff1681526020016002820180546130f390614b8a565b80601f016020809104026020016040519081016040528092919081815260200182805461311f90614b8a565b801561316c5780601f106131415761010080835404028352916020019161316c565b820191906000526020600020905b81548152906001019060200180831161314f57829003601f168201915b5050505050815260200160038201805461318590614b8a565b80601f01602080910402602001604051908101604052809291908181526020018280546131b190614b8a565b80156131fe5780601f106131d3576101008083540402835291602001916131fe565b820191906000526020600020905b8154815290600101906020018083116131e157829003601f168201915b5050505050815260200160048201805461321790614b8a565b80601f016020809104026020016040519081016040528092919081815260200182805461324390614b8a565b80156132905780601f1061326557610100808354040283529160200191613290565b820191906000526020600020905b81548152906001019060200180831161327357829003601f168201915b505050505081526020016005820180546132a990614b8a565b80601f01602080910402602001604051908101604052809291908181526020018280546132d590614b8a565b80156133225780601f106132f757610100808354040283529160200191613322565b820191906000526020600020905b81548152906001019060200180831161330557829003601f168201915b505050505081526020016006820160009054906101000a900463ffffffff1663ffffffff1663ffffffff16815260200160078201805461336190614b8a565b80601f016020809104026020016040519081016040528092919081815260200182805461338d90614b8a565b80156133da5780601f106133af576101008083540402835291602001916133da565b820191906000526020600020905b8154815290600101906020018083116133bd57829003601f168201915b505050505081525050613420565b9050919050565b60606134198260405160200161340591906141c3565b604051602081830303815290604052611562565b9050919050565b6000816000015182602001518360400151846060015185608001518660a001518760c00151886101000151896101200151604051602001613469999897969594939291906141de565b604051602081830303815290604052805190602001209050919050565b6040518060a0016040528060006fffffffffffffffffffffffffffffffff168152602001600063ffffffff168152602001600067ffffffffffffffff16815260200160608152602001606081525090565b8280546134e390614b8a565b90600052602060002090601f016020900481019282613505576000855561354c565b82601f1061351e57805160ff191683800117855561354c565b8280016001018555821561354c579182015b8281111561354b578251825591602001919060010190613530565b5b50905061355991906135e3565b5090565b82805461356990614b8a565b90600052602060002090601f01602090048101928261358b57600085556135d2565b82601f106135a457805160ff19168380011785556135d2565b828001600101855582156135d2579182015b828111156135d15782518255916020019190600101906135b6565b5b5090506135df91906135e3565b5090565b5b808211156135fc5760008160009055506001016135e4565b5090565b600061361361360e846147a5565b614774565b9050808382526020820190508285602086028201111561363257600080fd5b60005b8581101561366257816136488882613790565b845260208401935060208301925050600181019050613635565b5050509392505050565b600061367f61367a846147d1565b614774565b90508281526020810184848401111561369757600080fd5b6136a2848285614b1e565b509392505050565b60006136bd6136b884614801565b614774565b9050828152602081018484840111156136d557600080fd5b6136e0848285614b1e565b509392505050565b600082601f8301126136f957600080fd5b8135613709848260208601613600565b91505092915050565b600082601f83011261372357600080fd5b813561373384826020860161366c565b91505092915050565b600082601f83011261374d57600080fd5b813561375d8482602086016136aa565b91505092915050565b60008135905061377581614d6a565b92915050565b60008135905061378a81614d81565b92915050565b60008135905061379f81614d98565b92915050565b6000602082840312156137b757600080fd5b600082013567ffffffffffffffff8111156137d157600080fd5b6137dd84828501613712565b91505092915050565b6000602082840312156137f857600080fd5b600061380684828501613766565b91505092915050565b6000806000806080858703121561382557600080fd5b600061383387828801613766565b945050602085013567ffffffffffffffff81111561385057600080fd5b61385c878288016136e8565b935050604085013567ffffffffffffffff81111561387957600080fd5b6138858782880161373c565b925050606085013567ffffffffffffffff8111156138a257600080fd5b6138ae8782880161373c565b91505092959194509250565b6000602082840312156138cc57600080fd5b60006138da8482850161377b565b91505092915050565b6000602082840312156138f557600080fd5b600061390384828501613790565b91505092915050565b60008060006060848603121561392157600080fd5b600061392f86828701613790565b935050602084013567ffffffffffffffff81111561394c57600080fd5b6139588682870161373c565b925050604084013567ffffffffffffffff81111561397557600080fd5b6139818682870161373c565b9150509250925092565b60006139978383614098565b905092915050565b60006139ab8383614115565b60208301905092915050565b60006139c38383614159565b60208301905092915050565b60006139da8261488b565b6139e481856148e9565b9350836020820285016139f685614831565b8060005b85811015613a325784840389528151613a13858261398b565b9450613a1e836148c2565b925060208a019950506001810190506139fa565b50829750879550505050505092915050565b6000613a4f82614896565b613a5981856148fa565b9350613a6483614841565b8060005b83811015613a95578151613a7c888261399f565b9750613a87836148cf565b925050600181019050613a68565b5085935050505092915050565b6000613aad826148a1565b613ab7818561490b565b9350613ac283614851565b8060005b83811015613af3578151613ada88826139b7565b9750613ae5836148dc565b925050600181019050613ac6565b5085935050505092915050565b613b0981614ab1565b82525050565b613b1881614abd565b82525050565b613b2f613b2a82614abd565b614c05565b82525050565b6000613b40826148ac565b613b4a818561491c565b9350613b5a818560208601614b2d565b613b6381614d32565b840191505092915050565b6000613b79826148ac565b613b83818561492d565b9350613b93818560208601614b2d565b80840191505092915050565b60008154613bac81614b8a565b613bb6818661492d565b94506001821660008114613bd15760018114613be257613c15565b60ff19831686528186019350613c15565b613beb85614861565b60005b83811015613c0d57815481890152600182019150602081019050613bee565b838801955050505b50505092915050565b6000613c29826148b7565b613c338185614938565b9350613c43818560208601614b2d565b613c4c81614d32565b840191505092915050565b6000613c62826148b7565b613c6c8185614949565b9350613c7c818560208601614b2d565b613c8581614d32565b840191505092915050565b6000613c9b826148b7565b613ca5818561495a565b9350613cb5818560208601614b2d565b80840191505092915050565b60008154613cce81614b8a565b613cd8818661495a565b94506001821660008114613cf35760018114613d0457613d37565b60ff19831686528186019350613d37565b613d0d85614876565b60005b83811015613d2f57815481890152600182019150602081019050613d10565b838801955050505b50505092915050565b6000613d4d601f83614949565b91507f4572726f723a204974656d206973206e6f7420636865636b6564206f75742e006000830152602082019050919050565b6000613d8d600983614949565b91507f434845434b4544494e00000000000000000000000000000000000000000000006000830152602082019050919050565b6000613dcd60098361495a565b91507f434845434b4544494e00000000000000000000000000000000000000000000006000830152600982019050919050565b6000613e0d602d83614949565b91507f4572726f723a204974656d206d75737420626520636865636b656420696e207460008301527f6f2062652072656d6f7665642e000000000000000000000000000000000000006020830152604082019050919050565b6000613e73600a83614949565b91507f434845434b45444f5554000000000000000000000000000000000000000000006000830152602082019050919050565b6000613eb3600a8361495a565b91507f434845434b45444f5554000000000000000000000000000000000000000000006000830152600a82019050919050565b6000613ef3604383614949565b91507f4572726f723a2043616e6e6f7420636865636b206f7574206120636865636b6560008301527f64206f7574206974656d2e204d75737420636865636b20697420696e2066697260208301527f73742e00000000000000000000000000000000000000000000000000000000006040830152606082019050919050565b6000613f7f601b83614949565b91507f4572726f723a2057726f6e672065766964656e6365206974656d2e00000000006000830152602082019050919050565b6000613fbf601f83614949565b91507f45766964656e6365206974656d204944206d75737420626520756e69717565006000830152602082019050919050565b6000613fff601383614949565b91507f496e646578206f7574206f6620626f756e6473000000000000000000000000006000830152602082019050919050565b600061403f602483614949565b91507f4572726f723a2045766964656e6365206974656d20646f6573206e6f7420657860008301527f6973742e000000000000000000000000000000000000000000000000000000006020830152604082019050919050565b600060a0830160008301516140b06000860182614115565b5060208301516140c36020860182614159565b5060408301516140d6604086018261418e565b50606083015184820360608601526140ee8282613c1e565b915050608083015184820360808601526141088282613c1e565b9150508091505092915050565b61411e81614ac7565b82525050565b61412d81614ac7565b82525050565b61414461413f82614ac7565b614c0f565b82525050565b61415381614ae3565b82525050565b61416281614aed565b82525050565b61417181614aed565b82525050565b61418861418382614aed565b614c21565b82525050565b61419781614afd565b82525050565b6141a681614afd565b82525050565b6141bd6141b882614afd565b614c33565b82525050565b60006141cf8284613b1e565b60208201915081905092915050565b60006141ea828c613b1e565b6020820191506141fa828b6141ac565b60088201915061420a828a614133565b60108201915061421a8289614177565b60048201915061422a8288613c90565b91506142368287613c90565b91506142428286613c90565b915061424e8285614177565b60048201915061425e8284613b6e565b91508190509a9950505050505050505050565b600061427d828c613b1e565b60208201915061428d828b6141ac565b60088201915061429d828a614133565b6010820191506142ad8289614177565b6004820191506142bd8288613cc1565b91506142c98287613cc1565b91506142d58286613cc1565b91506142e18285614177565b6004820191506142f18284613b9f565b91508190509a9950505050505050505050565b60006143108284613cc1565b915081905092915050565b600061432682613dc0565b9150819050919050565b600061433b82613ea6565b9150819050919050565b6000602082019050818103600083015261435f81846139cf565b905092915050565b600060208201905081810360008301526143818184613a44565b905092915050565b600060208201905081810360008301526143a38184613aa2565b905092915050565b60006020820190506143c06000830184613b00565b92915050565b60006020820190506143db6000830184613b0f565b92915050565b6000610140820190506143f7600083018d613b0f565b614404602083018c61419d565b614411604083018b614124565b61441e606083018a614168565b81810360808301526144308189613c57565b905081810360a08301526144448188613c57565b905081810360c08301526144588187613c57565b905081810360e083015261446c8186613c57565b905061447c610100830185614168565b81810361012083015261448f8184613b35565b90509b9a5050505050505050505050565b600060208201905081810360008301526144ba8184613c57565b905092915050565b600060608201905081810360008301526144dc8186613c57565b905081810360208301526144f08185613c57565b905081810360408301526145048184613c57565b9050949350505050565b600060808201905081810360008301526145288186613c57565b9050818103602083015261453c8185613c57565b905061454b604083018461419d565b818103606083015261455c81613e66565b9050949350505050565b6000602082019050818103600083015261457f81613d40565b9050919050565b6000602082019050818103600083015261459f81613e00565b9050919050565b600060208201905081810360008301526145bf81613ee6565b9050919050565b600060208201905081810360008301526145df81613f72565b9050919050565b600060208201905081810360008301526145ff81613fb2565b9050919050565b6000602082019050818103600083015261461f81613ff2565b9050919050565b6000602082019050818103600083015261463f81614032565b9050919050565b600060a08201905061465b6000830188614124565b6146686020830187614168565b614675604083018661419d565b81810360608301526146878185613c57565b9050818103608083015261469b8184613c57565b90509695505050505050565b60006020820190506146bc600083018461414a565b92915050565b60006080820190506146d7600083018761419d565b81810360208301526146e98186613c57565b905081810360408301526146fd8185613c57565b905081810360608301526147118184613c57565b905095945050505050565b6000608082019050614731600083018661419d565b818103602083015261474281613d80565b905081810360408301526147568185613c57565b9050818103606083015261476a8184613c57565b9050949350505050565b6000604051905081810181811067ffffffffffffffff8211171561479b5761479a614d03565b5b8060405250919050565b600067ffffffffffffffff8211156147c0576147bf614d03565b5b602082029050602081019050919050565b600067ffffffffffffffff8211156147ec576147eb614d03565b5b601f19601f8301169050602081019050919050565b600067ffffffffffffffff82111561481c5761481b614d03565b5b601f19601f8301169050602081019050919050565b6000819050602082019050919050565b6000819050602082019050919050565b6000819050602082019050919050565b60008190508160005260206000209050919050565b60008190508160005260206000209050919050565b600081519050919050565b600081519050919050565b600081519050919050565b600081519050919050565b600081519050919050565b6000602082019050919050565b6000602082019050919050565b6000602082019050919050565b600082825260208201905092915050565b600082825260208201905092915050565b600082825260208201905092915050565b600082825260208201905092915050565b600081905092915050565b600082825260208201905092915050565b600082825260208201905092915050565b600081905092915050565b600061497082614ae3565b915061497b83614ae3565b9250827fffffffffffffffffffffffffffffffffffffffffffffffffffffffffffffffff038211156149b0576149af614c76565b5b828201905092915050565b60006149c682614b11565b91506149d183614b11565b92508260ff038211156149e7576149e6614c76565b5b828201905092915050565b60006149fd82614b11565b9150614a0883614b11565b925082614a1857614a17614ca5565b5b828204905092915050565b6000614a2e82614ae3565b9150614a3983614ae3565b9250817fffffffffffffffffffffffffffffffffffffffffffffffffffffffffffffffff0483118215151615614a7257614a71614c76565b5b828202905092915050565b6000614a8882614ae3565b9150614a9383614ae3565b925082821015614aa657614aa5614c76565b5b828203905092915050565b60008115159050919050565b6000819050919050565b60006fffffffffffffffffffffffffffffffff82169050919050565b6000819050919050565b600063ffffffff82169050919050565b600067ffffffffffffffff82169050919050565b600060ff82169050919050565b82818337600083830152505050565b60005b83811015614b4b578082015181840152602081019050614b30565b83811115614b5a576000848401525b50505050565b6000614b6b82614ae3565b91506000821415614b7f57614b7e614c76565b5b600182039050919050565b60006002820490506001821680614ba257607f821691505b60208210811415614bb657614bb5614cd4565b5b50919050565b6000614bc782614ae3565b91507fffffffffffffffffffffffffffffffffffffffffffffffffffffffffffffffff821415614bfa57614bf9614c76565b5b600182019050919050565b6000819050919050565b6000614c1a82614d43565b9050919050565b6000614c2c82614d5d565b9050919050565b6000614c3e82614d50565b9050919050565b6000614c5082614b11565b9150614c5b83614b11565b925082614c6b57614c6a614ca5565b5b828206905092915050565b7f4e487b7100000000000000000000000000000000000000000000000000000000600052601160045260246000fd5b7f4e487b7100000000000000000000000000000000000000000000000000000000600052601260045260246000fd5b7f4e487b7100000000000000000000000000000000000000000000000000000000600052602260045260246000fd5b7f4e487b7100000000000000000000000000000000000000000000000000000000600052604160045260246000fd5b6000601f19601f8301169050919050565b60008160801b9050919050565b60008160c01b9050919050565b60008160e01b9050919050565b614d7381614ac7565b8114614d7e57600080fd5b50565b614d8a81614ae3565b8114614d9557600080fd5b50565b614da181614aed565b8114614dac57600080fd5b5056fe4954454d5f434845434b45445f4f55545f4f525f494e5f41465445525f52454d4f56414ca264697066735822122052ef7a70f4c39adc7bb772dafedc44933f999694fb89cb6dfcdf990a9072e9dc64736f6c63430008000033",
  "immutableReferences": {},
  "source": "// SPDX-License-Identifier: MIT\r\npragma solidity ^0.8.0;\r\n\r\ncontract ChainOfCustody {\r\n    struct Block {\r\n        bytes32 previousHash;\r\n        uint64 timestamp;\r\n        uint128 caseId;\r\n        uint32 evidenceItemId;\r\n        string state;\r\n        string handlerName; // Changed from bytes20 to string\r\n        string organizationName; // Changed from bytes20 to string\r\n        string reason;\r\n        uint32 dataLength;\r\n        bytes data;\r\n    }\r\n\r\n    Block[] public blockchain;\r\n    mapping(uint32 => bool) public evidenceExists;\r\n\r\n    // Updated event to use strings\r\n    event EvidenceItemAdded(\r\n        uint128 indexed caseId,\r\n        uint32 indexed evidenceItemId,\r\n        uint64 timestamp,\r\n        string state,\r\n        string handlerName,\r\n        string organizationName\r\n    );\r\n\r\n    // Updated function to accept string parameters\r\n    function addEvidenceItems(\r\n        uint128 _caseId,\r\n        uint32[] memory _itemIds,\r\n        string memory _handlerName,\r\n        string memory _organizationName\r\n    ) public {\r\n        for (uint i = 0; i < _itemIds.length; i++) {\r\n            require(\r\n                !evidenceExists[_itemIds[i]],\r\n                \"Evidence item ID must be unique\"\r\n            );\r\n            addBlock(\r\n                _caseId,\r\n                _itemIds[i],\r\n                \"CHECKEDIN\",\r\n                _handlerName,\r\n                _organizationName,\r\n                \"\",\r\n                \"\"\r\n            );\r\n        }\r\n    }\r\n\r\n    // Updated function to accept string parameters\r\n    function addBlock(\r\n        uint128 _caseId,\r\n        uint32 _evidenceItemId,\r\n        string memory _state,\r\n        string memory _handlerName,\r\n        string memory _organizationName,\r\n        string memory _reason,\r\n        bytes memory _data\r\n    ) internal {\r\n        bytes32 previousHash = blockchain.length > 0\r\n            ? getLatestBlockHash()\r\n            : bytes32(0);\r\n        uint64 timestamp = uint64(block.timestamp);\r\n        uint32 dataLength = uint32(_data.length);\r\n\r\n        Block memory newBlock = Block(\r\n            previousHash,\r\n            timestamp,\r\n            _caseId,\r\n            _evidenceItemId,\r\n            _state,\r\n            _handlerName,\r\n            _organizationName,\r\n            _reason,\r\n            dataLength,\r\n            _data\r\n        );\r\n\r\n        blockchain.push(newBlock);\r\n        evidenceExists[_evidenceItemId] = true;\r\n\r\n        emit EvidenceItemAdded(\r\n            _caseId,\r\n            _evidenceItemId,\r\n            timestamp,\r\n            _state,\r\n            _handlerName,\r\n            _organizationName\r\n        );\r\n    }\r\n\r\n    function getLatestBlockHash() public view returns (bytes32) {\r\n        Block storage lastBlock = blockchain[blockchain.length - 1];\r\n        return\r\n            keccak256(\r\n                abi.encodePacked(\r\n                    lastBlock.previousHash,\r\n                    lastBlock.timestamp,\r\n                    lastBlock.caseId,\r\n                    lastBlock.evidenceItemId,\r\n                    lastBlock.state,\r\n                    lastBlock.handlerName,\r\n                    lastBlock.organizationName,\r\n                    lastBlock.dataLength,\r\n                    lastBlock.data\r\n                )\r\n            );\r\n    }\r\n\r\n    event EvidenceItemCheckedOut(\r\n        uint128 indexed caseId,\r\n        uint32 indexed evidenceItemId,\r\n        string handlerName,\r\n        string organizationName,\r\n        uint64 timestamp,\r\n        string state\r\n    );\r\n\r\n    function checkoutEvidenceItem(uint32 _evidenceItemId, string memory _handlerName, string memory _organizationName) public {\r\n        require(\r\n            evidenceExists[_evidenceItemId],\r\n            \"Error: Evidence item does not exist.\"\r\n        );\r\n        Block storage lastBlock = blockchain[blockchain.length - 1];\r\n        require(\r\n            lastBlock.evidenceItemId == _evidenceItemId,\r\n            \"Error: Wrong evidence item.\"\r\n        );\r\n        require(\r\n            keccak256(abi.encodePacked(lastBlock.state)) !=\r\n                keccak256(abi.encodePacked(\"CHECKEDOUT\")),\r\n            \"Error: Cannot check out a checked out item. Must check it in first.\"\r\n        );\r\n\r\n        // Assuming 'addBlock' function updates the state and creates a new block in the blockchain\r\n        addBlock(\r\n            lastBlock.caseId,\r\n            _evidenceItemId,\r\n            \"CHECKEDOUT\",\r\n            lastBlock.handlerName,\r\n            lastBlock.organizationName,\r\n            \"\",\r\n            lastBlock.data\r\n        );\r\n        emit EvidenceItemCheckedOut(\r\n            lastBlock.caseId,\r\n            _evidenceItemId,\r\n            _handlerName,\r\n            _organizationName,\r\n            uint64(block.timestamp),\r\n            \"CHECKEDOUT\"\r\n        );\r\n    }\r\n\r\n    event EvidenceItemCheckedIn(\r\n        uint128 indexed caseId,\r\n        uint32 indexed evidenceItemId,\r\n        uint64 timestamp,\r\n        string state,\r\n        string handlerName,\r\n        string organizationName\r\n    );\r\n\r\n    function checkinEvidenceItem(\r\n    uint32 _evidenceItemId,\r\n    string memory _handlerName,\r\n    string memory _organizationName\r\n) public {\r\n    require(\r\n        evidenceExists[_evidenceItemId],\r\n        \"Error: Evidence item does not exist.\"\r\n    );\r\n\r\n    bool isItemCheckedOut = false;\r\n    uint128 caseIdForItem;\r\n\r\n    // Iterate through the blockchain to find the specific block with the evidence item\r\n    for (uint i = blockchain.length; i > 0; i--) {\r\n        Block storage blockItem = blockchain[i - 1];\r\n        if (blockItem.evidenceItemId == _evidenceItemId) {\r\n            // Check if the item is in a checked out state\r\n            if (keccak256(abi.encodePacked(blockItem.state)) == keccak256(abi.encodePacked(\"CHECKEDOUT\"))) {\r\n                isItemCheckedOut = true;\r\n                caseIdForItem = blockItem.caseId;\r\n                break;\r\n            }\r\n        }\r\n    }\r\n\r\n    require(isItemCheckedOut, \"Error: Item is not checked out.\");\r\n\r\n    // Add a new block for checkin\r\n    addBlock(\r\n        caseIdForItem,\r\n        _evidenceItemId,\r\n        \"CHECKEDIN\",\r\n        _handlerName,\r\n        _organizationName,\r\n        \"\",\r\n        \"\"\r\n    );\r\n\r\n    emit EvidenceItemCheckedIn(\r\n        caseIdForItem,\r\n        _evidenceItemId,\r\n        uint64(block.timestamp),\r\n        \"CHECKEDIN\",\r\n        _handlerName,\r\n        _organizationName\r\n    );\r\n}\r\n\r\n\r\n    function getCases() public view returns (uint128[] memory) {\r\n        uint128[] memory cases = new uint128[](blockchain.length);\r\n        uint count = 0;\r\n\r\n        for (uint i = 0; i < blockchain.length; i++) {\r\n            bool exists = false;\r\n            for (uint j = 0; j < count; j++) {\r\n                if (cases[j] == blockchain[i].caseId) {\r\n                    exists = true;\r\n                    break;\r\n                }\r\n            }\r\n            if (!exists) {\r\n                cases[count] = blockchain[i].caseId;\r\n                count++;\r\n            }\r\n        }\r\n\r\n        // Resize the array to fit the actual number of unique cases\r\n        uint128[] memory uniqueCases = new uint128[](count);\r\n        for (uint i = 0; i < count; i++) {\r\n            uniqueCases[i] = cases[i];\r\n        }\r\n\r\n        return uniqueCases;\r\n    }\r\n\r\n    function getItemsForCase(\r\n        uint128 _caseId\r\n    ) public view returns (uint32[] memory) {\r\n        uint32[] memory itemsTemp = new uint32[](blockchain.length);\r\n        uint count = 0;\r\n\r\n        for (uint i = 0; i < blockchain.length; i++) {\r\n            if (blockchain[i].caseId == _caseId) {\r\n                itemsTemp[count] = blockchain[i].evidenceItemId;\r\n                count++;\r\n            }\r\n        }\r\n\r\n        // Resize the array to fit the actual number of items for the case\r\n        uint32[] memory items = new uint32[](count);\r\n        for (uint i = 0; i < count; i++) {\r\n            items[i] = itemsTemp[i];\r\n        }\r\n\r\n        return items;\r\n    }\r\n\r\n    struct BlockInfo {\r\n    uint128 caseId;\r\n    uint32 evidenceItemId;\r\n    uint64 timestamp;\r\n    string state;\r\n    string handlerName;\r\n}\r\n\r\nfunction getItemHistory(uint32 _itemId) public view returns (BlockInfo[] memory) {\r\n    BlockInfo[] memory history = new BlockInfo[](blockchain.length);\r\n    uint count = 0;\r\n\r\n    for (uint i = 0; i < blockchain.length; i++) {\r\n        if (blockchain[i].evidenceItemId == _itemId) {\r\n            history[count] = BlockInfo(\r\n                blockchain[i].caseId,\r\n                blockchain[i].evidenceItemId,\r\n                blockchain[i].timestamp,\r\n                blockchain[i].state,\r\n                blockchain[i].handlerName\r\n            );\r\n            count++;\r\n        }\r\n    }\r\n\r\n    BlockInfo[] memory itemHistory = new BlockInfo[](count);\r\n    for (uint i = 0; i < count; i++) {\r\n        itemHistory[i] = history[i];\r\n    }\r\n\r\n    return itemHistory;\r\n}\r\n\r\n\r\n    event EvidenceItemRemoved(\r\n        uint128 caseId,\r\n        uint32 evidenceItemId,\r\n        uint64 timestamp,\r\n        string reason,\r\n        string ownerInfo\r\n    );\r\n\r\n    function removeEvidenceItem(\r\n        uint32 _evidenceItemId,\r\n        string memory _reason,\r\n        string memory _ownerInfo\r\n    ) public {\r\n        require(\r\n            evidenceExists[_evidenceItemId],\r\n            \"Error: Evidence item does not exist.\"\r\n        );\r\n\r\n        Block storage lastBlock = blockchain[blockchain.length - 1];\r\n        require(\r\n            lastBlock.evidenceItemId == _evidenceItemId &&\r\n                keccak256(abi.encodePacked(lastBlock.state)) ==\r\n                keccak256(abi.encodePacked(\"CHECKEDIN\")),\r\n            \"Error: Item must be checked in to be removed.\"\r\n        );\r\n\r\n        // Assuming 'addBlock' function updates the state and creates a new block in the blockchain\r\n        addBlock(\r\n            lastBlock.caseId,\r\n            _evidenceItemId,\r\n            _reason, // Include _reason in the call\r\n            lastBlock.handlerName,\r\n            lastBlock.organizationName,\r\n            _ownerInfo, // Include _ownerInfo\r\n            lastBlock.data\r\n        );\r\n\r\n        emit EvidenceItemRemoved(\r\n            lastBlock.caseId,\r\n            _evidenceItemId,\r\n            uint64(block.timestamp),\r\n            _reason,\r\n            _ownerInfo\r\n        );\r\n    }\r\n    function getBlockCount() public view returns (uint256) {\r\n        return blockchain.length;\r\n    }\r\n\r\n    function verifyBlockchain() public view returns (string memory) {\r\n        uint256 blockCount = getBlockCount();\r\n\r\n        for (uint256 i = 1; i < blockCount; i++) {\r\n            if (blockchain[i].previousHash != getLatestBlockHash(i - 1)) {\r\n                return \"ERROR\";\r\n            }\r\n        }\r\n\r\n        return \"CLEAN\";\r\n    }\r\n\r\n    function getBadBlockInfo() public view returns (string memory, string memory, string memory) {\r\n        uint256 blockCount = getBlockCount();\r\n\r\n        for (uint256 i = 1; i < blockCount; i++) {\r\n            if (blockchain[i].previousHash != getLatestBlockHash(i - 1)) {\r\n                // Placeholder values for demonstration purposes\r\n                return (\r\n                    blockHashToString(blockchain[i].previousHash),\r\n                    blockHashToString(getLatestBlockHash(i - 1)),\r\n                    \"PARENT_NOT_FOUND\"\r\n                );\r\n            }\r\n\r\n            if (i > 1 && blockchain[i].previousHash == blockchain[i - 2].previousHash) {\r\n                // Placeholder values for demonstration purposes\r\n                return (\r\n                    blockHashToString(blockchain[i].previousHash),\r\n                    blockHashToString(blockchain[i - 2].previousHash),\r\n                    \"DUPLICATE_PARENT\"\r\n                );\r\n            }\r\n\r\n            bytes32 calculatedHash = calculateBlockHash(blockchain[i]);\r\n            if (blockchain[i].previousHash != calculatedHash) {\r\n                // Placeholder values for demonstration purposes\r\n                return (\r\n                    blockHashToString(blockchain[i].previousHash),\r\n                    blockHashToString(calculatedHash),\r\n                    \"CONTENT_MISMATCH\"\r\n                );\r\n            }\r\n\r\n            if (\r\n                keccak256(abi.encodePacked(blockchain[i].state)) ==\r\n                keccak256(abi.encodePacked(\"CHECKEDOUT\")) &&\r\n                i < blockCount - 1\r\n            ) {\r\n                // Placeholder values for demonstration purposes\r\n                return (\r\n                    blockHashToString(blockchain[i].previousHash),\r\n                    blockHashToString(getLatestBlockHash(i)),\r\n                    \"ITEM_CHECKED_OUT_OR_IN_AFTER_REMOVAL\"\r\n                );\r\n            }\r\n        }\r\n\r\n        // Placeholder values for demonstration purposes\r\n        return (\"\", \"\", \"\");\r\n    }\r\n\r\n    // Other existing functions...\r\n    function bytesToHexString(bytes memory data) public pure returns (string memory) {\r\n        bytes memory hexString = new bytes(2 * data.length);\r\n\r\n        for (uint256 i = 0; i < data.length; i++) {\r\n            uint8 value = uint8(data[i]);\r\n            hexString[2 * i] = bytes1(uint8(value / 16 + 48));\r\n            hexString[2 * i + 1] = bytes1(uint8(value % 16 + 48));\r\n        }\r\n\r\n        return string(hexString);\r\n    }\r\n\r\n    // Utility function to convert bytes32 to string\r\n    function blockHashToString(bytes32 hash) internal pure returns (string memory) {\r\n        return bytesToHexString(abi.encodePacked(hash));\r\n    }\r\n\r\n    // Utility function to calculate the hash of a block\r\n    function calculateBlockHash(Block memory blockData) internal pure returns (bytes32) {\r\n        return\r\n            keccak256(\r\n                abi.encodePacked(\r\n                    blockData.previousHash,\r\n                    blockData.timestamp,\r\n                    blockData.caseId,\r\n                    blockData.evidenceItemId,\r\n                    blockData.state,\r\n                    blockData.handlerName,\r\n                    blockData.organizationName,\r\n                    blockData.dataLength,\r\n                    blockData.data\r\n                )\r\n            );\r\n    }\r\n\r\n    // Utility function to get the hash of the latest block\r\n    function getLatestBlockHash(uint256 index) internal view returns (bytes32) {\r\n        require(index < blockchain.length, \"Index out of bounds\");\r\n        return calculateBlockHash(blockchain[index]);\r\n    }\r\n\r\n}\r\n",
  "sourcePath": "C:\\Users\\sharm\\Dropbox (ASU)\\CSE 469 CNF\\Group Project\\blockchain_chain_of_custody\\chain_of_custody\\contracts\\ChainOfCustody.sol",
  "compiler": {
    "name": "solc",
    "version": "0.8.0+commit.c7dfd78e.Emscripten.clang"
  },
  "schemaVersion": "3.4.16",
  "updatedAt": "2023-11-30T05:23:58.518Z",
  "networkType": "ethereum",
  "devdoc": {
    "kind": "dev",
    "methods": {},
    "version": 1
  },
  "userdoc": {
    "kind": "user",
    "methods": {},
    "version": 1
  }
}