{
  "contractName": "ChainOfCustody",
  "abi": [
    {
      "anonymous": false,
      "inputs": [
        {
          "indexed": false,
          "internalType": "uint128",
          "name": "caseId",
          "type": "uint128"
        },
        {
          "indexed": false,
          "internalType": "uint32",
          "name": "evidenceItemId",
          "type": "uint32"
        },
        {
          "indexed": false,
          "internalType": "uint64",
          "name": "timestamp",
          "type": "uint64"
        },
        {
          "indexed": false,
          "internalType": "bytes12",
          "name": "state",
          "type": "bytes12"
        },
        {
          "indexed": false,
          "internalType": "string",
          "name": "handlerName",
          "type": "string"
        },
        {
          "indexed": false,
          "internalType": "string",
          "name": "organizationName",
          "type": "string"
        }
      ],
      "name": "EvidenceItemAdded",
      "type": "event"
    },
    {
      "anonymous": false,
      "inputs": [
        {
          "indexed": false,
          "internalType": "uint128",
          "name": "caseId",
          "type": "uint128"
        },
        {
          "indexed": false,
          "internalType": "uint32",
          "name": "evidenceItemId",
          "type": "uint32"
        },
        {
          "indexed": false,
          "internalType": "uint64",
          "name": "timestamp",
          "type": "uint64"
        },
        {
          "indexed": false,
          "internalType": "bytes12",
          "name": "state",
          "type": "bytes12"
        }
      ],
      "name": "EvidenceItemCheckedOut",
      "type": "event"
    },
    {
      "inputs": [
        {
          "internalType": "uint256",
          "name": "",
          "type": "uint256"
        }
      ],
      "name": "blockchain",
      "outputs": [
        {
          "internalType": "bytes32",
          "name": "previousHash",
          "type": "bytes32"
        },
        {
          "internalType": "uint64",
          "name": "timestamp",
          "type": "uint64"
        },
        {
          "internalType": "uint128",
          "name": "caseId",
          "type": "uint128"
        },
        {
          "internalType": "uint32",
          "name": "evidenceItemId",
          "type": "uint32"
        },
        {
          "internalType": "bytes12",
          "name": "state",
          "type": "bytes12"
        },
        {
          "internalType": "string",
          "name": "handlerName",
          "type": "string"
        },
        {
          "internalType": "string",
          "name": "organizationName",
          "type": "string"
        },
        {
          "internalType": "uint32",
          "name": "dataLength",
          "type": "uint32"
        },
        {
          "internalType": "bytes",
          "name": "data",
          "type": "bytes"
        }
      ],
      "stateMutability": "view",
      "type": "function",
      "constant": true
    },
    {
      "inputs": [
        {
          "internalType": "uint32",
          "name": "",
          "type": "uint32"
        }
      ],
      "name": "evidenceExists",
      "outputs": [
        {
          "internalType": "bool",
          "name": "",
          "type": "bool"
        }
      ],
      "stateMutability": "view",
      "type": "function",
      "constant": true
    },
    {
      "inputs": [
        {
          "internalType": "uint128",
          "name": "_caseId",
          "type": "uint128"
        },
        {
          "internalType": "uint32[]",
          "name": "_itemIds",
          "type": "uint32[]"
        },
        {
          "internalType": "string",
          "name": "_handlerName",
          "type": "string"
        },
        {
          "internalType": "string",
          "name": "_organizationName",
          "type": "string"
        }
      ],
      "name": "addEvidenceItems",
      "outputs": [],
      "stateMutability": "nonpayable",
      "type": "function"
    },
    {
      "inputs": [
        {
          "internalType": "uint32",
          "name": "_evidenceItemId",
          "type": "uint32"
        }
      ],
      "name": "checkoutEvidenceItem",
      "outputs": [],
      "stateMutability": "nonpayable",
      "type": "function"
    }
  ],
  "bytecode": "0x608060405234801561001057600080fd5b50611a49806100206000396000f3fe608060405234801561001057600080fd5b506004361061004c5760003560e01c8063a358549714610051578063b35af6c31461006d578063bfc260de1461009d578063c25b1eaf146100b9575b600080fd5b61006b60048036038101906100669190610fb9565b6100f1565b005b61008760048036038101906100829190610fb9565b6104f7565b604051610094919061144e565b60405180910390f35b6100b760048036038101906100b29190610ee5565b610517565b005b6100d360048036038101906100ce9190610f90565b610667565b6040516100e899989796959493929190611469565b60405180910390f35b600160008263ffffffff1663ffffffff16815260200190815260200160002060009054906101000a900460ff1661015d576040517f08c379a00000000000000000000000000000000000000000000000000000000081526004016101549061156b565b60405180910390fd5b60008060016000805490506101729190611742565b815481106101a9577f4e487b7100000000000000000000000000000000000000000000000000000000600052603260045260246000fd5b906000526020600020906007020190508163ffffffff168160010160189054906101000a900463ffffffff1663ffffffff161461021b576040517f08c379a00000000000000000000000000000000000000000000000000000000081526004016102129061152b565b60405180910390fd5b7f434845434b45444f5554000000000000000000000000000000000000000000008160020160009054906101000a900460a01b73ffffffffffffffffffffffffffffffffffffffff191614156102a6576040517f08c379a000000000000000000000000000000000000000000000000000000000815260040161029d9061150b565b60405180910390fd5b6104988160010160089054906101000a90046fffffffffffffffffffffffffffffffff16837f434845434b45444f5554000000000000000000000000000000000000000000008460030180546102fb90611844565b80601f016020809104026020016040519081016040528092919081815260200182805461032790611844565b80156103745780601f1061034957610100808354040283529160200191610374565b820191906000526020600020905b81548152906001019060200180831161035757829003601f168201915b505050505085600401805461038890611844565b80601f01602080910402602001604051908101604052809291908181526020018280546103b490611844565b80156104015780601f106103d657610100808354040283529160200191610401565b820191906000526020600020905b8154815290600101906020018083116103e457829003601f168201915b505050505086600601805461041590611844565b80601f016020809104026020016040519081016040528092919081815260200182805461044190611844565b801561048e5780601f106104635761010080835404028352916020019161048e565b820191906000526020600020905b81548152906001019060200180831161047157829003601f168201915b50505050506108ba565b7f431bdc219b0c2d27308a12cb3b26a63cb93a3eb90bb495bd6db61ed74e2a89ce8160010160089054906101000a90046fffffffffffffffffffffffffffffffff1683426040516104eb939291906115fa565b60405180910390a15050565b60016020528060005260406000206000915054906101000a900460ff1681565b60005b83518110156106605760016000858381518110610560577f4e487b7100000000000000000000000000000000000000000000000000000000600052603260045260246000fd5b602002602001015163ffffffff1663ffffffff16815260200190815260200160002060009054906101000a900460ff16156105d0576040517f08c379a00000000000000000000000000000000000000000000000000000000081526004016105c79061154b565b60405180910390fd5b61064d8585838151811061060d577f4e487b7100000000000000000000000000000000000000000000000000000000600052603260045260246000fd5b60200260200101517f434845434b4544494e00000000000000000000000000000000000000000000008686604051806020016040528060008152506108ba565b808061065890611876565b91505061051a565b5050505050565b6000818154811061067757600080fd5b90600052602060002090600702016000915090508060000154908060010160009054906101000a900467ffffffffffffffff16908060010160089054906101000a90046fffffffffffffffffffffffffffffffff16908060010160189054906101000a900463ffffffff16908060020160009054906101000a900460a01b9080600301805461070590611844565b80601f016020809104026020016040519081016040528092919081815260200182805461073190611844565b801561077e5780601f106107535761010080835404028352916020019161077e565b820191906000526020600020905b81548152906001019060200180831161076157829003601f168201915b50505050509080600401805461079390611844565b80601f01602080910402602001604051908101604052809291908181526020018280546107bf90611844565b801561080c5780601f106107e15761010080835404028352916020019161080c565b820191906000526020600020905b8154815290600101906020018083116107ef57829003601f168201915b5050505050908060050160009054906101000a900463ffffffff169080600601805461083790611844565b80601f016020809104026020016040519081016040528092919081815260200182805461086390611844565b80156108b05780601f10610885576101008083540402835291602001916108b0565b820191906000526020600020905b81548152906001019060200180831161089357829003601f168201915b5050505050905089565b600080600080549050116108d1576000801b6108da565b6108d9610b66565b5b9050600042905060008351905060006040518061012001604052808581526020018467ffffffffffffffff1681526020018b6fffffffffffffffffffffffffffffffff1681526020018a63ffffffff1681526020018973ffffffffffffffffffffffffffffffffffffffff191681526020018881526020018781526020018363ffffffff16815260200186815250905060008190806001815401808255809150506001900390600052602060002090600702016000909190919091506000820151816000015560208201518160010160006101000a81548167ffffffffffffffff021916908367ffffffffffffffff16021790555060408201518160010160086101000a8154816fffffffffffffffffffffffffffffffff02191690836fffffffffffffffffffffffffffffffff16021790555060608201518160010160186101000a81548163ffffffff021916908363ffffffff16021790555060808201518160020160006101000a8154816bffffffffffffffffffffffff021916908360a01c021790555060a0820151816003019080519060200190610a7d929190610c7f565b5060c0820151816004019080519060200190610a9a929190610c7f565b5060e08201518160050160006101000a81548163ffffffff021916908363ffffffff160217905550610100820151816006019080519060200190610adf929190610d05565b50505060018060008b63ffffffff1663ffffffff16815260200190815260200160002060006101000a81548160ff0219169083151502179055507f455d96dd881823fbf82c6ce863aeec7771c352615702544f38b206023d7edf318a8a858b8b8b604051610b529695949392919061158b565b60405180910390a150505050505050505050565b60008060006001600080549050610b7d9190611742565b81548110610bb4577f4e487b7100000000000000000000000000000000000000000000000000000000600052603260045260246000fd5b9060005260206000209060070201905080600001548160010160009054906101000a900467ffffffffffffffff168260010160089054906101000a90046fffffffffffffffffffffffffffffffff168360010160189054906101000a900463ffffffff168460020160009054906101000a900460a01b85600301866004018760050160009054906101000a900463ffffffff1688600601604051602001610c63999897969594939291906113b7565b6040516020818303038152906040528051906020012091505090565b828054610c8b90611844565b90600052602060002090601f016020900481019282610cad5760008555610cf4565b82601f10610cc657805160ff1916838001178555610cf4565b82800160010185558215610cf4579182015b82811115610cf3578251825591602001919060010190610cd8565b5b509050610d019190610d8b565b5090565b828054610d1190611844565b90600052602060002090601f016020900481019282610d335760008555610d7a565b82601f10610d4c57805160ff1916838001178555610d7a565b82800160010185558215610d7a579182015b82811115610d79578251825591602001919060010190610d5e565b5b509050610d879190610d8b565b5090565b5b80821115610da4576000816000905550600101610d8c565b5090565b6000610dbb610db68461166e565b61163d565b90508083825260208201905082856020860282011115610dda57600080fd5b60005b85811015610e0a5781610df08882610ed0565b845260208401935060208301925050600181019050610ddd565b5050509392505050565b6000610e27610e228461169a565b61163d565b905082815260208101848484011115610e3f57600080fd5b610e4a848285611802565b509392505050565b600082601f830112610e6357600080fd5b8135610e73848260208601610da8565b91505092915050565b600082601f830112610e8d57600080fd5b8135610e9d848260208601610e14565b91505092915050565b600081359050610eb5816119ce565b92915050565b600081359050610eca816119e5565b92915050565b600081359050610edf816119fc565b92915050565b60008060008060808587031215610efb57600080fd5b6000610f0987828801610ea6565b945050602085013567ffffffffffffffff811115610f2657600080fd5b610f3287828801610e52565b935050604085013567ffffffffffffffff811115610f4f57600080fd5b610f5b87828801610e7c565b925050606085013567ffffffffffffffff811115610f7857600080fd5b610f8487828801610e7c565b91505092959194509250565b600060208284031215610fa257600080fd5b6000610fb084828501610ebb565b91505092915050565b600060208284031215610fcb57600080fd5b6000610fd984828501610ed0565b91505092915050565b610feb81611776565b82525050565b610ffa81611782565b82525050565b61101161100c82611782565b6118bf565b82525050565b611020816117ae565b82525050565b611037611032826117ae565b6118c9565b82525050565b6000611048826116f4565b611052818561170a565b9350611062818560208601611811565b61106b81611996565b840191505092915050565b6000815461108381611844565b61108d818661171b565b945060018216600081146110a857600181146110b9576110ec565b60ff198316865281860193506110ec565b6110c2856116ca565b60005b838110156110e4578154818901526001820191506020810190506110c5565b838801955050505b50505092915050565b6000611100826116ff565b61110a8185611726565b935061111a818560208601611811565b61112381611996565b840191505092915050565b6000815461113b81611844565b6111458186611737565b945060018216600081146111605760018114611171576111a4565b60ff198316865281860193506111a4565b61117a856116df565b60005b8381101561119c5781548189015260018201915060208101905061117d565b838801955050505b50505092915050565b7f434845434b45444f555400000000000000000000000000000000000000000000815250565b60006111e0604383611726565b91507f4572726f723a2043616e6e6f7420636865636b206f7574206120636865636b6560008301527f64206f7574206974656d2e204d75737420636865636b20697420696e2066697260208301527f73742e00000000000000000000000000000000000000000000000000000000006040830152606082019050919050565b600061126c601b83611726565b91507f4572726f723a2057726f6e672065766964656e6365206974656d2e00000000006000830152602082019050919050565b60006112ac601f83611726565b91507f45766964656e6365206974656d204944206d75737420626520756e69717565006000830152602082019050919050565b60006112ec602483611726565b91507f4572726f723a2045766964656e6365206974656d20646f6573206e6f7420657860008301527f6973742e000000000000000000000000000000000000000000000000000000006020830152604082019050919050565b61134e816117b8565b82525050565b611365611360826117b8565b6118d3565b82525050565b611374816117de565b82525050565b61138b611386826117de565b6118e5565b82525050565b61139a816117ee565b82525050565b6113b16113ac826117ee565b6118f7565b82525050565b60006113c3828c611026565b6020820191506113d3828b6113a0565b6008820191506113e3828a611354565b6010820191506113f3828961137a565b6004820191506114038288611000565b600c82019150611413828761112e565b915061141f828661112e565b915061142b828561137a565b60048201915061143b8284611076565b91508190509a9950505050505050505050565b60006020820190506114636000830184610fe2565b92915050565b60006101208201905061147f600083018c611017565b61148c602083018b611391565b611499604083018a611345565b6114a6606083018961136b565b6114b36080830188610ff1565b81810360a08301526114c581876110f5565b905081810360c08301526114d981866110f5565b90506114e860e083018561136b565b8181036101008301526114fb818461103d565b90509a9950505050505050505050565b60006020820190508181036000830152611524816111d3565b9050919050565b600060208201905081810360008301526115448161125f565b9050919050565b600060208201905081810360008301526115648161129f565b9050919050565b60006020820190508181036000830152611584816112df565b9050919050565b600060c0820190506115a06000830189611345565b6115ad602083018861136b565b6115ba6040830187611391565b6115c76060830186610ff1565b81810360808301526115d981856110f5565b905081810360a08301526115ed81846110f5565b9050979650505050505050565b600060808201905061160f6000830186611345565b61161c602083018561136b565b6116296040830184611391565b611635606083016111ad565b949350505050565b6000604051905081810181811067ffffffffffffffff8211171561166457611663611967565b5b8060405250919050565b600067ffffffffffffffff82111561168957611688611967565b5b602082029050602081019050919050565b600067ffffffffffffffff8211156116b5576116b4611967565b5b601f19601f8301169050602081019050919050565b60008190508160005260206000209050919050565b60008190508160005260206000209050919050565b600081519050919050565b600081519050919050565b600082825260208201905092915050565b600081905092915050565b600082825260208201905092915050565b600081905092915050565b600061174d826117d4565b9150611758836117d4565b92508282101561176b5761176a611909565b5b828203905092915050565b60008115159050919050565b60007fffffffffffffffffffffffff000000000000000000000000000000000000000082169050919050565b6000819050919050565b60006fffffffffffffffffffffffffffffffff82169050919050565b6000819050919050565b600063ffffffff82169050919050565b600067ffffffffffffffff82169050919050565b82818337600083830152505050565b60005b8381101561182f578082015181840152602081019050611814565b8381111561183e576000848401525b50505050565b6000600282049050600182168061185c57607f821691505b602082108114156118705761186f611938565b5b50919050565b6000611881826117d4565b91507fffffffffffffffffffffffffffffffffffffffffffffffffffffffffffffffff8214156118b4576118b3611909565b5b600182019050919050565b6000819050919050565b6000819050919050565b60006118de826119a7565b9050919050565b60006118f0826119c1565b9050919050565b6000611902826119b4565b9050919050565b7f4e487b7100000000000000000000000000000000000000000000000000000000600052601160045260246000fd5b7f4e487b7100000000000000000000000000000000000000000000000000000000600052602260045260246000fd5b7f4e487b7100000000000000000000000000000000000000000000000000000000600052604160045260246000fd5b6000601f19601f8301169050919050565b60008160801b9050919050565b60008160c01b9050919050565b60008160e01b9050919050565b6119d7816117b8565b81146119e257600080fd5b50565b6119ee816117d4565b81146119f957600080fd5b50565b611a05816117de565b8114611a1057600080fd5b5056fea26469706673582212200f2e94b38e2917642354fe9064c2860949bcb2af05005fa1a98addc3ba7a8f1a64736f6c63430008000033",
  "immutableReferences": {},
  "source": "// SPDX-License-Identifier: MIT\r\npragma solidity ^0.8.0;\r\n\r\ncontract ChainOfCustody {\r\n    struct Block {\r\n        bytes32 previousHash;\r\n        uint64 timestamp;\r\n        uint128 caseId;\r\n        uint32 evidenceItemId;\r\n        bytes12 state;\r\n        string handlerName; // Changed from bytes20 to string\r\n        string organizationName; // Changed from bytes20 to string\r\n        uint32 dataLength;\r\n        bytes data;\r\n    }\r\n\r\n    Block[] public blockchain;\r\n    mapping(uint32 => bool) public evidenceExists;\r\n\r\n    // Updated event to use strings\r\n    event EvidenceItemAdded(uint128 caseId, uint32 evidenceItemId, uint64 timestamp, bytes12 state, string handlerName, string organizationName);\r\n\r\n    // Updated function to accept string parameters\r\n    function addEvidenceItems(uint128 _caseId, uint32[] memory _itemIds, string memory _handlerName, string memory _organizationName) public {\r\n        for (uint i = 0; i < _itemIds.length; i++) {\r\n            require(!evidenceExists[_itemIds[i]], \"Evidence item ID must be unique\");\r\n            addBlock(_caseId, _itemIds[i], \"CHECKEDIN\", _handlerName, _organizationName, \"\");\r\n        }\r\n    }\r\n\r\n    // Updated function to accept string parameters\r\n    function addBlock(uint128 _caseId, uint32 _evidenceItemId, bytes12 _state, string memory _handlerName, string memory _organizationName, bytes memory _data) private {\r\n        bytes32 previousHash = blockchain.length > 0 ? getLatestBlockHash() : bytes32(0);\r\n        uint64 timestamp = uint64(block.timestamp);\r\n        uint32 dataLength = uint32(_data.length);\r\n\r\n        Block memory newBlock = Block(\r\n            previousHash,\r\n            timestamp,\r\n            _caseId,\r\n            _evidenceItemId,\r\n            _state,\r\n            _handlerName,\r\n            _organizationName,\r\n            dataLength,\r\n            _data\r\n        );\r\n\r\n        blockchain.push(newBlock);\r\n        evidenceExists[_evidenceItemId] = true;\r\n\r\n        emit EvidenceItemAdded(_caseId, _evidenceItemId, timestamp, _state, _handlerName, _organizationName);\r\n    }\r\n\r\n    function getLatestBlockHash() private view returns (bytes32) {\r\n        Block storage lastBlock = blockchain[blockchain.length - 1];\r\n        return keccak256(\r\n            abi.encodePacked(\r\n                lastBlock.previousHash,\r\n                lastBlock.timestamp,\r\n                lastBlock.caseId,\r\n                lastBlock.evidenceItemId,\r\n                lastBlock.state,\r\n                lastBlock.handlerName,\r\n                lastBlock.organizationName,\r\n                lastBlock.dataLength,\r\n                lastBlock.data\r\n            )\r\n        );\r\n    }\r\n\r\n    event EvidenceItemCheckedOut(uint128 caseId, uint32 evidenceItemId, uint64 timestamp, bytes12 state);\r\n\r\n    function checkoutEvidenceItem(uint32 _evidenceItemId) public {\r\n        require(evidenceExists[_evidenceItemId], \"Error: Evidence item does not exist.\");\r\n        Block storage lastBlock = blockchain[blockchain.length - 1];\r\n        require(lastBlock.evidenceItemId == _evidenceItemId, \"Error: Wrong evidence item.\");\r\n        require(lastBlock.state != \"CHECKEDOUT\", \"Error: Cannot check out a checked out item. Must check it in first.\");\r\n\r\n        // Assuming 'addBlock' function updates the state and creates a new block in the blockchain\r\n        addBlock(lastBlock.caseId, _evidenceItemId, \"CHECKEDOUT\", lastBlock.handlerName, lastBlock.organizationName, lastBlock.data);\r\n        emit EvidenceItemCheckedOut(lastBlock.caseId, _evidenceItemId, uint64(block.timestamp), \"CHECKEDOUT\");\r\n    }\r\n}\r\n",
  "sourcePath": "C:\\Users\\ASUS\\Dropbox (ASU)\\MS ASU\\CSE 469 CNF\\GROUP PROJECT\\kuchbi\\blockchain_chain_of_custody\\chain_of_custody\\contracts\\ChainOfCustody.sol",
  "compiler": {
    "name": "solc",
    "version": "0.8.0+commit.c7dfd78e.Emscripten.clang"
  },
  "schemaVersion": "3.4.16",
  "updatedAt": "2023-11-25T06:40:51.674Z",
  "networkType": "ethereum",
  "devdoc": {
    "kind": "dev",
    "methods": {},
    "version": 1
  },
  "userdoc": {
    "kind": "user",
    "methods": {},
    "version": 1
  }
}