{
  "contractName": "ChainOfCustody",
  "abi": [
    {
      "anonymous": false,
      "inputs": [
        {
          "indexed": false,
          "internalType": "uint128",
          "name": "caseId",
          "type": "uint128"
        },
        {
          "indexed": false,
          "internalType": "uint32",
          "name": "evidenceItemId",
          "type": "uint32"
        },
        {
          "indexed": false,
          "internalType": "uint64",
          "name": "timestamp",
          "type": "uint64"
        },
        {
          "indexed": false,
          "internalType": "bytes12",
          "name": "state",
          "type": "bytes12"
        }
      ],
      "name": "EvidenceItemAdded",
      "type": "event"
    },
    {
      "inputs": [
        {
          "internalType": "uint256",
          "name": "",
          "type": "uint256"
        }
      ],
      "name": "blockchain",
      "outputs": [
        {
          "internalType": "bytes32",
          "name": "previousHash",
          "type": "bytes32"
        },
        {
          "internalType": "uint64",
          "name": "timestamp",
          "type": "uint64"
        },
        {
          "internalType": "uint128",
          "name": "caseId",
          "type": "uint128"
        },
        {
          "internalType": "uint32",
          "name": "evidenceItemId",
          "type": "uint32"
        },
        {
          "internalType": "bytes12",
          "name": "state",
          "type": "bytes12"
        },
        {
          "internalType": "bytes20",
          "name": "handlerName",
          "type": "bytes20"
        },
        {
          "internalType": "bytes20",
          "name": "organizationName",
          "type": "bytes20"
        },
        {
          "internalType": "uint32",
          "name": "dataLength",
          "type": "uint32"
        },
        {
          "internalType": "bytes",
          "name": "data",
          "type": "bytes"
        }
      ],
      "stateMutability": "view",
      "type": "function",
      "constant": true
    },
    {
      "inputs": [
        {
          "internalType": "uint32",
          "name": "",
          "type": "uint32"
        }
      ],
      "name": "evidenceExists",
      "outputs": [
        {
          "internalType": "bool",
          "name": "",
          "type": "bool"
        }
      ],
      "stateMutability": "view",
      "type": "function",
      "constant": true
    },
    {
      "inputs": [
        {
          "internalType": "uint128",
          "name": "_caseId",
          "type": "uint128"
        },
        {
          "internalType": "uint32[]",
          "name": "_itemIds",
          "type": "uint32[]"
        }
      ],
      "name": "addEvidenceItems",
      "outputs": [],
      "stateMutability": "nonpayable",
      "type": "function"
    }
  ],
  "bytecode": "0x608060405234801561001057600080fd5b50611153806100206000396000f3fe608060405234801561001057600080fd5b50600436106100415760003560e01c8063b31edebe14610046578063b35af6c314610062578063c25b1eaf14610092575b600080fd5b610060600480360381019061005b9190610937565b6100ca565b005b61007c600480360381019061007791906109b4565b610219565b6040516100899190610c67565b60405180910390f35b6100ac60048036038101906100a7919061098b565b610239565b6040516100c199989796959493929190610c82565b60405180910390f35b60005b81518110156102145760016000838381518110610113577f4e487b7100000000000000000000000000000000000000000000000000000000600052603260045260246000fd5b602002602001015163ffffffff1663ffffffff16815260200190815260200160002060009054906101000a900460ff1615610183576040517f08c379a000000000000000000000000000000000000000000000000000000000815260040161017a90610d16565b60405180910390fd5b610201838383815181106101c0577f4e487b7100000000000000000000000000000000000000000000000000000000600052603260045260246000fd5b60200260200101517f434845434b4544494e000000000000000000000000000000000000000000000060008060405180602001604052806000815250610396565b808061020c90610f76565b9150506100cd565b505050565b60016020528060005260406000206000915054906101000a900460ff1681565b6000818154811061024957600080fd5b90600052602060002090600502016000915090508060000154908060010160009054906101000a900467ffffffffffffffff16908060010160089054906101000a90046fffffffffffffffffffffffffffffffff16908060010160189054906101000a900463ffffffff16908060020160009054906101000a900460a01b9080600201600c9054906101000a900460601b908060030160009054906101000a900460601b908060030160149054906101000a900463ffffffff169080600401805461031390610f44565b80601f016020809104026020016040519081016040528092919081815260200182805461033f90610f44565b801561038c5780601f106103615761010080835404028352916020019161038c565b820191906000526020600020905b81548152906001019060200180831161036f57829003601f168201915b5050505050905089565b600080600080549050116103ad576000801b6103b6565b6103b561068a565b5b9050600042905060008351905060006040518061012001604052808581526020018467ffffffffffffffff1681526020018b6fffffffffffffffffffffffffffffffff1681526020018a63ffffffff1681526020018973ffffffffffffffffffffffffffffffffffffffff19168152602001886bffffffffffffffffffffffff19168152602001876bffffffffffffffffffffffff191681526020018363ffffffff16815260200186815250905060008190806001815401808255809150506001900390600052602060002090600502016000909190919091506000820151816000015560208201518160010160006101000a81548167ffffffffffffffff021916908367ffffffffffffffff16021790555060408201518160010160086101000a8154816fffffffffffffffffffffffffffffffff02191690836fffffffffffffffffffffffffffffffff16021790555060608201518160010160186101000a81548163ffffffff021916908363ffffffff16021790555060808201518160020160006101000a8154816bffffffffffffffffffffffff021916908360a01c021790555060a082015181600201600c6101000a81548173ffffffffffffffffffffffffffffffffffffffff021916908360601c021790555060c08201518160030160006101000a81548173ffffffffffffffffffffffffffffffffffffffff021916908360601c021790555060e08201518160030160146101000a81548163ffffffff021916908363ffffffff1602179055506101008201518160040190805190602001906106079291906107bf565b50505060018060008b63ffffffff1663ffffffff16815260200190815260200160002060006101000a81548160ff0219169083151502179055507f608d186a09e958e0feccb2533251b6a50eb9e5e540c4d70d4aa0ce5967083c0c8a8a858b6040516106769493929190610d36565b60405180910390a150505050505050505050565b600080600060016000805490506106a19190610e25565b815481106106d8577f4e487b7100000000000000000000000000000000000000000000000000000000600052603260045260246000fd5b9060005260206000209060050201905080600001548160010160009054906101000a900467ffffffffffffffff168260010160089054906101000a90046fffffffffffffffffffffffffffffffff168360010160189054906101000a900463ffffffff168460020160009054906101000a900460a01b85600201600c9054906101000a900460601b8660030160009054906101000a900460601b8760030160149054906101000a900463ffffffff16886004016040516020016107a399989796959493929190610bc8565b6040516020818303038152906040528051906020012091505090565b8280546107cb90610f44565b90600052602060002090601f0160209004810192826107ed5760008555610834565b82601f1061080657805160ff1916838001178555610834565b82800160010185558215610834579182015b82811115610833578251825591602001919060010190610818565b5b5090506108419190610845565b5090565b5b8082111561085e576000816000905550600101610846565b5090565b600061087561087084610dac565b610d7b565b9050808382526020820190508285602086028201111561089457600080fd5b60005b858110156108c457816108aa8882610922565b845260208401935060208301925050600181019050610897565b5050509392505050565b600082601f8301126108df57600080fd5b81356108ef848260208601610862565b91505092915050565b600081359050610907816110d8565b92915050565b60008135905061091c816110ef565b92915050565b60008135905061093181611106565b92915050565b6000806040838503121561094a57600080fd5b6000610958858286016108f8565b925050602083013567ffffffffffffffff81111561097557600080fd5b610981858286016108ce565b9150509250929050565b60006020828403121561099d57600080fd5b60006109ab8482850161090d565b91505092915050565b6000602082840312156109c657600080fd5b60006109d484828501610922565b91505092915050565b6109e681610e59565b82525050565b6109f581610e65565b82525050565b610a0c610a0782610e65565b610fbf565b82525050565b610a1b81610e91565b82525050565b610a32610a2d82610e91565b610fc9565b82525050565b610a4181610ebd565b82525050565b610a58610a5382610ebd565b610fd3565b82525050565b6000610a6982610ded565b610a738185610df8565b9350610a83818560208601610f11565b610a8c816110a0565b840191505092915050565b60008154610aa481610f44565b610aae8186610e09565b94506001821660008114610ac95760018114610ada57610b0d565b60ff19831686528186019350610b0d565b610ae385610dd8565b60005b83811015610b0557815481890152600182019150602081019050610ae6565b838801955050505b50505092915050565b6000610b23601f83610e14565b91507f45766964656e6365206974656d204944206d75737420626520756e69717565006000830152602082019050919050565b610b5f81610ec7565b82525050565b610b76610b7182610ec7565b610fdd565b82525050565b610b8581610eed565b82525050565b610b9c610b9782610eed565b610fef565b82525050565b610bab81610efd565b82525050565b610bc2610bbd82610efd565b611001565b82525050565b6000610bd4828c610a47565b602082019150610be4828b610bb1565b600882019150610bf4828a610b65565b601082019150610c048289610b8b565b600482019150610c1482886109fb565b600c82019150610c248287610a21565b601482019150610c348286610a21565b601482019150610c448285610b8b565b600482019150610c548284610a97565b91508190509a9950505050505050505050565b6000602082019050610c7c60008301846109dd565b92915050565b600061012082019050610c98600083018c610a38565b610ca5602083018b610ba2565b610cb2604083018a610b56565b610cbf6060830189610b7c565b610ccc60808301886109ec565b610cd960a0830187610a12565b610ce660c0830186610a12565b610cf360e0830185610b7c565b818103610100830152610d068184610a5e565b90509a9950505050505050505050565b60006020820190508181036000830152610d2f81610b16565b9050919050565b6000608082019050610d4b6000830187610b56565b610d586020830186610b7c565b610d656040830185610ba2565b610d7260608301846109ec565b95945050505050565b6000604051905081810181811067ffffffffffffffff82111715610da257610da1611071565b5b8060405250919050565b600067ffffffffffffffff821115610dc757610dc6611071565b5b602082029050602081019050919050565b60008190508160005260206000209050919050565b600081519050919050565b600082825260208201905092915050565b600081905092915050565b600082825260208201905092915050565b6000610e3082610ee3565b9150610e3b83610ee3565b925082821015610e4e57610e4d611013565b5b828203905092915050565b60008115159050919050565b60007fffffffffffffffffffffffff000000000000000000000000000000000000000082169050919050565b60007fffffffffffffffffffffffffffffffffffffffff00000000000000000000000082169050919050565b6000819050919050565b60006fffffffffffffffffffffffffffffffff82169050919050565b6000819050919050565b600063ffffffff82169050919050565b600067ffffffffffffffff82169050919050565b60005b83811015610f2f578082015181840152602081019050610f14565b83811115610f3e576000848401525b50505050565b60006002820490506001821680610f5c57607f821691505b60208210811415610f7057610f6f611042565b5b50919050565b6000610f8182610ee3565b91507fffffffffffffffffffffffffffffffffffffffffffffffffffffffffffffffff821415610fb457610fb3611013565b5b600182019050919050565b6000819050919050565b6000819050919050565b6000819050919050565b6000610fe8826110b1565b9050919050565b6000610ffa826110cb565b9050919050565b600061100c826110be565b9050919050565b7f4e487b7100000000000000000000000000000000000000000000000000000000600052601160045260246000fd5b7f4e487b7100000000000000000000000000000000000000000000000000000000600052602260045260246000fd5b7f4e487b7100000000000000000000000000000000000000000000000000000000600052604160045260246000fd5b6000601f19601f8301169050919050565b60008160801b9050919050565b60008160c01b9050919050565b60008160e01b9050919050565b6110e181610ec7565b81146110ec57600080fd5b50565b6110f881610ee3565b811461110357600080fd5b50565b61110f81610eed565b811461111a57600080fd5b5056fea2646970667358221220a8eb71d9ac96c2af93cbfebde097770519109c1b12373f5b7ff2330bdb7d770a64736f6c63430008000033",
  "immutableReferences": {},
  "source": "// SPDX-License-Identifier: MIT\r\npragma solidity ^0.8.0;\r\n\r\ncontract ChainOfCustody {\r\n    struct Block {\r\n        bytes32 previousHash;\r\n        uint64 timestamp;\r\n        uint128 caseId;\r\n        uint32 evidenceItemId;\r\n        bytes12 state;\r\n        bytes20 handlerName;\r\n        bytes20 organizationName;\r\n        uint32 dataLength;\r\n        bytes data;\r\n    }\r\n\r\n    Block[] public blockchain;\r\n    mapping(uint32 => bool) public evidenceExists;\r\n\r\n    // Event declaration\r\n    event EvidenceItemAdded(uint128 caseId, uint32 evidenceItemId, uint64 timestamp, bytes12 state);\r\n\r\n    function addEvidenceItems(uint128 _caseId, uint32[] memory _itemIds) public {\r\n        for (uint i = 0; i < _itemIds.length; i++) {\r\n            require(!evidenceExists[_itemIds[i]], \"Evidence item ID must be unique\");\r\n            addBlock(_caseId, _itemIds[i], \"CHECKEDIN\", \"\", \"\", \"\");\r\n        }\r\n    }\r\n\r\n    function addBlock(uint128 _caseId, uint32 _evidenceItemId, bytes12 _state, bytes20 _handlerName, bytes20 _organizationName, bytes memory _data) private {\r\n        bytes32 previousHash = blockchain.length > 0 ? getLatestBlockHash() : bytes32(0);\r\n        uint64 timestamp = uint64(block.timestamp);\r\n        uint32 dataLength = uint32(_data.length);\r\n\r\n        Block memory newBlock = Block(\r\n            previousHash,\r\n            timestamp,\r\n            _caseId,\r\n            _evidenceItemId,\r\n            _state,\r\n            _handlerName,\r\n            _organizationName,\r\n            dataLength,\r\n            _data\r\n        );\r\n\r\n        blockchain.push(newBlock);\r\n        evidenceExists[_evidenceItemId] = true;\r\n\r\n        // Emitting the event\r\n        emit EvidenceItemAdded(_caseId, _evidenceItemId, timestamp, _state);\r\n    }\r\n\r\n    function getLatestBlockHash() private view returns (bytes32) {\r\n        Block storage lastBlock = blockchain[blockchain.length - 1];\r\n        return keccak256(\r\n            abi.encodePacked(\r\n                lastBlock.previousHash,\r\n                lastBlock.timestamp,\r\n                lastBlock.caseId,\r\n                lastBlock.evidenceItemId,\r\n                lastBlock.state,\r\n                lastBlock.handlerName,\r\n                lastBlock.organizationName,\r\n                lastBlock.dataLength,\r\n                lastBlock.data\r\n            )\r\n        );\r\n    }\r\n\r\n    // Additional functions and logic to be added as per project requirements\r\n}\r\n",
  "sourcePath": "C:\\Users\\sharm\\Dropbox (ASU)\\CSE 469 CNF\\Group Project\\blockchain_chain_of_custody\\chain_of_custody\\contracts\\ChainOfCustody.sol",
  "compiler": {
    "name": "solc",
    "version": "0.8.0+commit.c7dfd78e.Emscripten.clang"
  },
  "schemaVersion": "3.4.16",
  "updatedAt": "2023-11-25T00:03:40.852Z",
  "networkType": "ethereum",
  "devdoc": {
    "kind": "dev",
    "methods": {},
    "version": 1
  },
  "userdoc": {
    "kind": "user",
    "methods": {},
    "version": 1
  }
}