{
  "contractName": "ChainOfCustody",
  "abi": [
    {
      "anonymous": false,
      "inputs": [
        {
          "indexed": false,
          "internalType": "uint128",
          "name": "caseId",
          "type": "uint128"
        },
        {
          "indexed": false,
          "internalType": "uint32",
          "name": "evidenceItemId",
          "type": "uint32"
        },
        {
          "indexed": false,
          "internalType": "uint64",
          "name": "timestamp",
          "type": "uint64"
        },
        {
          "indexed": false,
          "internalType": "string",
          "name": "state",
          "type": "string"
        },
        {
          "indexed": false,
          "internalType": "string",
          "name": "handlerName",
          "type": "string"
        },
        {
          "indexed": false,
          "internalType": "string",
          "name": "organizationName",
          "type": "string"
        }
      ],
      "name": "EvidenceItemAdded",
      "type": "event"
    },
    {
      "anonymous": false,
      "inputs": [
        {
          "indexed": false,
          "internalType": "uint128",
          "name": "caseId",
          "type": "uint128"
        },
        {
          "indexed": false,
          "internalType": "uint32",
          "name": "evidenceItemId",
          "type": "uint32"
        },
        {
          "indexed": false,
          "internalType": "uint64",
          "name": "timestamp",
          "type": "uint64"
        },
        {
          "indexed": false,
          "internalType": "bytes12",
          "name": "state",
          "type": "bytes12"
        },
        {
          "indexed": false,
          "internalType": "string",
          "name": "handlerName",
          "type": "string"
        },
        {
          "indexed": false,
          "internalType": "string",
          "name": "organizationName",
          "type": "string"
        }
      ],
      "name": "EvidenceItemCheckedIn",
      "type": "event"
    },
    {
      "anonymous": false,
      "inputs": [
        {
          "indexed": false,
          "internalType": "uint128",
          "name": "caseId",
          "type": "uint128"
        },
        {
          "indexed": false,
          "internalType": "uint32",
          "name": "evidenceItemId",
          "type": "uint32"
        },
        {
          "indexed": false,
          "internalType": "uint64",
          "name": "timestamp",
          "type": "uint64"
        },
        {
          "indexed": false,
          "internalType": "bytes12",
          "name": "state",
          "type": "bytes12"
        }
      ],
      "name": "EvidenceItemCheckedOut",
      "type": "event"
    },
    {
      "anonymous": false,
      "inputs": [
        {
          "indexed": false,
          "internalType": "uint128",
          "name": "caseId",
          "type": "uint128"
        },
        {
          "indexed": false,
          "internalType": "uint32",
          "name": "evidenceItemId",
          "type": "uint32"
        },
        {
          "indexed": false,
          "internalType": "uint64",
          "name": "timestamp",
          "type": "uint64"
        },
        {
          "indexed": false,
          "internalType": "string",
          "name": "reason",
          "type": "string"
        },
        {
          "indexed": false,
          "internalType": "string",
          "name": "ownerInfo",
          "type": "string"
        }
      ],
      "name": "EvidenceItemRemoved",
      "type": "event"
    },
    {
      "inputs": [
        {
          "internalType": "uint256",
          "name": "",
          "type": "uint256"
        }
      ],
      "name": "blockchain",
      "outputs": [
        {
          "internalType": "bytes32",
          "name": "previousHash",
          "type": "bytes32"
        },
        {
          "internalType": "uint64",
          "name": "timestamp",
          "type": "uint64"
        },
        {
          "internalType": "uint128",
          "name": "caseId",
          "type": "uint128"
        },
        {
          "internalType": "uint32",
          "name": "evidenceItemId",
          "type": "uint32"
        },
        {
          "internalType": "string",
          "name": "state",
          "type": "string"
        },
        {
          "internalType": "string",
          "name": "handlerName",
          "type": "string"
        },
        {
          "internalType": "string",
          "name": "organizationName",
          "type": "string"
        },
        {
          "internalType": "string",
          "name": "reason",
          "type": "string"
        },
        {
          "internalType": "uint32",
          "name": "dataLength",
          "type": "uint32"
        },
        {
          "internalType": "bytes",
          "name": "data",
          "type": "bytes"
        }
      ],
      "stateMutability": "view",
      "type": "function",
      "constant": true
    },
    {
      "inputs": [
        {
          "internalType": "uint32",
          "name": "",
          "type": "uint32"
        }
      ],
      "name": "evidenceExists",
      "outputs": [
        {
          "internalType": "bool",
          "name": "",
          "type": "bool"
        }
      ],
      "stateMutability": "view",
      "type": "function",
      "constant": true
    },
    {
      "inputs": [
        {
          "internalType": "uint128",
          "name": "_caseId",
          "type": "uint128"
        },
        {
          "internalType": "uint32[]",
          "name": "_itemIds",
          "type": "uint32[]"
        },
        {
          "internalType": "string",
          "name": "_handlerName",
          "type": "string"
        },
        {
          "internalType": "string",
          "name": "_organizationName",
          "type": "string"
        }
      ],
      "name": "addEvidenceItems",
      "outputs": [],
      "stateMutability": "nonpayable",
      "type": "function"
    },
    {
      "inputs": [
        {
          "internalType": "uint32",
          "name": "_evidenceItemId",
          "type": "uint32"
        }
      ],
      "name": "checkoutEvidenceItem",
      "outputs": [],
      "stateMutability": "nonpayable",
      "type": "function"
    },
    {
      "inputs": [
        {
          "internalType": "uint32",
          "name": "_evidenceItemId",
          "type": "uint32"
        },
        {
          "internalType": "string",
          "name": "_handlerName",
          "type": "string"
        },
        {
          "internalType": "string",
          "name": "_organizationName",
          "type": "string"
        }
      ],
      "name": "checkinEvidenceItem",
      "outputs": [],
      "stateMutability": "nonpayable",
      "type": "function"
    },
    {
      "inputs": [],
      "name": "getCases",
      "outputs": [
        {
          "internalType": "uint128[]",
          "name": "",
          "type": "uint128[]"
        }
      ],
      "stateMutability": "view",
      "type": "function",
      "constant": true
    },
    {
      "inputs": [
        {
          "internalType": "uint128",
          "name": "_caseId",
          "type": "uint128"
        }
      ],
      "name": "getItemsForCase",
      "outputs": [
        {
          "internalType": "uint32[]",
          "name": "",
          "type": "uint32[]"
        }
      ],
      "stateMutability": "view",
      "type": "function",
      "constant": true
    },
    {
      "inputs": [
        {
          "internalType": "uint32",
          "name": "_itemId",
          "type": "uint32"
        }
      ],
      "name": "getItemHistory",
      "outputs": [
        {
          "components": [
            {
              "internalType": "uint64",
              "name": "timestamp",
              "type": "uint64"
            },
            {
              "internalType": "string",
              "name": "handlerName",
              "type": "string"
            },
            {
              "internalType": "string",
              "name": "state",
              "type": "string"
            }
          ],
          "internalType": "struct ChainOfCustody.BlockInfo[]",
          "name": "",
          "type": "tuple[]"
        }
      ],
      "stateMutability": "view",
      "type": "function",
      "constant": true
    },
    {
      "inputs": [
        {
          "internalType": "uint32",
          "name": "_evidenceItemId",
          "type": "uint32"
        },
        {
          "internalType": "string",
          "name": "_reason",
          "type": "string"
        },
        {
          "internalType": "string",
          "name": "_ownerInfo",
          "type": "string"
        }
      ],
      "name": "removeEvidenceItem",
      "outputs": [],
      "stateMutability": "nonpayable",
      "type": "function"
    }
  ],
  "bytecode": "0x608060405234801561001057600080fd5b506134d7806100206000396000f3fe608060405234801561001057600080fd5b50600436106100935760003560e01c8063b35af6c311610066578063b35af6c31461011e578063bfc260de1461014e578063c25b1eaf1461016a578063d2bacbc8146101a3578063e61f36ae146101bf57610093565b8063065cb594146100985780631da10984146100b6578063458c2682146100d2578063a358549714610102575b600080fd5b6100a06101ef565b6040516100ad9190612d00565b60405180910390f35b6100d060048036038101906100cb919061249e565b6105b8565b005b6100ec60048036038101906100e79190612475565b610874565b6040516100f99190612cde565b60405180910390f35b61011c60048036038101906101179190612475565b610d36565b005b61013860048036038101906101339190612475565b611166565b6040516101459190612d44565b60405180910390f35b610168600480360381019061016391906123a1565b611186565b005b610184600480360381019061017f919061244c565b6112fb565b60405161019a9a99989796959493929190612d5f565b60405180910390f35b6101bd60048036038101906101b8919061249e565b611657565b005b6101d960048036038101906101d49190612378565b611a11565b6040516101e69190612d22565b60405180910390f35b60606000808054905067ffffffffffffffff811115610237577f4e487b7100000000000000000000000000000000000000000000000000000000600052604160045260246000fd5b6040519080825280602002602001820160405280156102655781602001602082028036833780820191505090505b5090506000805b600080549050811015610470576000805b8381101561037457600083815481106102bf577f4e487b7100000000000000000000000000000000000000000000000000000000600052603260045260246000fd5b906000526020600020906008020160010160089054906101000a90046fffffffffffffffffffffffffffffffff166fffffffffffffffffffffffffffffffff16858281518110610338577f4e487b7100000000000000000000000000000000000000000000000000000000600052603260045260246000fd5b60200260200101516fffffffffffffffffffffffffffffffff1614156103615760019150610374565b808061036c9061330e565b91505061027d565b508061045c57600082815481106103b4577f4e487b7100000000000000000000000000000000000000000000000000000000600052603260045260246000fd5b906000526020600020906008020160010160089054906101000a90046fffffffffffffffffffffffffffffffff1684848151811061041b577f4e487b7100000000000000000000000000000000000000000000000000000000600052603260045260246000fd5b60200260200101906fffffffffffffffffffffffffffffffff1690816fffffffffffffffffffffffffffffffff168152505082806104589061330e565b9350505b5080806104689061330e565b91505061026c565b5060008167ffffffffffffffff8111156104b3577f4e487b7100000000000000000000000000000000000000000000000000000000600052604160045260246000fd5b6040519080825280602002602001820160405280156104e15781602001602082028036833780820191505090505b50905060005b828110156105ae57838181518110610528577f4e487b7100000000000000000000000000000000000000000000000000000000600052603260045260246000fd5b6020026020010151828281518110610569577f4e487b7100000000000000000000000000000000000000000000000000000000600052603260045260246000fd5b60200260200101906fffffffffffffffffffffffffffffffff1690816fffffffffffffffffffffffffffffffff168152505080806105a69061330e565b9150506104e7565b5080935050505090565b600160008463ffffffff1663ffffffff16815260200190815260200160002060009054906101000a900460ff16610624576040517f08c379a000000000000000000000000000000000000000000000000000000000815260040161061b90612e9e565b60405180910390fd5b60008060016000805490506106399190613206565b81548110610670577f4e487b7100000000000000000000000000000000000000000000000000000000600052603260045260246000fd5b9060005260206000209060080201905060405160200161068f90612cb4565b60405160208183030381529060405280519060200120816002016040516020016106b99190612c9d565b604051602081830303815290604052805190602001201415610710576040517f08c379a000000000000000000000000000000000000000000000000000000000815260040161070790612e3e565b60405180910390fd5b61080f8160010160089054906101000a90046fffffffffffffffffffffffffffffffff16856040518060400160405280600981526020017f434845434b4544494e000000000000000000000000000000000000000000000081525086866040518060200160405280600081525087600701805461078c906132dc565b80601f01602080910402602001604051908101604052809291908181526020018280546107b8906132dc565b80156108055780601f106107da57610100808354040283529160200191610805565b820191906000526020600020905b8154815290600101906020018083116107e857829003601f168201915b5050505050611d31565b7fd49b2c04b215ac50c6ff4b42e1d6b23fd458febea2c121b32c9289641fb633288160010160089054906101000a90046fffffffffffffffffffffffffffffffff1685428686604051610866959493929190612f95565b60405180910390a150505050565b60606000808054905067ffffffffffffffff8111156108bc577f4e487b7100000000000000000000000000000000000000000000000000000000600052604160045260246000fd5b6040519080825280602002602001820160405280156108f557816020015b6108e26120e7565b8152602001906001900390816108da5790505b5090506000805b600080549050811015610c08578463ffffffff166000828154811061094a577f4e487b7100000000000000000000000000000000000000000000000000000000600052603260045260246000fd5b906000526020600020906008020160010160189054906101000a900463ffffffff1663ffffffff161415610bf5576040518060600160405280600083815481106109bd577f4e487b7100000000000000000000000000000000000000000000000000000000600052603260045260246000fd5b906000526020600020906008020160010160009054906101000a900467ffffffffffffffff1667ffffffffffffffff16815260200160008381548110610a2c577f4e487b7100000000000000000000000000000000000000000000000000000000600052603260045260246000fd5b90600052602060002090600802016003018054610a48906132dc565b80601f0160208091040260200160405190810160405280929190818152602001828054610a74906132dc565b8015610ac15780601f10610a9657610100808354040283529160200191610ac1565b820191906000526020600020905b815481529060010190602001808311610aa457829003601f168201915b5050505050815260200160008381548110610b05577f4e487b7100000000000000000000000000000000000000000000000000000000600052603260045260246000fd5b90600052602060002090600802016002018054610b21906132dc565b80601f0160208091040260200160405190810160405280929190818152602001828054610b4d906132dc565b8015610b9a5780601f10610b6f57610100808354040283529160200191610b9a565b820191906000526020600020905b815481529060010190602001808311610b7d57829003601f168201915b5050505050815250838381518110610bdb577f4e487b7100000000000000000000000000000000000000000000000000000000600052603260045260246000fd5b60200260200101819052508180610bf19061330e565b9250505b8080610c009061330e565b9150506108fc565b5060008167ffffffffffffffff811115610c4b577f4e487b7100000000000000000000000000000000000000000000000000000000600052604160045260246000fd5b604051908082528060200260200182016040528015610c8457816020015b610c716120e7565b815260200190600190039081610c695790505b50905060005b82811015610d2a57838181518110610ccb577f4e487b7100000000000000000000000000000000000000000000000000000000600052603260045260246000fd5b6020026020010151828281518110610d0c577f4e487b7100000000000000000000000000000000000000000000000000000000600052603260045260246000fd5b60200260200101819052508080610d229061330e565b915050610c8a565b50809350505050919050565b600160008263ffffffff1663ffffffff16815260200190815260200160002060009054906101000a900460ff16610da2576040517f08c379a0000000000000000000000000000000000000000000000000000000008152600401610d9990612e9e565b60405180910390fd5b6000806001600080549050610db79190613206565b81548110610dee577f4e487b7100000000000000000000000000000000000000000000000000000000600052603260045260246000fd5b906000526020600020906008020190508163ffffffff168160010160189054906101000a900463ffffffff1663ffffffff1614610e60576040517f08c379a0000000000000000000000000000000000000000000000000000000008152600401610e5790612e5e565b60405180910390fd5b604051602001610e6f90612cc9565b6040516020818303038152906040528051906020012081600201604051602001610e999190612c9d565b604051602081830303815290604052805190602001201415610ef0576040517f08c379a0000000000000000000000000000000000000000000000000000000008152600401610ee790612e3e565b60405180910390fd5b6111078160010160089054906101000a90046fffffffffffffffffffffffffffffffff16836040518060400160405280600a81526020017f434845434b45444f555400000000000000000000000000000000000000000000815250846003018054610f5a906132dc565b80601f0160208091040260200160405190810160405280929190818152602001828054610f86906132dc565b8015610fd35780601f10610fa857610100808354040283529160200191610fd3565b820191906000526020600020905b815481529060010190602001808311610fb657829003601f168201915b5050505050856004018054610fe7906132dc565b80601f0160208091040260200160405190810160405280929190818152602001828054611013906132dc565b80156110605780601f1061103557610100808354040283529160200191611060565b820191906000526020600020905b81548152906001019060200180831161104357829003601f168201915b505050505060405180602001604052806000815250876007018054611084906132dc565b80601f01602080910402602001604051908101604052809291908181526020018280546110b0906132dc565b80156110fd5780601f106110d2576101008083540402835291602001916110fd565b820191906000526020600020905b8154815290600101906020018083116110e057829003601f168201915b5050505050611d31565b7f431bdc219b0c2d27308a12cb3b26a63cb93a3eb90bb495bd6db61ed74e2a89ce8160010160089054906101000a90046fffffffffffffffffffffffffffffffff16834260405161115a93929190613002565b60405180910390a15050565b60016020528060005260406000206000915054906101000a900460ff1681565b60005b83518110156112f457600160008583815181106111cf577f4e487b7100000000000000000000000000000000000000000000000000000000600052603260045260246000fd5b602002602001015163ffffffff1663ffffffff16815260200190815260200160002060009054906101000a900460ff161561123f576040517f08c379a000000000000000000000000000000000000000000000000000000000815260040161123690612e7e565b60405180910390fd5b6112e18585838151811061127c577f4e487b7100000000000000000000000000000000000000000000000000000000600052603260045260246000fd5b60200260200101516040518060400160405280600981526020017f434845434b4544494e000000000000000000000000000000000000000000000081525086866040518060200160405280600081525060405180602001604052806000815250611d31565b80806112ec9061330e565b915050611189565b5050505050565b6000818154811061130b57600080fd5b90600052602060002090600802016000915090508060000154908060010160009054906101000a900467ffffffffffffffff16908060010160089054906101000a90046fffffffffffffffffffffffffffffffff16908060010160189054906101000a900463ffffffff1690806002018054611386906132dc565b80601f01602080910402602001604051908101604052809291908181526020018280546113b2906132dc565b80156113ff5780601f106113d4576101008083540402835291602001916113ff565b820191906000526020600020905b8154815290600101906020018083116113e257829003601f168201915b505050505090806003018054611414906132dc565b80601f0160208091040260200160405190810160405280929190818152602001828054611440906132dc565b801561148d5780601f106114625761010080835404028352916020019161148d565b820191906000526020600020905b81548152906001019060200180831161147057829003601f168201915b5050505050908060040180546114a2906132dc565b80601f01602080910402602001604051908101604052809291908181526020018280546114ce906132dc565b801561151b5780601f106114f05761010080835404028352916020019161151b565b820191906000526020600020905b8154815290600101906020018083116114fe57829003601f168201915b505050505090806005018054611530906132dc565b80601f016020809104026020016040519081016040528092919081815260200182805461155c906132dc565b80156115a95780601f1061157e576101008083540402835291602001916115a9565b820191906000526020600020905b81548152906001019060200180831161158c57829003601f168201915b5050505050908060060160009054906101000a900463ffffffff16908060070180546115d4906132dc565b80601f0160208091040260200160405190810160405280929190818152602001828054611600906132dc565b801561164d5780601f106116225761010080835404028352916020019161164d565b820191906000526020600020905b81548152906001019060200180831161163057829003601f168201915b505050505090508a565b600160008463ffffffff1663ffffffff16815260200190815260200160002060009054906101000a900460ff166116c3576040517f08c379a00000000000000000000000000000000000000000000000000000000081526004016116ba90612e9e565b60405180910390fd5b60008060016000805490506116d89190613206565b8154811061170f577f4e487b7100000000000000000000000000000000000000000000000000000000600052603260045260246000fd5b906000526020600020906008020190508363ffffffff168160010160189054906101000a900463ffffffff1663ffffffff1614801561179a575060405160200161175890612cb4565b60405160208183030381529060405280519060200120816002016040516020016117829190612c9d565b60405160208183030381529060405280519060200120145b6117d9576040517f08c379a00000000000000000000000000000000000000000000000000000000081526004016117d090612e1e565b60405180910390fd5b6119ac8160010160089054906101000a90046fffffffffffffffffffffffffffffffff16858584600301805461180e906132dc565b80601f016020809104026020016040519081016040528092919081815260200182805461183a906132dc565b80156118875780601f1061185c57610100808354040283529160200191611887565b820191906000526020600020905b81548152906001019060200180831161186a57829003601f168201915b505050505085600401805461189b906132dc565b80601f01602080910402602001604051908101604052809291908181526020018280546118c7906132dc565b80156119145780601f106118e957610100808354040283529160200191611914565b820191906000526020600020905b8154815290600101906020018083116118f757829003601f168201915b505050505087876007018054611929906132dc565b80601f0160208091040260200160405190810160405280929190818152602001828054611955906132dc565b80156119a25780601f10611977576101008083540402835291602001916119a2565b820191906000526020600020905b81548152906001019060200180831161198557829003601f168201915b5050505050611d31565b7f131b0104fffef9791a656820b9d5349cb76c71fee3129316cd22fb398cee5b5d8160010160089054906101000a90046fffffffffffffffffffffffffffffffff1685428686604051611a03959493929190612ebe565b60405180910390a150505050565b60606000808054905067ffffffffffffffff811115611a59577f4e487b7100000000000000000000000000000000000000000000000000000000600052604160045260246000fd5b604051908082528060200260200182016040528015611a875781602001602082028036833780820191505090505b5090506000805b600080549050811015611bff57846fffffffffffffffffffffffffffffffff1660008281548110611ae8577f4e487b7100000000000000000000000000000000000000000000000000000000600052603260045260246000fd5b906000526020600020906008020160010160089054906101000a90046fffffffffffffffffffffffffffffffff166fffffffffffffffffffffffffffffffff161415611bec5760008181548110611b68577f4e487b7100000000000000000000000000000000000000000000000000000000600052603260045260246000fd5b906000526020600020906008020160010160189054906101000a900463ffffffff16838381518110611bc3577f4e487b7100000000000000000000000000000000000000000000000000000000600052603260045260246000fd5b602002602001019063ffffffff16908163ffffffff16815250508180611be89061330e565b9250505b8080611bf79061330e565b915050611a8e565b5060008167ffffffffffffffff811115611c42577f4e487b7100000000000000000000000000000000000000000000000000000000600052604160045260246000fd5b604051908082528060200260200182016040528015611c705781602001602082028036833780820191505090505b50905060005b82811015611d2557838181518110611cb7577f4e487b7100000000000000000000000000000000000000000000000000000000600052603260045260246000fd5b6020026020010151828281518110611cf8577f4e487b7100000000000000000000000000000000000000000000000000000000600052603260045260246000fd5b602002602001019063ffffffff16908163ffffffff16815250508080611d1d9061330e565b915050611c76565b50809350505050919050565b60008060008054905011611d48576000801b611d51565b611d50611fdc565b5b9050600042905060008351905060006040518061014001604052808581526020018467ffffffffffffffff1681526020018c6fffffffffffffffffffffffffffffffff1681526020018b63ffffffff1681526020018a81526020018981526020018881526020018781526020018363ffffffff16815260200186815250905060008190806001815401808255809150506001900390600052602060002090600802016000909190919091506000820151816000015560208201518160010160006101000a81548167ffffffffffffffff021916908367ffffffffffffffff16021790555060408201518160010160086101000a8154816fffffffffffffffffffffffffffffffff02191690836fffffffffffffffffffffffffffffffff16021790555060608201518160010160186101000a81548163ffffffff021916908363ffffffff1602179055506080820151816002019080519060200190611eb7929190612112565b5060a0820151816003019080519060200190611ed4929190612112565b5060c0820151816004019080519060200190611ef1929190612112565b5060e0820151816005019080519060200190611f0e929190612112565b506101008201518160060160006101000a81548163ffffffff021916908363ffffffff160217905550610120820151816007019080519060200190611f54929190612198565b50505060018060008c63ffffffff1663ffffffff16815260200190815260200160002060006101000a81548160ff0219169083151502179055507f33a1c1a3b9a16d06083c74dc302e2fcc5be80f5e5aa2ae9a270c78f82731b11b8b8b858c8c8c604051611fc796959493929190612f1f565b60405180910390a15050505050505050505050565b60008060006001600080549050611ff39190613206565b8154811061202a577f4e487b7100000000000000000000000000000000000000000000000000000000600052603260045260246000fd5b9060005260206000209060080201905080600001548160010160009054906101000a900467ffffffffffffffff168260010160089054906101000a90046fffffffffffffffffffffffffffffffff168360010160189054906101000a900463ffffffff168460020185600301866004018760060160009054906101000a900463ffffffff16886007016040516020016120cb99989796959493929190612c0a565b6040516020818303038152906040528051906020012091505090565b6040518060600160405280600067ffffffffffffffff16815260200160608152602001606081525090565b82805461211e906132dc565b90600052602060002090601f0160209004810192826121405760008555612187565b82601f1061215957805160ff1916838001178555612187565b82800160010185558215612187579182015b8281111561218657825182559160200191906001019061216b565b5b509050612194919061221e565b5090565b8280546121a4906132dc565b90600052602060002090601f0160209004810192826121c6576000855561220d565b82601f106121df57805160ff191683800117855561220d565b8280016001018555821561220d579182015b8281111561220c5782518255916020019190600101906121f1565b5b50905061221a919061221e565b5090565b5b8082111561223757600081600090555060010161221f565b5090565b600061224e61224984613076565b613045565b9050808382526020820190508285602086028201111561226d57600080fd5b60005b8581101561229d57816122838882612363565b845260208401935060208301925050600181019050612270565b5050509392505050565b60006122ba6122b5846130a2565b613045565b9050828152602081018484840111156122d257600080fd5b6122dd84828561329a565b509392505050565b600082601f8301126122f657600080fd5b813561230684826020860161223b565b91505092915050565b600082601f83011261232057600080fd5b81356123308482602086016122a7565b91505092915050565b6000813590506123488161345c565b92915050565b60008135905061235d81613473565b92915050565b6000813590506123728161348a565b92915050565b60006020828403121561238a57600080fd5b600061239884828501612339565b91505092915050565b600080600080608085870312156123b757600080fd5b60006123c587828801612339565b945050602085013567ffffffffffffffff8111156123e257600080fd5b6123ee878288016122e5565b935050604085013567ffffffffffffffff81111561240b57600080fd5b6124178782880161230f565b925050606085013567ffffffffffffffff81111561243457600080fd5b6124408782880161230f565b91505092959194509250565b60006020828403121561245e57600080fd5b600061246c8482850161234e565b91505092915050565b60006020828403121561248757600080fd5b600061249584828501612363565b91505092915050565b6000806000606084860312156124b357600080fd5b60006124c186828701612363565b935050602084013567ffffffffffffffff8111156124de57600080fd5b6124ea8682870161230f565b925050604084013567ffffffffffffffff81111561250757600080fd5b6125138682870161230f565b9150509250925092565b60006125298383612b14565b905092915050565b600061253d8383612b6b565b60208301905092915050565b60006125558383612ba0565b60208301905092915050565b600061256c8261312c565b612576818561318a565b935083602082028501612588856130d2565b8060005b858110156125c457848403895281516125a5858261251d565b94506125b083613163565b925060208a0199505060018101905061258c565b50829750879550505050505092915050565b60006125e182613137565b6125eb818561319b565b93506125f6836130e2565b8060005b8381101561262757815161260e8882612531565b975061261983613170565b9250506001810190506125fa565b5085935050505092915050565b600061263f82613142565b61264981856131ac565b9350612654836130f2565b8060005b8381101561268557815161266c8882612549565b97506126778361317d565b925050600181019050612658565b5085935050505092915050565b61269b8161323a565b82525050565b6126aa81613246565b82525050565b6126c16126bc82613246565b613357565b82525050565b60006126d28261314d565b6126dc81856131bd565b93506126ec8185602086016132a9565b6126f581613424565b840191505092915050565b6000815461270d816132dc565b61271781866131ce565b94506001821660008114612732576001811461274357612776565b60ff19831686528186019350612776565b61274c85613102565b60005b8381101561276e5781548189015260018201915060208101905061274f565b838801955050505b50505092915050565b600061278a82613158565b61279481856131d9565b93506127a48185602086016132a9565b6127ad81613424565b840191505092915050565b60006127c382613158565b6127cd81856131ea565b93506127dd8185602086016132a9565b6127e681613424565b840191505092915050565b600081546127fe816132dc565b61280881866131fb565b94506001821660008114612823576001811461283457612867565b60ff19831686528186019350612867565b61283d85613117565b60005b8381101561285f57815481890152600182019150602081019050612840565b838801955050505b50505092915050565b7f434845434b4544494e0000000000000000000000000000000000000000000000815250565b60006128a36009836131fb565b91507f434845434b4544494e00000000000000000000000000000000000000000000006000830152600982019050919050565b60006128e3602d836131ea565b91507f4572726f723a204974656d206d75737420626520636865636b656420696e207460008301527f6f2062652072656d6f7665642e000000000000000000000000000000000000006020830152604082019050919050565b7f434845434b45444f555400000000000000000000000000000000000000000000815250565b600061296f600a836131fb565b91507f434845434b45444f5554000000000000000000000000000000000000000000006000830152600a82019050919050565b60006129af6043836131ea565b91507f4572726f723a2043616e6e6f7420636865636b206f7574206120636865636b6560008301527f64206f7574206974656d2e204d75737420636865636b20697420696e2066697260208301527f73742e00000000000000000000000000000000000000000000000000000000006040830152606082019050919050565b6000612a3b601b836131ea565b91507f4572726f723a2057726f6e672065766964656e6365206974656d2e00000000006000830152602082019050919050565b6000612a7b601f836131ea565b91507f45766964656e6365206974656d204944206d75737420626520756e69717565006000830152602082019050919050565b6000612abb6024836131ea565b91507f4572726f723a2045766964656e6365206974656d20646f6573206e6f7420657860008301527f6973742e000000000000000000000000000000000000000000000000000000006020830152604082019050919050565b6000606083016000830151612b2c6000860182612bd5565b5060208301518482036020860152612b44828261277f565b91505060408301518482036040860152612b5e828261277f565b9150508091505092915050565b612b7481613250565b82525050565b612b8381613250565b82525050565b612b9a612b9582613250565b613361565b82525050565b612ba981613276565b82525050565b612bb881613276565b82525050565b612bcf612bca82613276565b613373565b82525050565b612bde81613286565b82525050565b612bed81613286565b82525050565b612c04612bff82613286565b613385565b82525050565b6000612c16828c6126b0565b602082019150612c26828b612bf3565b600882019150612c36828a612b89565b601082019150612c468289612bbe565b600482019150612c5682886127f1565b9150612c6282876127f1565b9150612c6e82866127f1565b9150612c7a8285612bbe565b600482019150612c8a8284612700565b91508190509a9950505050505050505050565b6000612ca982846127f1565b915081905092915050565b6000612cbf82612896565b9150819050919050565b6000612cd482612962565b9150819050919050565b60006020820190508181036000830152612cf88184612561565b905092915050565b60006020820190508181036000830152612d1a81846125d6565b905092915050565b60006020820190508181036000830152612d3c8184612634565b905092915050565b6000602082019050612d596000830184612692565b92915050565b600061014082019050612d75600083018d6126a1565b612d82602083018c612be4565b612d8f604083018b612b7a565b612d9c606083018a612baf565b8181036080830152612dae81896127b8565b905081810360a0830152612dc281886127b8565b905081810360c0830152612dd681876127b8565b905081810360e0830152612dea81866127b8565b9050612dfa610100830185612baf565b818103610120830152612e0d81846126c7565b90509b9a5050505050505050505050565b60006020820190508181036000830152612e37816128d6565b9050919050565b60006020820190508181036000830152612e57816129a2565b9050919050565b60006020820190508181036000830152612e7781612a2e565b9050919050565b60006020820190508181036000830152612e9781612a6e565b9050919050565b60006020820190508181036000830152612eb781612aae565b9050919050565b600060a082019050612ed36000830188612b7a565b612ee06020830187612baf565b612eed6040830186612be4565b8181036060830152612eff81856127b8565b90508181036080830152612f1381846127b8565b90509695505050505050565b600060c082019050612f346000830189612b7a565b612f416020830188612baf565b612f4e6040830187612be4565b8181036060830152612f6081866127b8565b90508181036080830152612f7481856127b8565b905081810360a0830152612f8881846127b8565b9050979650505050505050565b600060c082019050612faa6000830188612b7a565b612fb76020830187612baf565b612fc46040830186612be4565b612fd060608301612870565b8181036080830152612fe281856127b8565b905081810360a0830152612ff681846127b8565b90509695505050505050565b60006080820190506130176000830186612b7a565b6130246020830185612baf565b6130316040830184612be4565b61303d6060830161293c565b949350505050565b6000604051905081810181811067ffffffffffffffff8211171561306c5761306b6133f5565b5b8060405250919050565b600067ffffffffffffffff821115613091576130906133f5565b5b602082029050602081019050919050565b600067ffffffffffffffff8211156130bd576130bc6133f5565b5b601f19601f8301169050602081019050919050565b6000819050602082019050919050565b6000819050602082019050919050565b6000819050602082019050919050565b60008190508160005260206000209050919050565b60008190508160005260206000209050919050565b600081519050919050565b600081519050919050565b600081519050919050565b600081519050919050565b600081519050919050565b6000602082019050919050565b6000602082019050919050565b6000602082019050919050565b600082825260208201905092915050565b600082825260208201905092915050565b600082825260208201905092915050565b600082825260208201905092915050565b600081905092915050565b600082825260208201905092915050565b600082825260208201905092915050565b600081905092915050565b60006132118261326c565b915061321c8361326c565b92508282101561322f5761322e613397565b5b828203905092915050565b60008115159050919050565b6000819050919050565b60006fffffffffffffffffffffffffffffffff82169050919050565b6000819050919050565b600063ffffffff82169050919050565b600067ffffffffffffffff82169050919050565b82818337600083830152505050565b60005b838110156132c75780820151818401526020810190506132ac565b838111156132d6576000848401525b50505050565b600060028204905060018216806132f457607f821691505b60208210811415613308576133076133c6565b5b50919050565b60006133198261326c565b91507fffffffffffffffffffffffffffffffffffffffffffffffffffffffffffffffff82141561334c5761334b613397565b5b600182019050919050565b6000819050919050565b600061336c82613435565b9050919050565b600061337e8261344f565b9050919050565b600061339082613442565b9050919050565b7f4e487b7100000000000000000000000000000000000000000000000000000000600052601160045260246000fd5b7f4e487b7100000000000000000000000000000000000000000000000000000000600052602260045260246000fd5b7f4e487b7100000000000000000000000000000000000000000000000000000000600052604160045260246000fd5b6000601f19601f8301169050919050565b60008160801b9050919050565b60008160c01b9050919050565b60008160e01b9050919050565b61346581613250565b811461347057600080fd5b50565b61347c8161326c565b811461348757600080fd5b50565b61349381613276565b811461349e57600080fd5b5056fea264697066735822122003726750380200e9159c7a6687922aea831155a984a2c450b35b735f9dd1a2ca64736f6c63430008000033",
  "immutableReferences": {},
  "source": "// SPDX-License-Identifier: MIT\r\npragma solidity ^0.8.0;\r\n\r\ncontract ChainOfCustody {\r\n    struct Block {\r\n        bytes32 previousHash;\r\n        uint64 timestamp;\r\n        uint128 caseId;\r\n        uint32 evidenceItemId;\r\n        string state;\r\n        string handlerName; // Changed from bytes20 to string\r\n        string organizationName; // Changed from bytes20 to string\r\n        string reason;\r\n        uint32 dataLength;\r\n        bytes data;\r\n    }\r\n\r\n    Block[] public blockchain;\r\n    mapping(uint32 => bool) public evidenceExists;\r\n\r\n    // Updated event to use strings\r\n    event EvidenceItemAdded(\r\n        uint128 caseId,\r\n        uint32 evidenceItemId,\r\n        uint64 timestamp,\r\n        string state,\r\n        string handlerName,\r\n        string organizationName\r\n    );\r\n\r\n    // Updated function to accept string parameters\r\n    function addEvidenceItems(\r\n        uint128 _caseId,\r\n        uint32[] memory _itemIds,\r\n        string memory _handlerName,\r\n        string memory _organizationName\r\n    ) public {\r\n        for (uint i = 0; i < _itemIds.length; i++) {\r\n            require(\r\n                !evidenceExists[_itemIds[i]],\r\n                \"Evidence item ID must be unique\"\r\n            );\r\n            addBlock(\r\n                _caseId,\r\n                _itemIds[i],\r\n                \"CHECKEDIN\",\r\n                _handlerName,\r\n                _organizationName,\r\n                \"\",\r\n                \"\"\r\n            );\r\n        }\r\n    }\r\n\r\n    // Updated function to accept string parameters\r\n    function addBlock(\r\n        uint128 _caseId,\r\n        uint32 _evidenceItemId,\r\n        string memory _state,\r\n        string memory _handlerName,\r\n        string memory _organizationName,\r\n        string memory _reason,\r\n        bytes memory _data\r\n    ) private {\r\n        bytes32 previousHash = blockchain.length > 0\r\n            ? getLatestBlockHash()\r\n            : bytes32(0);\r\n        uint64 timestamp = uint64(block.timestamp);\r\n        uint32 dataLength = uint32(_data.length);\r\n\r\n        Block memory newBlock = Block(\r\n            previousHash,\r\n            timestamp,\r\n            _caseId,\r\n            _evidenceItemId,\r\n            _state,\r\n            _handlerName,\r\n            _organizationName,\r\n            _reason,\r\n            dataLength,\r\n            _data\r\n        );\r\n\r\n        blockchain.push(newBlock);\r\n        evidenceExists[_evidenceItemId] = true;\r\n\r\n        emit EvidenceItemAdded(\r\n            _caseId,\r\n            _evidenceItemId,\r\n            timestamp,\r\n            _state,\r\n            _handlerName,\r\n            _organizationName\r\n        );\r\n    }\r\n\r\n    function getLatestBlockHash() private view returns (bytes32) {\r\n        Block storage lastBlock = blockchain[blockchain.length - 1];\r\n        return\r\n            keccak256(\r\n                abi.encodePacked(\r\n                    lastBlock.previousHash,\r\n                    lastBlock.timestamp,\r\n                    lastBlock.caseId,\r\n                    lastBlock.evidenceItemId,\r\n                    lastBlock.state,\r\n                    lastBlock.handlerName,\r\n                    lastBlock.organizationName,\r\n                    lastBlock.dataLength,\r\n                    lastBlock.data\r\n                )\r\n            );\r\n    }\r\n\r\n    event EvidenceItemCheckedOut(\r\n        uint128 caseId,\r\n        uint32 evidenceItemId,\r\n        uint64 timestamp,\r\n        bytes12 state\r\n    );\r\n\r\n    function checkoutEvidenceItem(uint32 _evidenceItemId) public {\r\n        require(\r\n            evidenceExists[_evidenceItemId],\r\n            \"Error: Evidence item does not exist.\"\r\n        );\r\n        Block storage lastBlock = blockchain[blockchain.length - 1];\r\n        require(\r\n            lastBlock.evidenceItemId == _evidenceItemId,\r\n            \"Error: Wrong evidence item.\"\r\n        );\r\n        require(\r\n            keccak256(abi.encodePacked(lastBlock.state)) !=\r\n                keccak256(abi.encodePacked(\"CHECKEDOUT\")),\r\n            \"Error: Cannot check out a checked out item. Must check it in first.\"\r\n        );\r\n\r\n        // Assuming 'addBlock' function updates the state and creates a new block in the blockchain\r\n        addBlock(\r\n            lastBlock.caseId,\r\n            _evidenceItemId,\r\n            \"CHECKEDOUT\",\r\n            lastBlock.handlerName,\r\n            lastBlock.organizationName,\r\n            \"\",\r\n            lastBlock.data\r\n        );\r\n        emit EvidenceItemCheckedOut(\r\n            lastBlock.caseId,\r\n            _evidenceItemId,\r\n            uint64(block.timestamp),\r\n            \"CHECKEDOUT\"\r\n        );\r\n    }\r\n\r\n    event EvidenceItemCheckedIn(\r\n        uint128 caseId,\r\n        uint32 evidenceItemId,\r\n        uint64 timestamp,\r\n        bytes12 state,\r\n        string handlerName,\r\n        string organizationName\r\n    );\r\n\r\n    function checkinEvidenceItem(\r\n        uint32 _evidenceItemId,\r\n        string memory _handlerName,\r\n        string memory _organizationName\r\n        \r\n    ) public {\r\n        require(\r\n            evidenceExists[_evidenceItemId],\r\n            \"Error: Evidence item does not exist.\"\r\n        );\r\n\r\n        // Check if the item is not already checked in\r\n        Block storage lastBlock = blockchain[blockchain.length - 1];\r\n        require(\r\n            keccak256(abi.encodePacked(lastBlock.state)) !=\r\n                keccak256(abi.encodePacked(\"CHECKEDIN\")),\r\n            \"Error: Cannot check out a checked out item. Must check it in first.\"\r\n        );\r\n\r\n        // Add a new block for checkin\r\n        addBlock(\r\n            lastBlock.caseId,\r\n            _evidenceItemId,\r\n            \"CHECKEDIN\",\r\n            _handlerName,\r\n            _organizationName,\r\n            \"\",\r\n            lastBlock.data\r\n        );\r\n        emit EvidenceItemCheckedIn(\r\n            lastBlock.caseId,\r\n            _evidenceItemId,\r\n            uint64(block.timestamp),\r\n            \"CHECKEDIN\",\r\n            _handlerName,\r\n            _organizationName\r\n        );\r\n    }\r\n\r\n    function getCases() public view returns (uint128[] memory) {\r\n        uint128[] memory cases = new uint128[](blockchain.length);\r\n        uint count = 0;\r\n\r\n        for (uint i = 0; i < blockchain.length; i++) {\r\n            bool exists = false;\r\n            for (uint j = 0; j < count; j++) {\r\n                if (cases[j] == blockchain[i].caseId) {\r\n                    exists = true;\r\n                    break;\r\n                }\r\n            }\r\n            if (!exists) {\r\n                cases[count] = blockchain[i].caseId;\r\n                count++;\r\n            }\r\n        }\r\n\r\n        // Resize the array to fit the actual number of unique cases\r\n        uint128[] memory uniqueCases = new uint128[](count);\r\n        for (uint i = 0; i < count; i++) {\r\n            uniqueCases[i] = cases[i];\r\n        }\r\n\r\n        return uniqueCases;\r\n    }\r\n\r\n    function getItemsForCase(\r\n        uint128 _caseId\r\n    ) public view returns (uint32[] memory) {\r\n        uint32[] memory itemsTemp = new uint32[](blockchain.length);\r\n        uint count = 0;\r\n\r\n        for (uint i = 0; i < blockchain.length; i++) {\r\n            if (blockchain[i].caseId == _caseId) {\r\n                itemsTemp[count] = blockchain[i].evidenceItemId;\r\n                count++;\r\n            }\r\n        }\r\n\r\n        // Resize the array to fit the actual number of items for the case\r\n        uint32[] memory items = new uint32[](count);\r\n        for (uint i = 0; i < count; i++) {\r\n            items[i] = itemsTemp[i];\r\n        }\r\n\r\n        return items;\r\n    }\r\n\r\n    struct BlockInfo {\r\n        uint64 timestamp;\r\n        string handlerName;\r\n        string state;\r\n    }\r\n\r\n    function getItemHistory(\r\n        uint32 _itemId\r\n    ) public view returns (BlockInfo[] memory) {\r\n        BlockInfo[] memory history = new BlockInfo[](blockchain.length);\r\n        uint count = 0;\r\n\r\n        for (uint i = 0; i < blockchain.length; i++) {\r\n            if (blockchain[i].evidenceItemId == _itemId) {\r\n                history[count] = BlockInfo(\r\n                    blockchain[i].timestamp,\r\n                    blockchain[i].handlerName,\r\n                    blockchain[i].state\r\n                );\r\n                count++;\r\n            }\r\n        }\r\n\r\n        // Resize the array to fit the actual number of entries for the item\r\n        BlockInfo[] memory itemHistory = new BlockInfo[](count);\r\n        for (uint i = 0; i < count; i++) {\r\n            itemHistory[i] = history[i];\r\n        }\r\n\r\n        return itemHistory;\r\n    }\r\n\r\n    event EvidenceItemRemoved(\r\n        uint128 caseId,\r\n        uint32 evidenceItemId,\r\n        uint64 timestamp,\r\n        string reason,\r\n        string ownerInfo\r\n    );\r\n\r\n    function removeEvidenceItem(\r\n        uint32 _evidenceItemId,\r\n        string memory _reason,\r\n        string memory _ownerInfo\r\n    ) public {\r\n        require(\r\n            evidenceExists[_evidenceItemId],\r\n            \"Error: Evidence item does not exist.\"\r\n        );\r\n\r\n        Block storage lastBlock = blockchain[blockchain.length - 1];\r\n        require(\r\n            lastBlock.evidenceItemId == _evidenceItemId &&\r\n                keccak256(abi.encodePacked(lastBlock.state)) ==\r\n                keccak256(abi.encodePacked(\"CHECKEDIN\")),\r\n            \"Error: Item must be checked in to be removed.\"\r\n        );\r\n\r\n        // Assuming 'addBlock' function updates the state and creates a new block in the blockchain\r\n        addBlock(\r\n            lastBlock.caseId,\r\n            _evidenceItemId,\r\n            _reason, // Include _reason in the call\r\n            lastBlock.handlerName,\r\n            lastBlock.organizationName,\r\n            _ownerInfo, // Include _ownerInfo\r\n            lastBlock.data\r\n        );\r\n\r\n        emit EvidenceItemRemoved(\r\n            lastBlock.caseId,\r\n            _evidenceItemId,\r\n            uint64(block.timestamp),\r\n            _reason,\r\n            _ownerInfo\r\n        );\r\n    }\r\n}\r\n",
  "sourcePath": "C:\\Users\\ASUS\\Dropbox (ASU)\\MS ASU\\CSE 469 CNF\\GROUP PROJECT\\kuchbi\\blockchain_chain_of_custody\\chain_of_custody\\contracts\\ChainOfCustody.sol",
  "compiler": {
    "name": "solc",
    "version": "0.8.0+commit.c7dfd78e.Emscripten.clang"
  },
  "schemaVersion": "3.4.16",
  "updatedAt": "2023-11-25T21:52:39.629Z",
  "networkType": "ethereum",
  "devdoc": {
    "kind": "dev",
    "methods": {},
    "version": 1
  },
  "userdoc": {
    "kind": "user",
    "methods": {},
    "version": 1
  }
}