{
  "contractName": "ChainOfCustody",
  "abi": [
    {
      "anonymous": false,
      "inputs": [
        {
          "indexed": false,
          "internalType": "uint128",
          "name": "caseId",
          "type": "uint128"
        },
        {
          "indexed": false,
          "internalType": "uint32",
          "name": "evidenceItemId",
          "type": "uint32"
        },
        {
          "indexed": false,
          "internalType": "uint64",
          "name": "timestamp",
          "type": "uint64"
        },
        {
          "indexed": false,
          "internalType": "bytes12",
          "name": "state",
          "type": "bytes12"
        }
      ],
      "name": "EvidenceItemAdded",
      "type": "event"
    },
    {
      "anonymous": false,
      "inputs": [
        {
          "indexed": false,
          "internalType": "uint128",
          "name": "caseId",
          "type": "uint128"
        },
        {
          "indexed": false,
          "internalType": "uint32",
          "name": "evidenceItemId",
          "type": "uint32"
        },
        {
          "indexed": false,
          "internalType": "uint64",
          "name": "timestamp",
          "type": "uint64"
        },
        {
          "indexed": false,
          "internalType": "bytes12",
          "name": "state",
          "type": "bytes12"
        }
      ],
      "name": "EvidenceItemCheckedOut",
      "type": "event"
    },
    {
      "inputs": [
        {
          "internalType": "uint256",
          "name": "",
          "type": "uint256"
        }
      ],
      "name": "blockchain",
      "outputs": [
        {
          "internalType": "bytes32",
          "name": "previousHash",
          "type": "bytes32"
        },
        {
          "internalType": "uint64",
          "name": "timestamp",
          "type": "uint64"
        },
        {
          "internalType": "uint128",
          "name": "caseId",
          "type": "uint128"
        },
        {
          "internalType": "uint32",
          "name": "evidenceItemId",
          "type": "uint32"
        },
        {
          "internalType": "bytes12",
          "name": "state",
          "type": "bytes12"
        },
        {
          "internalType": "bytes20",
          "name": "handlerName",
          "type": "bytes20"
        },
        {
          "internalType": "bytes20",
          "name": "organizationName",
          "type": "bytes20"
        },
        {
          "internalType": "uint32",
          "name": "dataLength",
          "type": "uint32"
        },
        {
          "internalType": "bytes",
          "name": "data",
          "type": "bytes"
        }
      ],
      "stateMutability": "view",
      "type": "function",
      "constant": true
    },
    {
      "inputs": [
        {
          "internalType": "uint32",
          "name": "",
          "type": "uint32"
        }
      ],
      "name": "evidenceExists",
      "outputs": [
        {
          "internalType": "bool",
          "name": "",
          "type": "bool"
        }
      ],
      "stateMutability": "view",
      "type": "function",
      "constant": true
    },
    {
      "inputs": [
        {
          "internalType": "uint128",
          "name": "_caseId",
          "type": "uint128"
        },
        {
          "internalType": "uint32[]",
          "name": "_itemIds",
          "type": "uint32[]"
        }
      ],
      "name": "addEvidenceItems",
      "outputs": [],
      "stateMutability": "nonpayable",
      "type": "function"
    },
    {
      "inputs": [
        {
          "internalType": "uint32",
          "name": "_evidenceItemId",
          "type": "uint32"
        }
      ],
      "name": "checkoutEvidenceItem",
      "outputs": [],
      "stateMutability": "nonpayable",
      "type": "function"
    }
  ],
  "bytecode": "0x608060405234801561001057600080fd5b50611685806100206000396000f3fe608060405234801561001057600080fd5b506004361061004c5760003560e01c8063a358549714610051578063b31edebe1461006d578063b35af6c314610089578063c25b1eaf146100b9575b600080fd5b61006b60048036038101906100669190610ceb565b6100f1565b005b61008760048036038101906100829190610c6e565b610401565b005b6100a3600480360381019061009e9190610ceb565b610550565b6040516100b091906110f6565b60405180910390f35b6100d360048036038101906100ce9190610cc2565b610570565b6040516100e899989796959493929190611111565b60405180910390f35b600160008263ffffffff1663ffffffff16815260200190815260200160002060009054906101000a900460ff1661015d576040517f08c379a000000000000000000000000000000000000000000000000000000000815260040161015490611205565b60405180910390fd5b60008060016000805490506101729190611357565b815481106101a9577f4e487b7100000000000000000000000000000000000000000000000000000000600052603260045260246000fd5b906000526020600020906005020190508163ffffffff168160010160189054906101000a900463ffffffff1663ffffffff161461021b576040517f08c379a0000000000000000000000000000000000000000000000000000000008152600401610212906111c5565b60405180910390fd5b7f434845434b45444f5554000000000000000000000000000000000000000000008160020160009054906101000a900460a01b73ffffffffffffffffffffffffffffffffffffffff191614156102a6576040517f08c379a000000000000000000000000000000000000000000000000000000000815260040161029d906111a5565b60405180910390fd5b6103a28160010160089054906101000a90046fffffffffffffffffffffffffffffffff16837f434845434b45444f55540000000000000000000000000000000000000000000084600201600c9054906101000a900460601b8560030160009054906101000a900460601b86600401805461031f90611476565b80601f016020809104026020016040519081016040528092919081815260200182805461034b90611476565b80156103985780601f1061036d57610100808354040283529160200191610398565b820191906000526020600020905b81548152906001019060200180831161037b57829003601f168201915b50505050506106cd565b7f431bdc219b0c2d27308a12cb3b26a63cb93a3eb90bb495bd6db61ed74e2a89ce8160010160089054906101000a90046fffffffffffffffffffffffffffffffff1683426040516103f59392919061126a565b60405180910390a15050565b60005b815181101561054b576001600083838151811061044a577f4e487b7100000000000000000000000000000000000000000000000000000000600052603260045260246000fd5b602002602001015163ffffffff1663ffffffff16815260200190815260200160002060009054906101000a900460ff16156104ba576040517f08c379a00000000000000000000000000000000000000000000000000000000081526004016104b1906111e5565b60405180910390fd5b610538838383815181106104f7577f4e487b7100000000000000000000000000000000000000000000000000000000600052603260045260246000fd5b60200260200101517f434845434b4544494e0000000000000000000000000000000000000000000000600080604051806020016040528060008152506106cd565b8080610543906114a8565b915050610404565b505050565b60016020528060005260406000206000915054906101000a900460ff1681565b6000818154811061058057600080fd5b90600052602060002090600502016000915090508060000154908060010160009054906101000a900467ffffffffffffffff16908060010160089054906101000a90046fffffffffffffffffffffffffffffffff16908060010160189054906101000a900463ffffffff16908060020160009054906101000a900460a01b9080600201600c9054906101000a900460601b908060030160009054906101000a900460601b908060030160149054906101000a900463ffffffff169080600401805461064a90611476565b80601f016020809104026020016040519081016040528092919081815260200182805461067690611476565b80156106c35780601f10610698576101008083540402835291602001916106c3565b820191906000526020600020905b8154815290600101906020018083116106a657829003601f168201915b5050505050905089565b600080600080549050116106e4576000801b6106ed565b6106ec6109c1565b5b9050600042905060008351905060006040518061012001604052808581526020018467ffffffffffffffff1681526020018b6fffffffffffffffffffffffffffffffff1681526020018a63ffffffff1681526020018973ffffffffffffffffffffffffffffffffffffffff19168152602001886bffffffffffffffffffffffff19168152602001876bffffffffffffffffffffffff191681526020018363ffffffff16815260200186815250905060008190806001815401808255809150506001900390600052602060002090600502016000909190919091506000820151816000015560208201518160010160006101000a81548167ffffffffffffffff021916908367ffffffffffffffff16021790555060408201518160010160086101000a8154816fffffffffffffffffffffffffffffffff02191690836fffffffffffffffffffffffffffffffff16021790555060608201518160010160186101000a81548163ffffffff021916908363ffffffff16021790555060808201518160020160006101000a8154816bffffffffffffffffffffffff021916908360a01c021790555060a082015181600201600c6101000a81548173ffffffffffffffffffffffffffffffffffffffff021916908360601c021790555060c08201518160030160006101000a81548173ffffffffffffffffffffffffffffffffffffffff021916908360601c021790555060e08201518160030160146101000a81548163ffffffff021916908363ffffffff16021790555061010082015181600401908051906020019061093e929190610af6565b50505060018060008b63ffffffff1663ffffffff16815260200190815260200160002060006101000a81548160ff0219169083151502179055507f608d186a09e958e0feccb2533251b6a50eb9e5e540c4d70d4aa0ce5967083c0c8a8a858b6040516109ad9493929190611225565b60405180910390a150505050505050505050565b600080600060016000805490506109d89190611357565b81548110610a0f577f4e487b7100000000000000000000000000000000000000000000000000000000600052603260045260246000fd5b9060005260206000209060050201905080600001548160010160009054906101000a900467ffffffffffffffff168260010160089054906101000a90046fffffffffffffffffffffffffffffffff168360010160189054906101000a900463ffffffff168460020160009054906101000a900460a01b85600201600c9054906101000a900460601b8660030160009054906101000a900460601b8760030160149054906101000a900463ffffffff1688600401604051602001610ada99989796959493929190611057565b6040516020818303038152906040528051906020012091505090565b828054610b0290611476565b90600052602060002090601f016020900481019282610b245760008555610b6b565b82601f10610b3d57805160ff1916838001178555610b6b565b82800160010185558215610b6b579182015b82811115610b6a578251825591602001919060010190610b4f565b5b509050610b789190610b7c565b5090565b5b80821115610b95576000816000905550600101610b7d565b5090565b6000610bac610ba7846112de565b6112ad565b90508083825260208201905082856020860282011115610bcb57600080fd5b60005b85811015610bfb5781610be18882610c59565b845260208401935060208301925050600181019050610bce565b5050509392505050565b600082601f830112610c1657600080fd5b8135610c26848260208601610b99565b91505092915050565b600081359050610c3e8161160a565b92915050565b600081359050610c5381611621565b92915050565b600081359050610c6881611638565b92915050565b60008060408385031215610c8157600080fd5b6000610c8f85828601610c2f565b925050602083013567ffffffffffffffff811115610cac57600080fd5b610cb885828601610c05565b9150509250929050565b600060208284031215610cd457600080fd5b6000610ce284828501610c44565b91505092915050565b600060208284031215610cfd57600080fd5b6000610d0b84828501610c59565b91505092915050565b610d1d8161138b565b82525050565b610d2c81611397565b82525050565b610d43610d3e82611397565b6114f1565b82525050565b610d52816113c3565b82525050565b610d69610d64826113c3565b6114fb565b82525050565b610d78816113ef565b82525050565b610d8f610d8a826113ef565b611505565b82525050565b6000610da08261131f565b610daa818561132a565b9350610dba818560208601611443565b610dc3816115d2565b840191505092915050565b60008154610ddb81611476565b610de5818661133b565b94506001821660008114610e005760018114610e1157610e44565b60ff19831686528186019350610e44565b610e1a8561130a565b60005b83811015610e3c57815481890152600182019150602081019050610e1d565b838801955050505b50505092915050565b7f434845434b45444f555400000000000000000000000000000000000000000000815250565b6000610e80604383611346565b91507f4572726f723a2043616e6e6f7420636865636b206f7574206120636865636b6560008301527f64206f7574206974656d2e204d75737420636865636b20697420696e2066697260208301527f73742e00000000000000000000000000000000000000000000000000000000006040830152606082019050919050565b6000610f0c601b83611346565b91507f4572726f723a2057726f6e672065766964656e6365206974656d2e00000000006000830152602082019050919050565b6000610f4c601f83611346565b91507f45766964656e6365206974656d204944206d75737420626520756e69717565006000830152602082019050919050565b6000610f8c602483611346565b91507f4572726f723a2045766964656e6365206974656d20646f6573206e6f7420657860008301527f6973742e000000000000000000000000000000000000000000000000000000006020830152604082019050919050565b610fee816113f9565b82525050565b611005611000826113f9565b61150f565b82525050565b6110148161141f565b82525050565b61102b6110268261141f565b611521565b82525050565b61103a8161142f565b82525050565b61105161104c8261142f565b611533565b82525050565b6000611063828c610d7e565b602082019150611073828b611040565b600882019150611083828a610ff4565b601082019150611093828961101a565b6004820191506110a38288610d32565b600c820191506110b38287610d58565b6014820191506110c38286610d58565b6014820191506110d3828561101a565b6004820191506110e38284610dce565b91508190509a9950505050505050505050565b600060208201905061110b6000830184610d14565b92915050565b600061012082019050611127600083018c610d6f565b611134602083018b611031565b611141604083018a610fe5565b61114e606083018961100b565b61115b6080830188610d23565b61116860a0830187610d49565b61117560c0830186610d49565b61118260e083018561100b565b8181036101008301526111958184610d95565b90509a9950505050505050505050565b600060208201905081810360008301526111be81610e73565b9050919050565b600060208201905081810360008301526111de81610eff565b9050919050565b600060208201905081810360008301526111fe81610f3f565b9050919050565b6000602082019050818103600083015261121e81610f7f565b9050919050565b600060808201905061123a6000830187610fe5565b611247602083018661100b565b6112546040830185611031565b6112616060830184610d23565b95945050505050565b600060808201905061127f6000830186610fe5565b61128c602083018561100b565b6112996040830184611031565b6112a560608301610e4d565b949350505050565b6000604051905081810181811067ffffffffffffffff821117156112d4576112d36115a3565b5b8060405250919050565b600067ffffffffffffffff8211156112f9576112f86115a3565b5b602082029050602081019050919050565b60008190508160005260206000209050919050565b600081519050919050565b600082825260208201905092915050565b600081905092915050565b600082825260208201905092915050565b600061136282611415565b915061136d83611415565b9250828210156113805761137f611545565b5b828203905092915050565b60008115159050919050565b60007fffffffffffffffffffffffff000000000000000000000000000000000000000082169050919050565b60007fffffffffffffffffffffffffffffffffffffffff00000000000000000000000082169050919050565b6000819050919050565b60006fffffffffffffffffffffffffffffffff82169050919050565b6000819050919050565b600063ffffffff82169050919050565b600067ffffffffffffffff82169050919050565b60005b83811015611461578082015181840152602081019050611446565b83811115611470576000848401525b50505050565b6000600282049050600182168061148e57607f821691505b602082108114156114a2576114a1611574565b5b50919050565b60006114b382611415565b91507fffffffffffffffffffffffffffffffffffffffffffffffffffffffffffffffff8214156114e6576114e5611545565b5b600182019050919050565b6000819050919050565b6000819050919050565b6000819050919050565b600061151a826115e3565b9050919050565b600061152c826115fd565b9050919050565b600061153e826115f0565b9050919050565b7f4e487b7100000000000000000000000000000000000000000000000000000000600052601160045260246000fd5b7f4e487b7100000000000000000000000000000000000000000000000000000000600052602260045260246000fd5b7f4e487b7100000000000000000000000000000000000000000000000000000000600052604160045260246000fd5b6000601f19601f8301169050919050565b60008160801b9050919050565b60008160c01b9050919050565b60008160e01b9050919050565b611613816113f9565b811461161e57600080fd5b50565b61162a81611415565b811461163557600080fd5b50565b6116418161141f565b811461164c57600080fd5b5056fea2646970667358221220dc14b36067bf39a9d37362e55abee7a25e642c1f29a00130131396ced73eacc964736f6c63430008000033",
  "immutableReferences": {},
  "source": "// SPDX-License-Identifier: MIT\r\npragma solidity ^0.8.0;\r\n\r\ncontract ChainOfCustody {\r\n    struct Block {\r\n        bytes32 previousHash;\r\n        uint64 timestamp;\r\n        uint128 caseId;\r\n        uint32 evidenceItemId;\r\n        bytes12 state;\r\n        bytes20 handlerName;\r\n        bytes20 organizationName;\r\n        uint32 dataLength;\r\n        bytes data;\r\n    }\r\n\r\n    Block[] public blockchain;\r\n    mapping(uint32 => bool) public evidenceExists;\r\n\r\n    // Event declaration\r\n    event EvidenceItemAdded(uint128 caseId, uint32 evidenceItemId, uint64 timestamp, bytes12 state);\r\n\r\n    function addEvidenceItems(uint128 _caseId, uint32[] memory _itemIds) public {\r\n        for (uint i = 0; i < _itemIds.length; i++) {\r\n            require(!evidenceExists[_itemIds[i]], \"Evidence item ID must be unique\");\r\n            addBlock(_caseId, _itemIds[i], \"CHECKEDIN\", \"\", \"\", \"\");\r\n        }\r\n    }\r\n\r\n    function addBlock(uint128 _caseId, uint32 _evidenceItemId, bytes12 _state, bytes20 _handlerName, bytes20 _organizationName, bytes memory _data) private {\r\n        bytes32 previousHash = blockchain.length > 0 ? getLatestBlockHash() : bytes32(0);\r\n        uint64 timestamp = uint64(block.timestamp);\r\n        uint32 dataLength = uint32(_data.length);\r\n\r\n        Block memory newBlock = Block(\r\n            previousHash,\r\n            timestamp,\r\n            _caseId,\r\n            _evidenceItemId,\r\n            _state,\r\n            _handlerName,\r\n            _organizationName,\r\n            dataLength,\r\n            _data\r\n        );\r\n\r\n        blockchain.push(newBlock);\r\n        evidenceExists[_evidenceItemId] = true;\r\n\r\n        // Emitting the event\r\n        emit EvidenceItemAdded(_caseId, _evidenceItemId, timestamp, _state);\r\n    }\r\n\r\n    function getLatestBlockHash() private view returns (bytes32) {\r\n        Block storage lastBlock = blockchain[blockchain.length - 1];\r\n        return keccak256(\r\n            abi.encodePacked(\r\n                lastBlock.previousHash,\r\n                lastBlock.timestamp,\r\n                lastBlock.caseId,\r\n                lastBlock.evidenceItemId,\r\n                lastBlock.state,\r\n                lastBlock.handlerName,\r\n                lastBlock.organizationName,\r\n                lastBlock.dataLength,\r\n                lastBlock.data\r\n            )\r\n        );\r\n    }\r\n\r\n    event EvidenceItemCheckedOut(uint128 caseId, uint32 evidenceItemId, uint64 timestamp, bytes12 state);\r\n\r\n    function checkoutEvidenceItem(uint32 _evidenceItemId) public {\r\n        require(evidenceExists[_evidenceItemId], \"Error: Evidence item does not exist.\");\r\n        Block storage lastBlock = blockchain[blockchain.length - 1];\r\n        require(lastBlock.evidenceItemId == _evidenceItemId, \"Error: Wrong evidence item.\");\r\n        require(lastBlock.state != \"CHECKEDOUT\", \"Error: Cannot check out a checked out item. Must check it in first.\");\r\n\r\n        // Assuming 'addBlock' function updates the state and creates a new block in the blockchain\r\n        addBlock(lastBlock.caseId, _evidenceItemId, \"CHECKEDOUT\", lastBlock.handlerName, lastBlock.organizationName, lastBlock.data);\r\n        emit EvidenceItemCheckedOut(lastBlock.caseId, _evidenceItemId, uint64(block.timestamp), \"CHECKEDOUT\");\r\n    }\r\n}\r\n",
  "sourcePath": "C:\\Users\\sharm\\Dropbox (ASU)\\CSE 469 CNF\\Group Project\\blockchain_chain_of_custody\\chain_of_custody\\contracts\\ChainOfCustody.sol",
  "compiler": {
    "name": "solc",
    "version": "0.8.0+commit.c7dfd78e.Emscripten.clang"
  },
  "schemaVersion": "3.4.16",
  "updatedAt": "2023-11-25T00:47:15.183Z",
  "networkType": "ethereum",
  "devdoc": {
    "kind": "dev",
    "methods": {},
    "version": 1
  },
  "userdoc": {
    "kind": "user",
    "methods": {},
    "version": 1
  }
}