{
  "contractName": "ChainOfCustody",
  "abi": [
    {
      "anonymous": false,
      "inputs": [
        {
          "indexed": true,
          "internalType": "uint128",
          "name": "caseId",
          "type": "uint128"
        },
        {
          "indexed": true,
          "internalType": "uint32",
          "name": "evidenceItemId",
          "type": "uint32"
        },
        {
          "indexed": false,
          "internalType": "uint64",
          "name": "timestamp",
          "type": "uint64"
        },
        {
          "indexed": false,
          "internalType": "string",
          "name": "state",
          "type": "string"
        },
        {
          "indexed": false,
          "internalType": "string",
          "name": "handlerName",
          "type": "string"
        },
        {
          "indexed": false,
          "internalType": "string",
          "name": "organizationName",
          "type": "string"
        }
      ],
      "name": "EvidenceItemAdded",
      "type": "event"
    },
    {
      "anonymous": false,
      "inputs": [
        {
          "indexed": false,
          "internalType": "uint128",
          "name": "caseId",
          "type": "uint128"
        },
        {
          "indexed": false,
          "internalType": "uint32",
          "name": "evidenceItemId",
          "type": "uint32"
        },
        {
          "indexed": false,
          "internalType": "uint64",
          "name": "timestamp",
          "type": "uint64"
        },
        {
          "indexed": false,
          "internalType": "string",
          "name": "state",
          "type": "string"
        },
        {
          "indexed": false,
          "internalType": "string",
          "name": "handlerName",
          "type": "string"
        },
        {
          "indexed": false,
          "internalType": "string",
          "name": "organizationName",
          "type": "string"
        }
      ],
      "name": "EvidenceItemCheckedIn",
      "type": "event"
    },
    {
      "anonymous": false,
      "inputs": [
        {
          "indexed": true,
          "internalType": "uint128",
          "name": "caseId",
          "type": "uint128"
        },
        {
          "indexed": true,
          "internalType": "uint32",
          "name": "evidenceItemId",
          "type": "uint32"
        },
        {
          "indexed": false,
          "internalType": "string",
          "name": "handlerName",
          "type": "string"
        },
        {
          "indexed": false,
          "internalType": "string",
          "name": "organizationName",
          "type": "string"
        },
        {
          "indexed": false,
          "internalType": "uint64",
          "name": "timestamp",
          "type": "uint64"
        },
        {
          "indexed": false,
          "internalType": "string",
          "name": "state",
          "type": "string"
        }
      ],
      "name": "EvidenceItemCheckedOut",
      "type": "event"
    },
    {
      "anonymous": false,
      "inputs": [
        {
          "indexed": false,
          "internalType": "uint128",
          "name": "caseId",
          "type": "uint128"
        },
        {
          "indexed": false,
          "internalType": "uint32",
          "name": "evidenceItemId",
          "type": "uint32"
        },
        {
          "indexed": false,
          "internalType": "uint64",
          "name": "timestamp",
          "type": "uint64"
        },
        {
          "indexed": false,
          "internalType": "string",
          "name": "reason",
          "type": "string"
        },
        {
          "indexed": false,
          "internalType": "string",
          "name": "ownerInfo",
          "type": "string"
        }
      ],
      "name": "EvidenceItemRemoved",
      "type": "event"
    },
    {
      "inputs": [
        {
          "internalType": "uint256",
          "name": "",
          "type": "uint256"
        }
      ],
      "name": "blockchain",
      "outputs": [
        {
          "internalType": "bytes32",
          "name": "previousHash",
          "type": "bytes32"
        },
        {
          "internalType": "uint64",
          "name": "timestamp",
          "type": "uint64"
        },
        {
          "internalType": "uint128",
          "name": "caseId",
          "type": "uint128"
        },
        {
          "internalType": "uint32",
          "name": "evidenceItemId",
          "type": "uint32"
        },
        {
          "internalType": "string",
          "name": "state",
          "type": "string"
        },
        {
          "internalType": "string",
          "name": "handlerName",
          "type": "string"
        },
        {
          "internalType": "string",
          "name": "organizationName",
          "type": "string"
        },
        {
          "internalType": "string",
          "name": "reason",
          "type": "string"
        },
        {
          "internalType": "uint32",
          "name": "dataLength",
          "type": "uint32"
        },
        {
          "internalType": "bytes",
          "name": "data",
          "type": "bytes"
        }
      ],
      "stateMutability": "view",
      "type": "function",
      "constant": true
    },
    {
      "inputs": [
        {
          "internalType": "uint32",
          "name": "",
          "type": "uint32"
        }
      ],
      "name": "evidenceExists",
      "outputs": [
        {
          "internalType": "bool",
          "name": "",
          "type": "bool"
        }
      ],
      "stateMutability": "view",
      "type": "function",
      "constant": true
    },
    {
      "inputs": [
        {
          "internalType": "uint128",
          "name": "_caseId",
          "type": "uint128"
        },
        {
          "internalType": "uint32[]",
          "name": "_itemIds",
          "type": "uint32[]"
        },
        {
          "internalType": "string",
          "name": "_handlerName",
          "type": "string"
        },
        {
          "internalType": "string",
          "name": "_organizationName",
          "type": "string"
        }
      ],
      "name": "addEvidenceItems",
      "outputs": [],
      "stateMutability": "nonpayable",
      "type": "function"
    },
    {
      "inputs": [
        {
          "internalType": "uint32",
          "name": "_evidenceItemId",
          "type": "uint32"
        },
        {
          "internalType": "string",
          "name": "_handlerName",
          "type": "string"
        },
        {
          "internalType": "string",
          "name": "_organizationName",
          "type": "string"
        }
      ],
      "name": "checkoutEvidenceItem",
      "outputs": [],
      "stateMutability": "nonpayable",
      "type": "function"
    },
    {
      "inputs": [
        {
          "internalType": "uint32",
          "name": "_evidenceItemId",
          "type": "uint32"
        },
        {
          "internalType": "string",
          "name": "_handlerName",
          "type": "string"
        },
        {
          "internalType": "string",
          "name": "_organizationName",
          "type": "string"
        }
      ],
      "name": "checkinEvidenceItem",
      "outputs": [],
      "stateMutability": "nonpayable",
      "type": "function"
    },
    {
      "inputs": [],
      "name": "getCases",
      "outputs": [
        {
          "internalType": "uint128[]",
          "name": "",
          "type": "uint128[]"
        }
      ],
      "stateMutability": "view",
      "type": "function",
      "constant": true
    },
    {
      "inputs": [
        {
          "internalType": "uint128",
          "name": "_caseId",
          "type": "uint128"
        }
      ],
      "name": "getItemsForCase",
      "outputs": [
        {
          "internalType": "uint32[]",
          "name": "",
          "type": "uint32[]"
        }
      ],
      "stateMutability": "view",
      "type": "function",
      "constant": true
    },
    {
      "inputs": [
        {
          "internalType": "uint32",
          "name": "_itemId",
          "type": "uint32"
        }
      ],
      "name": "getItemHistory",
      "outputs": [
        {
          "components": [
            {
              "internalType": "uint64",
              "name": "timestamp",
              "type": "uint64"
            },
            {
              "internalType": "string",
              "name": "handlerName",
              "type": "string"
            },
            {
              "internalType": "string",
              "name": "state",
              "type": "string"
            }
          ],
          "internalType": "struct ChainOfCustody.BlockInfo[]",
          "name": "",
          "type": "tuple[]"
        }
      ],
      "stateMutability": "view",
      "type": "function",
      "constant": true
    },
    {
      "inputs": [
        {
          "internalType": "uint32",
          "name": "_evidenceItemId",
          "type": "uint32"
        },
        {
          "internalType": "string",
          "name": "_reason",
          "type": "string"
        },
        {
          "internalType": "string",
          "name": "_ownerInfo",
          "type": "string"
        }
      ],
      "name": "removeEvidenceItem",
      "outputs": [],
      "stateMutability": "nonpayable",
      "type": "function"
    }
  ],
  "bytecode": "0x608060405234801561001057600080fd5b5061353d806100206000396000f3fe608060405234801561001057600080fd5b50600436106100935760003560e01c8063b35af6c311610066578063b35af6c31461011e578063bfc260de1461014e578063c25b1eaf1461016a578063d2bacbc8146101a3578063e61f36ae146101bf57610093565b8063065cb594146100985780631da10984146100b6578063458c2682146100d25780634f54e92414610102575b600080fd5b6100a06101ef565b6040516100ad9190612d66565b60405180910390f35b6100d060048036038101906100cb91906124d0565b6105b8565b005b6100ec60048036038101906100e791906124a7565b610874565b6040516100f99190612d44565b60405180910390f35b61011c600480360381019061011791906124d0565b610d36565b005b610138600480360381019061013391906124a7565b611182565b6040516101459190612daa565b60405180910390f35b610168600480360381019061016391906123d3565b6111a2565b005b610184600480360381019061017f919061247e565b611317565b60405161019a9a99989796959493929190612dc5565b60405180910390f35b6101bd60048036038101906101b891906124d0565b611673565b005b6101d960048036038101906101d491906123aa565b611a2d565b6040516101e69190612d88565b60405180910390f35b60606000808054905067ffffffffffffffff811115610237577f4e487b7100000000000000000000000000000000000000000000000000000000600052604160045260246000fd5b6040519080825280602002602001820160405280156102655781602001602082028036833780820191505090505b5090506000805b600080549050811015610470576000805b8381101561037457600083815481106102bf577f4e487b7100000000000000000000000000000000000000000000000000000000600052603260045260246000fd5b906000526020600020906008020160010160089054906101000a90046fffffffffffffffffffffffffffffffff166fffffffffffffffffffffffffffffffff16858281518110610338577f4e487b7100000000000000000000000000000000000000000000000000000000600052603260045260246000fd5b60200260200101516fffffffffffffffffffffffffffffffff1614156103615760019150610374565b808061036c90613374565b91505061027d565b508061045c57600082815481106103b4577f4e487b7100000000000000000000000000000000000000000000000000000000600052603260045260246000fd5b906000526020600020906008020160010160089054906101000a90046fffffffffffffffffffffffffffffffff1684848151811061041b577f4e487b7100000000000000000000000000000000000000000000000000000000600052603260045260246000fd5b60200260200101906fffffffffffffffffffffffffffffffff1690816fffffffffffffffffffffffffffffffff1681525050828061045890613374565b9350505b50808061046890613374565b91505061026c565b5060008167ffffffffffffffff8111156104b3577f4e487b7100000000000000000000000000000000000000000000000000000000600052604160045260246000fd5b6040519080825280602002602001820160405280156104e15781602001602082028036833780820191505090505b50905060005b828110156105ae57838181518110610528577f4e487b7100000000000000000000000000000000000000000000000000000000600052603260045260246000fd5b6020026020010151828281518110610569577f4e487b7100000000000000000000000000000000000000000000000000000000600052603260045260246000fd5b60200260200101906fffffffffffffffffffffffffffffffff1690816fffffffffffffffffffffffffffffffff168152505080806105a690613374565b9150506104e7565b5080935050505090565b600160008463ffffffff1663ffffffff16815260200190815260200160002060009054906101000a900460ff16610624576040517f08c379a000000000000000000000000000000000000000000000000000000000815260040161061b90612f5c565b60405180910390fd5b6000806001600080549050610639919061326c565b81548110610670577f4e487b7100000000000000000000000000000000000000000000000000000000600052603260045260246000fd5b9060005260206000209060080201905060405160200161068f90612d1a565b60405160208183030381529060405280519060200120816002016040516020016106b99190612d03565b604051602081830303815290604052805190602001201415610710576040517f08c379a000000000000000000000000000000000000000000000000000000000815260040161070790612efc565b60405180910390fd5b61080f8160010160089054906101000a90046fffffffffffffffffffffffffffffffff16856040518060400160405280600981526020017f434845434b4544494e000000000000000000000000000000000000000000000081525086866040518060200160405280600081525087600701805461078c90613342565b80601f01602080910402602001604051908101604052809291908181526020018280546107b890613342565b80156108055780601f106107da57610100808354040283529160200191610805565b820191906000526020600020905b8154815290600101906020018083116107e857829003601f168201915b5050505050611d4d565b7f44d659db232b167aceca42204e10ebf4f34fe865b7f8911e56bb7e4fe141eb248160010160089054906101000a90046fffffffffffffffffffffffffffffffff1685428686604051610866959493929190612fdd565b60405180910390a150505050565b60606000808054905067ffffffffffffffff8111156108bc577f4e487b7100000000000000000000000000000000000000000000000000000000600052604160045260246000fd5b6040519080825280602002602001820160405280156108f557816020015b6108e2612119565b8152602001906001900390816108da5790505b5090506000805b600080549050811015610c08578463ffffffff166000828154811061094a577f4e487b7100000000000000000000000000000000000000000000000000000000600052603260045260246000fd5b906000526020600020906008020160010160189054906101000a900463ffffffff1663ffffffff161415610bf5576040518060600160405280600083815481106109bd577f4e487b7100000000000000000000000000000000000000000000000000000000600052603260045260246000fd5b906000526020600020906008020160010160009054906101000a900467ffffffffffffffff1667ffffffffffffffff16815260200160008381548110610a2c577f4e487b7100000000000000000000000000000000000000000000000000000000600052603260045260246000fd5b90600052602060002090600802016003018054610a4890613342565b80601f0160208091040260200160405190810160405280929190818152602001828054610a7490613342565b8015610ac15780601f10610a9657610100808354040283529160200191610ac1565b820191906000526020600020905b815481529060010190602001808311610aa457829003601f168201915b5050505050815260200160008381548110610b05577f4e487b7100000000000000000000000000000000000000000000000000000000600052603260045260246000fd5b90600052602060002090600802016002018054610b2190613342565b80601f0160208091040260200160405190810160405280929190818152602001828054610b4d90613342565b8015610b9a5780601f10610b6f57610100808354040283529160200191610b9a565b820191906000526020600020905b815481529060010190602001808311610b7d57829003601f168201915b5050505050815250838381518110610bdb577f4e487b7100000000000000000000000000000000000000000000000000000000600052603260045260246000fd5b60200260200101819052508180610bf190613374565b9250505b8080610c0090613374565b9150506108fc565b5060008167ffffffffffffffff811115610c4b577f4e487b7100000000000000000000000000000000000000000000000000000000600052604160045260246000fd5b604051908082528060200260200182016040528015610c8457816020015b610c71612119565b815260200190600190039081610c695790505b50905060005b82811015610d2a57838181518110610ccb577f4e487b7100000000000000000000000000000000000000000000000000000000600052603260045260246000fd5b6020026020010151828281518110610d0c577f4e487b7100000000000000000000000000000000000000000000000000000000600052603260045260246000fd5b60200260200101819052508080610d2290613374565b915050610c8a565b50809350505050919050565b600160008463ffffffff1663ffffffff16815260200190815260200160002060009054906101000a900460ff16610da2576040517f08c379a0000000000000000000000000000000000000000000000000000000008152600401610d9990612f5c565b60405180910390fd5b6000806001600080549050610db7919061326c565b81548110610dee577f4e487b7100000000000000000000000000000000000000000000000000000000600052603260045260246000fd5b906000526020600020906008020190508363ffffffff168160010160189054906101000a900463ffffffff1663ffffffff1614610e60576040517f08c379a0000000000000000000000000000000000000000000000000000000008152600401610e5790612f1c565b60405180910390fd5b604051602001610e6f90612d2f565b6040516020818303038152906040528051906020012081600201604051602001610e999190612d03565b604051602081830303815290604052805190602001201415610ef0576040517f08c379a0000000000000000000000000000000000000000000000000000000008152600401610ee790612efc565b60405180910390fd5b6111078160010160089054906101000a90046fffffffffffffffffffffffffffffffff16856040518060400160405280600a81526020017f434845434b45444f555400000000000000000000000000000000000000000000815250846003018054610f5a90613342565b80601f0160208091040260200160405190810160405280929190818152602001828054610f8690613342565b8015610fd35780601f10610fa857610100808354040283529160200191610fd3565b820191906000526020600020905b815481529060010190602001808311610fb657829003601f168201915b5050505050856004018054610fe790613342565b80601f016020809104026020016040519081016040528092919081815260200182805461101390613342565b80156110605780601f1061103557610100808354040283529160200191611060565b820191906000526020600020905b81548152906001019060200180831161104357829003601f168201915b50505050506040518060200160405280600081525087600701805461108490613342565b80601f01602080910402602001604051908101604052809291908181526020018280546110b090613342565b80156110fd5780601f106110d2576101008083540402835291602001916110fd565b820191906000526020600020905b8154815290600101906020018083116110e057829003601f168201915b5050505050611d4d565b8363ffffffff168160010160089054906101000a90046fffffffffffffffffffffffffffffffff166fffffffffffffffffffffffffffffffff167f8d091e6724281a24ed036e6fc30d2d911d68131901cf4e8e63b0ac0247f5047d85854260405161117493929190612e84565b60405180910390a350505050565b60016020528060005260406000206000915054906101000a900460ff1681565b60005b835181101561131057600160008583815181106111eb577f4e487b7100000000000000000000000000000000000000000000000000000000600052603260045260246000fd5b602002602001015163ffffffff1663ffffffff16815260200190815260200160002060009054906101000a900460ff161561125b576040517f08c379a000000000000000000000000000000000000000000000000000000000815260040161125290612f3c565b60405180910390fd5b6112fd85858381518110611298577f4e487b7100000000000000000000000000000000000000000000000000000000600052603260045260246000fd5b60200260200101516040518060400160405280600981526020017f434845434b4544494e000000000000000000000000000000000000000000000081525086866040518060200160405280600081525060405180602001604052806000815250611d4d565b808061130890613374565b9150506111a5565b5050505050565b6000818154811061132757600080fd5b90600052602060002090600802016000915090508060000154908060010160009054906101000a900467ffffffffffffffff16908060010160089054906101000a90046fffffffffffffffffffffffffffffffff16908060010160189054906101000a900463ffffffff16908060020180546113a290613342565b80601f01602080910402602001604051908101604052809291908181526020018280546113ce90613342565b801561141b5780601f106113f05761010080835404028352916020019161141b565b820191906000526020600020905b8154815290600101906020018083116113fe57829003601f168201915b50505050509080600301805461143090613342565b80601f016020809104026020016040519081016040528092919081815260200182805461145c90613342565b80156114a95780601f1061147e576101008083540402835291602001916114a9565b820191906000526020600020905b81548152906001019060200180831161148c57829003601f168201915b5050505050908060040180546114be90613342565b80601f01602080910402602001604051908101604052809291908181526020018280546114ea90613342565b80156115375780601f1061150c57610100808354040283529160200191611537565b820191906000526020600020905b81548152906001019060200180831161151a57829003601f168201915b50505050509080600501805461154c90613342565b80601f016020809104026020016040519081016040528092919081815260200182805461157890613342565b80156115c55780601f1061159a576101008083540402835291602001916115c5565b820191906000526020600020905b8154815290600101906020018083116115a857829003601f168201915b5050505050908060060160009054906101000a900463ffffffff16908060070180546115f090613342565b80601f016020809104026020016040519081016040528092919081815260200182805461161c90613342565b80156116695780601f1061163e57610100808354040283529160200191611669565b820191906000526020600020905b81548152906001019060200180831161164c57829003601f168201915b505050505090508a565b600160008463ffffffff1663ffffffff16815260200190815260200160002060009054906101000a900460ff166116df576040517f08c379a00000000000000000000000000000000000000000000000000000000081526004016116d690612f5c565b60405180910390fd5b60008060016000805490506116f4919061326c565b8154811061172b577f4e487b7100000000000000000000000000000000000000000000000000000000600052603260045260246000fd5b906000526020600020906008020190508363ffffffff168160010160189054906101000a900463ffffffff1663ffffffff161480156117b6575060405160200161177490612d1a565b604051602081830303815290604052805190602001208160020160405160200161179e9190612d03565b60405160208183030381529060405280519060200120145b6117f5576040517f08c379a00000000000000000000000000000000000000000000000000000000081526004016117ec90612edc565b60405180910390fd5b6119c88160010160089054906101000a90046fffffffffffffffffffffffffffffffff16858584600301805461182a90613342565b80601f016020809104026020016040519081016040528092919081815260200182805461185690613342565b80156118a35780601f10611878576101008083540402835291602001916118a3565b820191906000526020600020905b81548152906001019060200180831161188657829003601f168201915b50505050508560040180546118b790613342565b80601f01602080910402602001604051908101604052809291908181526020018280546118e390613342565b80156119305780601f1061190557610100808354040283529160200191611930565b820191906000526020600020905b81548152906001019060200180831161191357829003601f168201915b50505050508787600701805461194590613342565b80601f016020809104026020016040519081016040528092919081815260200182805461197190613342565b80156119be5780601f10611993576101008083540402835291602001916119be565b820191906000526020600020905b8154815290600101906020018083116119a157829003601f168201915b5050505050611d4d565b7f131b0104fffef9791a656820b9d5349cb76c71fee3129316cd22fb398cee5b5d8160010160089054906101000a90046fffffffffffffffffffffffffffffffff1685428686604051611a1f959493929190612f7c565b60405180910390a150505050565b60606000808054905067ffffffffffffffff811115611a75577f4e487b7100000000000000000000000000000000000000000000000000000000600052604160045260246000fd5b604051908082528060200260200182016040528015611aa35781602001602082028036833780820191505090505b5090506000805b600080549050811015611c1b57846fffffffffffffffffffffffffffffffff1660008281548110611b04577f4e487b7100000000000000000000000000000000000000000000000000000000600052603260045260246000fd5b906000526020600020906008020160010160089054906101000a90046fffffffffffffffffffffffffffffffff166fffffffffffffffffffffffffffffffff161415611c085760008181548110611b84577f4e487b7100000000000000000000000000000000000000000000000000000000600052603260045260246000fd5b906000526020600020906008020160010160189054906101000a900463ffffffff16838381518110611bdf577f4e487b7100000000000000000000000000000000000000000000000000000000600052603260045260246000fd5b602002602001019063ffffffff16908163ffffffff16815250508180611c0490613374565b9250505b8080611c1390613374565b915050611aaa565b5060008167ffffffffffffffff811115611c5e577f4e487b7100000000000000000000000000000000000000000000000000000000600052604160045260246000fd5b604051908082528060200260200182016040528015611c8c5781602001602082028036833780820191505090505b50905060005b82811015611d4157838181518110611cd3577f4e487b7100000000000000000000000000000000000000000000000000000000600052603260045260246000fd5b6020026020010151828281518110611d14577f4e487b7100000000000000000000000000000000000000000000000000000000600052603260045260246000fd5b602002602001019063ffffffff16908163ffffffff16815250508080611d3990613374565b915050611c92565b50809350505050919050565b60008060008054905011611d64576000801b611d6d565b611d6c61200e565b5b9050600042905060008351905060006040518061014001604052808581526020018467ffffffffffffffff1681526020018c6fffffffffffffffffffffffffffffffff1681526020018b63ffffffff1681526020018a81526020018981526020018881526020018781526020018363ffffffff16815260200186815250905060008190806001815401808255809150506001900390600052602060002090600802016000909190919091506000820151816000015560208201518160010160006101000a81548167ffffffffffffffff021916908367ffffffffffffffff16021790555060408201518160010160086101000a8154816fffffffffffffffffffffffffffffffff02191690836fffffffffffffffffffffffffffffffff16021790555060608201518160010160186101000a81548163ffffffff021916908363ffffffff1602179055506080820151816002019080519060200190611ed3929190612144565b5060a0820151816003019080519060200190611ef0929190612144565b5060c0820151816004019080519060200190611f0d929190612144565b5060e0820151816005019080519060200190611f2a929190612144565b506101008201518160060160006101000a81548163ffffffff021916908363ffffffff160217905550610120820151816007019080519060200190611f709291906121ca565b50505060018060008c63ffffffff1663ffffffff16815260200190815260200160002060006101000a81548160ff0219169083151502179055508963ffffffff168b6fffffffffffffffffffffffffffffffff167f33a1c1a3b9a16d06083c74dc302e2fcc5be80f5e5aa2ae9a270c78f82731b11b858c8c8c604051611ff99493929190613051565b60405180910390a35050505050505050505050565b60008060006001600080549050612025919061326c565b8154811061205c577f4e487b7100000000000000000000000000000000000000000000000000000000600052603260045260246000fd5b9060005260206000209060080201905080600001548160010160009054906101000a900467ffffffffffffffff168260010160089054906101000a90046fffffffffffffffffffffffffffffffff168360010160189054906101000a900463ffffffff168460020185600301866004018760060160009054906101000a900463ffffffff16886007016040516020016120fd99989796959493929190612c70565b6040516020818303038152906040528051906020012091505090565b6040518060600160405280600067ffffffffffffffff16815260200160608152602001606081525090565b82805461215090613342565b90600052602060002090601f01602090048101928261217257600085556121b9565b82601f1061218b57805160ff19168380011785556121b9565b828001600101855582156121b9579182015b828111156121b857825182559160200191906001019061219d565b5b5090506121c69190612250565b5090565b8280546121d690613342565b90600052602060002090601f0160209004810192826121f8576000855561223f565b82601f1061221157805160ff191683800117855561223f565b8280016001018555821561223f579182015b8281111561223e578251825591602001919060010190612223565b5b50905061224c9190612250565b5090565b5b80821115612269576000816000905550600101612251565b5090565b600061228061227b846130dc565b6130ab565b9050808382526020820190508285602086028201111561229f57600080fd5b60005b858110156122cf57816122b58882612395565b8452602084019350602083019250506001810190506122a2565b5050509392505050565b60006122ec6122e784613108565b6130ab565b90508281526020810184848401111561230457600080fd5b61230f848285613300565b509392505050565b600082601f83011261232857600080fd5b813561233884826020860161226d565b91505092915050565b600082601f83011261235257600080fd5b81356123628482602086016122d9565b91505092915050565b60008135905061237a816134c2565b92915050565b60008135905061238f816134d9565b92915050565b6000813590506123a4816134f0565b92915050565b6000602082840312156123bc57600080fd5b60006123ca8482850161236b565b91505092915050565b600080600080608085870312156123e957600080fd5b60006123f78782880161236b565b945050602085013567ffffffffffffffff81111561241457600080fd5b61242087828801612317565b935050604085013567ffffffffffffffff81111561243d57600080fd5b61244987828801612341565b925050606085013567ffffffffffffffff81111561246657600080fd5b61247287828801612341565b91505092959194509250565b60006020828403121561249057600080fd5b600061249e84828501612380565b91505092915050565b6000602082840312156124b957600080fd5b60006124c784828501612395565b91505092915050565b6000806000606084860312156124e557600080fd5b60006124f386828701612395565b935050602084013567ffffffffffffffff81111561251057600080fd5b61251c86828701612341565b925050604084013567ffffffffffffffff81111561253957600080fd5b61254586828701612341565b9150509250925092565b600061255b8383612b7a565b905092915050565b600061256f8383612bd1565b60208301905092915050565b60006125878383612c06565b60208301905092915050565b600061259e82613192565b6125a881856131f0565b9350836020820285016125ba85613138565b8060005b858110156125f657848403895281516125d7858261254f565b94506125e2836131c9565b925060208a019950506001810190506125be565b50829750879550505050505092915050565b60006126138261319d565b61261d8185613201565b935061262883613148565b8060005b838110156126595781516126408882612563565b975061264b836131d6565b92505060018101905061262c565b5085935050505092915050565b6000612671826131a8565b61267b8185613212565b935061268683613158565b8060005b838110156126b757815161269e888261257b565b97506126a9836131e3565b92505060018101905061268a565b5085935050505092915050565b6126cd816132a0565b82525050565b6126dc816132ac565b82525050565b6126f36126ee826132ac565b6133bd565b82525050565b6000612704826131b3565b61270e8185613223565b935061271e81856020860161330f565b6127278161348a565b840191505092915050565b6000815461273f81613342565b6127498186613234565b945060018216600081146127645760018114612775576127a8565b60ff198316865281860193506127a8565b61277e85613168565b60005b838110156127a057815481890152600182019150602081019050612781565b838801955050505b50505092915050565b60006127bc826131be565b6127c6818561323f565b93506127d681856020860161330f565b6127df8161348a565b840191505092915050565b60006127f5826131be565b6127ff8185613250565b935061280f81856020860161330f565b6128188161348a565b840191505092915050565b6000815461283081613342565b61283a8186613261565b94506001821660008114612855576001811461286657612899565b60ff19831686528186019350612899565b61286f8561317d565b60005b8381101561289157815481890152600182019150602081019050612872565b838801955050505b50505092915050565b60006128af600983613250565b91507f434845434b4544494e00000000000000000000000000000000000000000000006000830152602082019050919050565b60006128ef600983613261565b91507f434845434b4544494e00000000000000000000000000000000000000000000006000830152600982019050919050565b600061292f602d83613250565b91507f4572726f723a204974656d206d75737420626520636865636b656420696e207460008301527f6f2062652072656d6f7665642e000000000000000000000000000000000000006020830152604082019050919050565b6000612995600a83613250565b91507f434845434b45444f5554000000000000000000000000000000000000000000006000830152602082019050919050565b60006129d5600a83613261565b91507f434845434b45444f5554000000000000000000000000000000000000000000006000830152600a82019050919050565b6000612a15604383613250565b91507f4572726f723a2043616e6e6f7420636865636b206f7574206120636865636b6560008301527f64206f7574206974656d2e204d75737420636865636b20697420696e2066697260208301527f73742e00000000000000000000000000000000000000000000000000000000006040830152606082019050919050565b6000612aa1601b83613250565b91507f4572726f723a2057726f6e672065766964656e6365206974656d2e00000000006000830152602082019050919050565b6000612ae1601f83613250565b91507f45766964656e6365206974656d204944206d75737420626520756e69717565006000830152602082019050919050565b6000612b21602483613250565b91507f4572726f723a2045766964656e6365206974656d20646f6573206e6f7420657860008301527f6973742e000000000000000000000000000000000000000000000000000000006020830152604082019050919050565b6000606083016000830151612b926000860182612c3b565b5060208301518482036020860152612baa82826127b1565b91505060408301518482036040860152612bc482826127b1565b9150508091505092915050565b612bda816132b6565b82525050565b612be9816132b6565b82525050565b612c00612bfb826132b6565b6133c7565b82525050565b612c0f816132dc565b82525050565b612c1e816132dc565b82525050565b612c35612c30826132dc565b6133d9565b82525050565b612c44816132ec565b82525050565b612c53816132ec565b82525050565b612c6a612c65826132ec565b6133eb565b82525050565b6000612c7c828c6126e2565b602082019150612c8c828b612c59565b600882019150612c9c828a612bef565b601082019150612cac8289612c24565b600482019150612cbc8288612823565b9150612cc88287612823565b9150612cd48286612823565b9150612ce08285612c24565b600482019150612cf08284612732565b91508190509a9950505050505050505050565b6000612d0f8284612823565b915081905092915050565b6000612d25826128e2565b9150819050919050565b6000612d3a826129c8565b9150819050919050565b60006020820190508181036000830152612d5e8184612593565b905092915050565b60006020820190508181036000830152612d808184612608565b905092915050565b60006020820190508181036000830152612da28184612666565b905092915050565b6000602082019050612dbf60008301846126c4565b92915050565b600061014082019050612ddb600083018d6126d3565b612de8602083018c612c4a565b612df5604083018b612be0565b612e02606083018a612c15565b8181036080830152612e1481896127ea565b905081810360a0830152612e2881886127ea565b905081810360c0830152612e3c81876127ea565b905081810360e0830152612e5081866127ea565b9050612e60610100830185612c15565b818103610120830152612e7381846126f9565b90509b9a5050505050505050505050565b60006080820190508181036000830152612e9e81866127ea565b90508181036020830152612eb281856127ea565b9050612ec16040830184612c4a565b8181036060830152612ed281612988565b9050949350505050565b60006020820190508181036000830152612ef581612922565b9050919050565b60006020820190508181036000830152612f1581612a08565b9050919050565b60006020820190508181036000830152612f3581612a94565b9050919050565b60006020820190508181036000830152612f5581612ad4565b9050919050565b60006020820190508181036000830152612f7581612b14565b9050919050565b600060a082019050612f916000830188612be0565b612f9e6020830187612c15565b612fab6040830186612c4a565b8181036060830152612fbd81856127ea565b90508181036080830152612fd181846127ea565b90509695505050505050565b600060c082019050612ff26000830188612be0565b612fff6020830187612c15565b61300c6040830186612c4a565b818103606083015261301d816128a2565b9050818103608083015261303181856127ea565b905081810360a083015261304581846127ea565b90509695505050505050565b60006080820190506130666000830187612c4a565b818103602083015261307881866127ea565b9050818103604083015261308c81856127ea565b905081810360608301526130a081846127ea565b905095945050505050565b6000604051905081810181811067ffffffffffffffff821117156130d2576130d161345b565b5b8060405250919050565b600067ffffffffffffffff8211156130f7576130f661345b565b5b602082029050602081019050919050565b600067ffffffffffffffff8211156131235761312261345b565b5b601f19601f8301169050602081019050919050565b6000819050602082019050919050565b6000819050602082019050919050565b6000819050602082019050919050565b60008190508160005260206000209050919050565b60008190508160005260206000209050919050565b600081519050919050565b600081519050919050565b600081519050919050565b600081519050919050565b600081519050919050565b6000602082019050919050565b6000602082019050919050565b6000602082019050919050565b600082825260208201905092915050565b600082825260208201905092915050565b600082825260208201905092915050565b600082825260208201905092915050565b600081905092915050565b600082825260208201905092915050565b600082825260208201905092915050565b600081905092915050565b6000613277826132d2565b9150613282836132d2565b925082821015613295576132946133fd565b5b828203905092915050565b60008115159050919050565b6000819050919050565b60006fffffffffffffffffffffffffffffffff82169050919050565b6000819050919050565b600063ffffffff82169050919050565b600067ffffffffffffffff82169050919050565b82818337600083830152505050565b60005b8381101561332d578082015181840152602081019050613312565b8381111561333c576000848401525b50505050565b6000600282049050600182168061335a57607f821691505b6020821081141561336e5761336d61342c565b5b50919050565b600061337f826132d2565b91507fffffffffffffffffffffffffffffffffffffffffffffffffffffffffffffffff8214156133b2576133b16133fd565b5b600182019050919050565b6000819050919050565b60006133d28261349b565b9050919050565b60006133e4826134b5565b9050919050565b60006133f6826134a8565b9050919050565b7f4e487b7100000000000000000000000000000000000000000000000000000000600052601160045260246000fd5b7f4e487b7100000000000000000000000000000000000000000000000000000000600052602260045260246000fd5b7f4e487b7100000000000000000000000000000000000000000000000000000000600052604160045260246000fd5b6000601f19601f8301169050919050565b60008160801b9050919050565b60008160c01b9050919050565b60008160e01b9050919050565b6134cb816132b6565b81146134d657600080fd5b50565b6134e2816132d2565b81146134ed57600080fd5b50565b6134f9816132dc565b811461350457600080fd5b5056fea2646970667358221220393733479218f350d501b51482e3efc659301f85b494f5dd4dc41d69ca32a72064736f6c63430008000033",
  "immutableReferences": {},
  "source": "// SPDX-License-Identifier: MIT\r\npragma solidity ^0.8.0;\r\n\r\ncontract ChainOfCustody {\r\n    struct Block {\r\n        bytes32 previousHash;\r\n        uint64 timestamp;\r\n        uint128 caseId;\r\n        uint32 evidenceItemId;\r\n        string state;\r\n        string handlerName; // Changed from bytes20 to string\r\n        string organizationName; // Changed from bytes20 to string\r\n        string reason;\r\n        uint32 dataLength;\r\n        bytes data;\r\n    }\r\n\r\n    Block[] public blockchain;\r\n    mapping(uint32 => bool) public evidenceExists;\r\n\r\n    // Updated event to use strings\r\n    event EvidenceItemAdded(\r\n        uint128 indexed caseId,\r\n        uint32 indexed evidenceItemId,\r\n        uint64 timestamp,\r\n        string state,\r\n        string handlerName,\r\n        string organizationName\r\n    );\r\n\r\n    // Updated function to accept string parameters\r\n    function addEvidenceItems(\r\n        uint128 _caseId,\r\n        uint32[] memory _itemIds,\r\n        string memory _handlerName,\r\n        string memory _organizationName\r\n    ) public {\r\n        for (uint i = 0; i < _itemIds.length; i++) {\r\n            require(\r\n                !evidenceExists[_itemIds[i]],\r\n                \"Evidence item ID must be unique\"\r\n            );\r\n            addBlock(\r\n                _caseId,\r\n                _itemIds[i],\r\n                \"CHECKEDIN\",\r\n                _handlerName,\r\n                _organizationName,\r\n                \"\",\r\n                \"\"\r\n            );\r\n        }\r\n    }\r\n\r\n    // Updated function to accept string parameters\r\n    function addBlock(\r\n        uint128 _caseId,\r\n        uint32 _evidenceItemId,\r\n        string memory _state,\r\n        string memory _handlerName,\r\n        string memory _organizationName,\r\n        string memory _reason,\r\n        bytes memory _data\r\n    ) private {\r\n        bytes32 previousHash = blockchain.length > 0\r\n            ? getLatestBlockHash()\r\n            : bytes32(0);\r\n        uint64 timestamp = uint64(block.timestamp);\r\n        uint32 dataLength = uint32(_data.length);\r\n\r\n        Block memory newBlock = Block(\r\n            previousHash,\r\n            timestamp,\r\n            _caseId,\r\n            _evidenceItemId,\r\n            _state,\r\n            _handlerName,\r\n            _organizationName,\r\n            _reason,\r\n            dataLength,\r\n            _data\r\n        );\r\n\r\n        blockchain.push(newBlock);\r\n        evidenceExists[_evidenceItemId] = true;\r\n\r\n        emit EvidenceItemAdded(\r\n            _caseId,\r\n            _evidenceItemId,\r\n            timestamp,\r\n            _state,\r\n            _handlerName,\r\n            _organizationName\r\n        );\r\n    }\r\n\r\n    function getLatestBlockHash() private view returns (bytes32) {\r\n        Block storage lastBlock = blockchain[blockchain.length - 1];\r\n        return\r\n            keccak256(\r\n                abi.encodePacked(\r\n                    lastBlock.previousHash,\r\n                    lastBlock.timestamp,\r\n                    lastBlock.caseId,\r\n                    lastBlock.evidenceItemId,\r\n                    lastBlock.state,\r\n                    lastBlock.handlerName,\r\n                    lastBlock.organizationName,\r\n                    lastBlock.dataLength,\r\n                    lastBlock.data\r\n                )\r\n            );\r\n    }\r\n\r\n    event EvidenceItemCheckedOut(\r\n        uint128 indexed caseId,\r\n        uint32 indexed evidenceItemId,\r\n        string handlerName,\r\n        string organizationName,\r\n        uint64 timestamp,\r\n        string state\r\n    );\r\n\r\n    function checkoutEvidenceItem(uint32 _evidenceItemId, string memory _handlerName, string memory _organizationName) public {\r\n        require(\r\n            evidenceExists[_evidenceItemId],\r\n            \"Error: Evidence item does not exist.\"\r\n        );\r\n        Block storage lastBlock = blockchain[blockchain.length - 1];\r\n        require(\r\n            lastBlock.evidenceItemId == _evidenceItemId,\r\n            \"Error: Wrong evidence item.\"\r\n        );\r\n        require(\r\n            keccak256(abi.encodePacked(lastBlock.state)) !=\r\n                keccak256(abi.encodePacked(\"CHECKEDOUT\")),\r\n            \"Error: Cannot check out a checked out item. Must check it in first.\"\r\n        );\r\n\r\n        // Assuming 'addBlock' function updates the state and creates a new block in the blockchain\r\n        addBlock(\r\n            lastBlock.caseId,\r\n            _evidenceItemId,\r\n            \"CHECKEDOUT\",\r\n            lastBlock.handlerName,\r\n            lastBlock.organizationName,\r\n            \"\",\r\n            lastBlock.data\r\n        );\r\n        emit EvidenceItemCheckedOut(\r\n            lastBlock.caseId,\r\n            _evidenceItemId,\r\n            _handlerName,\r\n            _organizationName,\r\n            uint64(block.timestamp),\r\n            \"CHECKEDOUT\"\r\n        );\r\n    }\r\n\r\n    event EvidenceItemCheckedIn(\r\n        uint128 caseId,\r\n        uint32 evidenceItemId,\r\n        uint64 timestamp,\r\n        string state,\r\n        string handlerName,\r\n        string organizationName\r\n    );\r\n\r\n    function checkinEvidenceItem(\r\n        uint32 _evidenceItemId,\r\n        string memory _handlerName,\r\n        string memory _organizationName\r\n        \r\n    ) public {\r\n        require(\r\n            evidenceExists[_evidenceItemId],\r\n            \"Error: Evidence item does not exist.\"\r\n        );\r\n\r\n        // Check if the item is not already checked in\r\n        Block storage lastBlock = blockchain[blockchain.length - 1];\r\n        require(\r\n            keccak256(abi.encodePacked(lastBlock.state)) !=\r\n                keccak256(abi.encodePacked(\"CHECKEDIN\")),\r\n            \"Error: Cannot check out a checked out item. Must check it in first.\"\r\n        );\r\n\r\n        // Add a new block for checkin\r\n        addBlock(\r\n            lastBlock.caseId,\r\n            _evidenceItemId,\r\n            \"CHECKEDIN\",\r\n            _handlerName,\r\n            _organizationName,\r\n            \"\",\r\n            lastBlock.data\r\n        );\r\n        emit EvidenceItemCheckedIn(\r\n            lastBlock.caseId,\r\n            _evidenceItemId,\r\n            uint64(block.timestamp),\r\n            \"CHECKEDIN\",\r\n            _handlerName,\r\n            _organizationName\r\n        );\r\n    }\r\n\r\n    function getCases() public view returns (uint128[] memory) {\r\n        uint128[] memory cases = new uint128[](blockchain.length);\r\n        uint count = 0;\r\n\r\n        for (uint i = 0; i < blockchain.length; i++) {\r\n            bool exists = false;\r\n            for (uint j = 0; j < count; j++) {\r\n                if (cases[j] == blockchain[i].caseId) {\r\n                    exists = true;\r\n                    break;\r\n                }\r\n            }\r\n            if (!exists) {\r\n                cases[count] = blockchain[i].caseId;\r\n                count++;\r\n            }\r\n        }\r\n\r\n        // Resize the array to fit the actual number of unique cases\r\n        uint128[] memory uniqueCases = new uint128[](count);\r\n        for (uint i = 0; i < count; i++) {\r\n            uniqueCases[i] = cases[i];\r\n        }\r\n\r\n        return uniqueCases;\r\n    }\r\n\r\n    function getItemsForCase(\r\n        uint128 _caseId\r\n    ) public view returns (uint32[] memory) {\r\n        uint32[] memory itemsTemp = new uint32[](blockchain.length);\r\n        uint count = 0;\r\n\r\n        for (uint i = 0; i < blockchain.length; i++) {\r\n            if (blockchain[i].caseId == _caseId) {\r\n                itemsTemp[count] = blockchain[i].evidenceItemId;\r\n                count++;\r\n            }\r\n        }\r\n\r\n        // Resize the array to fit the actual number of items for the case\r\n        uint32[] memory items = new uint32[](count);\r\n        for (uint i = 0; i < count; i++) {\r\n            items[i] = itemsTemp[i];\r\n        }\r\n\r\n        return items;\r\n    }\r\n\r\n    struct BlockInfo {\r\n        uint64 timestamp;\r\n        string handlerName;\r\n        string state;\r\n    }\r\n\r\n    function getItemHistory(\r\n        uint32 _itemId\r\n    ) public view returns (BlockInfo[] memory) {\r\n        BlockInfo[] memory history = new BlockInfo[](blockchain.length);\r\n        uint count = 0;\r\n\r\n        for (uint i = 0; i < blockchain.length; i++) {\r\n            if (blockchain[i].evidenceItemId == _itemId) {\r\n                history[count] = BlockInfo(\r\n                    blockchain[i].timestamp,\r\n                    blockchain[i].handlerName,\r\n                    blockchain[i].state\r\n                );\r\n                count++;\r\n            }\r\n        }\r\n\r\n        // Resize the array to fit the actual number of entries for the item\r\n        BlockInfo[] memory itemHistory = new BlockInfo[](count);\r\n        for (uint i = 0; i < count; i++) {\r\n            itemHistory[i] = history[i];\r\n        }\r\n\r\n        return itemHistory;\r\n    }\r\n\r\n    event EvidenceItemRemoved(\r\n        uint128 caseId,\r\n        uint32 evidenceItemId,\r\n        uint64 timestamp,\r\n        string reason,\r\n        string ownerInfo\r\n    );\r\n\r\n    function removeEvidenceItem(\r\n        uint32 _evidenceItemId,\r\n        string memory _reason,\r\n        string memory _ownerInfo\r\n    ) public {\r\n        require(\r\n            evidenceExists[_evidenceItemId],\r\n            \"Error: Evidence item does not exist.\"\r\n        );\r\n\r\n        Block storage lastBlock = blockchain[blockchain.length - 1];\r\n        require(\r\n            lastBlock.evidenceItemId == _evidenceItemId &&\r\n                keccak256(abi.encodePacked(lastBlock.state)) ==\r\n                keccak256(abi.encodePacked(\"CHECKEDIN\")),\r\n            \"Error: Item must be checked in to be removed.\"\r\n        );\r\n\r\n        // Assuming 'addBlock' function updates the state and creates a new block in the blockchain\r\n        addBlock(\r\n            lastBlock.caseId,\r\n            _evidenceItemId,\r\n            _reason, // Include _reason in the call\r\n            lastBlock.handlerName,\r\n            lastBlock.organizationName,\r\n            _ownerInfo, // Include _ownerInfo\r\n            lastBlock.data\r\n        );\r\n\r\n        emit EvidenceItemRemoved(\r\n            lastBlock.caseId,\r\n            _evidenceItemId,\r\n            uint64(block.timestamp),\r\n            _reason,\r\n            _ownerInfo\r\n        );\r\n    }\r\n}\r\n",
  "sourcePath": "C:\\Users\\ASUS\\Dropbox (ASU)\\MS ASU\\CSE 469 CNF\\GROUP PROJECT\\kuchbi\\blockchain_chain_of_custody\\chain_of_custody\\contracts\\ChainOfCustody.sol",
  "compiler": {
    "name": "solc",
    "version": "0.8.0+commit.c7dfd78e.Emscripten.clang"
  },
  "schemaVersion": "3.4.16",
  "updatedAt": "2023-11-26T08:10:10.422Z",
  "networkType": "ethereum",
  "devdoc": {
    "kind": "dev",
    "methods": {},
    "version": 1
  },
  "userdoc": {
    "kind": "user",
    "methods": {},
    "version": 1
  }
}