{
  "contractName": "ChainOfCustody",
  "abi": [
    {
      "anonymous": false,
      "inputs": [
        {
          "indexed": true,
          "internalType": "uint128",
          "name": "caseId",
          "type": "uint128"
        },
        {
          "indexed": true,
          "internalType": "uint32",
          "name": "evidenceItemId",
          "type": "uint32"
        },
        {
          "indexed": false,
          "internalType": "uint64",
          "name": "timestamp",
          "type": "uint64"
        },
        {
          "indexed": false,
          "internalType": "string",
          "name": "state",
          "type": "string"
        },
        {
          "indexed": false,
          "internalType": "string",
          "name": "handlerName",
          "type": "string"
        },
        {
          "indexed": false,
          "internalType": "string",
          "name": "organizationName",
          "type": "string"
        }
      ],
      "name": "EvidenceItemAdded",
      "type": "event"
    },
    {
      "anonymous": false,
      "inputs": [
        {
          "indexed": true,
          "internalType": "uint128",
          "name": "caseId",
          "type": "uint128"
        },
        {
          "indexed": true,
          "internalType": "uint32",
          "name": "evidenceItemId",
          "type": "uint32"
        },
        {
          "indexed": false,
          "internalType": "uint64",
          "name": "timestamp",
          "type": "uint64"
        },
        {
          "indexed": false,
          "internalType": "string",
          "name": "state",
          "type": "string"
        },
        {
          "indexed": false,
          "internalType": "string",
          "name": "handlerName",
          "type": "string"
        },
        {
          "indexed": false,
          "internalType": "string",
          "name": "organizationName",
          "type": "string"
        }
      ],
      "name": "EvidenceItemCheckedIn",
      "type": "event"
    },
    {
      "anonymous": false,
      "inputs": [
        {
          "indexed": true,
          "internalType": "uint128",
          "name": "caseId",
          "type": "uint128"
        },
        {
          "indexed": true,
          "internalType": "uint32",
          "name": "evidenceItemId",
          "type": "uint32"
        },
        {
          "indexed": false,
          "internalType": "string",
          "name": "handlerName",
          "type": "string"
        },
        {
          "indexed": false,
          "internalType": "string",
          "name": "organizationName",
          "type": "string"
        },
        {
          "indexed": false,
          "internalType": "uint64",
          "name": "timestamp",
          "type": "uint64"
        },
        {
          "indexed": false,
          "internalType": "string",
          "name": "state",
          "type": "string"
        }
      ],
      "name": "EvidenceItemCheckedOut",
      "type": "event"
    },
    {
      "anonymous": false,
      "inputs": [
        {
          "indexed": false,
          "internalType": "uint128",
          "name": "caseId",
          "type": "uint128"
        },
        {
          "indexed": false,
          "internalType": "uint32",
          "name": "evidenceItemId",
          "type": "uint32"
        },
        {
          "indexed": false,
          "internalType": "uint64",
          "name": "timestamp",
          "type": "uint64"
        },
        {
          "indexed": false,
          "internalType": "string",
          "name": "state",
          "type": "string"
        },
        {
          "indexed": false,
          "internalType": "string",
          "name": "reason",
          "type": "string"
        },
        {
          "indexed": false,
          "internalType": "string",
          "name": "ownerInfo",
          "type": "string"
        }
      ],
      "name": "EvidenceItemRemoved",
      "type": "event"
    },
    {
      "inputs": [
        {
          "internalType": "uint256",
          "name": "",
          "type": "uint256"
        }
      ],
      "name": "blockchain",
      "outputs": [
        {
          "internalType": "bytes32",
          "name": "previousHash",
          "type": "bytes32"
        },
        {
          "internalType": "uint64",
          "name": "timestamp",
          "type": "uint64"
        },
        {
          "internalType": "uint128",
          "name": "caseId",
          "type": "uint128"
        },
        {
          "internalType": "uint32",
          "name": "evidenceItemId",
          "type": "uint32"
        },
        {
          "internalType": "string",
          "name": "state",
          "type": "string"
        },
        {
          "internalType": "string",
          "name": "handlerName",
          "type": "string"
        },
        {
          "internalType": "string",
          "name": "organizationName",
          "type": "string"
        },
        {
          "internalType": "string",
          "name": "reason",
          "type": "string"
        },
        {
          "internalType": "string",
          "name": "ownerInfo",
          "type": "string"
        },
        {
          "internalType": "uint32",
          "name": "dataLength",
          "type": "uint32"
        },
        {
          "internalType": "bytes",
          "name": "data",
          "type": "bytes"
        }
      ],
      "stateMutability": "view",
      "type": "function",
      "constant": true
    },
    {
      "inputs": [
        {
          "internalType": "uint32",
          "name": "",
          "type": "uint32"
        }
      ],
      "name": "evidenceExists",
      "outputs": [
        {
          "internalType": "bool",
          "name": "",
          "type": "bool"
        }
      ],
      "stateMutability": "view",
      "type": "function",
      "constant": true
    },
    {
      "inputs": [
        {
          "internalType": "uint128",
          "name": "_caseId",
          "type": "uint128"
        },
        {
          "internalType": "uint32[]",
          "name": "_itemIds",
          "type": "uint32[]"
        },
        {
          "internalType": "string",
          "name": "_handlerName",
          "type": "string"
        },
        {
          "internalType": "string",
          "name": "_organizationName",
          "type": "string"
        }
      ],
      "name": "addEvidenceItems",
      "outputs": [],
      "stateMutability": "nonpayable",
      "type": "function"
    },
    {
      "inputs": [
        {
          "internalType": "uint128",
          "name": "_caseId",
          "type": "uint128"
        },
        {
          "internalType": "uint32",
          "name": "_evidenceItemId",
          "type": "uint32"
        },
        {
          "internalType": "string",
          "name": "_state",
          "type": "string"
        },
        {
          "internalType": "string",
          "name": "_handlerName",
          "type": "string"
        },
        {
          "internalType": "string",
          "name": "_organizationName",
          "type": "string"
        },
        {
          "internalType": "string",
          "name": "_reason",
          "type": "string"
        },
        {
          "internalType": "bytes",
          "name": "_data",
          "type": "bytes"
        }
      ],
      "name": "addBlock",
      "outputs": [],
      "stateMutability": "nonpayable",
      "type": "function"
    },
    {
      "inputs": [
        {
          "internalType": "uint32",
          "name": "_evidenceItemId",
          "type": "uint32"
        },
        {
          "internalType": "string",
          "name": "_handlerName",
          "type": "string"
        },
        {
          "internalType": "string",
          "name": "_organizationName",
          "type": "string"
        }
      ],
      "name": "checkoutEvidenceItem",
      "outputs": [],
      "stateMutability": "nonpayable",
      "type": "function"
    },
    {
      "inputs": [
        {
          "internalType": "uint32",
          "name": "_evidenceItemId",
          "type": "uint32"
        },
        {
          "internalType": "string",
          "name": "_handlerName",
          "type": "string"
        },
        {
          "internalType": "string",
          "name": "_organizationName",
          "type": "string"
        }
      ],
      "name": "checkinEvidenceItem",
      "outputs": [],
      "stateMutability": "nonpayable",
      "type": "function"
    },
    {
      "inputs": [],
      "name": "getCases",
      "outputs": [
        {
          "internalType": "uint128[]",
          "name": "",
          "type": "uint128[]"
        }
      ],
      "stateMutability": "view",
      "type": "function",
      "constant": true
    },
    {
      "inputs": [
        {
          "internalType": "uint128",
          "name": "_caseId",
          "type": "uint128"
        }
      ],
      "name": "getItemsForCase",
      "outputs": [
        {
          "internalType": "uint32[]",
          "name": "",
          "type": "uint32[]"
        }
      ],
      "stateMutability": "view",
      "type": "function",
      "constant": true
    },
    {
      "inputs": [
        {
          "internalType": "uint32",
          "name": "_itemId",
          "type": "uint32"
        }
      ],
      "name": "getItemHistory",
      "outputs": [
        {
          "components": [
            {
              "internalType": "uint128",
              "name": "caseId",
              "type": "uint128"
            },
            {
              "internalType": "uint32",
              "name": "evidenceItemId",
              "type": "uint32"
            },
            {
              "internalType": "uint64",
              "name": "timestamp",
              "type": "uint64"
            },
            {
              "internalType": "string",
              "name": "state",
              "type": "string"
            },
            {
              "internalType": "string",
              "name": "handlerName",
              "type": "string"
            }
          ],
          "internalType": "struct ChainOfCustody.BlockInfo[]",
          "name": "",
          "type": "tuple[]"
        }
      ],
      "stateMutability": "view",
      "type": "function",
      "constant": true
    },
    {
      "inputs": [
        {
          "internalType": "uint32",
          "name": "_evidenceItemId",
          "type": "uint32"
        },
        {
          "internalType": "string",
          "name": "_reason",
          "type": "string"
        },
        {
          "internalType": "string",
          "name": "_ownerInfo",
          "type": "string"
        }
      ],
      "name": "removeEvidenceItem",
      "outputs": [],
      "stateMutability": "nonpayable",
      "type": "function"
    },
    {
      "inputs": [],
      "name": "getBlockCount",
      "outputs": [
        {
          "internalType": "uint256",
          "name": "",
          "type": "uint256"
        }
      ],
      "stateMutability": "view",
      "type": "function",
      "constant": true
    },
    {
      "inputs": [],
      "name": "verifyBlockchain",
      "outputs": [
        {
          "internalType": "string",
          "name": "",
          "type": "string"
        }
      ],
      "stateMutability": "view",
      "type": "function",
      "constant": true
    },
    {
      "inputs": [],
      "name": "getBadBlockInfo",
      "outputs": [
        {
          "internalType": "string",
          "name": "",
          "type": "string"
        },
        {
          "internalType": "string",
          "name": "",
          "type": "string"
        },
        {
          "internalType": "string",
          "name": "",
          "type": "string"
        }
      ],
      "stateMutability": "view",
      "type": "function",
      "constant": true
    },
    {
      "inputs": [
        {
          "internalType": "bytes",
          "name": "data",
          "type": "bytes"
        }
      ],
      "name": "bytesToHexString",
      "outputs": [
        {
          "internalType": "string",
          "name": "",
          "type": "string"
        }
      ],
      "stateMutability": "pure",
      "type": "function",
      "constant": true
    },
    {
      "inputs": [],
      "name": "getLatestBlockHash",
      "outputs": [
        {
          "internalType": "bytes32",
          "name": "",
          "type": "bytes32"
        }
      ],
      "stateMutability": "view",
      "type": "function",
      "constant": true
    }
  ],
  "bytecode": "0x608060405234801561001057600080fd5b50615396806100206000396000f3fe608060405234801561001057600080fd5b50600436106100f55760003560e01c8063b35af6c311610097578063d2bacbc811610066578063d2bacbc814610290578063e3f9c18b146102ac578063e5540e6e146102cc578063e61f36ae146102e8576100f5565b8063b35af6c3146101ec578063bfc260de1461021c578063c25b1eaf14610238578063cc0bd62e14610272576100f5565b8063458c2682116100d3578063458c2682146101525780634f54e9241461018257806354c076451461019e5780637d520c22146101bc576100f5565b8063065cb594146100fa5780631da109841461011857806342bcad2814610134575b600080fd5b610102610318565b60405161010f91906148ab565b60405180910390f35b610132600480360381019061012d9190613d55565b6106e1565b005b61013c610978565b604051610149919061490a565b60405180910390f35b61016c60048036038101906101679190613d2c565b610a83565b6040516101799190614889565b60405180910390f35b61019c60048036038101906101979190613d55565b61102b565b005b6101a6611507565b6040516101b391906149fa565b60405180910390f35b6101d660048036038101906101d19190613ad8565b61161a565b6040516101e391906149fa565b60405180910390f35b61020660048036038101906102019190613d2c565b611841565b60405161021391906148ef565b60405180910390f35b61023660048036038101906102319190613b42565b611861565b005b610252600480360381019061024d9190613d03565b611ac3565b6040516102699b9a99989796959493929190614925565b60405180910390f35b61027a611ead565b6040516102879190614c34565b60405180910390f35b6102aa60048036038101906102a59190613d55565b611eb9565b005b6102b461221c565b6040516102c393929190614a1c565b60405180910390f35b6102e660048036038101906102e19190613bed565b612c25565b005b61030260048036038101906102fd9190613b19565b612f19565b60405161030f91906148cd565b60405180910390f35b60606000808054905067ffffffffffffffff811115610360577f4e487b7100000000000000000000000000000000000000000000000000000000600052604160045260246000fd5b60405190808252806020026020018201604052801561038e5781602001602082028036833780820191505090505b5090506000805b600080549050811015610599576000805b8381101561049d57600083815481106103e8577f4e487b7100000000000000000000000000000000000000000000000000000000600052603260045260246000fd5b906000526020600020906009020160010160089054906101000a90046fffffffffffffffffffffffffffffffff166fffffffffffffffffffffffffffffffff16858281518110610461577f4e487b7100000000000000000000000000000000000000000000000000000000600052603260045260246000fd5b60200260200101516fffffffffffffffffffffffffffffffff16141561048a576001915061049d565b808061049590615149565b9150506103a6565b508061058557600082815481106104dd577f4e487b7100000000000000000000000000000000000000000000000000000000600052603260045260246000fd5b906000526020600020906009020160010160089054906101000a90046fffffffffffffffffffffffffffffffff16848481518110610544577f4e487b7100000000000000000000000000000000000000000000000000000000600052603260045260246000fd5b60200260200101906fffffffffffffffffffffffffffffffff1690816fffffffffffffffffffffffffffffffff1681525050828061058190615149565b9350505b50808061059190615149565b915050610395565b5060008167ffffffffffffffff8111156105dc577f4e487b7100000000000000000000000000000000000000000000000000000000600052604160045260246000fd5b60405190808252806020026020018201604052801561060a5781602001602082028036833780820191505090505b50905060005b828110156106d757838181518110610651577f4e487b7100000000000000000000000000000000000000000000000000000000600052603260045260246000fd5b6020026020010151828281518110610692577f4e487b7100000000000000000000000000000000000000000000000000000000600052603260045260246000fd5b60200260200101906fffffffffffffffffffffffffffffffff1690816fffffffffffffffffffffffffffffffff168152505080806106cf90615149565b915050610610565b5080935050505090565b600160008463ffffffff1663ffffffff16815260200190815260200160002060009054906101000a900460ff1661074d576040517f08c379a000000000000000000000000000000000000000000000000000000000815260040161074490614ba0565b60405180910390fd5b6000808060008054905090505b600081111561087957600080600183610773919061500a565b815481106107aa577f4e487b7100000000000000000000000000000000000000000000000000000000600052603260045260246000fd5b906000526020600020906009020190508663ffffffff168160010160189054906101000a900463ffffffff1663ffffffff161415610865576040516020016107f190614874565b604051602081830303815290604052805190602001208160020160405160200161081b9190614833565b60405160208183030381529060405280519060200120141561086457600193508060010160089054906101000a90046fffffffffffffffffffffffffffffffff16925050610879565b5b508080610871906150ed565b91505061075a565b50816108ba576040517f08c379a00000000000000000000000000000000000000000000000000000000081526004016108b190614ac0565b60405180910390fd5b61091c81866040518060400160405280600981526020017f434845434b4544494e000000000000000000000000000000000000000000000081525087876040518060200160405280600081525060405180602001604052806000815250612c25565b8463ffffffff16816fffffffffffffffffffffffffffffffff167f44d659db232b167aceca42204e10ebf4f34fe865b7f8911e56bb7e4fe141eb2442878760405161096993929190614ca9565b60405180910390a35050505050565b6000806000600160008054905061098f919061500a565b815481106109c6577f4e487b7100000000000000000000000000000000000000000000000000000000600052603260045260246000fd5b9060005260206000209060090201905080600001548160010160009054906101000a900467ffffffffffffffff168260010160089054906101000a90046fffffffffffffffffffffffffffffffff168360010160189054906101000a900463ffffffff168460020185600301866004018760070160009054906101000a900463ffffffff1688600801604051602001610a67999897969594939291906147a0565b6040516020818303038152906040528051906020012091505090565b60606000808054905067ffffffffffffffff811115610acb577f4e487b7100000000000000000000000000000000000000000000000000000000600052604160045260246000fd5b604051908082528060200260200182016040528015610b0457816020015b610af16137b9565b815260200190600190039081610ae95790505b5090506000805b600080549050811015610efd578463ffffffff1660008281548110610b59577f4e487b7100000000000000000000000000000000000000000000000000000000600052603260045260246000fd5b906000526020600020906009020160010160189054906101000a900463ffffffff1663ffffffff161415610eea576040518060a0016040528060008381548110610bcc577f4e487b7100000000000000000000000000000000000000000000000000000000600052603260045260246000fd5b906000526020600020906009020160010160089054906101000a90046fffffffffffffffffffffffffffffffff166fffffffffffffffffffffffffffffffff16815260200160008381548110610c4b577f4e487b7100000000000000000000000000000000000000000000000000000000600052603260045260246000fd5b906000526020600020906009020160010160189054906101000a900463ffffffff1663ffffffff16815260200160008381548110610cb2577f4e487b7100000000000000000000000000000000000000000000000000000000600052603260045260246000fd5b906000526020600020906009020160010160009054906101000a900467ffffffffffffffff1667ffffffffffffffff16815260200160008381548110610d21577f4e487b7100000000000000000000000000000000000000000000000000000000600052603260045260246000fd5b90600052602060002090600902016002018054610d3d90615117565b80601f0160208091040260200160405190810160405280929190818152602001828054610d6990615117565b8015610db65780601f10610d8b57610100808354040283529160200191610db6565b820191906000526020600020905b815481529060010190602001808311610d9957829003601f168201915b5050505050815260200160008381548110610dfa577f4e487b7100000000000000000000000000000000000000000000000000000000600052603260045260246000fd5b90600052602060002090600902016003018054610e1690615117565b80601f0160208091040260200160405190810160405280929190818152602001828054610e4290615117565b8015610e8f5780601f10610e6457610100808354040283529160200191610e8f565b820191906000526020600020905b815481529060010190602001808311610e7257829003601f168201915b5050505050815250838381518110610ed0577f4e487b7100000000000000000000000000000000000000000000000000000000600052603260045260246000fd5b60200260200101819052508180610ee690615149565b9250505b8080610ef590615149565b915050610b0b565b5060008167ffffffffffffffff811115610f40577f4e487b7100000000000000000000000000000000000000000000000000000000600052604160045260246000fd5b604051908082528060200260200182016040528015610f7957816020015b610f666137b9565b815260200190600190039081610f5e5790505b50905060005b8281101561101f57838181518110610fc0577f4e487b7100000000000000000000000000000000000000000000000000000000600052603260045260246000fd5b6020026020010151828281518110611001577f4e487b7100000000000000000000000000000000000000000000000000000000600052603260045260246000fd5b6020026020010181905250808061101790615149565b915050610f7f565b50809350505050919050565b600160008463ffffffff1663ffffffff16815260200190815260200160002060009054906101000a900460ff16611097576040517f08c379a000000000000000000000000000000000000000000000000000000000815260040161108e90614ba0565b60405180910390fd5b60008060016000805490506110ac919061500a565b815481106110e3577f4e487b7100000000000000000000000000000000000000000000000000000000600052603260045260246000fd5b906000526020600020906009020190508363ffffffff168160010160189054906101000a900463ffffffff1663ffffffff1614611155576040517f08c379a000000000000000000000000000000000000000000000000000000000815260040161114c90614b20565b60405180910390fd5b60405160200161116490614874565b604051602081830303815290604052805190602001208160020160405160200161118e9190614833565b6040516020818303038152906040528051906020012014156111e5576040517f08c379a00000000000000000000000000000000000000000000000000000000081526004016111dc90614b00565b60405180910390fd5b6040516020016111f49061485f565b604051602081830303815290604052805190602001208160020160405160200161121e9190614833565b604051602081830303815290604052805190602001201415611275576040517f08c379a000000000000000000000000000000000000000000000000000000000815260040161126c90614b40565b60405180910390fd5b61148c8160010160089054906101000a90046fffffffffffffffffffffffffffffffff16856040518060400160405280600a81526020017f434845434b45444f5554000000000000000000000000000000000000000000008152508460030180546112df90615117565b80601f016020809104026020016040519081016040528092919081815260200182805461130b90615117565b80156113585780601f1061132d57610100808354040283529160200191611358565b820191906000526020600020905b81548152906001019060200180831161133b57829003601f168201915b505050505085600401805461136c90615117565b80601f016020809104026020016040519081016040528092919081815260200182805461139890615117565b80156113e55780601f106113ba576101008083540402835291602001916113e5565b820191906000526020600020905b8154815290600101906020018083116113c857829003601f168201915b50505050506040518060200160405280600081525087600801805461140990615117565b80601f016020809104026020016040519081016040528092919081815260200182805461143590615117565b80156114825780601f1061145757610100808354040283529160200191611482565b820191906000526020600020905b81548152906001019060200180831161146557829003601f168201915b5050505050612c25565b8363ffffffff168160010160089054906101000a90046fffffffffffffffffffffffffffffffff166fffffffffffffffffffffffffffffffff167f8d091e6724281a24ed036e6fc30d2d911d68131901cf4e8e63b0ac0247f5047d8585426040516114f993929190614a68565b60405180910390a350505050565b60606000611513611ead565b90506000600190505b818110156115dc57611539600182611534919061500a565b613239565b60008281548110611573577f4e487b7100000000000000000000000000000000000000000000000000000000600052603260045260246000fd5b906000526020600020906009020160000154146115c9576040518060400160405280600581526020017f4552524f5200000000000000000000000000000000000000000000000000000081525092505050611617565b80806115d490615149565b91505061151c565b506040518060400160405280600581526020017f434c45414e0000000000000000000000000000000000000000000000000000008152509150505b90565b606060008251600261162c9190614fb0565b67ffffffffffffffff81111561166b577f4e487b7100000000000000000000000000000000000000000000000000000000600052604160045260246000fd5b6040519080825280601f01601f19166020018201604052801561169d5781602001600182028036833780820191505090505b50905060005b83518110156118375760008482815181106116e7577f4e487b7100000000000000000000000000000000000000000000000000000000600052603260045260246000fd5b602001015160f81c60f81b60f81c905060306010826117069190614f7f565b6117109190614f48565b60f81b838360026117219190614fb0565b81518110611758577f4e487b7100000000000000000000000000000000000000000000000000000000600052603260045260246000fd5b60200101907effffffffffffffffffffffffffffffffffffffffffffffffffffffffffffff1916908160001a905350603060108261179691906151d2565b6117a09190614f48565b60f81b8360018460026117b39190614fb0565b6117bd9190614ef2565b815181106117f4577f4e487b7100000000000000000000000000000000000000000000000000000000600052603260045260246000fd5b60200101907effffffffffffffffffffffffffffffffffffffffffffffffffffffffffffff1916908160001a90535050808061182f90615149565b9150506116a3565b5080915050919050565b60016020528060005260406000206000915054906101000a900460ff1681565b6000806001600080549050611876919061500a565b815481106118ad577f4e487b7100000000000000000000000000000000000000000000000000000000600052603260045260246000fd5b9060005260206000209060090201905060005b8451811015611abb5760016000868381518110611906577f4e487b7100000000000000000000000000000000000000000000000000000000600052603260045260246000fd5b602002602001015163ffffffff1663ffffffff16815260200190815260200160002060009054906101000a900460ff1615611976576040517f08c379a000000000000000000000000000000000000000000000000000000000815260040161196d90614b60565b60405180910390fd5b6040516020016119859061485f565b60405160208183030381529060405280519060200120826002016040516020016119af9190614833565b604051602081830303815290604052805190602001201415611a06576040517f08c379a00000000000000000000000000000000000000000000000000000000081526004016119fd90614b40565b60405180910390fd5b611aa886868381518110611a43577f4e487b7100000000000000000000000000000000000000000000000000000000600052603260045260246000fd5b60200260200101516040518060400160405280600981526020017f434845434b4544494e000000000000000000000000000000000000000000000081525087876040518060200160405280600081525060405180602001604052806000815250612c25565b8080611ab390615149565b9150506118c0565b505050505050565b60008181548110611ad357600080fd5b90600052602060002090600902016000915090508060000154908060010160009054906101000a900467ffffffffffffffff16908060010160089054906101000a90046fffffffffffffffffffffffffffffffff16908060010160189054906101000a900463ffffffff1690806002018054611b4e90615117565b80601f0160208091040260200160405190810160405280929190818152602001828054611b7a90615117565b8015611bc75780601f10611b9c57610100808354040283529160200191611bc7565b820191906000526020600020905b815481529060010190602001808311611baa57829003601f168201915b505050505090806003018054611bdc90615117565b80601f0160208091040260200160405190810160405280929190818152602001828054611c0890615117565b8015611c555780601f10611c2a57610100808354040283529160200191611c55565b820191906000526020600020905b815481529060010190602001808311611c3857829003601f168201915b505050505090806004018054611c6a90615117565b80601f0160208091040260200160405190810160405280929190818152602001828054611c9690615117565b8015611ce35780601f10611cb857610100808354040283529160200191611ce3565b820191906000526020600020905b815481529060010190602001808311611cc657829003601f168201915b505050505090806005018054611cf890615117565b80601f0160208091040260200160405190810160405280929190818152602001828054611d2490615117565b8015611d715780601f10611d4657610100808354040283529160200191611d71565b820191906000526020600020905b815481529060010190602001808311611d5457829003601f168201915b505050505090806006018054611d8690615117565b80601f0160208091040260200160405190810160405280929190818152602001828054611db290615117565b8015611dff5780601f10611dd457610100808354040283529160200191611dff565b820191906000526020600020905b815481529060010190602001808311611de257829003601f168201915b5050505050908060070160009054906101000a900463ffffffff1690806008018054611e2a90615117565b80601f0160208091040260200160405190810160405280929190818152602001828054611e5690615117565b8015611ea35780601f10611e7857610100808354040283529160200191611ea3565b820191906000526020600020905b815481529060010190602001808311611e8657829003601f168201915b505050505090508b565b60008080549050905090565b600160008463ffffffff1663ffffffff16815260200190815260200160002060009054906101000a900460ff16611f25576040517f08c379a0000000000000000000000000000000000000000000000000000000008152600401611f1c90614ba0565b60405180910390fd5b6000806001600080549050611f3a919061500a565b81548110611f71577f4e487b7100000000000000000000000000000000000000000000000000000000600052603260045260246000fd5b906000526020600020906009020190508363ffffffff168160010160189054906101000a900463ffffffff1663ffffffff16148015611ffc5750604051602001611fba9061484a565b6040516020818303038152906040528051906020012081600201604051602001611fe49190614833565b60405160208183030381529060405280519060200120145b61203b576040517f08c379a000000000000000000000000000000000000000000000000000000000815260040161203290614ae0565b60405180910390fd5b6121b78160010160089054906101000a90046fffffffffffffffffffffffffffffffff16856040518060400160405280600881526020017f52454c4541534544000000000000000000000000000000000000000000000000815250868560030180546120a690615117565b80601f01602080910402602001604051908101604052809291908181526020018280546120d290615117565b801561211f5780601f106120f45761010080835404028352916020019161211f565b820191906000526020600020905b81548152906001019060200180831161210257829003601f168201915b505050505086600401805461213390615117565b80601f016020809104026020016040519081016040528092919081815260200182805461215f90615117565b80156121ac5780601f10612181576101008083540402835291602001916121ac565b820191906000526020600020905b81548152906001019060200180831161218f57829003601f168201915b505050505088612c25565b7f24bd21991d0b6494e1c76da1c49ea1d4508956d6e6eda1f700ad7d3c7fc073fa8160010160089054906101000a90046fffffffffffffffffffffffffffffffff168542868660405161220e959493929190614bc0565b60405180910390a150505050565b6060806060600061222b611ead565b90506000600190505b81811015612be75761225160018261224c919061500a565b613239565b6000828154811061228b577f4e487b7100000000000000000000000000000000000000000000000000000000600052603260045260246000fd5b90600052602060002090600902016000015414612356576122f6600082815481106122df577f4e487b7100000000000000000000000000000000000000000000000000000000600052603260045260246000fd5b906000526020600020906009020160000154613722565b61231361230e600184612309919061500a565b613239565b613722565b6040518060400160405280601081526020017f504152454e545f4e4f545f464f554e44000000000000000000000000000000008152509450945094505050612c20565b60018111801561240757506000600282612370919061500a565b815481106123a7577f4e487b7100000000000000000000000000000000000000000000000000000000600052603260045260246000fd5b906000526020600020906009020160000154600082815481106123f3577f4e487b7100000000000000000000000000000000000000000000000000000000600052603260045260246000fd5b906000526020600020906009020160000154145b156125035761246060008281548110612449577f4e487b7100000000000000000000000000000000000000000000000000000000600052603260045260246000fd5b906000526020600020906009020160000154613722565b6124c06000600284612472919061500a565b815481106124a9577f4e487b7100000000000000000000000000000000000000000000000000000000600052603260045260246000fd5b906000526020600020906009020160000154613722565b6040518060400160405280601081526020017f4455504c49434154455f504152454e54000000000000000000000000000000008152509450945094505050612c20565b600061299f60008381548110612542577f4e487b7100000000000000000000000000000000000000000000000000000000600052603260045260246000fd5b906000526020600020906009020160405180610160016040529081600082015481526020016001820160009054906101000a900467ffffffffffffffff1667ffffffffffffffff1667ffffffffffffffff1681526020016001820160089054906101000a90046fffffffffffffffffffffffffffffffff166fffffffffffffffffffffffffffffffff166fffffffffffffffffffffffffffffffff1681526020016001820160189054906101000a900463ffffffff1663ffffffff1663ffffffff16815260200160028201805461261890615117565b80601f016020809104026020016040519081016040528092919081815260200182805461264490615117565b80156126915780601f1061266657610100808354040283529160200191612691565b820191906000526020600020905b81548152906001019060200180831161267457829003601f168201915b505050505081526020016003820180546126aa90615117565b80601f01602080910402602001604051908101604052809291908181526020018280546126d690615117565b80156127235780601f106126f857610100808354040283529160200191612723565b820191906000526020600020905b81548152906001019060200180831161270657829003601f168201915b5050505050815260200160048201805461273c90615117565b80601f016020809104026020016040519081016040528092919081815260200182805461276890615117565b80156127b55780601f1061278a576101008083540402835291602001916127b5565b820191906000526020600020905b81548152906001019060200180831161279857829003601f168201915b505050505081526020016005820180546127ce90615117565b80601f01602080910402602001604051908101604052809291908181526020018280546127fa90615117565b80156128475780601f1061281c57610100808354040283529160200191612847565b820191906000526020600020905b81548152906001019060200180831161282a57829003601f168201915b5050505050815260200160068201805461286090615117565b80601f016020809104026020016040519081016040528092919081815260200182805461288c90615117565b80156128d95780601f106128ae576101008083540402835291602001916128d9565b820191906000526020600020905b8154815290600101906020018083116128bc57829003601f168201915b505050505081526020016007820160009054906101000a900463ffffffff1663ffffffff1663ffffffff16815260200160088201805461291890615117565b80601f016020809104026020016040519081016040528092919081815260200182805461294490615117565b80156129915780601f1061296657610100808354040283529160200191612991565b820191906000526020600020905b81548152906001019060200180831161297457829003601f168201915b505050505081525050613753565b905080600083815481106129dc577f4e487b7100000000000000000000000000000000000000000000000000000000600052603260045260246000fd5b90600052602060002090600902016000015414612a9457612a4760008381548110612a30577f4e487b7100000000000000000000000000000000000000000000000000000000600052603260045260246000fd5b906000526020600020906009020160000154613722565b612a5082613722565b6040518060400160405280601081526020017f434f4e54454e545f4d49534d4154434800000000000000000000000000000000815250955095509550505050612c20565b604051602001612aa390614874565b6040516020818303038152906040528051906020012060008381548110612af3577f4e487b7100000000000000000000000000000000000000000000000000000000600052603260045260246000fd5b9060005260206000209060090201600201604051602001612b149190614833565b60405160208183030381529060405280519060200120148015612b425750600183612b3f919061500a565b82105b15612bd357612b9b60008381548110612b84577f4e487b7100000000000000000000000000000000000000000000000000000000600052603260045260246000fd5b906000526020600020906009020160000154613722565b612bac612ba784613239565b613722565b60405180606001604052806024815260200161533d60249139955095509550505050612c20565b508080612bdf90615149565b915050612234565b50604051806020016040528060008152506040518060200160405280600081525060405180602001604052806000815250935093509350505b909192565b60008060008054905011612c3c576000801b612c45565b612c44610978565b5b9050600042905060008351905060006040518061016001604052808581526020018467ffffffffffffffff1681526020018c6fffffffffffffffffffffffffffffffff1681526020018b63ffffffff1681526020018a81526020018981526020018881526020018781526020016040518060200160405280600081525081526020018363ffffffff16815260200186815250905060008190806001815401808255809150506001900390600052602060002090600902016000909190919091506000820151816000015560208201518160010160006101000a81548167ffffffffffffffff021916908367ffffffffffffffff16021790555060408201518160010160086101000a8154816fffffffffffffffffffffffffffffffff02191690836fffffffffffffffffffffffffffffffff16021790555060608201518160010160186101000a81548163ffffffff021916908363ffffffff1602179055506080820151816002019080519060200190612dc092919061380a565b5060a0820151816003019080519060200190612ddd92919061380a565b5060c0820151816004019080519060200190612dfa92919061380a565b5060e0820151816005019080519060200190612e1792919061380a565b50610100820151816006019080519060200190612e3592919061380a565b506101208201518160070160006101000a81548163ffffffff021916908363ffffffff160217905550610140820151816008019080519060200190612e7b929190613890565b50505060018060008c63ffffffff1663ffffffff16815260200190815260200160002060006101000a81548160ff0219169083151502179055508963ffffffff168b6fffffffffffffffffffffffffffffffff167f33a1c1a3b9a16d06083c74dc302e2fcc5be80f5e5aa2ae9a270c78f82731b11b858c8c8c604051612f049493929190614c4f565b60405180910390a35050505050505050505050565b60606000808054905067ffffffffffffffff811115612f61577f4e487b7100000000000000000000000000000000000000000000000000000000600052604160045260246000fd5b604051908082528060200260200182016040528015612f8f5781602001602082028036833780820191505090505b5090506000805b60008054905081101561310757846fffffffffffffffffffffffffffffffff1660008281548110612ff0577f4e487b7100000000000000000000000000000000000000000000000000000000600052603260045260246000fd5b906000526020600020906009020160010160089054906101000a90046fffffffffffffffffffffffffffffffff166fffffffffffffffffffffffffffffffff1614156130f45760008181548110613070577f4e487b7100000000000000000000000000000000000000000000000000000000600052603260045260246000fd5b906000526020600020906009020160010160189054906101000a900463ffffffff168383815181106130cb577f4e487b7100000000000000000000000000000000000000000000000000000000600052603260045260246000fd5b602002602001019063ffffffff16908163ffffffff168152505081806130f090615149565b9250505b80806130ff90615149565b915050612f96565b5060008167ffffffffffffffff81111561314a577f4e487b7100000000000000000000000000000000000000000000000000000000600052604160045260246000fd5b6040519080825280602002602001820160405280156131785781602001602082028036833780820191505090505b50905060005b8281101561322d578381815181106131bf577f4e487b7100000000000000000000000000000000000000000000000000000000600052603260045260246000fd5b6020026020010151828281518110613200577f4e487b7100000000000000000000000000000000000000000000000000000000600052603260045260246000fd5b602002602001019063ffffffff16908163ffffffff1681525050808061322590615149565b91505061317e565b50809350505050919050565b600080805490508210613281576040517f08c379a000000000000000000000000000000000000000000000000000000000815260040161327890614b80565b60405180910390fd5b61371b600083815481106132be577f4e487b7100000000000000000000000000000000000000000000000000000000600052603260045260246000fd5b906000526020600020906009020160405180610160016040529081600082015481526020016001820160009054906101000a900467ffffffffffffffff1667ffffffffffffffff1667ffffffffffffffff1681526020016001820160089054906101000a90046fffffffffffffffffffffffffffffffff166fffffffffffffffffffffffffffffffff166fffffffffffffffffffffffffffffffff1681526020016001820160189054906101000a900463ffffffff1663ffffffff1663ffffffff16815260200160028201805461339490615117565b80601f01602080910402602001604051908101604052809291908181526020018280546133c090615117565b801561340d5780601f106133e25761010080835404028352916020019161340d565b820191906000526020600020905b8154815290600101906020018083116133f057829003601f168201915b5050505050815260200160038201805461342690615117565b80601f016020809104026020016040519081016040528092919081815260200182805461345290615117565b801561349f5780601f106134745761010080835404028352916020019161349f565b820191906000526020600020905b81548152906001019060200180831161348257829003601f168201915b505050505081526020016004820180546134b890615117565b80601f01602080910402602001604051908101604052809291908181526020018280546134e490615117565b80156135315780601f1061350657610100808354040283529160200191613531565b820191906000526020600020905b81548152906001019060200180831161351457829003601f168201915b5050505050815260200160058201805461354a90615117565b80601f016020809104026020016040519081016040528092919081815260200182805461357690615117565b80156135c35780601f10613598576101008083540402835291602001916135c3565b820191906000526020600020905b8154815290600101906020018083116135a657829003601f168201915b505050505081526020016006820180546135dc90615117565b80601f016020809104026020016040519081016040528092919081815260200182805461360890615117565b80156136555780601f1061362a57610100808354040283529160200191613655565b820191906000526020600020905b81548152906001019060200180831161363857829003601f168201915b505050505081526020016007820160009054906101000a900463ffffffff1663ffffffff1663ffffffff16815260200160088201805461369490615117565b80601f01602080910402602001604051908101604052809291908181526020018280546136c090615117565b801561370d5780601f106136e25761010080835404028352916020019161370d565b820191906000526020600020905b8154815290600101906020018083116136f057829003601f168201915b505050505081525050613753565b9050919050565b606061374c8260405160200161373891906146f2565b60405160208183030381529060405261161a565b9050919050565b6000816000015182602001518360400151846060015185608001518660a001518760c0015188610120015189610140015160405160200161379c9998979695949392919061470d565b604051602081830303815290604052805190602001209050919050565b6040518060a0016040528060006fffffffffffffffffffffffffffffffff168152602001600063ffffffff168152602001600067ffffffffffffffff16815260200160608152602001606081525090565b82805461381690615117565b90600052602060002090601f016020900481019282613838576000855561387f565b82601f1061385157805160ff191683800117855561387f565b8280016001018555821561387f579182015b8281111561387e578251825591602001919060010190613863565b5b50905061388c9190613916565b5090565b82805461389c90615117565b90600052602060002090601f0160209004810192826138be5760008555613905565b82601f106138d757805160ff1916838001178555613905565b82800160010185558215613905579182015b828111156139045782518255916020019190600101906138e9565b5b5090506139129190613916565b5090565b5b8082111561392f576000816000905550600101613917565b5090565b600061394661394184614d32565b614d01565b9050808382526020820190508285602086028201111561396557600080fd5b60005b85811015613995578161397b8882613ac3565b845260208401935060208301925050600181019050613968565b5050509392505050565b60006139b26139ad84614d5e565b614d01565b9050828152602081018484840111156139ca57600080fd5b6139d58482856150ab565b509392505050565b60006139f06139eb84614d8e565b614d01565b905082815260208101848484011115613a0857600080fd5b613a138482856150ab565b509392505050565b600082601f830112613a2c57600080fd5b8135613a3c848260208601613933565b91505092915050565b600082601f830112613a5657600080fd5b8135613a6684826020860161399f565b91505092915050565b600082601f830112613a8057600080fd5b8135613a908482602086016139dd565b91505092915050565b600081359050613aa8816152f7565b92915050565b600081359050613abd8161530e565b92915050565b600081359050613ad281615325565b92915050565b600060208284031215613aea57600080fd5b600082013567ffffffffffffffff811115613b0457600080fd5b613b1084828501613a45565b91505092915050565b600060208284031215613b2b57600080fd5b6000613b3984828501613a99565b91505092915050565b60008060008060808587031215613b5857600080fd5b6000613b6687828801613a99565b945050602085013567ffffffffffffffff811115613b8357600080fd5b613b8f87828801613a1b565b935050604085013567ffffffffffffffff811115613bac57600080fd5b613bb887828801613a6f565b925050606085013567ffffffffffffffff811115613bd557600080fd5b613be187828801613a6f565b91505092959194509250565b600080600080600080600060e0888a031215613c0857600080fd5b6000613c168a828b01613a99565b9750506020613c278a828b01613ac3565b965050604088013567ffffffffffffffff811115613c4457600080fd5b613c508a828b01613a6f565b955050606088013567ffffffffffffffff811115613c6d57600080fd5b613c798a828b01613a6f565b945050608088013567ffffffffffffffff811115613c9657600080fd5b613ca28a828b01613a6f565b93505060a088013567ffffffffffffffff811115613cbf57600080fd5b613ccb8a828b01613a6f565b92505060c088013567ffffffffffffffff811115613ce857600080fd5b613cf48a828b01613a45565b91505092959891949750929550565b600060208284031215613d1557600080fd5b6000613d2384828501613aae565b91505092915050565b600060208284031215613d3e57600080fd5b6000613d4c84828501613ac3565b91505092915050565b600080600060608486031215613d6a57600080fd5b6000613d7886828701613ac3565b935050602084013567ffffffffffffffff811115613d9557600080fd5b613da186828701613a6f565b925050604084013567ffffffffffffffff811115613dbe57600080fd5b613dca86828701613a6f565b9150509250925092565b6000613de083836145c7565b905092915050565b6000613df48383614644565b60208301905092915050565b6000613e0c8383614688565b60208301905092915050565b6000613e2382614e18565b613e2d8185614e76565b935083602082028501613e3f85614dbe565b8060005b85811015613e7b5784840389528151613e5c8582613dd4565b9450613e6783614e4f565b925060208a01995050600181019050613e43565b50829750879550505050505092915050565b6000613e9882614e23565b613ea28185614e87565b9350613ead83614dce565b8060005b83811015613ede578151613ec58882613de8565b9750613ed083614e5c565b925050600181019050613eb1565b5085935050505092915050565b6000613ef682614e2e565b613f008185614e98565b9350613f0b83614dde565b8060005b83811015613f3c578151613f238882613e00565b9750613f2e83614e69565b925050600181019050613f0f565b5085935050505092915050565b613f528161503e565b82525050565b613f618161504a565b82525050565b613f78613f738261504a565b615192565b82525050565b6000613f8982614e39565b613f938185614ea9565b9350613fa38185602086016150ba565b613fac816152bf565b840191505092915050565b6000613fc282614e39565b613fcc8185614eba565b9350613fdc8185602086016150ba565b80840191505092915050565b60008154613ff581615117565b613fff8186614eba565b9450600182166000811461401a576001811461402b5761405e565b60ff1983168652818601935061405e565b61403485614dee565b60005b8381101561405657815481890152600182019150602081019050614037565b838801955050505b50505092915050565b600061407282614e44565b61407c8185614ec5565b935061408c8185602086016150ba565b614095816152bf565b840191505092915050565b60006140ab82614e44565b6140b58185614ed6565b93506140c58185602086016150ba565b6140ce816152bf565b840191505092915050565b60006140e482614e44565b6140ee8185614ee7565b93506140fe8185602086016150ba565b80840191505092915050565b6000815461411781615117565b6141218186614ee7565b9450600182166000811461413c576001811461414d57614180565b60ff19831686528186019350614180565b61415685614e03565b60005b8381101561417857815481890152600182019150602081019050614159565b838801955050505b50505092915050565b6000614196601f83614ed6565b91507f4572726f723a204974656d206973206e6f7420636865636b6564206f75742e006000830152602082019050919050565b60006141d6600983614ed6565b91507f434845434b4544494e00000000000000000000000000000000000000000000006000830152602082019050919050565b6000614216600983614ee7565b91507f434845434b4544494e00000000000000000000000000000000000000000000006000830152600982019050919050565b6000614256602d83614ed6565b91507f4572726f723a204974656d206d75737420626520636865636b656420696e207460008301527f6f2062652072656d6f7665642e000000000000000000000000000000000000006020830152604082019050919050565b60006142bc600883614ed6565b91507f52454c45415345440000000000000000000000000000000000000000000000006000830152602082019050919050565b60006142fc600883614ee7565b91507f52454c45415345440000000000000000000000000000000000000000000000006000830152600882019050919050565b600061433c600a83614ed6565b91507f434845434b45444f5554000000000000000000000000000000000000000000006000830152602082019050919050565b600061437c600a83614ee7565b91507f434845434b45444f5554000000000000000000000000000000000000000000006000830152600a82019050919050565b60006143bc604383614ed6565b91507f4572726f723a2043616e6e6f7420636865636b206f7574206120636865636b6560008301527f64206f7574206974656d2e204d75737420636865636b20697420696e2066697260208301527f73742e00000000000000000000000000000000000000000000000000000000006040830152606082019050919050565b6000614448601b83614ed6565b91507f4572726f723a2057726f6e672065766964656e6365206974656d2e00000000006000830152602082019050919050565b6000614488602783614ed6565b91507f4572726f723a2043616e6e6f7420636865636b206f757420612072656d6f766560008301527f64206974656d2e000000000000000000000000000000000000000000000000006020830152604082019050919050565b60006144ee601f83614ed6565b91507f45766964656e6365206974656d204944206d75737420626520756e69717565006000830152602082019050919050565b600061452e601383614ed6565b91507f496e646578206f7574206f6620626f756e6473000000000000000000000000006000830152602082019050919050565b600061456e602483614ed6565b91507f4572726f723a2045766964656e6365206974656d20646f6573206e6f7420657860008301527f6973742e000000000000000000000000000000000000000000000000000000006020830152604082019050919050565b600060a0830160008301516145df6000860182614644565b5060208301516145f26020860182614688565b50604083015161460560408601826146bd565b506060830151848203606086015261461d8282614067565b915050608083015184820360808601526146378282614067565b9150508091505092915050565b61464d81615054565b82525050565b61465c81615054565b82525050565b61467361466e82615054565b61519c565b82525050565b61468281615070565b82525050565b6146918161507a565b82525050565b6146a08161507a565b82525050565b6146b76146b28261507a565b6151ae565b82525050565b6146c68161508a565b82525050565b6146d58161508a565b82525050565b6146ec6146e78261508a565b6151c0565b82525050565b60006146fe8284613f67565b60208201915081905092915050565b6000614719828c613f67565b602082019150614729828b6146db565b600882019150614739828a614662565b60108201915061474982896146a6565b60048201915061475982886140d9565b915061476582876140d9565b915061477182866140d9565b915061477d82856146a6565b60048201915061478d8284613fb7565b91508190509a9950505050505050505050565b60006147ac828c613f67565b6020820191506147bc828b6146db565b6008820191506147cc828a614662565b6010820191506147dc82896146a6565b6004820191506147ec828861410a565b91506147f8828761410a565b9150614804828661410a565b915061481082856146a6565b6004820191506148208284613fe8565b91508190509a9950505050505050505050565b600061483f828461410a565b915081905092915050565b600061485582614209565b9150819050919050565b600061486a826142ef565b9150819050919050565b600061487f8261436f565b9150819050919050565b600060208201905081810360008301526148a38184613e18565b905092915050565b600060208201905081810360008301526148c58184613e8d565b905092915050565b600060208201905081810360008301526148e78184613eeb565b905092915050565b60006020820190506149046000830184613f49565b92915050565b600060208201905061491f6000830184613f58565b92915050565b60006101608201905061493b600083018e613f58565b614948602083018d6146cc565b614955604083018c614653565b614962606083018b614697565b8181036080830152614974818a6140a0565b905081810360a083015261498881896140a0565b905081810360c083015261499c81886140a0565b905081810360e08301526149b081876140a0565b90508181036101008301526149c581866140a0565b90506149d5610120830185614697565b8181036101408301526149e88184613f7e565b90509c9b505050505050505050505050565b60006020820190508181036000830152614a1481846140a0565b905092915050565b60006060820190508181036000830152614a3681866140a0565b90508181036020830152614a4a81856140a0565b90508181036040830152614a5e81846140a0565b9050949350505050565b60006080820190508181036000830152614a8281866140a0565b90508181036020830152614a9681856140a0565b9050614aa560408301846146cc565b8181036060830152614ab68161432f565b9050949350505050565b60006020820190508181036000830152614ad981614189565b9050919050565b60006020820190508181036000830152614af981614249565b9050919050565b60006020820190508181036000830152614b19816143af565b9050919050565b60006020820190508181036000830152614b398161443b565b9050919050565b60006020820190508181036000830152614b598161447b565b9050919050565b60006020820190508181036000830152614b79816144e1565b9050919050565b60006020820190508181036000830152614b9981614521565b9050919050565b60006020820190508181036000830152614bb981614561565b9050919050565b600060c082019050614bd56000830188614653565b614be26020830187614697565b614bef60408301866146cc565b8181036060830152614c00816142af565b90508181036080830152614c1481856140a0565b905081810360a0830152614c2881846140a0565b90509695505050505050565b6000602082019050614c496000830184614679565b92915050565b6000608082019050614c6460008301876146cc565b8181036020830152614c7681866140a0565b90508181036040830152614c8a81856140a0565b90508181036060830152614c9e81846140a0565b905095945050505050565b6000608082019050614cbe60008301866146cc565b8181036020830152614ccf816141c9565b90508181036040830152614ce381856140a0565b90508181036060830152614cf781846140a0565b9050949350505050565b6000604051905081810181811067ffffffffffffffff82111715614d2857614d27615290565b5b8060405250919050565b600067ffffffffffffffff821115614d4d57614d4c615290565b5b602082029050602081019050919050565b600067ffffffffffffffff821115614d7957614d78615290565b5b601f19601f8301169050602081019050919050565b600067ffffffffffffffff821115614da957614da8615290565b5b601f19601f8301169050602081019050919050565b6000819050602082019050919050565b6000819050602082019050919050565b6000819050602082019050919050565b60008190508160005260206000209050919050565b60008190508160005260206000209050919050565b600081519050919050565b600081519050919050565b600081519050919050565b600081519050919050565b600081519050919050565b6000602082019050919050565b6000602082019050919050565b6000602082019050919050565b600082825260208201905092915050565b600082825260208201905092915050565b600082825260208201905092915050565b600082825260208201905092915050565b600081905092915050565b600082825260208201905092915050565b600082825260208201905092915050565b600081905092915050565b6000614efd82615070565b9150614f0883615070565b9250827fffffffffffffffffffffffffffffffffffffffffffffffffffffffffffffffff03821115614f3d57614f3c615203565b5b828201905092915050565b6000614f538261509e565b9150614f5e8361509e565b92508260ff03821115614f7457614f73615203565b5b828201905092915050565b6000614f8a8261509e565b9150614f958361509e565b925082614fa557614fa4615232565b5b828204905092915050565b6000614fbb82615070565b9150614fc683615070565b9250817fffffffffffffffffffffffffffffffffffffffffffffffffffffffffffffffff0483118215151615614fff57614ffe615203565b5b828202905092915050565b600061501582615070565b915061502083615070565b92508282101561503357615032615203565b5b828203905092915050565b60008115159050919050565b6000819050919050565b60006fffffffffffffffffffffffffffffffff82169050919050565b6000819050919050565b600063ffffffff82169050919050565b600067ffffffffffffffff82169050919050565b600060ff82169050919050565b82818337600083830152505050565b60005b838110156150d85780820151818401526020810190506150bd565b838111156150e7576000848401525b50505050565b60006150f882615070565b9150600082141561510c5761510b615203565b5b600182039050919050565b6000600282049050600182168061512f57607f821691505b6020821081141561514357615142615261565b5b50919050565b600061515482615070565b91507fffffffffffffffffffffffffffffffffffffffffffffffffffffffffffffffff82141561518757615186615203565b5b600182019050919050565b6000819050919050565b60006151a7826152d0565b9050919050565b60006151b9826152ea565b9050919050565b60006151cb826152dd565b9050919050565b60006151dd8261509e565b91506151e88361509e565b9250826151f8576151f7615232565b5b828206905092915050565b7f4e487b7100000000000000000000000000000000000000000000000000000000600052601160045260246000fd5b7f4e487b7100000000000000000000000000000000000000000000000000000000600052601260045260246000fd5b7f4e487b7100000000000000000000000000000000000000000000000000000000600052602260045260246000fd5b7f4e487b7100000000000000000000000000000000000000000000000000000000600052604160045260246000fd5b6000601f19601f8301169050919050565b60008160801b9050919050565b60008160c01b9050919050565b60008160e01b9050919050565b61530081615054565b811461530b57600080fd5b50565b61531781615070565b811461532257600080fd5b50565b61532e8161507a565b811461533957600080fd5b5056fe4954454d5f434845434b45445f4f55545f4f525f494e5f41465445525f52454d4f56414ca2646970667358221220aaac8993dd263ffc73f1d2b18c45c56e4887a338d0c09543d4c76fdf3848cdb764736f6c63430008000033",
  "immutableReferences": {},
  "source": "// SPDX-License-Identifier: MIT\r\npragma solidity ^0.8.0;\r\n\r\ncontract ChainOfCustody {\r\n    struct Block {\r\n        bytes32 previousHash;\r\n        uint64 timestamp;\r\n        uint128 caseId;\r\n        uint32 evidenceItemId;\r\n        string state;\r\n        string handlerName;\r\n        string organizationName;\r\n        string reason;\r\n        string ownerInfo;\r\n        uint32 dataLength;\r\n        bytes data;\r\n    }\r\n\r\n    Block[] public blockchain;\r\n    mapping(uint32 => bool) public evidenceExists;\r\n\r\n    function getLatestBlockHash() public view returns (bytes32) {\r\n        Block storage lastBlock = blockchain[blockchain.length - 1];\r\n        return\r\n            keccak256(\r\n                abi.encodePacked(\r\n                    lastBlock.previousHash,\r\n                    lastBlock.timestamp,\r\n                    lastBlock.caseId,\r\n                    lastBlock.evidenceItemId,\r\n                    lastBlock.state,\r\n                    lastBlock.handlerName,\r\n                    lastBlock.organizationName,\r\n                    lastBlock.dataLength,\r\n                    lastBlock.data\r\n                )\r\n            );\r\n    }\r\n\r\n    // Updated event to use strings\r\n    event EvidenceItemAdded(\r\n        uint128 indexed caseId,\r\n        uint32 indexed evidenceItemId,\r\n        uint64 timestamp,\r\n        string state,\r\n        string handlerName,\r\n        string organizationName\r\n    );\r\n\r\n    // Updated function to accept string parameters\r\n    function addEvidenceItems(\r\n        uint128 _caseId,\r\n        uint32[] memory _itemIds,\r\n        string memory _handlerName,\r\n        string memory _organizationName\r\n    ) public {\r\n        Block storage lastBlock = blockchain[blockchain.length - 1];\r\n        for (uint i = 0; i < _itemIds.length; i++) {\r\n            \r\n            require(\r\n                !evidenceExists[_itemIds[i]],\r\n                \"Evidence item ID must be unique\"\r\n            );\r\n            require(\r\n                keccak256(abi.encodePacked(lastBlock.state)) !=\r\n                    keccak256(abi.encodePacked(\"RELEASED\")),\r\n                \"Error: Cannot check out a removed item.\"\r\n            );\r\n            addBlock(\r\n                _caseId,\r\n                _itemIds[i],\r\n                \"CHECKEDIN\",\r\n                _handlerName,\r\n                _organizationName,\r\n                \"\",\r\n                \"\"\r\n            );\r\n        }\r\n    }\r\n\r\n    // Updated function to accept string parameters\r\n    function addBlock(\r\n        uint128 _caseId,\r\n        uint32 _evidenceItemId,\r\n        string memory _state,\r\n        string memory _handlerName,\r\n        string memory _organizationName,\r\n        string memory _reason,\r\n        bytes memory _data\r\n    ) public {\r\n        bytes32 previousHash = blockchain.length > 0\r\n            ? getLatestBlockHash()\r\n            : bytes32(0);\r\n        uint64 timestamp = uint64(block.timestamp);\r\n        uint32 dataLength = uint32(_data.length);\r\n\r\n        Block memory newBlock = Block(\r\n            previousHash,\r\n            timestamp,\r\n            _caseId,\r\n            _evidenceItemId,\r\n            _state,\r\n            _handlerName,\r\n            _organizationName,\r\n            _reason,\r\n            \"\",\r\n            dataLength,\r\n            _data\r\n        );\r\n\r\n        blockchain.push(newBlock);\r\n        evidenceExists[_evidenceItemId] = true;\r\n\r\n        emit EvidenceItemAdded(\r\n            _caseId,\r\n            _evidenceItemId,\r\n            timestamp,\r\n            _state,\r\n            _handlerName,\r\n            _organizationName\r\n        );\r\n    }\r\n\r\n    event EvidenceItemCheckedOut(\r\n        uint128 indexed caseId,\r\n        uint32 indexed evidenceItemId,\r\n        string handlerName,\r\n        string organizationName,\r\n        uint64 timestamp,\r\n        string state\r\n    );\r\n\r\n    function checkoutEvidenceItem(\r\n        uint32 _evidenceItemId,\r\n        string memory _handlerName,\r\n        string memory _organizationName\r\n    ) public {\r\n        require(\r\n            evidenceExists[_evidenceItemId],\r\n            \"Error: Evidence item does not exist.\"\r\n        );\r\n        Block storage lastBlock = blockchain[blockchain.length - 1];\r\n        require(\r\n            lastBlock.evidenceItemId == _evidenceItemId,\r\n            \"Error: Wrong evidence item.\"\r\n        );\r\n        require(\r\n            keccak256(abi.encodePacked(lastBlock.state)) !=\r\n                keccak256(abi.encodePacked(\"CHECKEDOUT\")),\r\n            \"Error: Cannot check out a checked out item. Must check it in first.\"\r\n        );\r\n        require(\r\n            keccak256(abi.encodePacked(lastBlock.state)) !=\r\n                keccak256(abi.encodePacked(\"RELEASED\")),\r\n            \"Error: Cannot check out a removed item.\"\r\n        );\r\n\r\n        // Assuming 'addBlock' function updates the state and creates a new block in the blockchain\r\n        addBlock(\r\n            lastBlock.caseId,\r\n            _evidenceItemId,\r\n            \"CHECKEDOUT\",\r\n            lastBlock.handlerName,\r\n            lastBlock.organizationName,\r\n            \"\",\r\n            lastBlock.data\r\n        );\r\n        emit EvidenceItemCheckedOut(\r\n            lastBlock.caseId,\r\n            _evidenceItemId,\r\n            _handlerName,\r\n            _organizationName,\r\n            uint64(block.timestamp),\r\n            \"CHECKEDOUT\"\r\n        );\r\n    }\r\n\r\n    event EvidenceItemCheckedIn(\r\n        uint128 indexed caseId,\r\n        uint32 indexed evidenceItemId,\r\n        uint64 timestamp,\r\n        string state,\r\n        string handlerName,\r\n        string organizationName\r\n    );\r\n\r\n    function checkinEvidenceItem(\r\n        uint32 _evidenceItemId,\r\n        string memory _handlerName,\r\n        string memory _organizationName\r\n    ) public {\r\n        require(\r\n            evidenceExists[_evidenceItemId],\r\n            \"Error: Evidence item does not exist.\"\r\n        );\r\n\r\n        bool isItemCheckedOut = false;\r\n        uint128 caseIdForItem;\r\n\r\n        // Iterate through the blockchain to find the specific block with the evidence item\r\n        for (uint i = blockchain.length; i > 0; i--) {\r\n            Block storage blockItem = blockchain[i - 1];\r\n            if (blockItem.evidenceItemId == _evidenceItemId) {\r\n                // Check if the item is in a checked out state\r\n                if (\r\n                    keccak256(abi.encodePacked(blockItem.state)) ==\r\n                    keccak256(abi.encodePacked(\"CHECKEDOUT\"))\r\n                ) {\r\n                    isItemCheckedOut = true;\r\n                    caseIdForItem = blockItem.caseId;\r\n                    break;\r\n                }\r\n            }\r\n        }\r\n\r\n        require(isItemCheckedOut, \"Error: Item is not checked out.\");\r\n\r\n        // Add a new block for checkin\r\n        addBlock(\r\n            caseIdForItem,\r\n            _evidenceItemId,\r\n            \"CHECKEDIN\",\r\n            _handlerName,\r\n            _organizationName,\r\n            \"\",\r\n            \"\"\r\n        );\r\n\r\n        emit EvidenceItemCheckedIn(\r\n            caseIdForItem,\r\n            _evidenceItemId,\r\n            uint64(block.timestamp),\r\n            \"CHECKEDIN\",\r\n            _handlerName,\r\n            _organizationName\r\n        );\r\n    }\r\n\r\n    function getCases() public view returns (uint128[] memory) {\r\n        uint128[] memory cases = new uint128[](blockchain.length);\r\n        uint count = 0;\r\n\r\n        for (uint i = 0; i < blockchain.length; i++) {\r\n            bool exists = false;\r\n            for (uint j = 0; j < count; j++) {\r\n                if (cases[j] == blockchain[i].caseId) {\r\n                    exists = true;\r\n                    break;\r\n                }\r\n            }\r\n            if (!exists) {\r\n                cases[count] = blockchain[i].caseId;\r\n                count++;\r\n            }\r\n        }\r\n\r\n        // Resize the array to fit the actual number of unique cases\r\n        uint128[] memory uniqueCases = new uint128[](count);\r\n        for (uint i = 0; i < count; i++) {\r\n            uniqueCases[i] = cases[i];\r\n        }\r\n\r\n        return uniqueCases;\r\n    }\r\n\r\n    function getItemsForCase(\r\n        uint128 _caseId\r\n    ) public view returns (uint32[] memory) {\r\n        uint32[] memory itemsTemp = new uint32[](blockchain.length);\r\n        uint count = 0;\r\n\r\n        for (uint i = 0; i < blockchain.length; i++) {\r\n            if (blockchain[i].caseId == _caseId) {\r\n                itemsTemp[count] = blockchain[i].evidenceItemId;\r\n                count++;\r\n            }\r\n        }\r\n\r\n        // Resize the array to fit the actual number of items for the case\r\n        uint32[] memory items = new uint32[](count);\r\n        for (uint i = 0; i < count; i++) {\r\n            items[i] = itemsTemp[i];\r\n        }\r\n\r\n        return items;\r\n    }\r\n\r\n    struct BlockInfo {\r\n        uint128 caseId;\r\n        uint32 evidenceItemId;\r\n        uint64 timestamp;\r\n        string state;\r\n        string handlerName;\r\n    }\r\n\r\n    function getItemHistory(\r\n        uint32 _itemId\r\n    ) public view returns (BlockInfo[] memory) {\r\n        BlockInfo[] memory history = new BlockInfo[](blockchain.length);\r\n        uint count = 0;\r\n\r\n        for (uint i = 0; i < blockchain.length; i++) {\r\n            if (blockchain[i].evidenceItemId == _itemId) {\r\n                history[count] = BlockInfo(\r\n                    blockchain[i].caseId,\r\n                    blockchain[i].evidenceItemId,\r\n                    blockchain[i].timestamp,\r\n                    blockchain[i].state,\r\n                    blockchain[i].handlerName\r\n                );\r\n                count++;\r\n            }\r\n        }\r\n\r\n        BlockInfo[] memory itemHistory = new BlockInfo[](count);\r\n        for (uint i = 0; i < count; i++) {\r\n            itemHistory[i] = history[i];\r\n        }\r\n\r\n        return itemHistory;\r\n    }\r\n\r\n    event EvidenceItemRemoved(\r\n        uint128 caseId,\r\n        uint32 evidenceItemId,\r\n        uint64 timestamp,\r\n        string state,\r\n        string reason,\r\n        string ownerInfo\r\n    );\r\n\r\n    function removeEvidenceItem(\r\n        uint32 _evidenceItemId,\r\n        string memory _reason,\r\n        string memory _ownerInfo\r\n    ) public {\r\n        require(\r\n            evidenceExists[_evidenceItemId],\r\n            \"Error: Evidence item does not exist.\"\r\n        );\r\n\r\n        Block storage lastBlock = blockchain[blockchain.length - 1];\r\n        require(\r\n            lastBlock.evidenceItemId == _evidenceItemId &&\r\n                keccak256(abi.encodePacked(lastBlock.state)) ==\r\n                keccak256(abi.encodePacked(\"CHECKEDIN\")),\r\n            \"Error: Item must be checked in to be removed.\"\r\n        );\r\n\r\n        // Assuming 'addBlock' function updates the state and creates a new block in the blockchain\r\n        addBlock(\r\n            lastBlock.caseId,\r\n            _evidenceItemId,\r\n            \"RELEASED\",\r\n            _reason, // Include _reason in the call\r\n            lastBlock.handlerName,\r\n            lastBlock.organizationName,\r\n            bytes(_ownerInfo)\r\n        );\r\n\r\n        emit EvidenceItemRemoved(\r\n            lastBlock.caseId,\r\n            _evidenceItemId,\r\n            uint64(block.timestamp),\r\n            \"RELEASED\",\r\n            _reason,\r\n            _ownerInfo\r\n        );\r\n    }\r\n\r\n    function getBlockCount() public view returns (uint256) {\r\n        return blockchain.length;\r\n    }\r\n\r\n    function verifyBlockchain() public view returns (string memory) {\r\n        uint256 blockCount = getBlockCount();\r\n\r\n        for (uint256 i = 1; i < blockCount; i++) {\r\n            if (blockchain[i].previousHash != getLatestBlockHash(i - 1)) {\r\n                return \"ERROR\";\r\n            }\r\n        }\r\n\r\n        return \"CLEAN\";\r\n    }\r\n\r\n    function getBadBlockInfo()\r\n        public\r\n        view\r\n        returns (string memory, string memory, string memory)\r\n    {\r\n        uint256 blockCount = getBlockCount();\r\n\r\n        for (uint256 i = 1; i < blockCount; i++) {\r\n            if (blockchain[i].previousHash != getLatestBlockHash(i - 1)) {\r\n                // Placeholder values for demonstration purposes\r\n                return (\r\n                    blockHashToString(blockchain[i].previousHash),\r\n                    blockHashToString(getLatestBlockHash(i - 1)),\r\n                    \"PARENT_NOT_FOUND\"\r\n                );\r\n            }\r\n\r\n            if (\r\n                i > 1 &&\r\n                blockchain[i].previousHash == blockchain[i - 2].previousHash\r\n            ) {\r\n                // Placeholder values for demonstration purposes\r\n                return (\r\n                    blockHashToString(blockchain[i].previousHash),\r\n                    blockHashToString(blockchain[i - 2].previousHash),\r\n                    \"DUPLICATE_PARENT\"\r\n                );\r\n            }\r\n\r\n            bytes32 calculatedHash = calculateBlockHash(blockchain[i]);\r\n            if (blockchain[i].previousHash != calculatedHash) {\r\n                // Placeholder values for demonstration purposes\r\n                return (\r\n                    blockHashToString(blockchain[i].previousHash),\r\n                    blockHashToString(calculatedHash),\r\n                    \"CONTENT_MISMATCH\"\r\n                );\r\n            }\r\n\r\n            if (\r\n                keccak256(abi.encodePacked(blockchain[i].state)) ==\r\n                keccak256(abi.encodePacked(\"CHECKEDOUT\")) &&\r\n                i < blockCount - 1\r\n            ) {\r\n                // Placeholder values for demonstration purposes\r\n                return (\r\n                    blockHashToString(blockchain[i].previousHash),\r\n                    blockHashToString(getLatestBlockHash(i)),\r\n                    \"ITEM_CHECKED_OUT_OR_IN_AFTER_REMOVAL\"\r\n                );\r\n            }\r\n        }\r\n\r\n        // Placeholder values for demonstration purposes\r\n        return (\"\", \"\", \"\");\r\n    }\r\n\r\n    // Other existing functions...\r\n    function bytesToHexString(\r\n        bytes memory data\r\n    ) public pure returns (string memory) {\r\n        bytes memory hexString = new bytes(2 * data.length);\r\n\r\n        for (uint256 i = 0; i < data.length; i++) {\r\n            uint8 value = uint8(data[i]);\r\n            hexString[2 * i] = bytes1(uint8(value / 16 + 48));\r\n            hexString[2 * i + 1] = bytes1(uint8((value % 16) + 48));\r\n        }\r\n\r\n        return string(hexString);\r\n    }\r\n\r\n    // Utility function to convert bytes32 to string\r\n    function blockHashToString(\r\n        bytes32 hash\r\n    ) internal pure returns (string memory) {\r\n        return bytesToHexString(abi.encodePacked(hash));\r\n    }\r\n\r\n    // Utility function to calculate the hash of a block\r\n    function calculateBlockHash(\r\n        Block memory blockData\r\n    ) internal pure returns (bytes32) {\r\n        return\r\n            keccak256(\r\n                abi.encodePacked(\r\n                    blockData.previousHash,\r\n                    blockData.timestamp,\r\n                    blockData.caseId,\r\n                    blockData.evidenceItemId,\r\n                    blockData.state,\r\n                    blockData.handlerName,\r\n                    blockData.organizationName,\r\n                    blockData.dataLength,\r\n                    blockData.data\r\n                )\r\n            );\r\n    }\r\n\r\n    // Utility function to get the hash of the latest block\r\n    function getLatestBlockHash(uint256 index) internal view returns (bytes32) {\r\n        require(index < blockchain.length, \"Index out of bounds\");\r\n        return calculateBlockHash(blockchain[index]);\r\n    }\r\n}\r\n",
  "sourcePath": "C:\\Users\\sharm\\Dropbox (ASU)\\CSE 469 CNF\\Group Project\\blockchain_chain_of_custody\\chain_of_custody\\contracts\\ChainOfCustody.sol",
  "compiler": {
    "name": "solc",
    "version": "0.8.0+commit.c7dfd78e.Emscripten.clang"
  },
  "schemaVersion": "3.4.16",
  "updatedAt": "2023-11-30T23:26:03.518Z",
  "networkType": "ethereum",
  "devdoc": {
    "kind": "dev",
    "methods": {},
    "version": 1
  },
  "userdoc": {
    "kind": "user",
    "methods": {},
    "version": 1
  }
}