{
  "contractName": "ChainOfCustody",
  "abi": [
    {
      "inputs": [],
      "stateMutability": "nonpayable",
      "type": "constructor"
    },
    {
      "anonymous": false,
      "inputs": [
        {
          "indexed": true,
          "internalType": "uint256",
          "name": "itemId",
          "type": "uint256"
        },
        {
          "indexed": true,
          "internalType": "uint256",
          "name": "caseId",
          "type": "uint256"
        },
        {
          "indexed": false,
          "internalType": "bytes12",
          "name": "status",
          "type": "bytes12"
        },
        {
          "indexed": false,
          "internalType": "uint256",
          "name": "timestamp",
          "type": "uint256"
        }
      ],
      "name": "AddedItem",
      "type": "event"
    },
    {
      "inputs": [
        {
          "internalType": "uint256",
          "name": "",
          "type": "uint256"
        }
      ],
      "name": "blocks",
      "outputs": [
        {
          "internalType": "bytes32",
          "name": "previousHash",
          "type": "bytes32"
        },
        {
          "internalType": "uint64",
          "name": "timestamp",
          "type": "uint64"
        },
        {
          "internalType": "uint128",
          "name": "caseId",
          "type": "uint128"
        },
        {
          "internalType": "uint32",
          "name": "evidenceItemId",
          "type": "uint32"
        },
        {
          "internalType": "bytes12",
          "name": "state",
          "type": "bytes12"
        },
        {
          "internalType": "bytes20",
          "name": "handlerName",
          "type": "bytes20"
        },
        {
          "internalType": "bytes20",
          "name": "organizationName",
          "type": "bytes20"
        },
        {
          "internalType": "uint32",
          "name": "dataLength",
          "type": "uint32"
        },
        {
          "internalType": "bytes",
          "name": "data",
          "type": "bytes"
        }
      ],
      "stateMutability": "view",
      "type": "function",
      "constant": true
    },
    {
      "inputs": [
        {
          "internalType": "uint256",
          "name": "caseId",
          "type": "uint256"
        },
        {
          "internalType": "uint256",
          "name": "itemId",
          "type": "uint256"
        },
        {
          "internalType": "bytes20",
          "name": "itemHandlerName",
          "type": "bytes20"
        },
        {
          "internalType": "bytes20",
          "name": "itemOrganizationName",
          "type": "bytes20"
        },
        {
          "internalType": "uint32",
          "name": "itemDataLength",
          "type": "uint32"
        },
        {
          "internalType": "bytes",
          "name": "itemData",
          "type": "bytes"
        }
      ],
      "name": "addItem",
      "outputs": [],
      "stateMutability": "nonpayable",
      "type": "function"
    }
  ],
  "bytecode": "0x608060405234801561001057600080fd5b50610c2d806100206000396000f3fe608060405234801561001057600080fd5b50600436106100365760003560e01c80633b2c0a611461003b578063f25b3f9914610057575b600080fd5b610055600480360381019061005091906107dc565b61008f565b005b610071600480360381019061006c91906107b3565b61047e565b6040516100869998979695949392919061094e565b60405180910390f35b6100976105db565b60008080549050116100ac576000801b61010a565b600060016000805490506100c091906109fe565b815481106100f7577f4e487b7100000000000000000000000000000000000000000000000000000000600052603260045260246000fd5b9060005260206000209060050201600001545b81600001818152505042816020019067ffffffffffffffff16908167ffffffffffffffff16815250508781604001906fffffffffffffffffffffffffffffffff1690816fffffffffffffffffffffffffffffffff168152505086816060019063ffffffff16908163ffffffff16815250507f434845434b4544494e0000000000000000000000000000000000000000000000816080019073ffffffffffffffffffffffffffffffffffffffff1916908173ffffffffffffffffffffffffffffffffffffffff191681525050858160a001906bffffffffffffffffffffffff191690816bffffffffffffffffffffffff191681525050848160c001906bffffffffffffffffffffffff191690816bffffffffffffffffffffffff19168152505082828080601f016020809104026020016040519081016040528093929190818152602001838380828437600081840152601f19601f82011690508083019250505050505050816101000181905250838160e0019063ffffffff16908163ffffffff168152505060008190806001815401808255809150506001900390600052602060002090600502016000909190919091506000820151816000015560208201518160010160006101000a81548167ffffffffffffffff021916908367ffffffffffffffff16021790555060408201518160010160086101000a8154816fffffffffffffffffffffffffffffffff02191690836fffffffffffffffffffffffffffffffff16021790555060608201518160010160186101000a81548163ffffffff021916908363ffffffff16021790555060808201518160020160006101000a8154816bffffffffffffffffffffffff021916908360a01c021790555060a082015181600201600c6101000a81548173ffffffffffffffffffffffffffffffffffffffff021916908360601c021790555060c08201518160030160006101000a81548173ffffffffffffffffffffffffffffffffffffffff021916908360601c021790555060e08201518160030160146101000a81548163ffffffff021916908363ffffffff160217905550610100820151816004019080519060200190610432929190610687565b50505087877f1cc4e3a78b52f2b11ccfd6e468c006b89b50c3ceaebeeac5b0a4fc815bc160c683608001514260405161046c929190610925565b60405180910390a35050505050505050565b6000818154811061048e57600080fd5b90600052602060002090600502016000915090508060000154908060010160009054906101000a900467ffffffffffffffff16908060010160089054906101000a90046fffffffffffffffffffffffffffffffff16908060010160189054906101000a900463ffffffff16908060020160009054906101000a900460a01b9080600201600c9054906101000a900460601b908060030160009054906101000a900460601b908060030160149054906101000a900463ffffffff169080600401805461055890610b11565b80601f016020809104026020016040519081016040528092919081815260200182805461058490610b11565b80156105d15780601f106105a6576101008083540402835291602001916105d1565b820191906000526020600020905b8154815290600101906020018083116105b457829003601f168201915b5050505050905089565b60405180610120016040528060008019168152602001600067ffffffffffffffff16815260200160006fffffffffffffffffffffffffffffffff168152602001600063ffffffff168152602001600073ffffffffffffffffffffffffffffffffffffffff1916815260200160006bffffffffffffffffffffffff1916815260200160006bffffffffffffffffffffffff19168152602001600063ffffffff168152602001606081525090565b82805461069390610b11565b90600052602060002090601f0160209004810192826106b557600085556106fc565b82601f106106ce57805160ff19168380011785556106fc565b828001600101855582156106fc579182015b828111156106fb5782518255916020019190600101906106e0565b5b509050610709919061070d565b5090565b5b8082111561072657600081600090555060010161070e565b5090565b60008135905061073981610bb2565b92915050565b60008083601f84011261075157600080fd5b8235905067ffffffffffffffff81111561076a57600080fd5b60208301915083600182028301111561078257600080fd5b9250929050565b60008135905061079881610bc9565b92915050565b6000813590506107ad81610be0565b92915050565b6000602082840312156107c557600080fd5b60006107d384828501610789565b91505092915050565b600080600080600080600060c0888a0312156107f757600080fd5b60006108058a828b01610789565b97505060206108168a828b01610789565b96505060406108278a828b0161072a565b95505060606108388a828b0161072a565b94505060806108498a828b0161079e565b93505060a088013567ffffffffffffffff81111561086657600080fd5b6108728a828b0161073f565b925092505092959891949750929550565b61088c81610a32565b82525050565b61089b81610a5e565b82525050565b6108aa81610a8a565b82525050565b60006108bb826109e2565b6108c581856109ed565b93506108d5818560208601610ade565b6108de81610ba1565b840191505092915050565b6108f281610a94565b82525050565b61090181610ab0565b82525050565b61091081610aba565b82525050565b61091f81610aca565b82525050565b600060408201905061093a6000830185610883565b61094760208301846108f8565b9392505050565b600061012082019050610964600083018c6108a1565b610971602083018b610916565b61097e604083018a6108e9565b61098b6060830189610907565b6109986080830188610883565b6109a560a0830187610892565b6109b260c0830186610892565b6109bf60e0830185610907565b8181036101008301526109d281846108b0565b90509a9950505050505050505050565b600081519050919050565b600082825260208201905092915050565b6000610a0982610ab0565b9150610a1483610ab0565b925082821015610a2757610a26610b43565b5b828203905092915050565b60007fffffffffffffffffffffffff000000000000000000000000000000000000000082169050919050565b60007fffffffffffffffffffffffffffffffffffffffff00000000000000000000000082169050919050565b6000819050919050565b60006fffffffffffffffffffffffffffffffff82169050919050565b6000819050919050565b600063ffffffff82169050919050565b600067ffffffffffffffff82169050919050565b60005b83811015610afc578082015181840152602081019050610ae1565b83811115610b0b576000848401525b50505050565b60006002820490506001821680610b2957607f821691505b60208210811415610b3d57610b3c610b72565b5b50919050565b7f4e487b7100000000000000000000000000000000000000000000000000000000600052601160045260246000fd5b7f4e487b7100000000000000000000000000000000000000000000000000000000600052602260045260246000fd5b6000601f19601f8301169050919050565b610bbb81610a5e565b8114610bc657600080fd5b50565b610bd281610ab0565b8114610bdd57600080fd5b50565b610be981610aba565b8114610bf457600080fd5b5056fea26469706673582212204663f00522d9fd453bb98ea6c619fd8b1d53318656e9c163481ee160d99c8d9964736f6c63430008000033",
  "immutableReferences": {},
  "source": "pragma solidity ^0.8.0;\n\ncontract ChainOfCustody {\n    // Define a struct to represent a block in the blockchain\n    struct Block {\n        bytes32 previousHash;\n        uint64 timestamp;\n        uint128 caseId;\n        uint32 evidenceItemId;\n        bytes12 state;\n        bytes20 handlerName;\n        bytes20 organizationName;\n        uint32 dataLength;\n        bytes data;\n    }\n\n    // Array to store blocks\n    Block[] public blocks;\n\n    // Event for emitting transaction details\n    event AddedItem(uint indexed itemId, uint indexed caseId, bytes12 status, uint timestamp);\n\n    // Function to add a new evidence item\n    function addItem(\n        uint caseId,\n        uint itemId,\n        bytes20 itemHandlerName, // Fixed size for handler name\n        bytes20 itemOrganizationName, // Fixed size for organization name\n        uint32 itemDataLength, // Length of the data\n        bytes calldata itemData // Variable length data\n    ) public {\n        // Create a new block with provided data\n        Block memory newBlock;\n        newBlock.previousHash = blocks.length > 0 ? blocks[blocks.length - 1].previousHash : bytes32(0); // Use 0 for initial block\n        newBlock.timestamp = uint64(block.timestamp);\n        newBlock.caseId = uint128(caseId);\n        newBlock.evidenceItemId = uint32(itemId);\n        newBlock.state = bytes12(\"CHECKEDIN\");\n\n        // Set handlerName and organizationName\n        newBlock.handlerName = itemHandlerName;\n        newBlock.organizationName = itemOrganizationName;\n\n        // Set data and dataLength\n        newBlock.data = itemData;\n        newBlock.dataLength = itemDataLength;\n\n        // Add the new block to the blockchain\n        blocks.push(newBlock);\n\n        // Emit an event for the action\n        emit AddedItem(itemId, caseId, newBlock.state, block.timestamp);\n    }\n\n    // Other functions for checkout, checkin, show cases, etc.\n\n    // Constructor to initialize the contract\n    constructor() {\n        // Initialize any variables or settings here\n    }\n}\n",
  "sourcePath": "C:\\Users\\sharm\\Dropbox (ASU)\\CSE 469 CNF\\Group Project\\blockchain_chain_of_custody\\chain_of_custody\\contracts\\ChainOfCustody.sol",
  "compiler": {
    "name": "solc",
    "version": "0.8.0+commit.c7dfd78e.Emscripten.clang"
  },
  "schemaVersion": "3.4.16",
  "updatedAt": "2023-11-21T17:20:20.407Z",
  "networkType": "ethereum",
  "devdoc": {
    "kind": "dev",
    "methods": {},
    "version": 1
  },
  "userdoc": {
    "kind": "user",
    "methods": {},
    "version": 1
  }
}