{
  "contractName": "ChainOfCustody",
  "abi": [
    {
      "inputs": [],
      "stateMutability": "nonpayable",
      "type": "constructor"
    },
    {
      "anonymous": false,
      "inputs": [
        {
          "indexed": false,
          "internalType": "bytes12",
          "name": "action",
          "type": "bytes12"
        },
        {
          "indexed": false,
          "internalType": "uint32",
          "name": "evidenceItemId",
          "type": "uint32"
        },
        {
          "indexed": false,
          "internalType": "bytes16",
          "name": "caseId",
          "type": "bytes16"
        },
        {
          "indexed": false,
          "internalType": "bytes32",
          "name": "timestamp",
          "type": "bytes32"
        }
      ],
      "name": "BlockchainAction",
      "type": "event"
    },
    {
      "inputs": [
        {
          "internalType": "uint256",
          "name": "",
          "type": "uint256"
        }
      ],
      "name": "chain",
      "outputs": [
        {
          "internalType": "bytes32",
          "name": "previousHash",
          "type": "bytes32"
        },
        {
          "internalType": "uint64",
          "name": "timestamp",
          "type": "uint64"
        },
        {
          "internalType": "bytes16",
          "name": "caseId",
          "type": "bytes16"
        },
        {
          "internalType": "uint32",
          "name": "evidenceItemId",
          "type": "uint32"
        },
        {
          "internalType": "bytes12",
          "name": "state",
          "type": "bytes12"
        },
        {
          "internalType": "bytes20",
          "name": "handlerName",
          "type": "bytes20"
        },
        {
          "internalType": "bytes20",
          "name": "organizationName",
          "type": "bytes20"
        },
        {
          "internalType": "uint32",
          "name": "dataLength",
          "type": "uint32"
        },
        {
          "internalType": "bytes",
          "name": "data",
          "type": "bytes"
        }
      ],
      "stateMutability": "view",
      "type": "function",
      "constant": true
    },
    {
      "inputs": [
        {
          "internalType": "bytes16[]",
          "name": "_caseIds",
          "type": "bytes16[]"
        },
        {
          "internalType": "uint32[]",
          "name": "_evidenceItemIds",
          "type": "uint32[]"
        },
        {
          "internalType": "bytes12",
          "name": "_state",
          "type": "bytes12"
        },
        {
          "internalType": "bytes20",
          "name": "_handlerName",
          "type": "bytes20"
        },
        {
          "internalType": "bytes20",
          "name": "_organizationName",
          "type": "bytes20"
        },
        {
          "internalType": "uint32",
          "name": "_dataLength",
          "type": "uint32"
        },
        {
          "internalType": "bytes",
          "name": "_data",
          "type": "bytes"
        }
      ],
      "name": "add",
      "outputs": [],
      "stateMutability": "nonpayable",
      "type": "function"
    }
  ],
  "bytecode": "0x60806040523480156200001157600080fd5b50620000826000801b600060801b60007f494e495449414c000000000000000000000000000000000000000000000000007f53797374656d0000000000000000000000000000000000000000000000000000806000604051806020016040528060008152506200008860201b60201c565b6200053e565b60006040518061012001604052808a81526020014267ffffffffffffffff168152602001896fffffffffffffffffffffffffffffffff191681526020018863ffffffff1681526020018773ffffffffffffffffffffffffffffffffffffffff19168152602001866bffffffffffffffffffffffff19168152602001856bffffffffffffffffffffffff191681526020018463ffffffff16815260200183815250905060008190806001815401808255809150506001900390600052602060002090600502016000909190919091506000820151816000015560208201518160010160006101000a81548167ffffffffffffffff021916908367ffffffffffffffff16021790555060408201518160010160086101000a8154816fffffffffffffffffffffffffffffffff021916908360801c021790555060608201518160010160186101000a81548163ffffffff021916908363ffffffff16021790555060808201518160020160006101000a8154816bffffffffffffffffffffffff021916908360a01c021790555060a082015181600201600c6101000a81548173ffffffffffffffffffffffffffffffffffffffff021916908360601c021790555060c08201518160030160006101000a81548173ffffffffffffffffffffffffffffffffffffffff021916908360601c021790555060e08201518160030160146101000a81548163ffffffff021916908363ffffffff160217905550610100820151816004019080519060200190620002c092919062000326565b5050507fdb0e49512042cd0e8e1128c236760c5ed80651d504ab98ed337ec91743bc2e1f8682606001518360400151846020015167ffffffffffffffff1660001b6040516200031394939291906200041a565b60405180910390a1505050505050505050565b8280546200033490620004d9565b90600052602060002090601f016020900481019282620003585760008555620003a4565b82601f106200037357805160ff1916838001178555620003a4565b82800160010185558215620003a4579182015b82811115620003a357825182559160200191906001019062000386565b5b509050620003b39190620003b7565b5090565b5b80821115620003d2576000816000905550600101620003b8565b5090565b620003e18162000467565b82525050565b620003f28162000493565b82525050565b6200040381620004bf565b82525050565b6200041481620004c9565b82525050565b6000608082019050620004316000830187620003d6565b62000440602083018662000409565b6200044f6040830185620003e7565b6200045e6060830184620003f8565b95945050505050565b60007fffffffffffffffffffffffff000000000000000000000000000000000000000082169050919050565b60007fffffffffffffffffffffffffffffffff0000000000000000000000000000000082169050919050565b6000819050919050565b600063ffffffff82169050919050565b60006002820490506001821680620004f257607f821691505b602082108114156200050957620005086200050f565b5b50919050565b7f4e487b7100000000000000000000000000000000000000000000000000000000600052602260045260246000fd5b61138a806200054e6000396000f3fe608060405234801561001057600080fd5b50600436106100365760003560e01c80635852cc0c1461003b578063619188fa14610073575b600080fd5b61005560048036038101906100509190610c3b565b61008f565b60405161006a99989796959493929190610e7c565b60405180910390f35b61008d60048036038101906100889190610b55565b6101dd565b005b6000818154811061009f57600080fd5b90600052602060002090600502016000915090508060000154908060010160009054906101000a900467ffffffffffffffff16908060010160089054906101000a900460801b908060010160189054906101000a900463ffffffff16908060020160009054906101000a900460a01b9080600201600c9054906101000a900460601b908060030160009054906101000a900460601b908060030160149054906101000a900463ffffffff169080600401805461015a906111c8565b80601f0160208091040260200160405190810160405280929190818152602001828054610186906111c8565b80156101d35780601f106101a8576101008083540402835291602001916101d3565b820191906000526020600020905b8154815290600101906020018083116101b657829003601f168201915b5050505050905089565b7f434845434b4544494e00000000000000000000000000000000000000000000008573ffffffffffffffffffffffffffffffffffffffff191614610256576040517f08c379a000000000000000000000000000000000000000000000000000000000815260040161024d90610f10565b60405180910390fd5b855187511461029a576040517f08c379a000000000000000000000000000000000000000000000000000000000815260040161029190610f50565b60405180910390fd5b60005b875181101561056557600060801b6fffffffffffffffffffffffffffffffff19168882815181106102f7577f4e487b7100000000000000000000000000000000000000000000000000000000600052603260045260246000fd5b60200260200101516fffffffffffffffffffffffffffffffff19161415610353576040517f08c379a000000000000000000000000000000000000000000000000000000000815260040161034a90610f90565b60405180910390fd5b600087828151811061038e577f4e487b7100000000000000000000000000000000000000000000000000000000600052603260045260246000fd5b602002602001015163ffffffff1614156103dd576040517f08c379a00000000000000000000000000000000000000000000000000000000081526004016103d490610f30565b60405180910390fd5b610426878281518110610419577f4e487b7100000000000000000000000000000000000000000000000000000000600052603260045260246000fd5b602002602001015161056f565b15610466576040517f08c379a000000000000000000000000000000000000000000000000000000000815260040161045d90610f70565b60405180910390fd5b6105526000600160008054905061047d9190611096565b815481106104b4577f4e487b7100000000000000000000000000000000000000000000000000000000600052603260045260246000fd5b9060005260206000209060050201600001548983815181106104ff577f4e487b7100000000000000000000000000000000000000000000000000000000600052603260045260246000fd5b6020026020010151898481518110610540577f4e487b7100000000000000000000000000000000000000000000000000000000600052603260045260246000fd5b6020026020010151898989898961061b565b808061055d906111fa565b91505061029d565b5050505050505050565b600080600090505b600080549050811015610610578263ffffffff16600082815481106105c5577f4e487b7100000000000000000000000000000000000000000000000000000000600052603260045260246000fd5b906000526020600020906005020160010160189054906101000a900463ffffffff1663ffffffff1614156105fd576001915050610616565b8080610608906111fa565b915050610577565b50600090505b919050565b60006040518061012001604052808a81526020014267ffffffffffffffff168152602001896fffffffffffffffffffffffffffffffff191681526020018863ffffffff1681526020018773ffffffffffffffffffffffffffffffffffffffff19168152602001866bffffffffffffffffffffffff19168152602001856bffffffffffffffffffffffff191681526020018463ffffffff16815260200183815250905060008190806001815401808255809150506001900390600052602060002090600502016000909190919091506000820151816000015560208201518160010160006101000a81548167ffffffffffffffff021916908367ffffffffffffffff16021790555060408201518160010160086101000a8154816fffffffffffffffffffffffffffffffff021916908360801c021790555060608201518160010160186101000a81548163ffffffff021916908363ffffffff16021790555060808201518160020160006101000a8154816bffffffffffffffffffffffff021916908360a01c021790555060a082015181600201600c6101000a81548173ffffffffffffffffffffffffffffffffffffffff021916908360601c021790555060c08201518160030160006101000a81548173ffffffffffffffffffffffffffffffffffffffff021916908360601c021790555060e08201518160030160146101000a81548163ffffffff021916908363ffffffff1602179055506101008201518160040190805190602001906108519291906108b5565b5050507fdb0e49512042cd0e8e1128c236760c5ed80651d504ab98ed337ec91743bc2e1f8682606001518360400151846020015167ffffffffffffffff1660001b6040516108a29493929190610e37565b60405180910390a1505050505050505050565b8280546108c1906111c8565b90600052602060002090601f0160209004810192826108e3576000855561092a565b82601f106108fc57805160ff191683800117855561092a565b8280016001018555821561092a579182015b8281111561092957825182559160200191906001019061090e565b5b509050610937919061093b565b5090565b5b8082111561095457600081600090555060010161093c565b5090565b600061096b61096684610fe1565b610fb0565b9050808382526020820190508285602086028201111561098a57600080fd5b60005b858110156109ba57816109a08882610ad7565b84526020840193506020830192505060018101905061098d565b5050509392505050565b60006109d76109d28461100d565b610fb0565b905080838252602082019050828560208602820111156109f657600080fd5b60005b85811015610a265781610a0c8882610b40565b8452602084019350602083019250506001810190506109f9565b5050509392505050565b6000610a43610a3e84611039565b610fb0565b905082815260208101848484011115610a5b57600080fd5b610a66848285611186565b509392505050565b600082601f830112610a7f57600080fd5b8135610a8f848260208601610958565b91505092915050565b600082601f830112610aa957600080fd5b8135610ab98482602086016109c4565b91505092915050565b600081359050610ad1816112e1565b92915050565b600081359050610ae6816112f8565b92915050565b600081359050610afb8161130f565b92915050565b600082601f830112610b1257600080fd5b8135610b22848260208601610a30565b91505092915050565b600081359050610b3a81611326565b92915050565b600081359050610b4f8161133d565b92915050565b600080600080600080600060e0888a031215610b7057600080fd5b600088013567ffffffffffffffff811115610b8a57600080fd5b610b968a828b01610a6e565b975050602088013567ffffffffffffffff811115610bb357600080fd5b610bbf8a828b01610a98565b9650506040610bd08a828b01610ac2565b9550506060610be18a828b01610aec565b9450506080610bf28a828b01610aec565b93505060a0610c038a828b01610b40565b92505060c088013567ffffffffffffffff811115610c2057600080fd5b610c2c8a828b01610b01565b91505092959891949750929550565b600060208284031215610c4d57600080fd5b6000610c5b84828501610b2b565b91505092915050565b610c6d816110ca565b82525050565b610c7c816110f6565b82525050565b610c8b81611122565b82525050565b610c9a8161114e565b82525050565b6000610cab82611069565b610cb58185611074565b9350610cc5818560208601611195565b610cce816112d0565b840191505092915050565b6000610ce6601783611085565b91507f5374617465206d75737420626520434845434b4544494e0000000000000000006000830152602082019050919050565b6000610d26601883611085565b91507f496e76616c69642065766964656e6365206974656d20494400000000000000006000830152602082019050919050565b6000610d66601a83611085565b91507f4172726179206c656e6774687320646f206e6f74206d617463680000000000006000830152602082019050919050565b6000610da6601f83611085565b91507f45766964656e6365206974656d20494420616c726561647920657869737473006000830152602082019050919050565b6000610de6600f83611085565b91507f496e76616c6964206361736520494400000000000000000000000000000000006000830152602082019050919050565b610e2281611162565b82525050565b610e3181611172565b82525050565b6000608082019050610e4c6000830187610c64565b610e596020830186610e19565b610e666040830185610c73565b610e736060830184610c91565b95945050505050565b600061012082019050610e92600083018c610c91565b610e9f602083018b610e28565b610eac604083018a610c73565b610eb96060830189610e19565b610ec66080830188610c64565b610ed360a0830187610c82565b610ee060c0830186610c82565b610eed60e0830185610e19565b818103610100830152610f008184610ca0565b90509a9950505050505050505050565b60006020820190508181036000830152610f2981610cd9565b9050919050565b60006020820190508181036000830152610f4981610d19565b9050919050565b60006020820190508181036000830152610f6981610d59565b9050919050565b60006020820190508181036000830152610f8981610d99565b9050919050565b60006020820190508181036000830152610fa981610dd9565b9050919050565b6000604051905081810181811067ffffffffffffffff82111715610fd757610fd66112a1565b5b8060405250919050565b600067ffffffffffffffff821115610ffc57610ffb6112a1565b5b602082029050602081019050919050565b600067ffffffffffffffff821115611028576110276112a1565b5b602082029050602081019050919050565b600067ffffffffffffffff821115611054576110536112a1565b5b601f19601f8301169050602081019050919050565b600081519050919050565b600082825260208201905092915050565b600082825260208201905092915050565b60006110a182611158565b91506110ac83611158565b9250828210156110bf576110be611243565b5b828203905092915050565b60007fffffffffffffffffffffffff000000000000000000000000000000000000000082169050919050565b60007fffffffffffffffffffffffffffffffff0000000000000000000000000000000082169050919050565b60007fffffffffffffffffffffffffffffffffffffffff00000000000000000000000082169050919050565b6000819050919050565b6000819050919050565b600063ffffffff82169050919050565b600067ffffffffffffffff82169050919050565b82818337600083830152505050565b60005b838110156111b3578082015181840152602081019050611198565b838111156111c2576000848401525b50505050565b600060028204905060018216806111e057607f821691505b602082108114156111f4576111f3611272565b5b50919050565b600061120582611158565b91507fffffffffffffffffffffffffffffffffffffffffffffffffffffffffffffffff82141561123857611237611243565b5b600182019050919050565b7f4e487b7100000000000000000000000000000000000000000000000000000000600052601160045260246000fd5b7f4e487b7100000000000000000000000000000000000000000000000000000000600052602260045260246000fd5b7f4e487b7100000000000000000000000000000000000000000000000000000000600052604160045260246000fd5b6000601f19601f8301169050919050565b6112ea816110ca565b81146112f557600080fd5b50565b611301816110f6565b811461130c57600080fd5b50565b61131881611122565b811461132357600080fd5b50565b61132f81611158565b811461133a57600080fd5b50565b61134681611162565b811461135157600080fd5b5056fea264697066735822122091326d458558d1620ef9f60e3c32b985a7e441b2a3a5eb1d10a2b79d2968c2d064736f6c63430008000033",
  "immutableReferences": {},
  "source": "// SPDX-License-Identifier: MIT\npragma solidity ^0.8.0;\n\ncontract ChainOfCustody {\n    struct Block {\n        bytes32 previousHash;\n        uint64 timestamp;\n        bytes16 caseId;\n        uint32 evidenceItemId;\n        bytes12 state;\n        bytes20 handlerName;\n        bytes20 organizationName;\n        uint32 dataLength;\n        bytes data;\n    }\n\n    Block[] public chain; // Array to store blocks\n\n    event BlockchainAction(\n        bytes12 action,\n        uint32 evidenceItemId,\n        bytes16 caseId,\n        bytes32 timestamp\n    );\n\n    constructor() {\n        // Initializing the blockchain with the initial block\n        _addBlock(\n            bytes32(0),\n            bytes16(0),\n            0,\n            \"INITIAL\",\n            \"System\",\n            \"System\",\n            0,\n            \"\"\n        );\n    }\n\n    function add(\n        bytes16[] memory _caseIds,\n        uint32[] memory _evidenceItemIds,\n        bytes12 _state,\n        bytes20 _handlerName,\n        bytes20 _organizationName,\n        uint32 _dataLength,\n        bytes memory _data\n    ) public {\n        require(_state == \"CHECKEDIN\", \"State must be CHECKEDIN\");\n        require(\n            _caseIds.length == _evidenceItemIds.length,\n            \"Array lengths do not match\"\n        );\n\n        for (uint i = 0; i < _caseIds.length; i++) {\n            require(_caseIds[i] != bytes16(0), \"Invalid case ID\");\n            require(_evidenceItemIds[i] != 0, \"Invalid evidence item ID\");\n            require(\n                !isEvidenceItemIdUsed(_evidenceItemIds[i]),\n                \"Evidence item ID already exists\"\n            );\n\n            _addBlock(\n                chain[chain.length - 1].previousHash,\n                _caseIds[i],\n                _evidenceItemIds[i],\n                _state,\n                _handlerName,\n                _organizationName,\n                _dataLength,\n                _data\n            );\n        }\n    }\n\n    function isEvidenceItemIdUsed(\n        uint32 _evidenceItemId\n    ) internal view returns (bool) {\n        for (uint i = 0; i < chain.length; i++) {\n            if (chain[i].evidenceItemId == _evidenceItemId) {\n                return true;\n            }\n        }\n        return false;\n    }\n\n    function _addBlock(\n        bytes32 _previousHash,\n        bytes16 _caseId,\n        uint32 _evidenceItemId,\n        bytes12 _state,\n        bytes20 _handlerName,\n        bytes20 _organizationName,\n        uint32 _dataLength,\n        bytes memory _data\n    ) internal {\n        Block memory newBlock = Block({\n            previousHash: _previousHash,\n            timestamp: uint64(block.timestamp),\n            caseId: _caseId,\n            evidenceItemId: _evidenceItemId,\n            state: _state,\n            handlerName: _handlerName,\n            organizationName: _organizationName,\n            dataLength: _dataLength,\n            data: _data\n        });\n\n        chain.push(newBlock);\n\n        emit BlockchainAction(\n            _state,\n            newBlock.evidenceItemId,\n            newBlock.caseId,\n            bytes32(uint256(newBlock.timestamp))\n        );\n    }\n}\n",
  "sourcePath": "C:\\Users\\sharm\\Dropbox (ASU)\\CSE 469 CNF\\Group Project\\blockchain_chain_of_custody\\chain_of_custody\\contracts\\ChainOfCustody.sol",
  "compiler": {
    "name": "solc",
    "version": "0.8.0+commit.c7dfd78e.Emscripten.clang"
  },
  "schemaVersion": "3.4.16",
  "updatedAt": "2023-11-15T03:15:56.872Z",
  "networkType": "ethereum",
  "devdoc": {
    "kind": "dev",
    "methods": {},
    "version": 1
  },
  "userdoc": {
    "kind": "user",
    "methods": {},
    "version": 1
  }
}