{
  "contractName": "ChainOfCustody",
  "abi": [
    {
      "anonymous": false,
      "inputs": [
        {
          "indexed": false,
          "internalType": "uint128",
          "name": "caseId",
          "type": "uint128"
        },
        {
          "indexed": false,
          "internalType": "uint32",
          "name": "evidenceItemId",
          "type": "uint32"
        },
        {
          "indexed": false,
          "internalType": "uint64",
          "name": "timestamp",
          "type": "uint64"
        },
        {
          "indexed": false,
          "internalType": "bytes12",
          "name": "state",
          "type": "bytes12"
        }
      ],
      "name": "EvidenceItemAdded",
      "type": "event"
    },
    {
      "anonymous": false,
      "inputs": [
        {
          "indexed": false,
          "internalType": "uint128",
          "name": "caseId",
          "type": "uint128"
        },
        {
          "indexed": false,
          "internalType": "uint32",
          "name": "evidenceItemId",
          "type": "uint32"
        },
        {
          "indexed": false,
          "internalType": "uint64",
          "name": "timestamp",
          "type": "uint64"
        },
        {
          "indexed": false,
          "internalType": "bytes12",
          "name": "state",
          "type": "bytes12"
        },
        {
          "indexed": false,
          "internalType": "bytes20",
          "name": "handlerName",
          "type": "bytes20"
        },
        {
          "indexed": false,
          "internalType": "bytes20",
          "name": "organizationName",
          "type": "bytes20"
        }
      ],
      "name": "EvidenceItemCheckedIn",
      "type": "event"
    },
    {
      "anonymous": false,
      "inputs": [
        {
          "indexed": false,
          "internalType": "uint128",
          "name": "caseId",
          "type": "uint128"
        },
        {
          "indexed": false,
          "internalType": "uint32",
          "name": "evidenceItemId",
          "type": "uint32"
        },
        {
          "indexed": false,
          "internalType": "uint64",
          "name": "timestamp",
          "type": "uint64"
        },
        {
          "indexed": false,
          "internalType": "bytes12",
          "name": "state",
          "type": "bytes12"
        }
      ],
      "name": "EvidenceItemCheckedOut",
      "type": "event"
    },
    {
      "inputs": [
        {
          "internalType": "uint256",
          "name": "",
          "type": "uint256"
        }
      ],
      "name": "blockchain",
      "outputs": [
        {
          "internalType": "bytes32",
          "name": "previousHash",
          "type": "bytes32"
        },
        {
          "internalType": "uint64",
          "name": "timestamp",
          "type": "uint64"
        },
        {
          "internalType": "uint128",
          "name": "caseId",
          "type": "uint128"
        },
        {
          "internalType": "uint32",
          "name": "evidenceItemId",
          "type": "uint32"
        },
        {
          "internalType": "bytes12",
          "name": "state",
          "type": "bytes12"
        },
        {
          "internalType": "bytes20",
          "name": "handlerName",
          "type": "bytes20"
        },
        {
          "internalType": "bytes20",
          "name": "organizationName",
          "type": "bytes20"
        },
        {
          "internalType": "uint32",
          "name": "dataLength",
          "type": "uint32"
        },
        {
          "internalType": "bytes",
          "name": "data",
          "type": "bytes"
        }
      ],
      "stateMutability": "view",
      "type": "function",
      "constant": true
    },
    {
      "inputs": [
        {
          "internalType": "uint32",
          "name": "",
          "type": "uint32"
        }
      ],
      "name": "evidenceExists",
      "outputs": [
        {
          "internalType": "bool",
          "name": "",
          "type": "bool"
        }
      ],
      "stateMutability": "view",
      "type": "function",
      "constant": true
    },
    {
      "inputs": [
        {
          "internalType": "uint128",
          "name": "_caseId",
          "type": "uint128"
        },
        {
          "internalType": "uint32[]",
          "name": "_itemIds",
          "type": "uint32[]"
        }
      ],
      "name": "addEvidenceItems",
      "outputs": [],
      "stateMutability": "nonpayable",
      "type": "function"
    },
    {
      "inputs": [
        {
          "internalType": "uint32",
          "name": "_evidenceItemId",
          "type": "uint32"
        }
      ],
      "name": "checkoutEvidenceItem",
      "outputs": [],
      "stateMutability": "nonpayable",
      "type": "function"
    },
    {
      "inputs": [
        {
          "internalType": "uint32",
          "name": "_evidenceItemId",
          "type": "uint32"
        },
        {
          "internalType": "bytes20",
          "name": "_handlerName",
          "type": "bytes20"
        },
        {
          "internalType": "bytes20",
          "name": "_organizationName",
          "type": "bytes20"
        }
      ],
      "name": "checkinEvidenceItem",
      "outputs": [],
      "stateMutability": "nonpayable",
      "type": "function"
    },
    {
      "inputs": [],
      "name": "getCases",
      "outputs": [
        {
          "internalType": "uint128[]",
          "name": "",
          "type": "uint128[]"
        }
      ],
      "stateMutability": "view",
      "type": "function",
      "constant": true
    },
    {
      "inputs": [
        {
          "internalType": "uint128",
          "name": "_caseId",
          "type": "uint128"
        }
      ],
      "name": "getItemsForCase",
      "outputs": [
        {
          "internalType": "uint32[]",
          "name": "",
          "type": "uint32[]"
        }
      ],
      "stateMutability": "view",
      "type": "function",
      "constant": true
    },
    {
      "inputs": [
        {
          "internalType": "uint32",
          "name": "_itemId",
          "type": "uint32"
        }
      ],
      "name": "getItemHistory",
      "outputs": [
        {
          "components": [
            {
              "internalType": "uint64",
              "name": "timestamp",
              "type": "uint64"
            },
            {
              "internalType": "bytes20",
              "name": "handlerName",
              "type": "bytes20"
            },
            {
              "internalType": "bytes12",
              "name": "state",
              "type": "bytes12"
            }
          ],
          "internalType": "struct ChainOfCustody.BlockInfo[]",
          "name": "",
          "type": "tuple[]"
        }
      ],
      "stateMutability": "view",
      "type": "function",
      "constant": true
    }
  ],
  "bytecode": "0x608060405234801561001057600080fd5b506129f3806100206000396000f3fe608060405234801561001057600080fd5b50600436106100885760003560e01c8063b35af6c31161005b578063b35af6c314610113578063be3ea0d014610143578063c25b1eaf1461015f578063e61f36ae1461019757610088565b8063065cb5941461008d578063458c2682146100ab578063a3585497146100db578063b31edebe146100f7575b600080fd5b6100956101c7565b6040516100a291906122df565b60405180910390f35b6100c560048036038101906100c09190611be8565b610590565b6040516100d291906122bd565b60405180910390f35b6100f560048036038101906100f09190611be8565b610982565b005b610111600480360381019061010c9190611b6b565b610c92565b005b61012d60048036038101906101289190611be8565b610de1565b60405161013a9190612323565b60405180910390f35b61015d60048036038101906101589190611c11565b610e01565b005b61017960048036038101906101749190611bbf565b6110be565b60405161018e9998979695949392919061233e565b60405180910390f35b6101b160048036038101906101ac9190611b42565b61121b565b6040516101be9190612301565b60405180910390f35b60606000808054905067ffffffffffffffff81111561020f577f4e487b7100000000000000000000000000000000000000000000000000000000600052604160045260246000fd5b60405190808252806020026020018201604052801561023d5781602001602082028036833780820191505090505b5090506000805b600080549050811015610448576000805b8381101561034c5760008381548110610297577f4e487b7100000000000000000000000000000000000000000000000000000000600052603260045260246000fd5b906000526020600020906005020160010160089054906101000a90046fffffffffffffffffffffffffffffffff166fffffffffffffffffffffffffffffffff16858281518110610310577f4e487b7100000000000000000000000000000000000000000000000000000000600052603260045260246000fd5b60200260200101516fffffffffffffffffffffffffffffffff161415610339576001915061034c565b8080610344906127ff565b915050610255565b5080610434576000828154811061038c577f4e487b7100000000000000000000000000000000000000000000000000000000600052603260045260246000fd5b906000526020600020906005020160010160089054906101000a90046fffffffffffffffffffffffffffffffff168484815181106103f3577f4e487b7100000000000000000000000000000000000000000000000000000000600052603260045260246000fd5b60200260200101906fffffffffffffffffffffffffffffffff1690816fffffffffffffffffffffffffffffffff16815250508280610430906127ff565b9350505b508080610440906127ff565b915050610244565b5060008167ffffffffffffffff81111561048b577f4e487b7100000000000000000000000000000000000000000000000000000000600052604160045260246000fd5b6040519080825280602002602001820160405280156104b95781602001602082028036833780820191505090505b50905060005b8281101561058657838181518110610500577f4e487b7100000000000000000000000000000000000000000000000000000000600052603260045260246000fd5b6020026020010151828281518110610541577f4e487b7100000000000000000000000000000000000000000000000000000000600052603260045260246000fd5b60200260200101906fffffffffffffffffffffffffffffffff1690816fffffffffffffffffffffffffffffffff1681525050808061057e906127ff565b9150506104bf565b5080935050505090565b60606000808054905067ffffffffffffffff8111156105d8577f4e487b7100000000000000000000000000000000000000000000000000000000600052604160045260246000fd5b60405190808252806020026020018201604052801561061157816020015b6105fe611964565b8152602001906001900390816105f65790505b5090506000805b600080549050811015610854578463ffffffff1660008281548110610666577f4e487b7100000000000000000000000000000000000000000000000000000000600052603260045260246000fd5b906000526020600020906005020160010160189054906101000a900463ffffffff1663ffffffff161415610841576040518060600160405280600083815481106106d9577f4e487b7100000000000000000000000000000000000000000000000000000000600052603260045260246000fd5b906000526020600020906005020160010160009054906101000a900467ffffffffffffffff1667ffffffffffffffff16815260200160008381548110610748577f4e487b7100000000000000000000000000000000000000000000000000000000600052603260045260246000fd5b9060005260206000209060050201600201600c9054906101000a900460601b6bffffffffffffffffffffffff19168152602001600083815481106107b5577f4e487b7100000000000000000000000000000000000000000000000000000000600052603260045260246000fd5b906000526020600020906005020160020160009054906101000a900460a01b73ffffffffffffffffffffffffffffffffffffffff1916815250838381518110610827577f4e487b7100000000000000000000000000000000000000000000000000000000600052603260045260246000fd5b6020026020010181905250818061083d906127ff565b9250505b808061084c906127ff565b915050610618565b5060008167ffffffffffffffff811115610897577f4e487b7100000000000000000000000000000000000000000000000000000000600052604160045260246000fd5b6040519080825280602002602001820160405280156108d057816020015b6108bd611964565b8152602001906001900390816108b55790505b50905060005b8281101561097657838181518110610917577f4e487b7100000000000000000000000000000000000000000000000000000000600052603260045260246000fd5b6020026020010151828281518110610958577f4e487b7100000000000000000000000000000000000000000000000000000000600052603260045260246000fd5b6020026020010181905250808061096e906127ff565b9150506108d6565b50809350505050919050565b600160008263ffffffff1663ffffffff16815260200190815260200160002060009054906101000a900460ff166109ee576040517f08c379a00000000000000000000000000000000000000000000000000000000081526004016109e590612452565b60405180910390fd5b6000806001600080549050610a0391906126ae565b81548110610a3a577f4e487b7100000000000000000000000000000000000000000000000000000000600052603260045260246000fd5b906000526020600020906005020190508163ffffffff168160010160189054906101000a900463ffffffff1663ffffffff1614610aac576040517f08c379a0000000000000000000000000000000000000000000000000000000008152600401610aa390612412565b60405180910390fd5b7f434845434b45444f5554000000000000000000000000000000000000000000008160020160009054906101000a900460a01b73ffffffffffffffffffffffffffffffffffffffff19161415610b37576040517f08c379a0000000000000000000000000000000000000000000000000000000008152600401610b2e906123f2565b60405180910390fd5b610c338160010160089054906101000a90046fffffffffffffffffffffffffffffffff16837f434845434b45444f55540000000000000000000000000000000000000000000084600201600c9054906101000a900460601b8560030160009054906101000a900460601b866004018054610bb0906127cd565b80601f0160208091040260200160405190810160405280929190818152602001828054610bdc906127cd565b8015610c295780601f10610bfe57610100808354040283529160200191610c29565b820191906000526020600020905b815481529060010190602001808311610c0c57829003601f168201915b505050505061153b565b7f431bdc219b0c2d27308a12cb3b26a63cb93a3eb90bb495bd6db61ed74e2a89ce8160010160089054906101000a90046fffffffffffffffffffffffffffffffff168342604051610c8693929190612516565b60405180910390a15050565b60005b8151811015610ddc5760016000838381518110610cdb577f4e487b7100000000000000000000000000000000000000000000000000000000600052603260045260246000fd5b602002602001015163ffffffff1663ffffffff16815260200190815260200160002060009054906101000a900460ff1615610d4b576040517f08c379a0000000000000000000000000000000000000000000000000000000008152600401610d4290612432565b60405180910390fd5b610dc983838381518110610d88577f4e487b7100000000000000000000000000000000000000000000000000000000600052603260045260246000fd5b60200260200101517f434845434b4544494e00000000000000000000000000000000000000000000006000806040518060200160405280600081525061153b565b8080610dd4906127ff565b915050610c95565b505050565b60016020528060005260406000206000915054906101000a900460ff1681565b600160008463ffffffff1663ffffffff16815260200190815260200160002060009054906101000a900460ff16610e6d576040517f08c379a0000000000000000000000000000000000000000000000000000000008152600401610e6490612452565b60405180910390fd5b6000806001600080549050610e8291906126ae565b81548110610eb9577f4e487b7100000000000000000000000000000000000000000000000000000000600052603260045260246000fd5b906000526020600020906005020190508363ffffffff168160010160189054906101000a900463ffffffff1663ffffffff16148015610f4057507f434845434b4544494e00000000000000000000000000000000000000000000008160020160009054906101000a900460a01b73ffffffffffffffffffffffffffffffffffffffff191614155b610f7f576040517f08c379a0000000000000000000000000000000000000000000000000000000008152600401610f76906123d2565b60405180910390fd5b6110598160010160089054906101000a90046fffffffffffffffffffffffffffffffff16857f434845434b4544494e00000000000000000000000000000000000000000000008686866004018054610fd6906127cd565b80601f0160208091040260200160405190810160405280929190818152602001828054611002906127cd565b801561104f5780601f106110245761010080835404028352916020019161104f565b820191906000526020600020905b81548152906001019060200180831161103257829003601f168201915b505050505061153b565b7f295c59dff86b4ef8e7514d4fa0df6bdfaf948683cef98e9e3dac64a5168c8ccb8160010160089054906101000a90046fffffffffffffffffffffffffffffffff16854286866040516110b09594939291906124b7565b60405180910390a150505050565b600081815481106110ce57600080fd5b90600052602060002090600502016000915090508060000154908060010160009054906101000a900467ffffffffffffffff16908060010160089054906101000a90046fffffffffffffffffffffffffffffffff16908060010160189054906101000a900463ffffffff16908060020160009054906101000a900460a01b9080600201600c9054906101000a900460601b908060030160009054906101000a900460601b908060030160149054906101000a900463ffffffff1690806004018054611198906127cd565b80601f01602080910402602001604051908101604052809291908181526020018280546111c4906127cd565b80156112115780601f106111e657610100808354040283529160200191611211565b820191906000526020600020905b8154815290600101906020018083116111f457829003601f168201915b5050505050905089565b60606000808054905067ffffffffffffffff811115611263577f4e487b7100000000000000000000000000000000000000000000000000000000600052604160045260246000fd5b6040519080825280602002602001820160405280156112915781602001602082028036833780820191505090505b5090506000805b60008054905081101561140957846fffffffffffffffffffffffffffffffff16600082815481106112f2577f4e487b7100000000000000000000000000000000000000000000000000000000600052603260045260246000fd5b906000526020600020906005020160010160089054906101000a90046fffffffffffffffffffffffffffffffff166fffffffffffffffffffffffffffffffff1614156113f65760008181548110611372577f4e487b7100000000000000000000000000000000000000000000000000000000600052603260045260246000fd5b906000526020600020906005020160010160189054906101000a900463ffffffff168383815181106113cd577f4e487b7100000000000000000000000000000000000000000000000000000000600052603260045260246000fd5b602002602001019063ffffffff16908163ffffffff168152505081806113f2906127ff565b9250505b8080611401906127ff565b915050611298565b5060008167ffffffffffffffff81111561144c577f4e487b7100000000000000000000000000000000000000000000000000000000600052604160045260246000fd5b60405190808252806020026020018201604052801561147a5781602001602082028036833780820191505090505b50905060005b8281101561152f578381815181106114c1577f4e487b7100000000000000000000000000000000000000000000000000000000600052603260045260246000fd5b6020026020010151828281518110611502577f4e487b7100000000000000000000000000000000000000000000000000000000600052603260045260246000fd5b602002602001019063ffffffff16908163ffffffff16815250508080611527906127ff565b915050611480565b50809350505050919050565b60008060008054905011611552576000801b61155b565b61155a61182f565b5b9050600042905060008351905060006040518061012001604052808581526020018467ffffffffffffffff1681526020018b6fffffffffffffffffffffffffffffffff1681526020018a63ffffffff1681526020018973ffffffffffffffffffffffffffffffffffffffff19168152602001886bffffffffffffffffffffffff19168152602001876bffffffffffffffffffffffff191681526020018363ffffffff16815260200186815250905060008190806001815401808255809150506001900390600052602060002090600502016000909190919091506000820151816000015560208201518160010160006101000a81548167ffffffffffffffff021916908367ffffffffffffffff16021790555060408201518160010160086101000a8154816fffffffffffffffffffffffffffffffff02191690836fffffffffffffffffffffffffffffffff16021790555060608201518160010160186101000a81548163ffffffff021916908363ffffffff16021790555060808201518160020160006101000a8154816bffffffffffffffffffffffff021916908360a01c021790555060a082015181600201600c6101000a81548173ffffffffffffffffffffffffffffffffffffffff021916908360601c021790555060c08201518160030160006101000a81548173ffffffffffffffffffffffffffffffffffffffff021916908360601c021790555060e08201518160030160146101000a81548163ffffffff021916908363ffffffff1602179055506101008201518160040190805190602001906117ac9291906119b5565b50505060018060008b63ffffffff1663ffffffff16815260200190815260200160002060006101000a81548160ff0219169083151502179055507f608d186a09e958e0feccb2533251b6a50eb9e5e540c4d70d4aa0ce5967083c0c8a8a858b60405161181b9493929190612472565b60405180910390a150505050505050505050565b6000806000600160008054905061184691906126ae565b8154811061187d577f4e487b7100000000000000000000000000000000000000000000000000000000600052603260045260246000fd5b9060005260206000209060050201905080600001548160010160009054906101000a900467ffffffffffffffff168260010160089054906101000a90046fffffffffffffffffffffffffffffffff168360010160189054906101000a900463ffffffff168460020160009054906101000a900460a01b85600201600c9054906101000a900460601b8660030160009054906101000a900460601b8760030160149054906101000a900463ffffffff16886004016040516020016119489998979695949392919061221e565b6040516020818303038152906040528051906020012091505090565b6040518060600160405280600067ffffffffffffffff16815260200160006bffffffffffffffffffffffff19168152602001600073ffffffffffffffffffffffffffffffffffffffff191681525090565b8280546119c1906127cd565b90600052602060002090601f0160209004810192826119e35760008555611a2a565b82601f106119fc57805160ff1916838001178555611a2a565b82800160010185558215611a2a579182015b82811115611a29578251825591602001919060010190611a0e565b5b509050611a379190611a3b565b5090565b5b80821115611a54576000816000905550600101611a3c565b5090565b6000611a6b611a668461258a565b612559565b90508083825260208201905082856020860282011115611a8a57600080fd5b60005b85811015611aba5781611aa08882611b2d565b845260208401935060208301925050600181019050611a8d565b5050509392505050565b600082601f830112611ad557600080fd5b8135611ae5848260208601611a58565b91505092915050565b600081359050611afd81612961565b92915050565b600081359050611b1281612978565b92915050565b600081359050611b278161298f565b92915050565b600081359050611b3c816129a6565b92915050565b600060208284031215611b5457600080fd5b6000611b6284828501611b03565b91505092915050565b60008060408385031215611b7e57600080fd5b6000611b8c85828601611b03565b925050602083013567ffffffffffffffff811115611ba957600080fd5b611bb585828601611ac4565b9150509250929050565b600060208284031215611bd157600080fd5b6000611bdf84828501611b18565b91505092915050565b600060208284031215611bfa57600080fd5b6000611c0884828501611b2d565b91505092915050565b600080600060608486031215611c2657600080fd5b6000611c3486828701611b2d565b9350506020611c4586828701611aee565b9250506040611c5686828701611aee565b9150509250925092565b6000611c6c838361213d565b60608301905092915050565b6000611c84838361217f565b60208301905092915050565b6000611c9c83836121b4565b60208301905092915050565b6000611cb3826125fb565b611cbd818561264e565b9350611cc8836125b6565b8060005b83811015611cf9578151611ce08882611c60565b9750611ceb83612627565b925050600181019050611ccc565b5085935050505092915050565b6000611d1182612606565b611d1b818561265f565b9350611d26836125c6565b8060005b83811015611d57578151611d3e8882611c78565b9750611d4983612634565b925050600181019050611d2a565b5085935050505092915050565b6000611d6f82612611565b611d798185612670565b9350611d84836125d6565b8060005b83811015611db5578151611d9c8882611c90565b9750611da783612641565b925050600181019050611d88565b5085935050505092915050565b611dcb816126e2565b82525050565b611dda816126ee565b82525050565b611de9816126ee565b82525050565b611e00611dfb826126ee565b612848565b82525050565b611e0f8161271a565b82525050565b611e1e8161271a565b82525050565b611e35611e308261271a565b612852565b82525050565b611e4481612746565b82525050565b611e5b611e5682612746565b61285c565b82525050565b6000611e6c8261261c565b611e768185612681565b9350611e8681856020860161279a565b611e8f81612929565b840191505092915050565b60008154611ea7816127cd565b611eb18186612692565b94506001821660008114611ecc5760018114611edd57611f10565b60ff19831686528186019350611f10565b611ee6856125e6565b60005b83811015611f0857815481890152600182019150602081019050611ee9565b838801955050505b50505092915050565b7f434845434b4544494e0000000000000000000000000000000000000000000000815250565b7f434845434b45444f555400000000000000000000000000000000000000000000815250565b6000611f72603b8361269d565b91507f4572726f723a204974656d20616c726561647920636865636b656420696e206f60008301527f72206e6f7420746865206c617374207472616e73616374696f6e2e00000000006020830152604082019050919050565b6000611fd860438361269d565b91507f4572726f723a2043616e6e6f7420636865636b206f7574206120636865636b6560008301527f64206f7574206974656d2e204d75737420636865636b20697420696e2066697260208301527f73742e00000000000000000000000000000000000000000000000000000000006040830152606082019050919050565b6000612064601b8361269d565b91507f4572726f723a2057726f6e672065766964656e6365206974656d2e00000000006000830152602082019050919050565b60006120a4601f8361269d565b91507f45766964656e6365206974656d204944206d75737420626520756e69717565006000830152602082019050919050565b60006120e460248361269d565b91507f4572726f723a2045766964656e6365206974656d20646f6573206e6f7420657860008301527f6973742e000000000000000000000000000000000000000000000000000000006020830152604082019050919050565b60608201600082015161215360008501826121e9565b5060208201516121666020850182611e06565b5060408201516121796040850182611dd1565b50505050565b61218881612750565b82525050565b61219781612750565b82525050565b6121ae6121a982612750565b612866565b82525050565b6121bd81612776565b82525050565b6121cc81612776565b82525050565b6121e36121de82612776565b612878565b82525050565b6121f281612786565b82525050565b61220181612786565b82525050565b61221861221382612786565b61288a565b82525050565b600061222a828c611e4a565b60208201915061223a828b612207565b60088201915061224a828a61219d565b60108201915061225a82896121d2565b60048201915061226a8288611def565b600c8201915061227a8287611e24565b60148201915061228a8286611e24565b60148201915061229a82856121d2565b6004820191506122aa8284611e9a565b91508190509a9950505050505050505050565b600060208201905081810360008301526122d78184611ca8565b905092915050565b600060208201905081810360008301526122f98184611d06565b905092915050565b6000602082019050818103600083015261231b8184611d64565b905092915050565b60006020820190506123386000830184611dc2565b92915050565b600061012082019050612354600083018c611e3b565b612361602083018b6121f8565b61236e604083018a61218e565b61237b60608301896121c3565b6123886080830188611de0565b61239560a0830187611e15565b6123a260c0830186611e15565b6123af60e08301856121c3565b8181036101008301526123c28184611e61565b90509a9950505050505050505050565b600060208201905081810360008301526123eb81611f65565b9050919050565b6000602082019050818103600083015261240b81611fcb565b9050919050565b6000602082019050818103600083015261242b81612057565b9050919050565b6000602082019050818103600083015261244b81612097565b9050919050565b6000602082019050818103600083015261246b816120d7565b9050919050565b6000608082019050612487600083018761218e565b61249460208301866121c3565b6124a160408301856121f8565b6124ae6060830184611de0565b95945050505050565b600060c0820190506124cc600083018861218e565b6124d960208301876121c3565b6124e660408301866121f8565b6124f260608301611f19565b6124ff6080830185611e15565b61250c60a0830184611e15565b9695505050505050565b600060808201905061252b600083018661218e565b61253860208301856121c3565b61254560408301846121f8565b61255160608301611f3f565b949350505050565b6000604051905081810181811067ffffffffffffffff821117156125805761257f6128fa565b5b8060405250919050565b600067ffffffffffffffff8211156125a5576125a46128fa565b5b602082029050602081019050919050565b6000819050602082019050919050565b6000819050602082019050919050565b6000819050602082019050919050565b60008190508160005260206000209050919050565b600081519050919050565b600081519050919050565b600081519050919050565b600081519050919050565b6000602082019050919050565b6000602082019050919050565b6000602082019050919050565b600082825260208201905092915050565b600082825260208201905092915050565b600082825260208201905092915050565b600082825260208201905092915050565b600081905092915050565b600082825260208201905092915050565b60006126b98261276c565b91506126c48361276c565b9250828210156126d7576126d661289c565b5b828203905092915050565b60008115159050919050565b60007fffffffffffffffffffffffff000000000000000000000000000000000000000082169050919050565b60007fffffffffffffffffffffffffffffffffffffffff00000000000000000000000082169050919050565b6000819050919050565b60006fffffffffffffffffffffffffffffffff82169050919050565b6000819050919050565b600063ffffffff82169050919050565b600067ffffffffffffffff82169050919050565b60005b838110156127b857808201518184015260208101905061279d565b838111156127c7576000848401525b50505050565b600060028204905060018216806127e557607f821691505b602082108114156127f9576127f86128cb565b5b50919050565b600061280a8261276c565b91507fffffffffffffffffffffffffffffffffffffffffffffffffffffffffffffffff82141561283d5761283c61289c565b5b600182019050919050565b6000819050919050565b6000819050919050565b6000819050919050565b60006128718261293a565b9050919050565b600061288382612954565b9050919050565b600061289582612947565b9050919050565b7f4e487b7100000000000000000000000000000000000000000000000000000000600052601160045260246000fd5b7f4e487b7100000000000000000000000000000000000000000000000000000000600052602260045260246000fd5b7f4e487b7100000000000000000000000000000000000000000000000000000000600052604160045260246000fd5b6000601f19601f8301169050919050565b60008160801b9050919050565b60008160c01b9050919050565b60008160e01b9050919050565b61296a8161271a565b811461297557600080fd5b50565b61298181612750565b811461298c57600080fd5b50565b6129988161276c565b81146129a357600080fd5b50565b6129af81612776565b81146129ba57600080fd5b5056fea264697066735822122052b35704d1d9366efd3e72a33cc18d734a404fc39efb0a5eabc90f54570b3d8964736f6c63430008000033",
  "immutableReferences": {},
  "source": "// SPDX-License-Identifier: MIT\r\npragma solidity ^0.8.0;\r\n\r\ncontract ChainOfCustody {\r\n    struct Block {\r\n        bytes32 previousHash;\r\n        uint64 timestamp;\r\n        uint128 caseId;\r\n        uint32 evidenceItemId;\r\n        bytes12 state;\r\n        bytes20 handlerName;\r\n        bytes20 organizationName;\r\n        uint32 dataLength;\r\n        bytes data;\r\n    }\r\n\r\n    Block[] public blockchain;\r\n    mapping(uint32 => bool) public evidenceExists;\r\n\r\n    // Event declaration\r\n    event EvidenceItemAdded(\r\n        uint128 caseId,\r\n        uint32 evidenceItemId,\r\n        uint64 timestamp,\r\n        bytes12 state\r\n    );\r\n\r\n    function addEvidenceItems(\r\n        uint128 _caseId,\r\n        uint32[] memory _itemIds\r\n    ) public {\r\n        for (uint i = 0; i < _itemIds.length; i++) {\r\n            require(\r\n                !evidenceExists[_itemIds[i]],\r\n                \"Evidence item ID must be unique\"\r\n            );\r\n            addBlock(_caseId, _itemIds[i], \"CHECKEDIN\", \"\", \"\", \"\");\r\n        }\r\n    }\r\n\r\n    function addBlock(\r\n        uint128 _caseId,\r\n        uint32 _evidenceItemId,\r\n        bytes12 _state,\r\n        bytes20 _handlerName,\r\n        bytes20 _organizationName,\r\n        bytes memory _data\r\n    ) private {\r\n        bytes32 previousHash = blockchain.length > 0\r\n            ? getLatestBlockHash()\r\n            : bytes32(0);\r\n        uint64 timestamp = uint64(block.timestamp);\r\n        uint32 dataLength = uint32(_data.length);\r\n\r\n        Block memory newBlock = Block(\r\n            previousHash,\r\n            timestamp,\r\n            _caseId,\r\n            _evidenceItemId,\r\n            _state,\r\n            _handlerName,\r\n            _organizationName,\r\n            dataLength,\r\n            _data\r\n        );\r\n\r\n        blockchain.push(newBlock);\r\n        evidenceExists[_evidenceItemId] = true;\r\n\r\n        // Emitting the event\r\n        emit EvidenceItemAdded(_caseId, _evidenceItemId, timestamp, _state);\r\n    }\r\n\r\n    function getLatestBlockHash() private view returns (bytes32) {\r\n        Block storage lastBlock = blockchain[blockchain.length - 1];\r\n        return\r\n            keccak256(\r\n                abi.encodePacked(\r\n                    lastBlock.previousHash,\r\n                    lastBlock.timestamp,\r\n                    lastBlock.caseId,\r\n                    lastBlock.evidenceItemId,\r\n                    lastBlock.state,\r\n                    lastBlock.handlerName,\r\n                    lastBlock.organizationName,\r\n                    lastBlock.dataLength,\r\n                    lastBlock.data\r\n                )\r\n            );\r\n    }\r\n\r\n    event EvidenceItemCheckedOut(\r\n        uint128 caseId,\r\n        uint32 evidenceItemId,\r\n        uint64 timestamp,\r\n        bytes12 state\r\n    );\r\n\r\n    function checkoutEvidenceItem(uint32 _evidenceItemId) public {\r\n        require(\r\n            evidenceExists[_evidenceItemId],\r\n            \"Error: Evidence item does not exist.\"\r\n        );\r\n        Block storage lastBlock = blockchain[blockchain.length - 1];\r\n        require(\r\n            lastBlock.evidenceItemId == _evidenceItemId,\r\n            \"Error: Wrong evidence item.\"\r\n        );\r\n        require(\r\n            lastBlock.state != \"CHECKEDOUT\",\r\n            \"Error: Cannot check out a checked out item. Must check it in first.\"\r\n        );\r\n\r\n        // Assuming 'addBlock' function updates the state and creates a new block in the blockchain\r\n        addBlock(\r\n            lastBlock.caseId,\r\n            _evidenceItemId,\r\n            \"CHECKEDOUT\",\r\n            lastBlock.handlerName,\r\n            lastBlock.organizationName,\r\n            lastBlock.data\r\n        );\r\n        emit EvidenceItemCheckedOut(\r\n            lastBlock.caseId,\r\n            _evidenceItemId,\r\n            uint64(block.timestamp),\r\n            \"CHECKEDOUT\"\r\n        );\r\n    }\r\n\r\n    event EvidenceItemCheckedIn(\r\n        uint128 caseId,\r\n        uint32 evidenceItemId,\r\n        uint64 timestamp,\r\n        bytes12 state,\r\n        bytes20 handlerName,\r\n        bytes20 organizationName\r\n    );\r\n\r\n    function checkinEvidenceItem(\r\n        uint32 _evidenceItemId,\r\n        bytes20 _handlerName,\r\n        bytes20 _organizationName\r\n    ) public {\r\n        require(\r\n            evidenceExists[_evidenceItemId],\r\n            \"Error: Evidence item does not exist.\"\r\n        );\r\n\r\n        // Check if the item is not already checked in\r\n        Block storage lastBlock = blockchain[blockchain.length - 1];\r\n        require(\r\n            lastBlock.evidenceItemId == _evidenceItemId &&\r\n                lastBlock.state != \"CHECKEDIN\",\r\n            \"Error: Item already checked in or not the last transaction.\"\r\n        );\r\n\r\n        // Add a new block for checkin\r\n        addBlock(\r\n            lastBlock.caseId,\r\n            _evidenceItemId,\r\n            \"CHECKEDIN\",\r\n            _handlerName,\r\n            _organizationName,\r\n            lastBlock.data\r\n        );\r\n        emit EvidenceItemCheckedIn(\r\n            lastBlock.caseId,\r\n            _evidenceItemId,\r\n            uint64(block.timestamp),\r\n            \"CHECKEDIN\",\r\n            _handlerName,\r\n            _organizationName\r\n        );\r\n    }\r\n\r\n    function getCases() public view returns (uint128[] memory) {\r\n        uint128[] memory cases = new uint128[](blockchain.length);\r\n        uint count = 0;\r\n\r\n        for (uint i = 0; i < blockchain.length; i++) {\r\n            bool exists = false;\r\n            for (uint j = 0; j < count; j++) {\r\n                if (cases[j] == blockchain[i].caseId) {\r\n                    exists = true;\r\n                    break;\r\n                }\r\n            }\r\n            if (!exists) {\r\n                cases[count] = blockchain[i].caseId;\r\n                count++;\r\n            }\r\n        }\r\n\r\n        // Resize the array to fit the actual number of unique cases\r\n        uint128[] memory uniqueCases = new uint128[](count);\r\n        for (uint i = 0; i < count; i++) {\r\n            uniqueCases[i] = cases[i];\r\n        }\r\n\r\n        return uniqueCases;\r\n    }\r\n\r\n    function getItemsForCase(\r\n        uint128 _caseId\r\n    ) public view returns (uint32[] memory) {\r\n        uint32[] memory itemsTemp = new uint32[](blockchain.length);\r\n        uint count = 0;\r\n\r\n        for (uint i = 0; i < blockchain.length; i++) {\r\n            if (blockchain[i].caseId == _caseId) {\r\n                itemsTemp[count] = blockchain[i].evidenceItemId;\r\n                count++;\r\n            }\r\n        }\r\n\r\n        // Resize the array to fit the actual number of items for the case\r\n        uint32[] memory items = new uint32[](count);\r\n        for (uint i = 0; i < count; i++) {\r\n            items[i] = itemsTemp[i];\r\n        }\r\n\r\n        return items;\r\n    }\r\n    struct BlockInfo {\r\n        uint64 timestamp;\r\n        bytes20 handlerName;\r\n        bytes12 state;\r\n    }\r\n\r\n    function getItemHistory(uint32 _itemId) public view returns (BlockInfo[] memory) {\r\n        BlockInfo[] memory history = new BlockInfo[](blockchain.length);\r\n        uint count = 0;\r\n\r\n        for (uint i = 0; i < blockchain.length; i++) {\r\n            if (blockchain[i].evidenceItemId == _itemId) {\r\n                history[count] = BlockInfo(\r\n                    blockchain[i].timestamp,\r\n                    blockchain[i].handlerName,\r\n                    blockchain[i].state\r\n                );\r\n                count++;\r\n            }\r\n        }\r\n\r\n        // Resize the array to fit the actual number of entries for the item\r\n        BlockInfo[] memory itemHistory = new BlockInfo[](count);\r\n        for (uint i = 0; i < count; i++) {\r\n            itemHistory[i] = history[i];\r\n        }\r\n\r\n        return itemHistory;\r\n    }\r\n}\r\n",
  "sourcePath": "C:\\Users\\sharm\\Dropbox (ASU)\\CSE 469 CNF\\Group Project\\blockchain_chain_of_custody\\chain_of_custody\\contracts\\ChainOfCustody.sol",
  "compiler": {
    "name": "solc",
    "version": "0.8.0+commit.c7dfd78e.Emscripten.clang"
  },
  "schemaVersion": "3.4.16",
  "updatedAt": "2023-11-25T04:50:00.653Z",
  "networkType": "ethereum",
  "devdoc": {
    "kind": "dev",
    "methods": {},
    "version": 1
  },
  "userdoc": {
    "kind": "user",
    "methods": {},
    "version": 1
  }
}