{
  "contractName": "ChainOfCustody",
  "abi": [
    {
      "anonymous": false,
      "inputs": [
        {
          "indexed": true,
          "internalType": "uint128",
          "name": "caseId",
          "type": "uint128"
        },
        {
          "indexed": true,
          "internalType": "uint32",
          "name": "evidenceItemId",
          "type": "uint32"
        },
        {
          "indexed": false,
          "internalType": "uint64",
          "name": "timestamp",
          "type": "uint64"
        },
        {
          "indexed": false,
          "internalType": "string",
          "name": "state",
          "type": "string"
        },
        {
          "indexed": false,
          "internalType": "string",
          "name": "handlerName",
          "type": "string"
        },
        {
          "indexed": false,
          "internalType": "string",
          "name": "organizationName",
          "type": "string"
        }
      ],
      "name": "EvidenceItemAdded",
      "type": "event"
    },
    {
      "anonymous": false,
      "inputs": [
        {
          "indexed": true,
          "internalType": "uint128",
          "name": "caseId",
          "type": "uint128"
        },
        {
          "indexed": true,
          "internalType": "uint32",
          "name": "evidenceItemId",
          "type": "uint32"
        },
        {
          "indexed": false,
          "internalType": "uint64",
          "name": "timestamp",
          "type": "uint64"
        },
        {
          "indexed": false,
          "internalType": "string",
          "name": "state",
          "type": "string"
        },
        {
          "indexed": false,
          "internalType": "string",
          "name": "handlerName",
          "type": "string"
        },
        {
          "indexed": false,
          "internalType": "string",
          "name": "organizationName",
          "type": "string"
        }
      ],
      "name": "EvidenceItemCheckedIn",
      "type": "event"
    },
    {
      "anonymous": false,
      "inputs": [
        {
          "indexed": true,
          "internalType": "uint128",
          "name": "caseId",
          "type": "uint128"
        },
        {
          "indexed": true,
          "internalType": "uint32",
          "name": "evidenceItemId",
          "type": "uint32"
        },
        {
          "indexed": false,
          "internalType": "string",
          "name": "handlerName",
          "type": "string"
        },
        {
          "indexed": false,
          "internalType": "string",
          "name": "organizationName",
          "type": "string"
        },
        {
          "indexed": false,
          "internalType": "uint64",
          "name": "timestamp",
          "type": "uint64"
        },
        {
          "indexed": false,
          "internalType": "string",
          "name": "state",
          "type": "string"
        }
      ],
      "name": "EvidenceItemCheckedOut",
      "type": "event"
    },
    {
      "anonymous": false,
      "inputs": [
        {
          "indexed": false,
          "internalType": "uint128",
          "name": "caseId",
          "type": "uint128"
        },
        {
          "indexed": false,
          "internalType": "uint32",
          "name": "evidenceItemId",
          "type": "uint32"
        },
        {
          "indexed": false,
          "internalType": "uint64",
          "name": "timestamp",
          "type": "uint64"
        },
        {
          "indexed": false,
          "internalType": "string",
          "name": "reason",
          "type": "string"
        },
        {
          "indexed": false,
          "internalType": "string",
          "name": "ownerInfo",
          "type": "string"
        }
      ],
      "name": "EvidenceItemRemoved",
      "type": "event"
    },
    {
      "inputs": [
        {
          "internalType": "uint256",
          "name": "",
          "type": "uint256"
        }
      ],
      "name": "blockchain",
      "outputs": [
        {
          "internalType": "bytes32",
          "name": "previousHash",
          "type": "bytes32"
        },
        {
          "internalType": "uint64",
          "name": "timestamp",
          "type": "uint64"
        },
        {
          "internalType": "uint128",
          "name": "caseId",
          "type": "uint128"
        },
        {
          "internalType": "uint32",
          "name": "evidenceItemId",
          "type": "uint32"
        },
        {
          "internalType": "string",
          "name": "state",
          "type": "string"
        },
        {
          "internalType": "string",
          "name": "handlerName",
          "type": "string"
        },
        {
          "internalType": "string",
          "name": "organizationName",
          "type": "string"
        },
        {
          "internalType": "string",
          "name": "reason",
          "type": "string"
        },
        {
          "internalType": "uint32",
          "name": "dataLength",
          "type": "uint32"
        },
        {
          "internalType": "bytes",
          "name": "data",
          "type": "bytes"
        }
      ],
      "stateMutability": "view",
      "type": "function",
      "constant": true
    },
    {
      "inputs": [
        {
          "internalType": "uint32",
          "name": "",
          "type": "uint32"
        }
      ],
      "name": "evidenceExists",
      "outputs": [
        {
          "internalType": "bool",
          "name": "",
          "type": "bool"
        }
      ],
      "stateMutability": "view",
      "type": "function",
      "constant": true
    },
    {
      "inputs": [
        {
          "internalType": "uint128",
          "name": "_caseId",
          "type": "uint128"
        },
        {
          "internalType": "uint32[]",
          "name": "_itemIds",
          "type": "uint32[]"
        },
        {
          "internalType": "string",
          "name": "_handlerName",
          "type": "string"
        },
        {
          "internalType": "string",
          "name": "_organizationName",
          "type": "string"
        }
      ],
      "name": "addEvidenceItems",
      "outputs": [],
      "stateMutability": "nonpayable",
      "type": "function"
    },
    {
      "inputs": [
        {
          "internalType": "uint32",
          "name": "_evidenceItemId",
          "type": "uint32"
        },
        {
          "internalType": "string",
          "name": "_handlerName",
          "type": "string"
        },
        {
          "internalType": "string",
          "name": "_organizationName",
          "type": "string"
        }
      ],
      "name": "checkoutEvidenceItem",
      "outputs": [],
      "stateMutability": "nonpayable",
      "type": "function"
    },
    {
      "inputs": [
        {
          "internalType": "uint32",
          "name": "_evidenceItemId",
          "type": "uint32"
        },
        {
          "internalType": "string",
          "name": "_handlerName",
          "type": "string"
        },
        {
          "internalType": "string",
          "name": "_organizationName",
          "type": "string"
        }
      ],
      "name": "checkinEvidenceItem",
      "outputs": [],
      "stateMutability": "nonpayable",
      "type": "function"
    },
    {
      "inputs": [],
      "name": "getCases",
      "outputs": [
        {
          "internalType": "uint128[]",
          "name": "",
          "type": "uint128[]"
        }
      ],
      "stateMutability": "view",
      "type": "function",
      "constant": true
    },
    {
      "inputs": [
        {
          "internalType": "uint128",
          "name": "_caseId",
          "type": "uint128"
        }
      ],
      "name": "getItemsForCase",
      "outputs": [
        {
          "internalType": "uint32[]",
          "name": "",
          "type": "uint32[]"
        }
      ],
      "stateMutability": "view",
      "type": "function",
      "constant": true
    },
    {
      "inputs": [
        {
          "internalType": "uint32",
          "name": "_itemId",
          "type": "uint32"
        }
      ],
      "name": "getItemHistory",
      "outputs": [
        {
          "components": [
            {
              "internalType": "uint128",
              "name": "caseId",
              "type": "uint128"
            },
            {
              "internalType": "uint32",
              "name": "evidenceItemId",
              "type": "uint32"
            },
            {
              "internalType": "uint64",
              "name": "timestamp",
              "type": "uint64"
            },
            {
              "internalType": "string",
              "name": "state",
              "type": "string"
            },
            {
              "internalType": "string",
              "name": "handlerName",
              "type": "string"
            }
          ],
          "internalType": "struct ChainOfCustody.BlockInfo[]",
          "name": "",
          "type": "tuple[]"
        }
      ],
      "stateMutability": "view",
      "type": "function",
      "constant": true
    },
    {
      "inputs": [
        {
          "internalType": "uint32",
          "name": "_evidenceItemId",
          "type": "uint32"
        },
        {
          "internalType": "string",
          "name": "_reason",
          "type": "string"
        },
        {
          "internalType": "string",
          "name": "_ownerInfo",
          "type": "string"
        }
      ],
      "name": "removeEvidenceItem",
      "outputs": [],
      "stateMutability": "nonpayable",
      "type": "function"
    },
    {
      "inputs": [],
      "name": "getBlockCount",
      "outputs": [
        {
          "internalType": "uint256",
          "name": "",
          "type": "uint256"
        }
      ],
      "stateMutability": "view",
      "type": "function",
      "constant": true
    },
    {
      "inputs": [],
      "name": "verifyBlockchain",
      "outputs": [
        {
          "internalType": "string",
          "name": "",
          "type": "string"
        }
      ],
      "stateMutability": "view",
      "type": "function",
      "constant": true
    },
    {
      "inputs": [],
      "name": "getBadBlockInfo",
      "outputs": [
        {
          "internalType": "string",
          "name": "",
          "type": "string"
        },
        {
          "internalType": "string",
          "name": "",
          "type": "string"
        },
        {
          "internalType": "string",
          "name": "",
          "type": "string"
        }
      ],
      "stateMutability": "view",
      "type": "function",
      "constant": true
    },
    {
      "inputs": [
        {
          "internalType": "bytes",
          "name": "data",
          "type": "bytes"
        }
      ],
      "name": "bytesToHexString",
      "outputs": [
        {
          "internalType": "string",
          "name": "",
          "type": "string"
        }
      ],
      "stateMutability": "pure",
      "type": "function",
      "constant": true
    }
  ],
  "bytecode": "0x608060405234801561001057600080fd5b50614db5806100206000396000f3fe608060405234801561001057600080fd5b50600436106100cf5760003560e01c8063b35af6c31161008c578063cc0bd62e11610066578063cc0bd62e1461022d578063d2bacbc81461024b578063e3f9c18b14610267578063e61f36ae14610287576100cf565b8063b35af6c3146101a8578063bfc260de146101d8578063c25b1eaf146101f4576100cf565b8063065cb594146100d45780631da10984146100f2578063458c26821461010e5780634f54e9241461013e57806354c076451461015a5780637d520c2214610178575b600080fd5b6100dc6102b7565b6040516100e9919061432e565b60405180910390f35b61010c600480360381019061010791906138d3565b610680565b005b610128600480360381019061012391906138aa565b610917565b604051610135919061430c565b60405180910390f35b610158600480360381019061015391906138d3565b610ebf565b005b61016261130b565b60405161016f919061444c565b60405180910390f35b610192600480360381019061018d919061376c565b61141e565b60405161019f919061444c565b60405180910390f35b6101c260048036038101906101bd91906138aa565b611645565b6040516101cf9190614372565b60405180910390f35b6101f260048036038101906101ed91906137d6565b611665565b005b61020e60048036038101906102099190613881565b6117da565b6040516102249a9998979695949392919061438d565b60405180910390f35b610235611b36565b6040516102429190614653565b60405180910390f35b610265600480360381019061026091906138d3565b611b42565b005b61026f611efc565b60405161027e9392919061446e565b60405180910390f35b6102a1600480360381019061029c91906137ad565b612873565b6040516102ae9190614350565b60405180910390f35b60606000808054905067ffffffffffffffff8111156102ff577f4e487b7100000000000000000000000000000000000000000000000000000000600052604160045260246000fd5b60405190808252806020026020018201604052801561032d5781602001602082028036833780820191505090505b5090506000805b600080549050811015610538576000805b8381101561043c5760008381548110610387577f4e487b7100000000000000000000000000000000000000000000000000000000600052603260045260246000fd5b906000526020600020906008020160010160089054906101000a90046fffffffffffffffffffffffffffffffff166fffffffffffffffffffffffffffffffff16858281518110610400577f4e487b7100000000000000000000000000000000000000000000000000000000600052603260045260246000fd5b60200260200101516fffffffffffffffffffffffffffffffff161415610429576001915061043c565b808061043490614b68565b915050610345565b5080610524576000828154811061047c577f4e487b7100000000000000000000000000000000000000000000000000000000600052603260045260246000fd5b906000526020600020906008020160010160089054906101000a90046fffffffffffffffffffffffffffffffff168484815181106104e3577f4e487b7100000000000000000000000000000000000000000000000000000000600052603260045260246000fd5b60200260200101906fffffffffffffffffffffffffffffffff1690816fffffffffffffffffffffffffffffffff1681525050828061052090614b68565b9350505b50808061053090614b68565b915050610334565b5060008167ffffffffffffffff81111561057b577f4e487b7100000000000000000000000000000000000000000000000000000000600052604160045260246000fd5b6040519080825280602002602001820160405280156105a95781602001602082028036833780820191505090505b50905060005b82811015610676578381815181106105f0577f4e487b7100000000000000000000000000000000000000000000000000000000600052603260045260246000fd5b6020026020010151828281518110610631577f4e487b7100000000000000000000000000000000000000000000000000000000600052603260045260246000fd5b60200260200101906fffffffffffffffffffffffffffffffff1690816fffffffffffffffffffffffffffffffff1681525050808061066e90614b68565b9150506105af565b5080935050505090565b600160008463ffffffff1663ffffffff16815260200190815260200160002060009054906101000a900460ff166106ec576040517f08c379a00000000000000000000000000000000000000000000000000000000081526004016106e3906145d2565b60405180910390fd5b6000808060008054905090505b6000811115610818576000806001836107129190614a29565b81548110610749577f4e487b7100000000000000000000000000000000000000000000000000000000600052603260045260246000fd5b906000526020600020906008020190508663ffffffff168160010160189054906101000a900463ffffffff1663ffffffff16141561080457604051602001610790906142f7565b60405160208183030381529060405280519060200120816002016040516020016107ba91906142cb565b60405160208183030381529060405280519060200120141561080357600193508060010160089054906101000a90046fffffffffffffffffffffffffffffffff16925050610818565b5b50808061081090614b0c565b9150506106f9565b5081610859576040517f08c379a000000000000000000000000000000000000000000000000000000000815260040161085090614512565b60405180910390fd5b6108bb81866040518060400160405280600981526020017f434845434b4544494e000000000000000000000000000000000000000000000081525087876040518060200160405280600081525060405180602001604052806000815250612b93565b8463ffffffff16816fffffffffffffffffffffffffffffffff167f44d659db232b167aceca42204e10ebf4f34fe865b7f8911e56bb7e4fe141eb24428787604051610908939291906146c8565b60405180910390a35050505050565b60606000808054905067ffffffffffffffff81111561095f577f4e487b7100000000000000000000000000000000000000000000000000000000600052604160045260246000fd5b60405190808252806020026020018201604052801561099857816020015b61098561344d565b81526020019060019003908161097d5790505b5090506000805b600080549050811015610d91578463ffffffff16600082815481106109ed577f4e487b7100000000000000000000000000000000000000000000000000000000600052603260045260246000fd5b906000526020600020906008020160010160189054906101000a900463ffffffff1663ffffffff161415610d7e576040518060a0016040528060008381548110610a60577f4e487b7100000000000000000000000000000000000000000000000000000000600052603260045260246000fd5b906000526020600020906008020160010160089054906101000a90046fffffffffffffffffffffffffffffffff166fffffffffffffffffffffffffffffffff16815260200160008381548110610adf577f4e487b7100000000000000000000000000000000000000000000000000000000600052603260045260246000fd5b906000526020600020906008020160010160189054906101000a900463ffffffff1663ffffffff16815260200160008381548110610b46577f4e487b7100000000000000000000000000000000000000000000000000000000600052603260045260246000fd5b906000526020600020906008020160010160009054906101000a900467ffffffffffffffff1667ffffffffffffffff16815260200160008381548110610bb5577f4e487b7100000000000000000000000000000000000000000000000000000000600052603260045260246000fd5b90600052602060002090600802016002018054610bd190614b36565b80601f0160208091040260200160405190810160405280929190818152602001828054610bfd90614b36565b8015610c4a5780601f10610c1f57610100808354040283529160200191610c4a565b820191906000526020600020905b815481529060010190602001808311610c2d57829003601f168201915b5050505050815260200160008381548110610c8e577f4e487b7100000000000000000000000000000000000000000000000000000000600052603260045260246000fd5b90600052602060002090600802016003018054610caa90614b36565b80601f0160208091040260200160405190810160405280929190818152602001828054610cd690614b36565b8015610d235780601f10610cf857610100808354040283529160200191610d23565b820191906000526020600020905b815481529060010190602001808311610d0657829003601f168201915b5050505050815250838381518110610d64577f4e487b7100000000000000000000000000000000000000000000000000000000600052603260045260246000fd5b60200260200101819052508180610d7a90614b68565b9250505b8080610d8990614b68565b91505061099f565b5060008167ffffffffffffffff811115610dd4577f4e487b7100000000000000000000000000000000000000000000000000000000600052604160045260246000fd5b604051908082528060200260200182016040528015610e0d57816020015b610dfa61344d565b815260200190600190039081610df25790505b50905060005b82811015610eb357838181518110610e54577f4e487b7100000000000000000000000000000000000000000000000000000000600052603260045260246000fd5b6020026020010151828281518110610e95577f4e487b7100000000000000000000000000000000000000000000000000000000600052603260045260246000fd5b60200260200101819052508080610eab90614b68565b915050610e13565b50809350505050919050565b600160008463ffffffff1663ffffffff16815260200190815260200160002060009054906101000a900460ff16610f2b576040517f08c379a0000000000000000000000000000000000000000000000000000000008152600401610f22906145d2565b60405180910390fd5b6000806001600080549050610f409190614a29565b81548110610f77577f4e487b7100000000000000000000000000000000000000000000000000000000600052603260045260246000fd5b906000526020600020906008020190508363ffffffff168160010160189054906101000a900463ffffffff1663ffffffff1614610fe9576040517f08c379a0000000000000000000000000000000000000000000000000000000008152600401610fe090614572565b60405180910390fd5b604051602001610ff8906142f7565b604051602081830303815290604052805190602001208160020160405160200161102291906142cb565b604051602081830303815290604052805190602001201415611079576040517f08c379a000000000000000000000000000000000000000000000000000000000815260040161107090614552565b60405180910390fd5b6112908160010160089054906101000a90046fffffffffffffffffffffffffffffffff16856040518060400160405280600a81526020017f434845434b45444f5554000000000000000000000000000000000000000000008152508460030180546110e390614b36565b80601f016020809104026020016040519081016040528092919081815260200182805461110f90614b36565b801561115c5780601f106111315761010080835404028352916020019161115c565b820191906000526020600020905b81548152906001019060200180831161113f57829003601f168201915b505050505085600401805461117090614b36565b80601f016020809104026020016040519081016040528092919081815260200182805461119c90614b36565b80156111e95780601f106111be576101008083540402835291602001916111e9565b820191906000526020600020905b8154815290600101906020018083116111cc57829003601f168201915b50505050506040518060200160405280600081525087600701805461120d90614b36565b80601f016020809104026020016040519081016040528092919081815260200182805461123990614b36565b80156112865780601f1061125b57610100808354040283529160200191611286565b820191906000526020600020905b81548152906001019060200180831161126957829003601f168201915b5050505050612b93565b8363ffffffff168160010160089054906101000a90046fffffffffffffffffffffffffffffffff166fffffffffffffffffffffffffffffffff167f8d091e6724281a24ed036e6fc30d2d911d68131901cf4e8e63b0ac0247f5047d8585426040516112fd939291906144ba565b60405180910390a350505050565b60606000611317611b36565b90506000600190505b818110156113e05761133d6001826113389190614a29565b612e54565b60008281548110611377577f4e487b7100000000000000000000000000000000000000000000000000000000600052603260045260246000fd5b906000526020600020906008020160000154146113cd576040518060400160405280600581526020017f4552524f520000000000000000000000000000000000000000000000000000008152509250505061141b565b80806113d890614b68565b915050611320565b506040518060400160405280600581526020017f434c45414e0000000000000000000000000000000000000000000000000000008152509150505b90565b606060008251600261143091906149cf565b67ffffffffffffffff81111561146f577f4e487b7100000000000000000000000000000000000000000000000000000000600052604160045260246000fd5b6040519080825280601f01601f1916602001820160405280156114a15781602001600182028036833780820191505090505b50905060005b835181101561163b5760008482815181106114eb577f4e487b7100000000000000000000000000000000000000000000000000000000600052603260045260246000fd5b602001015160f81c60f81b60f81c9050603060108261150a919061499e565b6115149190614967565b60f81b8383600261152591906149cf565b8151811061155c577f4e487b7100000000000000000000000000000000000000000000000000000000600052603260045260246000fd5b60200101907effffffffffffffffffffffffffffffffffffffffffffffffffffffffffffff1916908160001a905350603060108261159a9190614bf1565b6115a49190614967565b60f81b8360018460026115b791906149cf565b6115c19190614911565b815181106115f8577f4e487b7100000000000000000000000000000000000000000000000000000000600052603260045260246000fd5b60200101907effffffffffffffffffffffffffffffffffffffffffffffffffffffffffffff1916908160001a90535050808061163390614b68565b9150506114a7565b5080915050919050565b60016020528060005260406000206000915054906101000a900460ff1681565b60005b83518110156117d357600160008583815181106116ae577f4e487b7100000000000000000000000000000000000000000000000000000000600052603260045260246000fd5b602002602001015163ffffffff1663ffffffff16815260200190815260200160002060009054906101000a900460ff161561171e576040517f08c379a000000000000000000000000000000000000000000000000000000000815260040161171590614592565b60405180910390fd5b6117c08585838151811061175b577f4e487b7100000000000000000000000000000000000000000000000000000000600052603260045260246000fd5b60200260200101516040518060400160405280600981526020017f434845434b4544494e000000000000000000000000000000000000000000000081525086866040518060200160405280600081525060405180602001604052806000815250612b93565b80806117cb90614b68565b915050611668565b5050505050565b600081815481106117ea57600080fd5b90600052602060002090600802016000915090508060000154908060010160009054906101000a900467ffffffffffffffff16908060010160089054906101000a90046fffffffffffffffffffffffffffffffff16908060010160189054906101000a900463ffffffff169080600201805461186590614b36565b80601f016020809104026020016040519081016040528092919081815260200182805461189190614b36565b80156118de5780601f106118b3576101008083540402835291602001916118de565b820191906000526020600020905b8154815290600101906020018083116118c157829003601f168201915b5050505050908060030180546118f390614b36565b80601f016020809104026020016040519081016040528092919081815260200182805461191f90614b36565b801561196c5780601f106119415761010080835404028352916020019161196c565b820191906000526020600020905b81548152906001019060200180831161194f57829003601f168201915b50505050509080600401805461198190614b36565b80601f01602080910402602001604051908101604052809291908181526020018280546119ad90614b36565b80156119fa5780601f106119cf576101008083540402835291602001916119fa565b820191906000526020600020905b8154815290600101906020018083116119dd57829003601f168201915b505050505090806005018054611a0f90614b36565b80601f0160208091040260200160405190810160405280929190818152602001828054611a3b90614b36565b8015611a885780601f10611a5d57610100808354040283529160200191611a88565b820191906000526020600020905b815481529060010190602001808311611a6b57829003601f168201915b5050505050908060060160009054906101000a900463ffffffff1690806007018054611ab390614b36565b80601f0160208091040260200160405190810160405280929190818152602001828054611adf90614b36565b8015611b2c5780601f10611b0157610100808354040283529160200191611b2c565b820191906000526020600020905b815481529060010190602001808311611b0f57829003601f168201915b505050505090508a565b60008080549050905090565b600160008463ffffffff1663ffffffff16815260200190815260200160002060009054906101000a900460ff16611bae576040517f08c379a0000000000000000000000000000000000000000000000000000000008152600401611ba5906145d2565b60405180910390fd5b6000806001600080549050611bc39190614a29565b81548110611bfa577f4e487b7100000000000000000000000000000000000000000000000000000000600052603260045260246000fd5b906000526020600020906008020190508363ffffffff168160010160189054906101000a900463ffffffff1663ffffffff16148015611c855750604051602001611c43906142e2565b6040516020818303038152906040528051906020012081600201604051602001611c6d91906142cb565b60405160208183030381529060405280519060200120145b611cc4576040517f08c379a0000000000000000000000000000000000000000000000000000000008152600401611cbb90614532565b60405180910390fd5b611e978160010160089054906101000a90046fffffffffffffffffffffffffffffffff168585846003018054611cf990614b36565b80601f0160208091040260200160405190810160405280929190818152602001828054611d2590614b36565b8015611d725780601f10611d4757610100808354040283529160200191611d72565b820191906000526020600020905b815481529060010190602001808311611d5557829003601f168201915b5050505050856004018054611d8690614b36565b80601f0160208091040260200160405190810160405280929190818152602001828054611db290614b36565b8015611dff5780601f10611dd457610100808354040283529160200191611dff565b820191906000526020600020905b815481529060010190602001808311611de257829003601f168201915b505050505087876007018054611e1490614b36565b80601f0160208091040260200160405190810160405280929190818152602001828054611e4090614b36565b8015611e8d5780601f10611e6257610100808354040283529160200191611e8d565b820191906000526020600020905b815481529060010190602001808311611e7057829003601f168201915b5050505050612b93565b7f131b0104fffef9791a656820b9d5349cb76c71fee3129316cd22fb398cee5b5d8160010160089054906101000a90046fffffffffffffffffffffffffffffffff1685428686604051611eee9594939291906145f2565b60405180910390a150505050565b60608060606000611f0b611b36565b90506000600190505b8181101561283557611f31600182611f2c9190614a29565b612e54565b60008281548110611f6b577f4e487b7100000000000000000000000000000000000000000000000000000000600052603260045260246000fd5b9060005260206000209060080201600001541461203657611fd660008281548110611fbf577f4e487b7100000000000000000000000000000000000000000000000000000000600052603260045260246000fd5b9060005260206000209060080201600001546132ab565b611ff3611fee600184611fe99190614a29565b612e54565b6132ab565b6040518060400160405280601081526020017f504152454e545f4e4f545f464f554e4400000000000000000000000000000000815250945094509450505061286e565b6001811180156120e7575060006002826120509190614a29565b81548110612087577f4e487b7100000000000000000000000000000000000000000000000000000000600052603260045260246000fd5b906000526020600020906008020160000154600082815481106120d3577f4e487b7100000000000000000000000000000000000000000000000000000000600052603260045260246000fd5b906000526020600020906008020160000154145b156121e35761214060008281548110612129577f4e487b7100000000000000000000000000000000000000000000000000000000600052603260045260246000fd5b9060005260206000209060080201600001546132ab565b6121a060006002846121529190614a29565b81548110612189577f4e487b7100000000000000000000000000000000000000000000000000000000600052603260045260246000fd5b9060005260206000209060080201600001546132ab565b6040518060400160405280601081526020017f4455504c49434154455f504152454e5400000000000000000000000000000000815250945094509450505061286e565b60006125ed60008381548110612222577f4e487b7100000000000000000000000000000000000000000000000000000000600052603260045260246000fd5b906000526020600020906008020160405180610140016040529081600082015481526020016001820160009054906101000a900467ffffffffffffffff1667ffffffffffffffff1667ffffffffffffffff1681526020016001820160089054906101000a90046fffffffffffffffffffffffffffffffff166fffffffffffffffffffffffffffffffff166fffffffffffffffffffffffffffffffff1681526020016001820160189054906101000a900463ffffffff1663ffffffff1663ffffffff1681526020016002820180546122f890614b36565b80601f016020809104026020016040519081016040528092919081815260200182805461232490614b36565b80156123715780601f1061234657610100808354040283529160200191612371565b820191906000526020600020905b81548152906001019060200180831161235457829003601f168201915b5050505050815260200160038201805461238a90614b36565b80601f01602080910402602001604051908101604052809291908181526020018280546123b690614b36565b80156124035780601f106123d857610100808354040283529160200191612403565b820191906000526020600020905b8154815290600101906020018083116123e657829003601f168201915b5050505050815260200160048201805461241c90614b36565b80601f016020809104026020016040519081016040528092919081815260200182805461244890614b36565b80156124955780601f1061246a57610100808354040283529160200191612495565b820191906000526020600020905b81548152906001019060200180831161247857829003601f168201915b505050505081526020016005820180546124ae90614b36565b80601f01602080910402602001604051908101604052809291908181526020018280546124da90614b36565b80156125275780601f106124fc57610100808354040283529160200191612527565b820191906000526020600020905b81548152906001019060200180831161250a57829003601f168201915b505050505081526020016006820160009054906101000a900463ffffffff1663ffffffff1663ffffffff16815260200160078201805461256690614b36565b80601f016020809104026020016040519081016040528092919081815260200182805461259290614b36565b80156125df5780601f106125b4576101008083540402835291602001916125df565b820191906000526020600020905b8154815290600101906020018083116125c257829003601f168201915b5050505050815250506132dc565b9050806000838154811061262a577f4e487b7100000000000000000000000000000000000000000000000000000000600052603260045260246000fd5b906000526020600020906008020160000154146126e2576126956000838154811061267e577f4e487b7100000000000000000000000000000000000000000000000000000000600052603260045260246000fd5b9060005260206000209060080201600001546132ab565b61269e826132ab565b6040518060400160405280601081526020017f434f4e54454e545f4d49534d415443480000000000000000000000000000000081525095509550955050505061286e565b6040516020016126f1906142f7565b6040516020818303038152906040528051906020012060008381548110612741577f4e487b7100000000000000000000000000000000000000000000000000000000600052603260045260246000fd5b906000526020600020906008020160020160405160200161276291906142cb565b60405160208183030381529060405280519060200120148015612790575060018361278d9190614a29565b82105b15612821576127e9600083815481106127d2577f4e487b7100000000000000000000000000000000000000000000000000000000600052603260045260246000fd5b9060005260206000209060080201600001546132ab565b6127fa6127f584612e54565b6132ab565b604051806060016040528060248152602001614d5c6024913995509550955050505061286e565b50808061282d90614b68565b915050611f14565b50604051806020016040528060008152506040518060200160405280600081525060405180602001604052806000815250935093509350505b909192565b60606000808054905067ffffffffffffffff8111156128bb577f4e487b7100000000000000000000000000000000000000000000000000000000600052604160045260246000fd5b6040519080825280602002602001820160405280156128e95781602001602082028036833780820191505090505b5090506000805b600080549050811015612a6157846fffffffffffffffffffffffffffffffff166000828154811061294a577f4e487b7100000000000000000000000000000000000000000000000000000000600052603260045260246000fd5b906000526020600020906008020160010160089054906101000a90046fffffffffffffffffffffffffffffffff166fffffffffffffffffffffffffffffffff161415612a4e57600081815481106129ca577f4e487b7100000000000000000000000000000000000000000000000000000000600052603260045260246000fd5b906000526020600020906008020160010160189054906101000a900463ffffffff16838381518110612a25577f4e487b7100000000000000000000000000000000000000000000000000000000600052603260045260246000fd5b602002602001019063ffffffff16908163ffffffff16815250508180612a4a90614b68565b9250505b8080612a5990614b68565b9150506128f0565b5060008167ffffffffffffffff811115612aa4577f4e487b7100000000000000000000000000000000000000000000000000000000600052604160045260246000fd5b604051908082528060200260200182016040528015612ad25781602001602082028036833780820191505090505b50905060005b82811015612b8757838181518110612b19577f4e487b7100000000000000000000000000000000000000000000000000000000600052603260045260246000fd5b6020026020010151828281518110612b5a577f4e487b7100000000000000000000000000000000000000000000000000000000600052603260045260246000fd5b602002602001019063ffffffff16908163ffffffff16815250508080612b7f90614b68565b915050612ad8565b50809350505050919050565b60008060008054905011612baa576000801b612bb3565b612bb2613342565b5b9050600042905060008351905060006040518061014001604052808581526020018467ffffffffffffffff1681526020018c6fffffffffffffffffffffffffffffffff1681526020018b63ffffffff1681526020018a81526020018981526020018881526020018781526020018363ffffffff16815260200186815250905060008190806001815401808255809150506001900390600052602060002090600802016000909190919091506000820151816000015560208201518160010160006101000a81548167ffffffffffffffff021916908367ffffffffffffffff16021790555060408201518160010160086101000a8154816fffffffffffffffffffffffffffffffff02191690836fffffffffffffffffffffffffffffffff16021790555060608201518160010160186101000a81548163ffffffff021916908363ffffffff1602179055506080820151816002019080519060200190612d1992919061349e565b5060a0820151816003019080519060200190612d3692919061349e565b5060c0820151816004019080519060200190612d5392919061349e565b5060e0820151816005019080519060200190612d7092919061349e565b506101008201518160060160006101000a81548163ffffffff021916908363ffffffff160217905550610120820151816007019080519060200190612db6929190613524565b50505060018060008c63ffffffff1663ffffffff16815260200190815260200160002060006101000a81548160ff0219169083151502179055508963ffffffff168b6fffffffffffffffffffffffffffffffff167f33a1c1a3b9a16d06083c74dc302e2fcc5be80f5e5aa2ae9a270c78f82731b11b858c8c8c604051612e3f949392919061466e565b60405180910390a35050505050505050505050565b600080805490508210612e9c576040517f08c379a0000000000000000000000000000000000000000000000000000000008152600401612e93906145b2565b60405180910390fd5b6132a460008381548110612ed9577f4e487b7100000000000000000000000000000000000000000000000000000000600052603260045260246000fd5b906000526020600020906008020160405180610140016040529081600082015481526020016001820160009054906101000a900467ffffffffffffffff1667ffffffffffffffff1667ffffffffffffffff1681526020016001820160089054906101000a90046fffffffffffffffffffffffffffffffff166fffffffffffffffffffffffffffffffff166fffffffffffffffffffffffffffffffff1681526020016001820160189054906101000a900463ffffffff1663ffffffff1663ffffffff168152602001600282018054612faf90614b36565b80601f0160208091040260200160405190810160405280929190818152602001828054612fdb90614b36565b80156130285780601f10612ffd57610100808354040283529160200191613028565b820191906000526020600020905b81548152906001019060200180831161300b57829003601f168201915b5050505050815260200160038201805461304190614b36565b80601f016020809104026020016040519081016040528092919081815260200182805461306d90614b36565b80156130ba5780601f1061308f576101008083540402835291602001916130ba565b820191906000526020600020905b81548152906001019060200180831161309d57829003601f168201915b505050505081526020016004820180546130d390614b36565b80601f01602080910402602001604051908101604052809291908181526020018280546130ff90614b36565b801561314c5780601f106131215761010080835404028352916020019161314c565b820191906000526020600020905b81548152906001019060200180831161312f57829003601f168201915b5050505050815260200160058201805461316590614b36565b80601f016020809104026020016040519081016040528092919081815260200182805461319190614b36565b80156131de5780601f106131b3576101008083540402835291602001916131de565b820191906000526020600020905b8154815290600101906020018083116131c157829003601f168201915b505050505081526020016006820160009054906101000a900463ffffffff1663ffffffff1663ffffffff16815260200160078201805461321d90614b36565b80601f016020809104026020016040519081016040528092919081815260200182805461324990614b36565b80156132965780601f1061326b57610100808354040283529160200191613296565b820191906000526020600020905b81548152906001019060200180831161327957829003601f168201915b5050505050815250506132dc565b9050919050565b60606132d5826040516020016132c1919061418a565b60405160208183030381529060405261141e565b9050919050565b6000816000015182602001518360400151846060015185608001518660a001518760c00151886101000151896101200151604051602001613325999897969594939291906141a5565b604051602081830303815290604052805190602001209050919050565b600080600060016000805490506133599190614a29565b81548110613390577f4e487b7100000000000000000000000000000000000000000000000000000000600052603260045260246000fd5b9060005260206000209060080201905080600001548160010160009054906101000a900467ffffffffffffffff168260010160089054906101000a90046fffffffffffffffffffffffffffffffff168360010160189054906101000a900463ffffffff168460020185600301866004018760060160009054906101000a900463ffffffff168860070160405160200161343199989796959493929190614238565b6040516020818303038152906040528051906020012091505090565b6040518060a0016040528060006fffffffffffffffffffffffffffffffff168152602001600063ffffffff168152602001600067ffffffffffffffff16815260200160608152602001606081525090565b8280546134aa90614b36565b90600052602060002090601f0160209004810192826134cc5760008555613513565b82601f106134e557805160ff1916838001178555613513565b82800160010185558215613513579182015b828111156135125782518255916020019190600101906134f7565b5b50905061352091906135aa565b5090565b82805461353090614b36565b90600052602060002090601f0160209004810192826135525760008555613599565b82601f1061356b57805160ff1916838001178555613599565b82800160010185558215613599579182015b8281111561359857825182559160200191906001019061357d565b5b5090506135a691906135aa565b5090565b5b808211156135c35760008160009055506001016135ab565b5090565b60006135da6135d584614751565b614720565b905080838252602082019050828560208602820111156135f957600080fd5b60005b85811015613629578161360f8882613757565b8452602084019350602083019250506001810190506135fc565b5050509392505050565b60006136466136418461477d565b614720565b90508281526020810184848401111561365e57600080fd5b613669848285614aca565b509392505050565b600061368461367f846147ad565b614720565b90508281526020810184848401111561369c57600080fd5b6136a7848285614aca565b509392505050565b600082601f8301126136c057600080fd5b81356136d08482602086016135c7565b91505092915050565b600082601f8301126136ea57600080fd5b81356136fa848260208601613633565b91505092915050565b600082601f83011261371457600080fd5b8135613724848260208601613671565b91505092915050565b60008135905061373c81614d16565b92915050565b60008135905061375181614d2d565b92915050565b60008135905061376681614d44565b92915050565b60006020828403121561377e57600080fd5b600082013567ffffffffffffffff81111561379857600080fd5b6137a4848285016136d9565b91505092915050565b6000602082840312156137bf57600080fd5b60006137cd8482850161372d565b91505092915050565b600080600080608085870312156137ec57600080fd5b60006137fa8782880161372d565b945050602085013567ffffffffffffffff81111561381757600080fd5b613823878288016136af565b935050604085013567ffffffffffffffff81111561384057600080fd5b61384c87828801613703565b925050606085013567ffffffffffffffff81111561386957600080fd5b61387587828801613703565b91505092959194509250565b60006020828403121561389357600080fd5b60006138a184828501613742565b91505092915050565b6000602082840312156138bc57600080fd5b60006138ca84828501613757565b91505092915050565b6000806000606084860312156138e857600080fd5b60006138f686828701613757565b935050602084013567ffffffffffffffff81111561391357600080fd5b61391f86828701613703565b925050604084013567ffffffffffffffff81111561393c57600080fd5b61394886828701613703565b9150509250925092565b600061395e838361405f565b905092915050565b600061397283836140dc565b60208301905092915050565b600061398a8383614120565b60208301905092915050565b60006139a182614837565b6139ab8185614895565b9350836020820285016139bd856147dd565b8060005b858110156139f957848403895281516139da8582613952565b94506139e58361486e565b925060208a019950506001810190506139c1565b50829750879550505050505092915050565b6000613a1682614842565b613a2081856148a6565b9350613a2b836147ed565b8060005b83811015613a5c578151613a438882613966565b9750613a4e8361487b565b925050600181019050613a2f565b5085935050505092915050565b6000613a748261484d565b613a7e81856148b7565b9350613a89836147fd565b8060005b83811015613aba578151613aa1888261397e565b9750613aac83614888565b925050600181019050613a8d565b5085935050505092915050565b613ad081614a5d565b82525050565b613adf81614a69565b82525050565b613af6613af182614a69565b614bb1565b82525050565b6000613b0782614858565b613b1181856148c8565b9350613b21818560208601614ad9565b613b2a81614cde565b840191505092915050565b6000613b4082614858565b613b4a81856148d9565b9350613b5a818560208601614ad9565b80840191505092915050565b60008154613b7381614b36565b613b7d81866148d9565b94506001821660008114613b985760018114613ba957613bdc565b60ff19831686528186019350613bdc565b613bb28561480d565b60005b83811015613bd457815481890152600182019150602081019050613bb5565b838801955050505b50505092915050565b6000613bf082614863565b613bfa81856148e4565b9350613c0a818560208601614ad9565b613c1381614cde565b840191505092915050565b6000613c2982614863565b613c3381856148f5565b9350613c43818560208601614ad9565b613c4c81614cde565b840191505092915050565b6000613c6282614863565b613c6c8185614906565b9350613c7c818560208601614ad9565b80840191505092915050565b60008154613c9581614b36565b613c9f8186614906565b94506001821660008114613cba5760018114613ccb57613cfe565b60ff19831686528186019350613cfe565b613cd485614822565b60005b83811015613cf657815481890152600182019150602081019050613cd7565b838801955050505b50505092915050565b6000613d14601f836148f5565b91507f4572726f723a204974656d206973206e6f7420636865636b6564206f75742e006000830152602082019050919050565b6000613d546009836148f5565b91507f434845434b4544494e00000000000000000000000000000000000000000000006000830152602082019050919050565b6000613d94600983614906565b91507f434845434b4544494e00000000000000000000000000000000000000000000006000830152600982019050919050565b6000613dd4602d836148f5565b91507f4572726f723a204974656d206d75737420626520636865636b656420696e207460008301527f6f2062652072656d6f7665642e000000000000000000000000000000000000006020830152604082019050919050565b6000613e3a600a836148f5565b91507f434845434b45444f5554000000000000000000000000000000000000000000006000830152602082019050919050565b6000613e7a600a83614906565b91507f434845434b45444f5554000000000000000000000000000000000000000000006000830152600a82019050919050565b6000613eba6043836148f5565b91507f4572726f723a2043616e6e6f7420636865636b206f7574206120636865636b6560008301527f64206f7574206974656d2e204d75737420636865636b20697420696e2066697260208301527f73742e00000000000000000000000000000000000000000000000000000000006040830152606082019050919050565b6000613f46601b836148f5565b91507f4572726f723a2057726f6e672065766964656e6365206974656d2e00000000006000830152602082019050919050565b6000613f86601f836148f5565b91507f45766964656e6365206974656d204944206d75737420626520756e69717565006000830152602082019050919050565b6000613fc66013836148f5565b91507f496e646578206f7574206f6620626f756e6473000000000000000000000000006000830152602082019050919050565b60006140066024836148f5565b91507f4572726f723a2045766964656e6365206974656d20646f6573206e6f7420657860008301527f6973742e000000000000000000000000000000000000000000000000000000006020830152604082019050919050565b600060a08301600083015161407760008601826140dc565b50602083015161408a6020860182614120565b50604083015161409d6040860182614155565b50606083015184820360608601526140b58282613be5565b915050608083015184820360808601526140cf8282613be5565b9150508091505092915050565b6140e581614a73565b82525050565b6140f481614a73565b82525050565b61410b61410682614a73565b614bbb565b82525050565b61411a81614a8f565b82525050565b61412981614a99565b82525050565b61413881614a99565b82525050565b61414f61414a82614a99565b614bcd565b82525050565b61415e81614aa9565b82525050565b61416d81614aa9565b82525050565b61418461417f82614aa9565b614bdf565b82525050565b60006141968284613ae5565b60208201915081905092915050565b60006141b1828c613ae5565b6020820191506141c1828b614173565b6008820191506141d1828a6140fa565b6010820191506141e1828961413e565b6004820191506141f18288613c57565b91506141fd8287613c57565b91506142098286613c57565b9150614215828561413e565b6004820191506142258284613b35565b91508190509a9950505050505050505050565b6000614244828c613ae5565b602082019150614254828b614173565b600882019150614264828a6140fa565b601082019150614274828961413e565b6004820191506142848288613c88565b91506142908287613c88565b915061429c8286613c88565b91506142a8828561413e565b6004820191506142b88284613b66565b91508190509a9950505050505050505050565b60006142d78284613c88565b915081905092915050565b60006142ed82613d87565b9150819050919050565b600061430282613e6d565b9150819050919050565b600060208201905081810360008301526143268184613996565b905092915050565b600060208201905081810360008301526143488184613a0b565b905092915050565b6000602082019050818103600083015261436a8184613a69565b905092915050565b60006020820190506143876000830184613ac7565b92915050565b6000610140820190506143a3600083018d613ad6565b6143b0602083018c614164565b6143bd604083018b6140eb565b6143ca606083018a61412f565b81810360808301526143dc8189613c1e565b905081810360a08301526143f08188613c1e565b905081810360c08301526144048187613c1e565b905081810360e08301526144188186613c1e565b905061442861010083018561412f565b81810361012083015261443b8184613afc565b90509b9a5050505050505050505050565b600060208201905081810360008301526144668184613c1e565b905092915050565b600060608201905081810360008301526144888186613c1e565b9050818103602083015261449c8185613c1e565b905081810360408301526144b08184613c1e565b9050949350505050565b600060808201905081810360008301526144d48186613c1e565b905081810360208301526144e88185613c1e565b90506144f76040830184614164565b818103606083015261450881613e2d565b9050949350505050565b6000602082019050818103600083015261452b81613d07565b9050919050565b6000602082019050818103600083015261454b81613dc7565b9050919050565b6000602082019050818103600083015261456b81613ead565b9050919050565b6000602082019050818103600083015261458b81613f39565b9050919050565b600060208201905081810360008301526145ab81613f79565b9050919050565b600060208201905081810360008301526145cb81613fb9565b9050919050565b600060208201905081810360008301526145eb81613ff9565b9050919050565b600060a08201905061460760008301886140eb565b614614602083018761412f565b6146216040830186614164565b81810360608301526146338185613c1e565b905081810360808301526146478184613c1e565b90509695505050505050565b60006020820190506146686000830184614111565b92915050565b60006080820190506146836000830187614164565b81810360208301526146958186613c1e565b905081810360408301526146a98185613c1e565b905081810360608301526146bd8184613c1e565b905095945050505050565b60006080820190506146dd6000830186614164565b81810360208301526146ee81613d47565b905081810360408301526147028185613c1e565b905081810360608301526147168184613c1e565b9050949350505050565b6000604051905081810181811067ffffffffffffffff8211171561474757614746614caf565b5b8060405250919050565b600067ffffffffffffffff82111561476c5761476b614caf565b5b602082029050602081019050919050565b600067ffffffffffffffff82111561479857614797614caf565b5b601f19601f8301169050602081019050919050565b600067ffffffffffffffff8211156147c8576147c7614caf565b5b601f19601f8301169050602081019050919050565b6000819050602082019050919050565b6000819050602082019050919050565b6000819050602082019050919050565b60008190508160005260206000209050919050565b60008190508160005260206000209050919050565b600081519050919050565b600081519050919050565b600081519050919050565b600081519050919050565b600081519050919050565b6000602082019050919050565b6000602082019050919050565b6000602082019050919050565b600082825260208201905092915050565b600082825260208201905092915050565b600082825260208201905092915050565b600082825260208201905092915050565b600081905092915050565b600082825260208201905092915050565b600082825260208201905092915050565b600081905092915050565b600061491c82614a8f565b915061492783614a8f565b9250827fffffffffffffffffffffffffffffffffffffffffffffffffffffffffffffffff0382111561495c5761495b614c22565b5b828201905092915050565b600061497282614abd565b915061497d83614abd565b92508260ff0382111561499357614992614c22565b5b828201905092915050565b60006149a982614abd565b91506149b483614abd565b9250826149c4576149c3614c51565b5b828204905092915050565b60006149da82614a8f565b91506149e583614a8f565b9250817fffffffffffffffffffffffffffffffffffffffffffffffffffffffffffffffff0483118215151615614a1e57614a1d614c22565b5b828202905092915050565b6000614a3482614a8f565b9150614a3f83614a8f565b925082821015614a5257614a51614c22565b5b828203905092915050565b60008115159050919050565b6000819050919050565b60006fffffffffffffffffffffffffffffffff82169050919050565b6000819050919050565b600063ffffffff82169050919050565b600067ffffffffffffffff82169050919050565b600060ff82169050919050565b82818337600083830152505050565b60005b83811015614af7578082015181840152602081019050614adc565b83811115614b06576000848401525b50505050565b6000614b1782614a8f565b91506000821415614b2b57614b2a614c22565b5b600182039050919050565b60006002820490506001821680614b4e57607f821691505b60208210811415614b6257614b61614c80565b5b50919050565b6000614b7382614a8f565b91507fffffffffffffffffffffffffffffffffffffffffffffffffffffffffffffffff821415614ba657614ba5614c22565b5b600182019050919050565b6000819050919050565b6000614bc682614cef565b9050919050565b6000614bd882614d09565b9050919050565b6000614bea82614cfc565b9050919050565b6000614bfc82614abd565b9150614c0783614abd565b925082614c1757614c16614c51565b5b828206905092915050565b7f4e487b7100000000000000000000000000000000000000000000000000000000600052601160045260246000fd5b7f4e487b7100000000000000000000000000000000000000000000000000000000600052601260045260246000fd5b7f4e487b7100000000000000000000000000000000000000000000000000000000600052602260045260246000fd5b7f4e487b7100000000000000000000000000000000000000000000000000000000600052604160045260246000fd5b6000601f19601f8301169050919050565b60008160801b9050919050565b60008160c01b9050919050565b60008160e01b9050919050565b614d1f81614a73565b8114614d2a57600080fd5b50565b614d3681614a8f565b8114614d4157600080fd5b50565b614d4d81614a99565b8114614d5857600080fd5b5056fe4954454d5f434845434b45445f4f55545f4f525f494e5f41465445525f52454d4f56414ca2646970667358221220971d5cd76852c2dd6f04e1adf42139f78cf7a0a6a17b8984240b1d9252c1d65264736f6c63430008000033",
  "immutableReferences": {},
  "source": "// SPDX-License-Identifier: MIT\r\npragma solidity ^0.8.0;\r\n\r\ncontract ChainOfCustody {\r\n    struct Block {\r\n        bytes32 previousHash;\r\n        uint64 timestamp;\r\n        uint128 caseId;\r\n        uint32 evidenceItemId;\r\n        string state;\r\n        string handlerName; // Changed from bytes20 to string\r\n        string organizationName; // Changed from bytes20 to string\r\n        string reason;\r\n        uint32 dataLength;\r\n        bytes data;\r\n    }\r\n\r\n    Block[] public blockchain;\r\n    mapping(uint32 => bool) public evidenceExists;\r\n\r\n    // Updated event to use strings\r\n    event EvidenceItemAdded(\r\n        uint128 indexed caseId,\r\n        uint32 indexed evidenceItemId,\r\n        uint64 timestamp,\r\n        string state,\r\n        string handlerName,\r\n        string organizationName\r\n    );\r\n\r\n    // Updated function to accept string parameters\r\n    function addEvidenceItems(\r\n        uint128 _caseId,\r\n        uint32[] memory _itemIds,\r\n        string memory _handlerName,\r\n        string memory _organizationName\r\n    ) public {\r\n        for (uint i = 0; i < _itemIds.length; i++) {\r\n            require(\r\n                !evidenceExists[_itemIds[i]],\r\n                \"Evidence item ID must be unique\"\r\n            );\r\n            addBlock(\r\n                _caseId,\r\n                _itemIds[i],\r\n                \"CHECKEDIN\",\r\n                _handlerName,\r\n                _organizationName,\r\n                \"\",\r\n                \"\"\r\n            );\r\n        }\r\n    }\r\n\r\n    // Updated function to accept string parameters\r\n    function addBlock(\r\n        uint128 _caseId,\r\n        uint32 _evidenceItemId,\r\n        string memory _state,\r\n        string memory _handlerName,\r\n        string memory _organizationName,\r\n        string memory _reason,\r\n        bytes memory _data\r\n    ) private {\r\n        bytes32 previousHash = blockchain.length > 0\r\n            ? getLatestBlockHash()\r\n            : bytes32(0);\r\n        uint64 timestamp = uint64(block.timestamp);\r\n        uint32 dataLength = uint32(_data.length);\r\n\r\n        Block memory newBlock = Block(\r\n            previousHash,\r\n            timestamp,\r\n            _caseId,\r\n            _evidenceItemId,\r\n            _state,\r\n            _handlerName,\r\n            _organizationName,\r\n            _reason,\r\n            dataLength,\r\n            _data\r\n        );\r\n\r\n        blockchain.push(newBlock);\r\n        evidenceExists[_evidenceItemId] = true;\r\n\r\n        emit EvidenceItemAdded(\r\n            _caseId,\r\n            _evidenceItemId,\r\n            timestamp,\r\n            _state,\r\n            _handlerName,\r\n            _organizationName\r\n        );\r\n    }\r\n\r\n    function getLatestBlockHash() private view returns (bytes32) {\r\n        Block storage lastBlock = blockchain[blockchain.length - 1];\r\n        return\r\n            keccak256(\r\n                abi.encodePacked(\r\n                    lastBlock.previousHash,\r\n                    lastBlock.timestamp,\r\n                    lastBlock.caseId,\r\n                    lastBlock.evidenceItemId,\r\n                    lastBlock.state,\r\n                    lastBlock.handlerName,\r\n                    lastBlock.organizationName,\r\n                    lastBlock.dataLength,\r\n                    lastBlock.data\r\n                )\r\n            );\r\n    }\r\n\r\n    event EvidenceItemCheckedOut(\r\n        uint128 indexed caseId,\r\n        uint32 indexed evidenceItemId,\r\n        string handlerName,\r\n        string organizationName,\r\n        uint64 timestamp,\r\n        string state\r\n    );\r\n\r\n    function checkoutEvidenceItem(uint32 _evidenceItemId, string memory _handlerName, string memory _organizationName) public {\r\n        require(\r\n            evidenceExists[_evidenceItemId],\r\n            \"Error: Evidence item does not exist.\"\r\n        );\r\n        Block storage lastBlock = blockchain[blockchain.length - 1];\r\n        require(\r\n            lastBlock.evidenceItemId == _evidenceItemId,\r\n            \"Error: Wrong evidence item.\"\r\n        );\r\n        require(\r\n            keccak256(abi.encodePacked(lastBlock.state)) !=\r\n                keccak256(abi.encodePacked(\"CHECKEDOUT\")),\r\n            \"Error: Cannot check out a checked out item. Must check it in first.\"\r\n        );\r\n\r\n        // Assuming 'addBlock' function updates the state and creates a new block in the blockchain\r\n        addBlock(\r\n            lastBlock.caseId,\r\n            _evidenceItemId,\r\n            \"CHECKEDOUT\",\r\n            lastBlock.handlerName,\r\n            lastBlock.organizationName,\r\n            \"\",\r\n            lastBlock.data\r\n        );\r\n        emit EvidenceItemCheckedOut(\r\n            lastBlock.caseId,\r\n            _evidenceItemId,\r\n            _handlerName,\r\n            _organizationName,\r\n            uint64(block.timestamp),\r\n            \"CHECKEDOUT\"\r\n        );\r\n    }\r\n\r\n    event EvidenceItemCheckedIn(\r\n        uint128 indexed caseId,\r\n        uint32 indexed evidenceItemId,\r\n        uint64 timestamp,\r\n        string state,\r\n        string handlerName,\r\n        string organizationName\r\n    );\r\n\r\n    function checkinEvidenceItem(\r\n    uint32 _evidenceItemId,\r\n    string memory _handlerName,\r\n    string memory _organizationName\r\n) public {\r\n    require(\r\n        evidenceExists[_evidenceItemId],\r\n        \"Error: Evidence item does not exist.\"\r\n    );\r\n\r\n    bool isItemCheckedOut = false;\r\n    uint128 caseIdForItem;\r\n\r\n    // Iterate through the blockchain to find the specific block with the evidence item\r\n    for (uint i = blockchain.length; i > 0; i--) {\r\n        Block storage blockItem = blockchain[i - 1];\r\n        if (blockItem.evidenceItemId == _evidenceItemId) {\r\n            // Check if the item is in a checked out state\r\n            if (keccak256(abi.encodePacked(blockItem.state)) == keccak256(abi.encodePacked(\"CHECKEDOUT\"))) {\r\n                isItemCheckedOut = true;\r\n                caseIdForItem = blockItem.caseId;\r\n                break;\r\n            }\r\n        }\r\n    }\r\n\r\n    require(isItemCheckedOut, \"Error: Item is not checked out.\");\r\n\r\n    // Add a new block for checkin\r\n    addBlock(\r\n        caseIdForItem,\r\n        _evidenceItemId,\r\n        \"CHECKEDIN\",\r\n        _handlerName,\r\n        _organizationName,\r\n        \"\",\r\n        \"\"\r\n    );\r\n\r\n    emit EvidenceItemCheckedIn(\r\n        caseIdForItem,\r\n        _evidenceItemId,\r\n        uint64(block.timestamp),\r\n        \"CHECKEDIN\",\r\n        _handlerName,\r\n        _organizationName\r\n    );\r\n}\r\n\r\n\r\n    function getCases() public view returns (uint128[] memory) {\r\n        uint128[] memory cases = new uint128[](blockchain.length);\r\n        uint count = 0;\r\n\r\n        for (uint i = 0; i < blockchain.length; i++) {\r\n            bool exists = false;\r\n            for (uint j = 0; j < count; j++) {\r\n                if (cases[j] == blockchain[i].caseId) {\r\n                    exists = true;\r\n                    break;\r\n                }\r\n            }\r\n            if (!exists) {\r\n                cases[count] = blockchain[i].caseId;\r\n                count++;\r\n            }\r\n        }\r\n\r\n        // Resize the array to fit the actual number of unique cases\r\n        uint128[] memory uniqueCases = new uint128[](count);\r\n        for (uint i = 0; i < count; i++) {\r\n            uniqueCases[i] = cases[i];\r\n        }\r\n\r\n        return uniqueCases;\r\n    }\r\n\r\n    function getItemsForCase(\r\n        uint128 _caseId\r\n    ) public view returns (uint32[] memory) {\r\n        uint32[] memory itemsTemp = new uint32[](blockchain.length);\r\n        uint count = 0;\r\n\r\n        for (uint i = 0; i < blockchain.length; i++) {\r\n            if (blockchain[i].caseId == _caseId) {\r\n                itemsTemp[count] = blockchain[i].evidenceItemId;\r\n                count++;\r\n            }\r\n        }\r\n\r\n        // Resize the array to fit the actual number of items for the case\r\n        uint32[] memory items = new uint32[](count);\r\n        for (uint i = 0; i < count; i++) {\r\n            items[i] = itemsTemp[i];\r\n        }\r\n\r\n        return items;\r\n    }\r\n\r\n    struct BlockInfo {\r\n    uint128 caseId;\r\n    uint32 evidenceItemId;\r\n    uint64 timestamp;\r\n    string state;\r\n    string handlerName;\r\n}\r\n\r\nfunction getItemHistory(uint32 _itemId) public view returns (BlockInfo[] memory) {\r\n    BlockInfo[] memory history = new BlockInfo[](blockchain.length);\r\n    uint count = 0;\r\n\r\n    for (uint i = 0; i < blockchain.length; i++) {\r\n        if (blockchain[i].evidenceItemId == _itemId) {\r\n            history[count] = BlockInfo(\r\n                blockchain[i].caseId,\r\n                blockchain[i].evidenceItemId,\r\n                blockchain[i].timestamp,\r\n                blockchain[i].state,\r\n                blockchain[i].handlerName\r\n            );\r\n            count++;\r\n        }\r\n    }\r\n\r\n    BlockInfo[] memory itemHistory = new BlockInfo[](count);\r\n    for (uint i = 0; i < count; i++) {\r\n        itemHistory[i] = history[i];\r\n    }\r\n\r\n    return itemHistory;\r\n}\r\n\r\n\r\n    event EvidenceItemRemoved(\r\n        uint128 caseId,\r\n        uint32 evidenceItemId,\r\n        uint64 timestamp,\r\n        string reason,\r\n        string ownerInfo\r\n    );\r\n\r\n    function removeEvidenceItem(\r\n        uint32 _evidenceItemId,\r\n        string memory _reason,\r\n        string memory _ownerInfo\r\n    ) public {\r\n        require(\r\n            evidenceExists[_evidenceItemId],\r\n            \"Error: Evidence item does not exist.\"\r\n        );\r\n\r\n        Block storage lastBlock = blockchain[blockchain.length - 1];\r\n        require(\r\n            lastBlock.evidenceItemId == _evidenceItemId &&\r\n                keccak256(abi.encodePacked(lastBlock.state)) ==\r\n                keccak256(abi.encodePacked(\"CHECKEDIN\")),\r\n            \"Error: Item must be checked in to be removed.\"\r\n        );\r\n\r\n        // Assuming 'addBlock' function updates the state and creates a new block in the blockchain\r\n        addBlock(\r\n            lastBlock.caseId,\r\n            _evidenceItemId,\r\n            _reason, // Include _reason in the call\r\n            lastBlock.handlerName,\r\n            lastBlock.organizationName,\r\n            _ownerInfo, // Include _ownerInfo\r\n            lastBlock.data\r\n        );\r\n\r\n        emit EvidenceItemRemoved(\r\n            lastBlock.caseId,\r\n            _evidenceItemId,\r\n            uint64(block.timestamp),\r\n            _reason,\r\n            _ownerInfo\r\n        );\r\n    }\r\n    function getBlockCount() public view returns (uint256) {\r\n        return blockchain.length;\r\n    }\r\n\r\n    function verifyBlockchain() public view returns (string memory) {\r\n        uint256 blockCount = getBlockCount();\r\n\r\n        for (uint256 i = 1; i < blockCount; i++) {\r\n            if (blockchain[i].previousHash != getLatestBlockHash(i - 1)) {\r\n                return \"ERROR\";\r\n            }\r\n        }\r\n\r\n        return \"CLEAN\";\r\n    }\r\n\r\n    function getBadBlockInfo() public view returns (string memory, string memory, string memory) {\r\n        uint256 blockCount = getBlockCount();\r\n\r\n        for (uint256 i = 1; i < blockCount; i++) {\r\n            if (blockchain[i].previousHash != getLatestBlockHash(i - 1)) {\r\n                // Placeholder values for demonstration purposes\r\n                return (\r\n                    blockHashToString(blockchain[i].previousHash),\r\n                    blockHashToString(getLatestBlockHash(i - 1)),\r\n                    \"PARENT_NOT_FOUND\"\r\n                );\r\n            }\r\n\r\n            if (i > 1 && blockchain[i].previousHash == blockchain[i - 2].previousHash) {\r\n                // Placeholder values for demonstration purposes\r\n                return (\r\n                    blockHashToString(blockchain[i].previousHash),\r\n                    blockHashToString(blockchain[i - 2].previousHash),\r\n                    \"DUPLICATE_PARENT\"\r\n                );\r\n            }\r\n\r\n            bytes32 calculatedHash = calculateBlockHash(blockchain[i]);\r\n            if (blockchain[i].previousHash != calculatedHash) {\r\n                // Placeholder values for demonstration purposes\r\n                return (\r\n                    blockHashToString(blockchain[i].previousHash),\r\n                    blockHashToString(calculatedHash),\r\n                    \"CONTENT_MISMATCH\"\r\n                );\r\n            }\r\n\r\n            if (\r\n                keccak256(abi.encodePacked(blockchain[i].state)) ==\r\n                keccak256(abi.encodePacked(\"CHECKEDOUT\")) &&\r\n                i < blockCount - 1\r\n            ) {\r\n                // Placeholder values for demonstration purposes\r\n                return (\r\n                    blockHashToString(blockchain[i].previousHash),\r\n                    blockHashToString(getLatestBlockHash(i)),\r\n                    \"ITEM_CHECKED_OUT_OR_IN_AFTER_REMOVAL\"\r\n                );\r\n            }\r\n        }\r\n\r\n        // Placeholder values for demonstration purposes\r\n        return (\"\", \"\", \"\");\r\n    }\r\n\r\n    // Other existing functions...\r\n    function bytesToHexString(bytes memory data) public pure returns (string memory) {\r\n        bytes memory hexString = new bytes(2 * data.length);\r\n\r\n        for (uint256 i = 0; i < data.length; i++) {\r\n            uint8 value = uint8(data[i]);\r\n            hexString[2 * i] = bytes1(uint8(value / 16 + 48));\r\n            hexString[2 * i + 1] = bytes1(uint8(value % 16 + 48));\r\n        }\r\n\r\n        return string(hexString);\r\n    }\r\n\r\n    // Utility function to convert bytes32 to string\r\n    function blockHashToString(bytes32 hash) internal pure returns (string memory) {\r\n        return bytesToHexString(abi.encodePacked(hash));\r\n    }\r\n\r\n    // Utility function to calculate the hash of a block\r\n    function calculateBlockHash(Block memory blockData) internal pure returns (bytes32) {\r\n        return\r\n            keccak256(\r\n                abi.encodePacked(\r\n                    blockData.previousHash,\r\n                    blockData.timestamp,\r\n                    blockData.caseId,\r\n                    blockData.evidenceItemId,\r\n                    blockData.state,\r\n                    blockData.handlerName,\r\n                    blockData.organizationName,\r\n                    blockData.dataLength,\r\n                    blockData.data\r\n                )\r\n            );\r\n    }\r\n\r\n    // Utility function to get the hash of the latest block\r\n    function getLatestBlockHash(uint256 index) internal view returns (bytes32) {\r\n        require(index < blockchain.length, \"Index out of bounds\");\r\n        return calculateBlockHash(blockchain[index]);\r\n    }\r\n\r\n}\r\n",
  "sourcePath": "C:\\Users\\ASUS\\Dropbox (ASU)\\MS ASU\\CSE 469 CNF\\GROUP PROJECT\\kuchbi\\blockchain_chain_of_custody\\chain_of_custody\\contracts\\ChainOfCustody.sol",
  "compiler": {
    "name": "solc",
    "version": "0.8.0+commit.c7dfd78e.Emscripten.clang"
  },
  "schemaVersion": "3.4.16",
  "updatedAt": "2023-11-28T04:13:59.281Z",
  "networkType": "ethereum",
  "devdoc": {
    "kind": "dev",
    "methods": {},
    "version": 1
  },
  "userdoc": {
    "kind": "user",
    "methods": {},
    "version": 1
  }
}