{
  "contractName": "ChainOfCustody",
  "abi": [
    {
      "anonymous": false,
      "inputs": [
        {
          "indexed": false,
          "internalType": "uint128",
          "name": "caseId",
          "type": "uint128"
        },
        {
          "indexed": false,
          "internalType": "uint32",
          "name": "evidenceItemId",
          "type": "uint32"
        },
        {
          "indexed": false,
          "internalType": "uint64",
          "name": "timestamp",
          "type": "uint64"
        },
        {
          "indexed": false,
          "internalType": "bytes12",
          "name": "state",
          "type": "bytes12"
        }
      ],
      "name": "EvidenceItemAdded",
      "type": "event"
    },
    {
      "anonymous": false,
      "inputs": [
        {
          "indexed": false,
          "internalType": "uint128",
          "name": "caseId",
          "type": "uint128"
        },
        {
          "indexed": false,
          "internalType": "uint32",
          "name": "evidenceItemId",
          "type": "uint32"
        },
        {
          "indexed": false,
          "internalType": "uint64",
          "name": "timestamp",
          "type": "uint64"
        },
        {
          "indexed": false,
          "internalType": "bytes12",
          "name": "state",
          "type": "bytes12"
        },
        {
          "indexed": false,
          "internalType": "bytes20",
          "name": "handlerName",
          "type": "bytes20"
        },
        {
          "indexed": false,
          "internalType": "bytes20",
          "name": "organizationName",
          "type": "bytes20"
        }
      ],
      "name": "EvidenceItemCheckedIn",
      "type": "event"
    },
    {
      "anonymous": false,
      "inputs": [
        {
          "indexed": false,
          "internalType": "uint128",
          "name": "caseId",
          "type": "uint128"
        },
        {
          "indexed": false,
          "internalType": "uint32",
          "name": "evidenceItemId",
          "type": "uint32"
        },
        {
          "indexed": false,
          "internalType": "uint64",
          "name": "timestamp",
          "type": "uint64"
        },
        {
          "indexed": false,
          "internalType": "bytes12",
          "name": "state",
          "type": "bytes12"
        }
      ],
      "name": "EvidenceItemCheckedOut",
      "type": "event"
    },
    {
      "inputs": [
        {
          "internalType": "uint256",
          "name": "",
          "type": "uint256"
        }
      ],
      "name": "blockchain",
      "outputs": [
        {
          "internalType": "bytes32",
          "name": "previousHash",
          "type": "bytes32"
        },
        {
          "internalType": "uint64",
          "name": "timestamp",
          "type": "uint64"
        },
        {
          "internalType": "uint128",
          "name": "caseId",
          "type": "uint128"
        },
        {
          "internalType": "uint32",
          "name": "evidenceItemId",
          "type": "uint32"
        },
        {
          "internalType": "bytes12",
          "name": "state",
          "type": "bytes12"
        },
        {
          "internalType": "bytes20",
          "name": "handlerName",
          "type": "bytes20"
        },
        {
          "internalType": "bytes20",
          "name": "organizationName",
          "type": "bytes20"
        },
        {
          "internalType": "uint32",
          "name": "dataLength",
          "type": "uint32"
        },
        {
          "internalType": "bytes",
          "name": "data",
          "type": "bytes"
        }
      ],
      "stateMutability": "view",
      "type": "function",
      "constant": true
    },
    {
      "inputs": [
        {
          "internalType": "uint32",
          "name": "",
          "type": "uint32"
        }
      ],
      "name": "evidenceExists",
      "outputs": [
        {
          "internalType": "bool",
          "name": "",
          "type": "bool"
        }
      ],
      "stateMutability": "view",
      "type": "function",
      "constant": true
    },
    {
      "inputs": [
        {
          "internalType": "uint128",
          "name": "_caseId",
          "type": "uint128"
        },
        {
          "internalType": "uint32[]",
          "name": "_itemIds",
          "type": "uint32[]"
        }
      ],
      "name": "addEvidenceItems",
      "outputs": [],
      "stateMutability": "nonpayable",
      "type": "function"
    },
    {
      "inputs": [
        {
          "internalType": "uint32",
          "name": "_evidenceItemId",
          "type": "uint32"
        }
      ],
      "name": "checkoutEvidenceItem",
      "outputs": [],
      "stateMutability": "nonpayable",
      "type": "function"
    },
    {
      "inputs": [
        {
          "internalType": "uint32",
          "name": "_evidenceItemId",
          "type": "uint32"
        },
        {
          "internalType": "bytes20",
          "name": "_handlerName",
          "type": "bytes20"
        },
        {
          "internalType": "bytes20",
          "name": "_organizationName",
          "type": "bytes20"
        }
      ],
      "name": "checkinEvidenceItem",
      "outputs": [],
      "stateMutability": "nonpayable",
      "type": "function"
    },
    {
      "inputs": [],
      "name": "getCases",
      "outputs": [
        {
          "internalType": "uint128[]",
          "name": "",
          "type": "uint128[]"
        }
      ],
      "stateMutability": "view",
      "type": "function",
      "constant": true
    }
  ],
  "bytecode": "0x608060405234801561001057600080fd5b50611fc1806100206000396000f3fe608060405234801561001057600080fd5b50600436106100625760003560e01c8063065cb59414610067578063a358549714610085578063b31edebe146100a1578063b35af6c3146100bd578063be3ea0d0146100ed578063c25b1eaf14610109575b600080fd5b61006f610141565b60405161007c9190611941565b60405180910390f35b61009f600480360381019061009a91906113d6565b61050a565b005b6100bb60048036038101906100b69190611359565b61081a565b005b6100d760048036038101906100d291906113d6565b610969565b6040516100e49190611963565b60405180910390f35b610107600480360381019061010291906113ff565b610989565b005b610123600480360381019061011e91906113ad565b610c46565b6040516101389998979695949392919061197e565b60405180910390f35b60606000808054905067ffffffffffffffff811115610189577f4e487b7100000000000000000000000000000000000000000000000000000000600052604160045260246000fd5b6040519080825280602002602001820160405280156101b75781602001602082028036833780820191505090505b5090506000805b6000805490508110156103c2576000805b838110156102c65760008381548110610211577f4e487b7100000000000000000000000000000000000000000000000000000000600052603260045260246000fd5b906000526020600020906005020160010160089054906101000a90046fffffffffffffffffffffffffffffffff166fffffffffffffffffffffffffffffffff1685828151811061028a577f4e487b7100000000000000000000000000000000000000000000000000000000600052603260045260246000fd5b60200260200101516fffffffffffffffffffffffffffffffff1614156102b357600191506102c6565b80806102be90611dcd565b9150506101cf565b50806103ae5760008281548110610306577f4e487b7100000000000000000000000000000000000000000000000000000000600052603260045260246000fd5b906000526020600020906005020160010160089054906101000a90046fffffffffffffffffffffffffffffffff1684848151811061036d577f4e487b7100000000000000000000000000000000000000000000000000000000600052603260045260246000fd5b60200260200101906fffffffffffffffffffffffffffffffff1690816fffffffffffffffffffffffffffffffff168152505082806103aa90611dcd565b9350505b5080806103ba90611dcd565b9150506101be565b5060008167ffffffffffffffff811115610405577f4e487b7100000000000000000000000000000000000000000000000000000000600052604160045260246000fd5b6040519080825280602002602001820160405280156104335781602001602082028036833780820191505090505b50905060005b828110156105005783818151811061047a577f4e487b7100000000000000000000000000000000000000000000000000000000600052603260045260246000fd5b60200260200101518282815181106104bb577f4e487b7100000000000000000000000000000000000000000000000000000000600052603260045260246000fd5b60200260200101906fffffffffffffffffffffffffffffffff1690816fffffffffffffffffffffffffffffffff168152505080806104f890611dcd565b915050610439565b5080935050505090565b600160008263ffffffff1663ffffffff16815260200190815260200160002060009054906101000a900460ff16610576576040517f08c379a000000000000000000000000000000000000000000000000000000000815260040161056d90611a92565b60405180910390fd5b600080600160008054905061058b9190611c7c565b815481106105c2577f4e487b7100000000000000000000000000000000000000000000000000000000600052603260045260246000fd5b906000526020600020906005020190508163ffffffff168160010160189054906101000a900463ffffffff1663ffffffff1614610634576040517f08c379a000000000000000000000000000000000000000000000000000000000815260040161062b90611a52565b60405180910390fd5b7f434845434b45444f5554000000000000000000000000000000000000000000008160020160009054906101000a900460a01b73ffffffffffffffffffffffffffffffffffffffff191614156106bf576040517f08c379a00000000000000000000000000000000000000000000000000000000081526004016106b690611a32565b60405180910390fd5b6107bb8160010160089054906101000a90046fffffffffffffffffffffffffffffffff16837f434845434b45444f55540000000000000000000000000000000000000000000084600201600c9054906101000a900460601b8560030160009054906101000a900460601b86600401805461073890611d9b565b80601f016020809104026020016040519081016040528092919081815260200182805461076490611d9b565b80156107b15780601f10610786576101008083540402835291602001916107b1565b820191906000526020600020905b81548152906001019060200180831161079457829003601f168201915b5050505050610da3565b7f431bdc219b0c2d27308a12cb3b26a63cb93a3eb90bb495bd6db61ed74e2a89ce8160010160089054906101000a90046fffffffffffffffffffffffffffffffff16834260405161080e93929190611b56565b60405180910390a15050565b60005b81518110156109645760016000838381518110610863577f4e487b7100000000000000000000000000000000000000000000000000000000600052603260045260246000fd5b602002602001015163ffffffff1663ffffffff16815260200190815260200160002060009054906101000a900460ff16156108d3576040517f08c379a00000000000000000000000000000000000000000000000000000000081526004016108ca90611a72565b60405180910390fd5b61095183838381518110610910577f4e487b7100000000000000000000000000000000000000000000000000000000600052603260045260246000fd5b60200260200101517f434845434b4544494e000000000000000000000000000000000000000000000060008060405180602001604052806000815250610da3565b808061095c90611dcd565b91505061081d565b505050565b60016020528060005260406000206000915054906101000a900460ff1681565b600160008463ffffffff1663ffffffff16815260200190815260200160002060009054906101000a900460ff166109f5576040517f08c379a00000000000000000000000000000000000000000000000000000000081526004016109ec90611a92565b60405180910390fd5b6000806001600080549050610a0a9190611c7c565b81548110610a41577f4e487b7100000000000000000000000000000000000000000000000000000000600052603260045260246000fd5b906000526020600020906005020190508363ffffffff168160010160189054906101000a900463ffffffff1663ffffffff16148015610ac857507f434845434b4544494e00000000000000000000000000000000000000000000008160020160009054906101000a900460a01b73ffffffffffffffffffffffffffffffffffffffff191614155b610b07576040517f08c379a0000000000000000000000000000000000000000000000000000000008152600401610afe90611a12565b60405180910390fd5b610be18160010160089054906101000a90046fffffffffffffffffffffffffffffffff16857f434845434b4544494e00000000000000000000000000000000000000000000008686866004018054610b5e90611d9b565b80601f0160208091040260200160405190810160405280929190818152602001828054610b8a90611d9b565b8015610bd75780601f10610bac57610100808354040283529160200191610bd7565b820191906000526020600020905b815481529060010190602001808311610bba57829003601f168201915b5050505050610da3565b7f295c59dff86b4ef8e7514d4fa0df6bdfaf948683cef98e9e3dac64a5168c8ccb8160010160089054906101000a90046fffffffffffffffffffffffffffffffff1685428686604051610c38959493929190611af7565b60405180910390a150505050565b60008181548110610c5657600080fd5b90600052602060002090600502016000915090508060000154908060010160009054906101000a900467ffffffffffffffff16908060010160089054906101000a90046fffffffffffffffffffffffffffffffff16908060010160189054906101000a900463ffffffff16908060020160009054906101000a900460a01b9080600201600c9054906101000a900460601b908060030160009054906101000a900460601b908060030160149054906101000a900463ffffffff1690806004018054610d2090611d9b565b80601f0160208091040260200160405190810160405280929190818152602001828054610d4c90611d9b565b8015610d995780601f10610d6e57610100808354040283529160200191610d99565b820191906000526020600020905b815481529060010190602001808311610d7c57829003601f168201915b5050505050905089565b60008060008054905011610dba576000801b610dc3565b610dc2611097565b5b9050600042905060008351905060006040518061012001604052808581526020018467ffffffffffffffff1681526020018b6fffffffffffffffffffffffffffffffff1681526020018a63ffffffff1681526020018973ffffffffffffffffffffffffffffffffffffffff19168152602001886bffffffffffffffffffffffff19168152602001876bffffffffffffffffffffffff191681526020018363ffffffff16815260200186815250905060008190806001815401808255809150506001900390600052602060002090600502016000909190919091506000820151816000015560208201518160010160006101000a81548167ffffffffffffffff021916908367ffffffffffffffff16021790555060408201518160010160086101000a8154816fffffffffffffffffffffffffffffffff02191690836fffffffffffffffffffffffffffffffff16021790555060608201518160010160186101000a81548163ffffffff021916908363ffffffff16021790555060808201518160020160006101000a8154816bffffffffffffffffffffffff021916908360a01c021790555060a082015181600201600c6101000a81548173ffffffffffffffffffffffffffffffffffffffff021916908360601c021790555060c08201518160030160006101000a81548173ffffffffffffffffffffffffffffffffffffffff021916908360601c021790555060e08201518160030160146101000a81548163ffffffff021916908363ffffffff1602179055506101008201518160040190805190602001906110149291906111cc565b50505060018060008b63ffffffff1663ffffffff16815260200190815260200160002060006101000a81548160ff0219169083151502179055507f608d186a09e958e0feccb2533251b6a50eb9e5e540c4d70d4aa0ce5967083c0c8a8a858b6040516110839493929190611ab2565b60405180910390a150505050505050505050565b600080600060016000805490506110ae9190611c7c565b815481106110e5577f4e487b7100000000000000000000000000000000000000000000000000000000600052603260045260246000fd5b9060005260206000209060050201905080600001548160010160009054906101000a900467ffffffffffffffff168260010160089054906101000a90046fffffffffffffffffffffffffffffffff168360010160189054906101000a900463ffffffff168460020160009054906101000a900460a01b85600201600c9054906101000a900460601b8660030160009054906101000a900460601b8760030160149054906101000a900463ffffffff16886004016040516020016111b0999897969594939291906118a2565b6040516020818303038152906040528051906020012091505090565b8280546111d890611d9b565b90600052602060002090601f0160209004810192826111fa5760008555611241565b82601f1061121357805160ff1916838001178555611241565b82800160010185558215611241579182015b82811115611240578251825591602001919060010190611225565b5b50905061124e9190611252565b5090565b5b8082111561126b576000816000905550600101611253565b5090565b600061128261127d84611bca565b611b99565b905080838252602082019050828560208602820111156112a157600080fd5b60005b858110156112d157816112b78882611344565b8452602084019350602083019250506001810190506112a4565b5050509392505050565b600082601f8301126112ec57600080fd5b81356112fc84826020860161126f565b91505092915050565b60008135905061131481611f2f565b92915050565b60008135905061132981611f46565b92915050565b60008135905061133e81611f5d565b92915050565b60008135905061135381611f74565b92915050565b6000806040838503121561136c57600080fd5b600061137a8582860161131a565b925050602083013567ffffffffffffffff81111561139757600080fd5b6113a3858286016112db565b9150509250929050565b6000602082840312156113bf57600080fd5b60006113cd8482850161132f565b91505092915050565b6000602082840312156113e857600080fd5b60006113f684828501611344565b91505092915050565b60008060006060848603121561141457600080fd5b600061142286828701611344565b935050602061143386828701611305565b925050604061144486828701611305565b9150509250925092565b600061145a8383611821565b60208301905092915050565b600061147182611c1b565b61147b8185611c3e565b935061148683611bf6565b8060005b838110156114b757815161149e888261144e565b97506114a983611c31565b92505060018101905061148a565b5085935050505092915050565b6114cd81611cb0565b82525050565b6114dc81611cbc565b82525050565b6114f36114ee82611cbc565b611e16565b82525050565b61150281611ce8565b82525050565b61151961151482611ce8565b611e20565b82525050565b61152881611d14565b82525050565b61153f61153a82611d14565b611e2a565b82525050565b600061155082611c26565b61155a8185611c4f565b935061156a818560208601611d68565b61157381611ef7565b840191505092915050565b6000815461158b81611d9b565b6115958186611c60565b945060018216600081146115b057600181146115c1576115f4565b60ff198316865281860193506115f4565b6115ca85611c06565b60005b838110156115ec578154818901526001820191506020810190506115cd565b838801955050505b50505092915050565b7f434845434b4544494e0000000000000000000000000000000000000000000000815250565b7f434845434b45444f555400000000000000000000000000000000000000000000815250565b6000611656603b83611c6b565b91507f4572726f723a204974656d20616c726561647920636865636b656420696e206f60008301527f72206e6f7420746865206c617374207472616e73616374696f6e2e00000000006020830152604082019050919050565b60006116bc604383611c6b565b91507f4572726f723a2043616e6e6f7420636865636b206f7574206120636865636b6560008301527f64206f7574206974656d2e204d75737420636865636b20697420696e2066697260208301527f73742e00000000000000000000000000000000000000000000000000000000006040830152606082019050919050565b6000611748601b83611c6b565b91507f4572726f723a2057726f6e672065766964656e6365206974656d2e00000000006000830152602082019050919050565b6000611788601f83611c6b565b91507f45766964656e6365206974656d204944206d75737420626520756e69717565006000830152602082019050919050565b60006117c8602483611c6b565b91507f4572726f723a2045766964656e6365206974656d20646f6573206e6f7420657860008301527f6973742e000000000000000000000000000000000000000000000000000000006020830152604082019050919050565b61182a81611d1e565b82525050565b61183981611d1e565b82525050565b61185061184b82611d1e565b611e34565b82525050565b61185f81611d44565b82525050565b61187661187182611d44565b611e46565b82525050565b61188581611d54565b82525050565b61189c61189782611d54565b611e58565b82525050565b60006118ae828c61152e565b6020820191506118be828b61188b565b6008820191506118ce828a61183f565b6010820191506118de8289611865565b6004820191506118ee82886114e2565b600c820191506118fe8287611508565b60148201915061190e8286611508565b60148201915061191e8285611865565b60048201915061192e828461157e565b91508190509a9950505050505050505050565b6000602082019050818103600083015261195b8184611466565b905092915050565b600060208201905061197860008301846114c4565b92915050565b600061012082019050611994600083018c61151f565b6119a1602083018b61187c565b6119ae604083018a611830565b6119bb6060830189611856565b6119c860808301886114d3565b6119d560a08301876114f9565b6119e260c08301866114f9565b6119ef60e0830185611856565b818103610100830152611a028184611545565b90509a9950505050505050505050565b60006020820190508181036000830152611a2b81611649565b9050919050565b60006020820190508181036000830152611a4b816116af565b9050919050565b60006020820190508181036000830152611a6b8161173b565b9050919050565b60006020820190508181036000830152611a8b8161177b565b9050919050565b60006020820190508181036000830152611aab816117bb565b9050919050565b6000608082019050611ac76000830187611830565b611ad46020830186611856565b611ae1604083018561187c565b611aee60608301846114d3565b95945050505050565b600060c082019050611b0c6000830188611830565b611b196020830187611856565b611b26604083018661187c565b611b32606083016115fd565b611b3f60808301856114f9565b611b4c60a08301846114f9565b9695505050505050565b6000608082019050611b6b6000830186611830565b611b786020830185611856565b611b85604083018461187c565b611b9160608301611623565b949350505050565b6000604051905081810181811067ffffffffffffffff82111715611bc057611bbf611ec8565b5b8060405250919050565b600067ffffffffffffffff821115611be557611be4611ec8565b5b602082029050602081019050919050565b6000819050602082019050919050565b60008190508160005260206000209050919050565b600081519050919050565b600081519050919050565b6000602082019050919050565b600082825260208201905092915050565b600082825260208201905092915050565b600081905092915050565b600082825260208201905092915050565b6000611c8782611d3a565b9150611c9283611d3a565b925082821015611ca557611ca4611e6a565b5b828203905092915050565b60008115159050919050565b60007fffffffffffffffffffffffff000000000000000000000000000000000000000082169050919050565b60007fffffffffffffffffffffffffffffffffffffffff00000000000000000000000082169050919050565b6000819050919050565b60006fffffffffffffffffffffffffffffffff82169050919050565b6000819050919050565b600063ffffffff82169050919050565b600067ffffffffffffffff82169050919050565b60005b83811015611d86578082015181840152602081019050611d6b565b83811115611d95576000848401525b50505050565b60006002820490506001821680611db357607f821691505b60208210811415611dc757611dc6611e99565b5b50919050565b6000611dd882611d3a565b91507fffffffffffffffffffffffffffffffffffffffffffffffffffffffffffffffff821415611e0b57611e0a611e6a565b5b600182019050919050565b6000819050919050565b6000819050919050565b6000819050919050565b6000611e3f82611f08565b9050919050565b6000611e5182611f22565b9050919050565b6000611e6382611f15565b9050919050565b7f4e487b7100000000000000000000000000000000000000000000000000000000600052601160045260246000fd5b7f4e487b7100000000000000000000000000000000000000000000000000000000600052602260045260246000fd5b7f4e487b7100000000000000000000000000000000000000000000000000000000600052604160045260246000fd5b6000601f19601f8301169050919050565b60008160801b9050919050565b60008160c01b9050919050565b60008160e01b9050919050565b611f3881611ce8565b8114611f4357600080fd5b50565b611f4f81611d1e565b8114611f5a57600080fd5b50565b611f6681611d3a565b8114611f7157600080fd5b50565b611f7d81611d44565b8114611f8857600080fd5b5056fea2646970667358221220a6058580064348652c02982583f6f9810749203873ecc48dce67c22907dbeaf564736f6c63430008000033",
  "immutableReferences": {},
  "source": "// SPDX-License-Identifier: MIT\r\npragma solidity ^0.8.0;\r\n\r\ncontract ChainOfCustody {\r\n    struct Block {\r\n        bytes32 previousHash;\r\n        uint64 timestamp;\r\n        uint128 caseId;\r\n        uint32 evidenceItemId;\r\n        bytes12 state;\r\n        bytes20 handlerName;\r\n        bytes20 organizationName;\r\n        uint32 dataLength;\r\n        bytes data;\r\n    }\r\n\r\n    Block[] public blockchain;\r\n    mapping(uint32 => bool) public evidenceExists;\r\n\r\n    // Event declaration\r\n    event EvidenceItemAdded(\r\n        uint128 caseId,\r\n        uint32 evidenceItemId,\r\n        uint64 timestamp,\r\n        bytes12 state\r\n    );\r\n\r\n    function addEvidenceItems(\r\n        uint128 _caseId,\r\n        uint32[] memory _itemIds\r\n    ) public {\r\n        for (uint i = 0; i < _itemIds.length; i++) {\r\n            require(\r\n                !evidenceExists[_itemIds[i]],\r\n                \"Evidence item ID must be unique\"\r\n            );\r\n            addBlock(_caseId, _itemIds[i], \"CHECKEDIN\", \"\", \"\", \"\");\r\n        }\r\n    }\r\n\r\n    function addBlock(\r\n        uint128 _caseId,\r\n        uint32 _evidenceItemId,\r\n        bytes12 _state,\r\n        bytes20 _handlerName,\r\n        bytes20 _organizationName,\r\n        bytes memory _data\r\n    ) private {\r\n        bytes32 previousHash = blockchain.length > 0\r\n            ? getLatestBlockHash()\r\n            : bytes32(0);\r\n        uint64 timestamp = uint64(block.timestamp);\r\n        uint32 dataLength = uint32(_data.length);\r\n\r\n        Block memory newBlock = Block(\r\n            previousHash,\r\n            timestamp,\r\n            _caseId,\r\n            _evidenceItemId,\r\n            _state,\r\n            _handlerName,\r\n            _organizationName,\r\n            dataLength,\r\n            _data\r\n        );\r\n\r\n        blockchain.push(newBlock);\r\n        evidenceExists[_evidenceItemId] = true;\r\n\r\n        // Emitting the event\r\n        emit EvidenceItemAdded(_caseId, _evidenceItemId, timestamp, _state);\r\n    }\r\n\r\n    function getLatestBlockHash() private view returns (bytes32) {\r\n        Block storage lastBlock = blockchain[blockchain.length - 1];\r\n        return\r\n            keccak256(\r\n                abi.encodePacked(\r\n                    lastBlock.previousHash,\r\n                    lastBlock.timestamp,\r\n                    lastBlock.caseId,\r\n                    lastBlock.evidenceItemId,\r\n                    lastBlock.state,\r\n                    lastBlock.handlerName,\r\n                    lastBlock.organizationName,\r\n                    lastBlock.dataLength,\r\n                    lastBlock.data\r\n                )\r\n            );\r\n    }\r\n\r\n    event EvidenceItemCheckedOut(\r\n        uint128 caseId,\r\n        uint32 evidenceItemId,\r\n        uint64 timestamp,\r\n        bytes12 state\r\n    );\r\n\r\n    function checkoutEvidenceItem(uint32 _evidenceItemId) public {\r\n        require(\r\n            evidenceExists[_evidenceItemId],\r\n            \"Error: Evidence item does not exist.\"\r\n        );\r\n        Block storage lastBlock = blockchain[blockchain.length - 1];\r\n        require(\r\n            lastBlock.evidenceItemId == _evidenceItemId,\r\n            \"Error: Wrong evidence item.\"\r\n        );\r\n        require(\r\n            lastBlock.state != \"CHECKEDOUT\",\r\n            \"Error: Cannot check out a checked out item. Must check it in first.\"\r\n        );\r\n\r\n        // Assuming 'addBlock' function updates the state and creates a new block in the blockchain\r\n        addBlock(\r\n            lastBlock.caseId,\r\n            _evidenceItemId,\r\n            \"CHECKEDOUT\",\r\n            lastBlock.handlerName,\r\n            lastBlock.organizationName,\r\n            lastBlock.data\r\n        );\r\n        emit EvidenceItemCheckedOut(\r\n            lastBlock.caseId,\r\n            _evidenceItemId,\r\n            uint64(block.timestamp),\r\n            \"CHECKEDOUT\"\r\n        );\r\n    }\r\n\r\n    event EvidenceItemCheckedIn(\r\n        uint128 caseId,\r\n        uint32 evidenceItemId,\r\n        uint64 timestamp,\r\n        bytes12 state,\r\n        bytes20 handlerName,\r\n        bytes20 organizationName\r\n    );\r\n\r\n    function checkinEvidenceItem(\r\n        uint32 _evidenceItemId,\r\n        bytes20 _handlerName,\r\n        bytes20 _organizationName\r\n    ) public {\r\n        require(\r\n            evidenceExists[_evidenceItemId],\r\n            \"Error: Evidence item does not exist.\"\r\n        );\r\n\r\n        // Check if the item is not already checked in\r\n        Block storage lastBlock = blockchain[blockchain.length - 1];\r\n        require(\r\n            lastBlock.evidenceItemId == _evidenceItemId &&\r\n                lastBlock.state != \"CHECKEDIN\",\r\n            \"Error: Item already checked in or not the last transaction.\"\r\n        );\r\n\r\n        // Add a new block for checkin\r\n        addBlock(\r\n            lastBlock.caseId,\r\n            _evidenceItemId,\r\n            \"CHECKEDIN\",\r\n            _handlerName,\r\n            _organizationName,\r\n            lastBlock.data\r\n        );\r\n        emit EvidenceItemCheckedIn(\r\n            lastBlock.caseId,\r\n            _evidenceItemId,\r\n            uint64(block.timestamp),\r\n            \"CHECKEDIN\",\r\n            _handlerName,\r\n            _organizationName\r\n        );\r\n    }\r\n\r\n    function getCases() public view returns (uint128[] memory) {\r\n        uint128[] memory cases = new uint128[](blockchain.length);\r\n        uint count = 0;\r\n\r\n        for (uint i = 0; i < blockchain.length; i++) {\r\n            bool exists = false;\r\n            for (uint j = 0; j < count; j++) {\r\n                if (cases[j] == blockchain[i].caseId) {\r\n                    exists = true;\r\n                    break;\r\n                }\r\n            }\r\n            if (!exists) {\r\n                cases[count] = blockchain[i].caseId;\r\n                count++;\r\n            }\r\n        }\r\n\r\n        // Resize the array to fit the actual number of unique cases\r\n        uint128[] memory uniqueCases = new uint128[](count);\r\n        for (uint i = 0; i < count; i++) {\r\n            uniqueCases[i] = cases[i];\r\n        }\r\n\r\n        return uniqueCases;\r\n    }\r\n}\r\n",
  "sourcePath": "C:\\Users\\sharm\\Dropbox (ASU)\\CSE 469 CNF\\Group Project\\blockchain_chain_of_custody\\chain_of_custody\\contracts\\ChainOfCustody.sol",
  "compiler": {
    "name": "solc",
    "version": "0.8.0+commit.c7dfd78e.Emscripten.clang"
  },
  "schemaVersion": "3.4.16",
  "updatedAt": "2023-11-25T01:39:15.922Z",
  "networkType": "ethereum",
  "devdoc": {
    "kind": "dev",
    "methods": {},
    "version": 1
  },
  "userdoc": {
    "kind": "user",
    "methods": {},
    "version": 1
  }
}