{
  "contractName": "ChainOfCustody",
  "abi": [
    {
      "anonymous": false,
      "inputs": [
        {
          "indexed": false,
          "internalType": "uint128",
          "name": "caseId",
          "type": "uint128"
        },
        {
          "indexed": false,
          "internalType": "uint32",
          "name": "evidenceItemId",
          "type": "uint32"
        },
        {
          "indexed": false,
          "internalType": "uint64",
          "name": "timestamp",
          "type": "uint64"
        },
        {
          "indexed": false,
          "internalType": "string",
          "name": "state",
          "type": "string"
        },
        {
          "indexed": false,
          "internalType": "string",
          "name": "handlerName",
          "type": "string"
        },
        {
          "indexed": false,
          "internalType": "string",
          "name": "organizationName",
          "type": "string"
        }
      ],
      "name": "EvidenceItemAdded",
      "type": "event"
    },
    {
      "anonymous": false,
      "inputs": [
        {
          "indexed": false,
          "internalType": "uint128",
          "name": "caseId",
          "type": "uint128"
        },
        {
          "indexed": false,
          "internalType": "uint32",
          "name": "evidenceItemId",
          "type": "uint32"
        },
        {
          "indexed": false,
          "internalType": "uint64",
          "name": "timestamp",
          "type": "uint64"
        },
        {
          "indexed": false,
          "internalType": "bytes12",
          "name": "state",
          "type": "bytes12"
        },
        {
          "indexed": false,
          "internalType": "string",
          "name": "handlerName",
          "type": "string"
        },
        {
          "indexed": false,
          "internalType": "string",
          "name": "organizationName",
          "type": "string"
        }
      ],
      "name": "EvidenceItemCheckedIn",
      "type": "event"
    },
    {
      "anonymous": false,
      "inputs": [
        {
          "indexed": false,
          "internalType": "uint128",
          "name": "caseId",
          "type": "uint128"
        },
        {
          "indexed": false,
          "internalType": "uint32",
          "name": "evidenceItemId",
          "type": "uint32"
        },
        {
          "indexed": false,
          "internalType": "uint64",
          "name": "timestamp",
          "type": "uint64"
        },
        {
          "indexed": false,
          "internalType": "bytes12",
          "name": "state",
          "type": "bytes12"
        }
      ],
      "name": "EvidenceItemCheckedOut",
      "type": "event"
    },
    {
      "anonymous": false,
      "inputs": [
        {
          "indexed": false,
          "internalType": "uint128",
          "name": "caseId",
          "type": "uint128"
        },
        {
          "indexed": false,
          "internalType": "uint32",
          "name": "evidenceItemId",
          "type": "uint32"
        },
        {
          "indexed": false,
          "internalType": "uint64",
          "name": "timestamp",
          "type": "uint64"
        },
        {
          "indexed": false,
          "internalType": "string",
          "name": "reason",
          "type": "string"
        },
        {
          "indexed": false,
          "internalType": "string",
          "name": "ownerInfo",
          "type": "string"
        }
      ],
      "name": "EvidenceItemRemoved",
      "type": "event"
    },
    {
      "inputs": [
        {
          "internalType": "uint256",
          "name": "",
          "type": "uint256"
        }
      ],
      "name": "blockchain",
      "outputs": [
        {
          "internalType": "bytes32",
          "name": "previousHash",
          "type": "bytes32"
        },
        {
          "internalType": "uint64",
          "name": "timestamp",
          "type": "uint64"
        },
        {
          "internalType": "uint128",
          "name": "caseId",
          "type": "uint128"
        },
        {
          "internalType": "uint32",
          "name": "evidenceItemId",
          "type": "uint32"
        },
        {
          "internalType": "string",
          "name": "state",
          "type": "string"
        },
        {
          "internalType": "string",
          "name": "handlerName",
          "type": "string"
        },
        {
          "internalType": "string",
          "name": "organizationName",
          "type": "string"
        },
        {
          "internalType": "string",
          "name": "reason",
          "type": "string"
        },
        {
          "internalType": "uint32",
          "name": "dataLength",
          "type": "uint32"
        },
        {
          "internalType": "bytes",
          "name": "data",
          "type": "bytes"
        }
      ],
      "stateMutability": "view",
      "type": "function"
    },
    {
      "inputs": [
        {
          "internalType": "uint32",
          "name": "",
          "type": "uint32"
        }
      ],
      "name": "evidenceExists",
      "outputs": [
        {
          "internalType": "bool",
          "name": "",
          "type": "bool"
        }
      ],
      "stateMutability": "view",
      "type": "function"
    },
    {
      "inputs": [
        {
          "internalType": "uint128",
          "name": "_caseId",
          "type": "uint128"
        },
        {
          "internalType": "uint32[]",
          "name": "_itemIds",
          "type": "uint32[]"
        },
        {
          "internalType": "string",
          "name": "_handlerName",
          "type": "string"
        },
        {
          "internalType": "string",
          "name": "_organizationName",
          "type": "string"
        }
      ],
      "name": "addEvidenceItems",
      "outputs": [],
      "stateMutability": "nonpayable",
      "type": "function"
    },
    {
      "inputs": [
        {
          "internalType": "uint32",
          "name": "_evidenceItemId",
          "type": "uint32"
        }
      ],
      "name": "checkoutEvidenceItem",
      "outputs": [],
      "stateMutability": "nonpayable",
      "type": "function"
    },
    {
      "inputs": [
        {
          "internalType": "uint32",
          "name": "_evidenceItemId",
          "type": "uint32"
        },
        {
          "internalType": "string",
          "name": "_handlerName",
          "type": "string"
        },
        {
          "internalType": "string",
          "name": "_organizationName",
          "type": "string"
        },
        {
          "internalType": "string",
          "name": "_reason",
          "type": "string"
        }
      ],
      "name": "checkinEvidenceItem",
      "outputs": [],
      "stateMutability": "nonpayable",
      "type": "function"
    },
    {
      "inputs": [],
      "name": "getCases",
      "outputs": [
        {
          "internalType": "uint128[]",
          "name": "",
          "type": "uint128[]"
        }
      ],
      "stateMutability": "view",
      "type": "function"
    },
    {
      "inputs": [
        {
          "internalType": "uint128",
          "name": "_caseId",
          "type": "uint128"
        }
      ],
      "name": "getItemsForCase",
      "outputs": [
        {
          "internalType": "uint32[]",
          "name": "",
          "type": "uint32[]"
        }
      ],
      "stateMutability": "view",
      "type": "function"
    },
    {
      "inputs": [
        {
          "internalType": "uint32",
          "name": "_itemId",
          "type": "uint32"
        }
      ],
      "name": "getItemHistory",
      "outputs": [
        {
          "components": [
            {
              "internalType": "uint64",
              "name": "timestamp",
              "type": "uint64"
            },
            {
              "internalType": "string",
              "name": "handlerName",
              "type": "string"
            },
            {
              "internalType": "string",
              "name": "state",
              "type": "string"
            }
          ],
          "internalType": "struct ChainOfCustody.BlockInfo[]",
          "name": "",
          "type": "tuple[]"
        }
      ],
      "stateMutability": "view",
      "type": "function"
    },
    {
      "inputs": [
        {
          "internalType": "uint32",
          "name": "_evidenceItemId",
          "type": "uint32"
        },
        {
          "internalType": "string",
          "name": "_reason",
          "type": "string"
        },
        {
          "internalType": "string",
          "name": "_ownerInfo",
          "type": "string"
        }
      ],
      "name": "removeEvidenceItem",
      "outputs": [],
      "stateMutability": "nonpayable",
      "type": "function"
    },
    {
      "inputs": [],
      "name": "getBlockchain",
      "outputs": [
        {
          "components": [
            {
              "internalType": "bytes32",
              "name": "previousHash",
              "type": "bytes32"
            },
            {
              "internalType": "uint64",
              "name": "timestamp",
              "type": "uint64"
            },
            {
              "internalType": "uint128",
              "name": "caseId",
              "type": "uint128"
            },
            {
              "internalType": "uint32",
              "name": "evidenceItemId",
              "type": "uint32"
            },
            {
              "internalType": "string",
              "name": "state",
              "type": "string"
            },
            {
              "internalType": "string",
              "name": "handlerName",
              "type": "string"
            },
            {
              "internalType": "string",
              "name": "organizationName",
              "type": "string"
            },
            {
              "internalType": "string",
              "name": "reason",
              "type": "string"
            },
            {
              "internalType": "uint32",
              "name": "dataLength",
              "type": "uint32"
            },
            {
              "internalType": "bytes",
              "name": "data",
              "type": "bytes"
            }
          ],
          "internalType": "struct ChainOfCustody.Block[]",
          "name": "",
          "type": "tuple[]"
        }
      ],
      "stateMutability": "view",
      "type": "function"
    },
    {
      "inputs": [
        {
          "internalType": "uint256",
          "name": "index",
          "type": "uint256"
        }
      ],
      "name": "getBlock",
      "outputs": [
        {
          "components": [
            {
              "internalType": "bytes32",
              "name": "previousHash",
              "type": "bytes32"
            },
            {
              "internalType": "uint64",
              "name": "timestamp",
              "type": "uint64"
            },
            {
              "internalType": "uint128",
              "name": "caseId",
              "type": "uint128"
            },
            {
              "internalType": "uint32",
              "name": "evidenceItemId",
              "type": "uint32"
            },
            {
              "internalType": "string",
              "name": "state",
              "type": "string"
            },
            {
              "internalType": "string",
              "name": "handlerName",
              "type": "string"
            },
            {
              "internalType": "string",
              "name": "organizationName",
              "type": "string"
            },
            {
              "internalType": "string",
              "name": "reason",
              "type": "string"
            },
            {
              "internalType": "uint32",
              "name": "dataLength",
              "type": "uint32"
            },
            {
              "internalType": "bytes",
              "name": "data",
              "type": "bytes"
            }
          ],
          "internalType": "struct ChainOfCustody.Block",
          "name": "",
          "type": "tuple"
        }
      ],
      "stateMutability": "view",
      "type": "function"
    },
    {
      "inputs": [
        {
          "internalType": "uint32",
          "name": "_evidenceItemId",
          "type": "uint32"
        }
      ],
      "name": "init",
      "outputs": [
        {
          "internalType": "bool",
          "name": "",
          "type": "bool"
        }
      ],
      "stateMutability": "view",
      "type": "function"
    }
  ],
  "bytecode": "0x608060405234801561000f575f80fd5b5061407f8061001d5f395ff3fe608060405234801561000f575f80fd5b50600436106100b2575f3560e01c8063a35854971161006f578063a35854971461019e578063b35af6c3146101ba578063bfc260de146101ea578063c25b1eaf14610206578063d2bacbc81461023f578063e61f36ae1461025b576100b2565b806304c07569146100b6578063065cb594146100e657806336c71d32146101045780633d46424f14610134578063458c26821461015257806382e7994014610182575b5f80fd5b6100d060048036038101906100cb9190612607565b61028b565b6040516100dd9190612883565b60405180910390f35b6100ee6106aa565b6040516100fb919061294b565b60405180910390f35b61011e60048036038101906101199190612995565b610936565b60405161012b91906129da565b60405180910390f35b61013c6109e8565b6040516101499190612ba1565b60405180910390f35b61016c60048036038101906101679190612995565b610de3565b6040516101799190612cd0565b60405180910390f35b61019c60048036038101906101979190612e1c565b611138565b005b6101b860048036038101906101b39190612995565b6113b6565b005b6101d460048036038101906101cf9190612995565b6117b1565b6040516101e191906129da565b60405180910390f35b61020460048036038101906101ff9190612fc2565b6117ce565b005b610220600480360381019061021b9190612607565b6118f1565b6040516102369a99989796959493929190613146565b60405180910390f35b61025960048036038101906102549190613203565b611c3b565b005b6102756004803603810190610270919061328b565b611fc2565b604051610282919061335e565b60405180910390f35b610293612520565b5f8054905082106102d9576040517f08c379a00000000000000000000000000000000000000000000000000000000081526004016102d0906133c8565b60405180910390fd5b5f82815481106102ec576102eb6133e6565b5b905f5260205f209060080201604051806101400160405290815f8201548152602001600182015f9054906101000a900467ffffffffffffffff1667ffffffffffffffff1667ffffffffffffffff1681526020016001820160089054906101000a90046fffffffffffffffffffffffffffffffff166fffffffffffffffffffffffffffffffff166fffffffffffffffffffffffffffffffff1681526020016001820160189054906101000a900463ffffffff1663ffffffff1663ffffffff1681526020016002820180546103be90613440565b80601f01602080910402602001604051908101604052809291908181526020018280546103ea90613440565b80156104355780601f1061040c57610100808354040283529160200191610435565b820191905f5260205f20905b81548152906001019060200180831161041857829003601f168201915b5050505050815260200160038201805461044e90613440565b80601f016020809104026020016040519081016040528092919081815260200182805461047a90613440565b80156104c55780601f1061049c576101008083540402835291602001916104c5565b820191905f5260205f20905b8154815290600101906020018083116104a857829003601f168201915b505050505081526020016004820180546104de90613440565b80601f016020809104026020016040519081016040528092919081815260200182805461050a90613440565b80156105555780601f1061052c57610100808354040283529160200191610555565b820191905f5260205f20905b81548152906001019060200180831161053857829003601f168201915b5050505050815260200160058201805461056e90613440565b80601f016020809104026020016040519081016040528092919081815260200182805461059a90613440565b80156105e55780601f106105bc576101008083540402835291602001916105e5565b820191905f5260205f20905b8154815290600101906020018083116105c857829003601f168201915b50505050508152602001600682015f9054906101000a900463ffffffff1663ffffffff1663ffffffff16815260200160078201805461062390613440565b80601f016020809104026020016040519081016040528092919081815260200182805461064f90613440565b801561069a5780601f106106715761010080835404028352916020019161069a565b820191905f5260205f20905b81548152906001019060200180831161067d57829003601f168201915b5050505050815250509050919050565b60605f808054905067ffffffffffffffff8111156106cb576106ca612cf8565b5b6040519080825280602002602001820160405280156106f95781602001602082028036833780820191505090505b5090505f805b5f80549050811015610862575f805b838110156107b5575f8381548110610729576107286133e6565b5b905f5260205f20906008020160010160089054906101000a90046fffffffffffffffffffffffffffffffff166fffffffffffffffffffffffffffffffff1685828151811061077a576107796133e6565b5b60200260200101516fffffffffffffffffffffffffffffffff16036107a257600191506107b5565b80806107ad9061349d565b91505061070e565b508061084e575f82815481106107ce576107cd6133e6565b5b905f5260205f20906008020160010160089054906101000a90046fffffffffffffffffffffffffffffffff1684848151811061080d5761080c6133e6565b5b60200260200101906fffffffffffffffffffffffffffffffff1690816fffffffffffffffffffffffffffffffff1681525050828061084a9061349d565b9350505b50808061085a9061349d565b9150506106ff565b505f8167ffffffffffffffff81111561087e5761087d612cf8565b5b6040519080825280602002602001820160405280156108ac5781602001602082028036833780820191505090505b5090505f5b8281101561092c578381815181106108cc576108cb6133e6565b5b60200260200101518282815181106108e7576108e66133e6565b5b60200260200101906fffffffffffffffffffffffffffffffff1690816fffffffffffffffffffffffffffffffff168152505080806109249061349d565b9150506108b1565b5080935050505090565b5f805f805490500361094a575f90506109e3565b5f5b5f805490508110156109de578263ffffffff165f8281548110610972576109716133e6565b5b905f5260205f20906008020160010160189054906101000a900463ffffffff1663ffffffff16036109cb575f801b5f82815481106109b3576109b26133e6565b5b905f5260205f2090600802015f0154149150506109e3565b80806109d69061349d565b91505061094c565b505f90505b919050565b60605f805480602002602001604051908101604052809291908181526020015f905b82821015610dda578382905f5260205f209060080201604051806101400160405290815f8201548152602001600182015f9054906101000a900467ffffffffffffffff1667ffffffffffffffff1667ffffffffffffffff1681526020016001820160089054906101000a90046fffffffffffffffffffffffffffffffff166fffffffffffffffffffffffffffffffff166fffffffffffffffffffffffffffffffff1681526020016001820160189054906101000a900463ffffffff1663ffffffff1663ffffffff168152602001600282018054610ae690613440565b80601f0160208091040260200160405190810160405280929190818152602001828054610b1290613440565b8015610b5d5780601f10610b3457610100808354040283529160200191610b5d565b820191905f5260205f20905b815481529060010190602001808311610b4057829003601f168201915b50505050508152602001600382018054610b7690613440565b80601f0160208091040260200160405190810160405280929190818152602001828054610ba290613440565b8015610bed5780601f10610bc457610100808354040283529160200191610bed565b820191905f5260205f20905b815481529060010190602001808311610bd057829003601f168201915b50505050508152602001600482018054610c0690613440565b80601f0160208091040260200160405190810160405280929190818152602001828054610c3290613440565b8015610c7d5780601f10610c5457610100808354040283529160200191610c7d565b820191905f5260205f20905b815481529060010190602001808311610c6057829003601f168201915b50505050508152602001600582018054610c9690613440565b80601f0160208091040260200160405190810160405280929190818152602001828054610cc290613440565b8015610d0d5780601f10610ce457610100808354040283529160200191610d0d565b820191905f5260205f20905b815481529060010190602001808311610cf057829003601f168201915b50505050508152602001600682015f9054906101000a900463ffffffff1663ffffffff1663ffffffff168152602001600782018054610d4b90613440565b80601f0160208091040260200160405190810160405280929190818152602001828054610d7790613440565b8015610dc25780601f10610d9957610100808354040283529160200191610dc2565b820191905f5260205f20905b815481529060010190602001808311610da557829003601f168201915b50505050508152505081526020019060010190610a0a565b50505050905090565b60605f808054905067ffffffffffffffff811115610e0457610e03612cf8565b5b604051908082528060200260200182016040528015610e3d57816020015b610e2a612599565b815260200190600190039081610e225790505b5090505f805b5f8054905081101561107e578463ffffffff165f8281548110610e6957610e686133e6565b5b905f5260205f20906008020160010160189054906101000a900463ffffffff1663ffffffff160361106b5760405180606001604052805f8381548110610eb257610eb16133e6565b5b905f5260205f2090600802016001015f9054906101000a900467ffffffffffffffff1667ffffffffffffffff1681526020015f8381548110610ef757610ef66133e6565b5b905f5260205f2090600802016003018054610f1190613440565b80601f0160208091040260200160405190810160405280929190818152602001828054610f3d90613440565b8015610f885780601f10610f5f57610100808354040283529160200191610f88565b820191905f5260205f20905b815481529060010190602001808311610f6b57829003601f168201915b505050505081526020015f8381548110610fa557610fa46133e6565b5b905f5260205f2090600802016002018054610fbf90613440565b80601f0160208091040260200160405190810160405280929190818152602001828054610feb90613440565b80156110365780601f1061100d57610100808354040283529160200191611036565b820191905f5260205f20905b81548152906001019060200180831161101957829003601f168201915b5050505050815250838381518110611051576110506133e6565b5b602002602001018190525081806110679061349d565b9250505b80806110769061349d565b915050610e43565b505f8167ffffffffffffffff81111561109a57611099612cf8565b5b6040519080825280602002602001820160405280156110d357816020015b6110c0612599565b8152602001906001900390816110b85790505b5090505f5b8281101561112c578381815181106110f3576110f26133e6565b5b602002602001015182828151811061110e5761110d6133e6565b5b602002602001018190525080806111249061349d565b9150506110d8565b50809350505050919050565b60015f8563ffffffff1663ffffffff1681526020019081526020015f205f9054906101000a900460ff166111a1576040517f08c379a000000000000000000000000000000000000000000000000000000000815260040161119890613554565b60405180910390fd5b5f8060015f805490506111b49190613572565b815481106111c5576111c46133e6565b5b905f5260205f20906008020190506040516020016111e2906135f9565b604051602081830303815290604052805190602001208160020160405160200161120c919061369f565b6040516020818303038152906040528051906020012003611262576040517f08c379a00000000000000000000000000000000000000000000000000000000081526004016112599061374b565b60405180910390fd5b6113508160010160089054906101000a90046fffffffffffffffffffffffffffffffff16866040518060400160405280600981526020017f434845434b4544494e00000000000000000000000000000000000000000000008152508787878760070180546112cf90613440565b80601f01602080910402602001604051908101604052809291908181526020018280546112fb90613440565b80156113465780601f1061131d57610100808354040283529160200191611346565b820191905f5260205f20905b81548152906001019060200180831161132957829003601f168201915b50505050506121cc565b7fd49b2c04b215ac50c6ff4b42e1d6b23fd458febea2c121b32c9289641fb633288160010160089054906101000a90046fffffffffffffffffffffffffffffffff16864287876040516113a795949392919061378f565b60405180910390a15050505050565b60015f8263ffffffff1663ffffffff1681526020019081526020015f205f9054906101000a900460ff1661141f576040517f08c379a000000000000000000000000000000000000000000000000000000000815260040161141690613554565b60405180910390fd5b5f8060015f805490506114329190613572565b81548110611443576114426133e6565b5b905f5260205f20906008020190508163ffffffff168160010160189054906101000a900463ffffffff1663ffffffff16146114b3576040517f08c379a00000000000000000000000000000000000000000000000000000000081526004016114aa90613844565b60405180910390fd5b6040516020016114c2906138ac565b60405160208183030381529060405280519060200120816002016040516020016114ec919061369f565b6040516020818303038152906040528051906020012003611542576040517f08c379a00000000000000000000000000000000000000000000000000000000081526004016115399061374b565b60405180910390fd5b6117528160010160089054906101000a90046fffffffffffffffffffffffffffffffff16836040518060400160405280600a81526020017f434845434b45444f5554000000000000000000000000000000000000000000008152508460030180546115ac90613440565b80601f01602080910402602001604051908101604052809291908181526020018280546115d890613440565b80156116235780601f106115fa57610100808354040283529160200191611623565b820191905f5260205f20905b81548152906001019060200180831161160657829003601f168201915b505050505085600401805461163790613440565b80601f016020809104026020016040519081016040528092919081815260200182805461166390613440565b80156116ae5780601f10611685576101008083540402835291602001916116ae565b820191905f5260205f20905b81548152906001019060200180831161169157829003601f168201915b505050505060405180602001604052805f8152508760070180546116d190613440565b80601f01602080910402602001604051908101604052809291908181526020018280546116fd90613440565b80156117485780601f1061171f57610100808354040283529160200191611748565b820191905f5260205f20905b81548152906001019060200180831161172b57829003601f168201915b50505050506121cc565b7f431bdc219b0c2d27308a12cb3b26a63cb93a3eb90bb495bd6db61ed74e2a89ce8160010160089054906101000a90046fffffffffffffffffffffffffffffffff1683426040516117a5939291906138e6565b60405180910390a15050565b6001602052805f5260405f205f915054906101000a900460ff1681565b5f5b83518110156118ea5760015f8583815181106117ef576117ee6133e6565b5b602002602001015163ffffffff1663ffffffff1681526020019081526020015f205f9054906101000a900460ff161561185d576040517f08c379a000000000000000000000000000000000000000000000000000000000815260040161185490613971565b60405180910390fd5b6118d785858381518110611874576118736133e6565b5b60200260200101516040518060400160405280600981526020017f434845434b4544494e0000000000000000000000000000000000000000000000815250868660405180602001604052805f81525060405180602001604052805f8152506121cc565b80806118e29061349d565b9150506117d0565b5050505050565b5f81815481106118ff575f80fd5b905f5260205f2090600802015f91509050805f015490806001015f9054906101000a900467ffffffffffffffff16908060010160089054906101000a90046fffffffffffffffffffffffffffffffff16908060010160189054906101000a900463ffffffff169080600201805461197590613440565b80601f01602080910402602001604051908101604052809291908181526020018280546119a190613440565b80156119ec5780601f106119c3576101008083540402835291602001916119ec565b820191905f5260205f20905b8154815290600101906020018083116119cf57829003601f168201915b505050505090806003018054611a0190613440565b80601f0160208091040260200160405190810160405280929190818152602001828054611a2d90613440565b8015611a785780601f10611a4f57610100808354040283529160200191611a78565b820191905f5260205f20905b815481529060010190602001808311611a5b57829003601f168201915b505050505090806004018054611a8d90613440565b80601f0160208091040260200160405190810160405280929190818152602001828054611ab990613440565b8015611b045780601f10611adb57610100808354040283529160200191611b04565b820191905f5260205f20905b815481529060010190602001808311611ae757829003601f168201915b505050505090806005018054611b1990613440565b80601f0160208091040260200160405190810160405280929190818152602001828054611b4590613440565b8015611b905780601f10611b6757610100808354040283529160200191611b90565b820191905f5260205f20905b815481529060010190602001808311611b7357829003601f168201915b505050505090806006015f9054906101000a900463ffffffff1690806007018054611bba90613440565b80601f0160208091040260200160405190810160405280929190818152602001828054611be690613440565b8015611c315780601f10611c0857610100808354040283529160200191611c31565b820191905f5260205f20905b815481529060010190602001808311611c1457829003601f168201915b505050505090508a565b60015f8463ffffffff1663ffffffff1681526020019081526020015f205f9054906101000a900460ff16611ca4576040517f08c379a0000000000000000000000000000000000000000000000000000000008152600401611c9b90613554565b60405180910390fd5b5f8060015f80549050611cb79190613572565b81548110611cc857611cc76133e6565b5b905f5260205f20906008020190508363ffffffff168160010160189054906101000a900463ffffffff1663ffffffff16148015611d515750604051602001611d0f906135f9565b6040516020818303038152906040528051906020012081600201604051602001611d39919061369f565b60405160208183030381529060405280519060200120145b611d90576040517f08c379a0000000000000000000000000000000000000000000000000000000008152600401611d87906139ff565b60405180910390fd5b611f5d8160010160089054906101000a90046fffffffffffffffffffffffffffffffff168585846003018054611dc590613440565b80601f0160208091040260200160405190810160405280929190818152602001828054611df190613440565b8015611e3c5780601f10611e1357610100808354040283529160200191611e3c565b820191905f5260205f20905b815481529060010190602001808311611e1f57829003601f168201915b5050505050856004018054611e5090613440565b80601f0160208091040260200160405190810160405280929190818152602001828054611e7c90613440565b8015611ec75780601f10611e9e57610100808354040283529160200191611ec7565b820191905f5260205f20905b815481529060010190602001808311611eaa57829003601f168201915b505050505087876007018054611edc90613440565b80601f0160208091040260200160405190810160405280929190818152602001828054611f0890613440565b8015611f535780601f10611f2a57610100808354040283529160200191611f53565b820191905f5260205f20905b815481529060010190602001808311611f3657829003601f168201915b50505050506121cc565b7f131b0104fffef9791a656820b9d5349cb76c71fee3129316cd22fb398cee5b5d8160010160089054906101000a90046fffffffffffffffffffffffffffffffff1685428686604051611fb4959493929190613a1d565b60405180910390a150505050565b60605f808054905067ffffffffffffffff811115611fe357611fe2612cf8565b5b6040519080825280602002602001820160405280156120115781602001602082028036833780820191505090505b5090505f805b5f8054905081101561210e57846fffffffffffffffffffffffffffffffff165f8281548110612049576120486133e6565b5b905f5260205f20906008020160010160089054906101000a90046fffffffffffffffffffffffffffffffff166fffffffffffffffffffffffffffffffff16036120fb575f818154811061209f5761209e6133e6565b5b905f5260205f20906008020160010160189054906101000a900463ffffffff168383815181106120d2576120d16133e6565b5b602002602001019063ffffffff16908163ffffffff168152505081806120f79061349d565b9250505b80806121069061349d565b915050612017565b505f8167ffffffffffffffff81111561212a57612129612cf8565b5b6040519080825280602002602001820160405280156121585781602001602082028036833780820191505090505b5090505f5b828110156121c057838181518110612178576121776133e6565b5b6020026020010151828281518110612193576121926133e6565b5b602002602001019063ffffffff16908163ffffffff168152505080806121b89061349d565b91505061215d565b50809350505050919050565b5f805f80549050116121e0575f801b6121e9565b6121e8612443565b5b90505f4290505f835190505f6040518061014001604052808581526020018467ffffffffffffffff1681526020018c6fffffffffffffffffffffffffffffffff1681526020018b63ffffffff1681526020018a81526020018981526020018881526020018781526020018363ffffffff1681526020018681525090505f81908060018154018082558091505060019003905f5260205f2090600802015f909190919091505f820151815f01556020820151816001015f6101000a81548167ffffffffffffffff021916908367ffffffffffffffff16021790555060408201518160010160086101000a8154816fffffffffffffffffffffffffffffffff02191690836fffffffffffffffffffffffffffffffff16021790555060608201518160010160186101000a81548163ffffffff021916908363ffffffff160217905550608082015181600201908161233e9190613c07565b5060a08201518160030190816123549190613c07565b5060c082015181600401908161236a9190613c07565b5060e08201518160050190816123809190613c07565b50610100820151816006015f6101000a81548163ffffffff021916908363ffffffff1602179055506101208201518160070190816123be9190613d2e565b5050506001805f8c63ffffffff1663ffffffff1681526020019081526020015f205f6101000a81548160ff0219169083151502179055507f33a1c1a3b9a16d06083c74dc302e2fcc5be80f5e5aa2ae9a270c78f82731b11b8b8b858c8c8c60405161242e96959493929190613dfd565b60405180910390a15050505050505050505050565b5f805f60015f805490506124579190613572565b81548110612468576124676133e6565b5b905f5260205f2090600802019050805f0154816001015f9054906101000a900467ffffffffffffffff168260010160089054906101000a90046fffffffffffffffffffffffffffffffff168360010160189054906101000a900463ffffffff16846002018560030186600401876006015f9054906101000a900463ffffffff168860070160405160200161250499989796959493929190613fb7565b6040516020818303038152906040528051906020012091505090565b6040518061014001604052805f80191681526020015f67ffffffffffffffff1681526020015f6fffffffffffffffffffffffffffffffff1681526020015f63ffffffff168152602001606081526020016060815260200160608152602001606081526020015f63ffffffff168152602001606081525090565b60405180606001604052805f67ffffffffffffffff16815260200160608152602001606081525090565b5f604051905090565b5f80fd5b5f80fd5b5f819050919050565b6125e6816125d4565b81146125f0575f80fd5b50565b5f81359050612601816125dd565b92915050565b5f6020828403121561261c5761261b6125cc565b5b5f612629848285016125f3565b91505092915050565b5f819050919050565b61264481612632565b82525050565b5f67ffffffffffffffff82169050919050565b6126668161264a565b82525050565b5f6fffffffffffffffffffffffffffffffff82169050919050565b6126908161266c565b82525050565b5f63ffffffff82169050919050565b6126ae81612696565b82525050565b5f81519050919050565b5f82825260208201905092915050565b5f5b838110156126eb5780820151818401526020810190506126d0565b5f8484015250505050565b5f601f19601f8301169050919050565b5f612710826126b4565b61271a81856126be565b935061272a8185602086016126ce565b612733816126f6565b840191505092915050565b5f81519050919050565b5f82825260208201905092915050565b5f6127628261273e565b61276c8185612748565b935061277c8185602086016126ce565b612785816126f6565b840191505092915050565b5f61014083015f8301516127a65f86018261263b565b5060208301516127b9602086018261265d565b5060408301516127cc6040860182612687565b5060608301516127df60608601826126a5565b50608083015184820360808601526127f78282612706565b91505060a083015184820360a08601526128118282612706565b91505060c083015184820360c086015261282b8282612706565b91505060e083015184820360e08601526128458282612706565b91505061010083015161285c6101008601826126a5565b506101208301518482036101208601526128768282612758565b9150508091505092915050565b5f6020820190508181035f83015261289b8184612790565b905092915050565b5f81519050919050565b5f82825260208201905092915050565b5f819050602082019050919050565b5f6128d78383612687565b60208301905092915050565b5f602082019050919050565b5f6128f9826128a3565b61290381856128ad565b935061290e836128bd565b805f5b8381101561293e57815161292588826128cc565b9750612930836128e3565b925050600181019050612911565b5085935050505092915050565b5f6020820190508181035f83015261296381846128ef565b905092915050565b61297481612696565b811461297e575f80fd5b50565b5f8135905061298f8161296b565b92915050565b5f602082840312156129aa576129a96125cc565b5b5f6129b784828501612981565b91505092915050565b5f8115159050919050565b6129d4816129c0565b82525050565b5f6020820190506129ed5f8301846129cb565b92915050565b5f81519050919050565b5f82825260208201905092915050565b5f819050602082019050919050565b5f61014083015f830151612a325f86018261263b565b506020830151612a45602086018261265d565b506040830151612a586040860182612687565b506060830151612a6b60608601826126a5565b5060808301518482036080860152612a838282612706565b91505060a083015184820360a0860152612a9d8282612706565b91505060c083015184820360c0860152612ab78282612706565b91505060e083015184820360e0860152612ad18282612706565b915050610100830151612ae86101008601826126a5565b50610120830151848203610120860152612b028282612758565b9150508091505092915050565b5f612b1a8383612a1c565b905092915050565b5f602082019050919050565b5f612b38826129f3565b612b4281856129fd565b935083602082028501612b5485612a0d565b805f5b85811015612b8f5784840389528151612b708582612b0f565b9450612b7b83612b22565b925060208a01995050600181019050612b57565b50829750879550505050505092915050565b5f6020820190508181035f830152612bb98184612b2e565b905092915050565b5f81519050919050565b5f82825260208201905092915050565b5f819050602082019050919050565b5f606083015f830151612bff5f86018261265d565b5060208301518482036020860152612c178282612706565b91505060408301518482036040860152612c318282612706565b9150508091505092915050565b5f612c498383612bea565b905092915050565b5f602082019050919050565b5f612c6782612bc1565b612c718185612bcb565b935083602082028501612c8385612bdb565b805f5b85811015612cbe5784840389528151612c9f8582612c3e565b9450612caa83612c51565b925060208a01995050600181019050612c86565b50829750879550505050505092915050565b5f6020820190508181035f830152612ce88184612c5d565b905092915050565b5f80fd5b5f80fd5b7f4e487b71000000000000000000000000000000000000000000000000000000005f52604160045260245ffd5b612d2e826126f6565b810181811067ffffffffffffffff82111715612d4d57612d4c612cf8565b5b80604052505050565b5f612d5f6125c3565b9050612d6b8282612d25565b919050565b5f67ffffffffffffffff821115612d8a57612d89612cf8565b5b612d93826126f6565b9050602081019050919050565b828183375f83830152505050565b5f612dc0612dbb84612d70565b612d56565b905082815260208101848484011115612ddc57612ddb612cf4565b5b612de7848285612da0565b509392505050565b5f82601f830112612e0357612e02612cf0565b5b8135612e13848260208601612dae565b91505092915050565b5f805f8060808587031215612e3457612e336125cc565b5b5f612e4187828801612981565b945050602085013567ffffffffffffffff811115612e6257612e616125d0565b5b612e6e87828801612def565b935050604085013567ffffffffffffffff811115612e8f57612e8e6125d0565b5b612e9b87828801612def565b925050606085013567ffffffffffffffff811115612ebc57612ebb6125d0565b5b612ec887828801612def565b91505092959194509250565b612edd8161266c565b8114612ee7575f80fd5b50565b5f81359050612ef881612ed4565b92915050565b5f67ffffffffffffffff821115612f1857612f17612cf8565b5b602082029050602081019050919050565b5f80fd5b5f612f3f612f3a84612efe565b612d56565b90508083825260208201905060208402830185811115612f6257612f61612f29565b5b835b81811015612f8b5780612f778882612981565b845260208401935050602081019050612f64565b5050509392505050565b5f82601f830112612fa957612fa8612cf0565b5b8135612fb9848260208601612f2d565b91505092915050565b5f805f8060808587031215612fda57612fd96125cc565b5b5f612fe787828801612eea565b945050602085013567ffffffffffffffff811115613008576130076125d0565b5b61301487828801612f95565b935050604085013567ffffffffffffffff811115613035576130346125d0565b5b61304187828801612def565b925050606085013567ffffffffffffffff811115613062576130616125d0565b5b61306e87828801612def565b91505092959194509250565b61308381612632565b82525050565b6130928161264a565b82525050565b6130a18161266c565b82525050565b6130b081612696565b82525050565b5f82825260208201905092915050565b5f6130d0826126b4565b6130da81856130b6565b93506130ea8185602086016126ce565b6130f3816126f6565b840191505092915050565b5f82825260208201905092915050565b5f6131188261273e565b61312281856130fe565b93506131328185602086016126ce565b61313b816126f6565b840191505092915050565b5f6101408201905061315a5f83018d61307a565b613167602083018c613089565b613174604083018b613098565b613181606083018a6130a7565b818103608083015261319381896130c6565b905081810360a08301526131a781886130c6565b905081810360c08301526131bb81876130c6565b905081810360e08301526131cf81866130c6565b90506131df6101008301856130a7565b8181036101208301526131f2818461310e565b90509b9a5050505050505050505050565b5f805f6060848603121561321a576132196125cc565b5b5f61322786828701612981565b935050602084013567ffffffffffffffff811115613248576132476125d0565b5b61325486828701612def565b925050604084013567ffffffffffffffff811115613275576132746125d0565b5b61328186828701612def565b9150509250925092565b5f602082840312156132a05761329f6125cc565b5b5f6132ad84828501612eea565b91505092915050565b5f81519050919050565b5f82825260208201905092915050565b5f819050602082019050919050565b5f6132ea83836126a5565b60208301905092915050565b5f602082019050919050565b5f61330c826132b6565b61331681856132c0565b9350613321836132d0565b805f5b8381101561335157815161333888826132df565b9750613343836132f6565b925050600181019050613324565b5085935050505092915050565b5f6020820190508181035f8301526133768184613302565b905092915050565b7f496e646578206f7574206f6620626f756e6473000000000000000000000000005f82015250565b5f6133b26013836130b6565b91506133bd8261337e565b602082019050919050565b5f6020820190508181035f8301526133df816133a6565b9050919050565b7f4e487b71000000000000000000000000000000000000000000000000000000005f52603260045260245ffd5b7f4e487b71000000000000000000000000000000000000000000000000000000005f52602260045260245ffd5b5f600282049050600182168061345757607f821691505b60208210810361346a57613469613413565b5b50919050565b7f4e487b71000000000000000000000000000000000000000000000000000000005f52601160045260245ffd5b5f6134a7826125d4565b91507fffffffffffffffffffffffffffffffffffffffffffffffffffffffffffffffff82036134d9576134d8613470565b5b600182019050919050565b7f4572726f723a2045766964656e6365206974656d20646f6573206e6f742065785f8201527f6973742e00000000000000000000000000000000000000000000000000000000602082015250565b5f61353e6024836130b6565b9150613549826134e4565b604082019050919050565b5f6020820190508181035f83015261356b81613532565b9050919050565b5f61357c826125d4565b9150613587836125d4565b925082820390508181111561359f5761359e613470565b5b92915050565b5f81905092915050565b7f434845434b4544494e00000000000000000000000000000000000000000000005f82015250565b5f6135e36009836135a5565b91506135ee826135af565b600982019050919050565b5f613603826135d7565b9150819050919050565b5f819050815f5260205f209050919050565b5f815461362b81613440565b61363581866135a5565b9450600182165f811461364f576001811461366457613696565b60ff1983168652811515820286019350613696565b61366d8561360d565b5f5b8381101561368e5781548189015260018201915060208101905061366f565b838801955050505b50505092915050565b5f6136aa828461361f565b915081905092915050565b7f4572726f723a2043616e6e6f7420636865636b206f7574206120636865636b655f8201527f64206f7574206974656d2e204d75737420636865636b20697420696e2066697260208201527f73742e0000000000000000000000000000000000000000000000000000000000604082015250565b5f6137356043836130b6565b9150613740826136b5565b606082019050919050565b5f6020820190508181035f83015261376281613729565b9050919050565b7f434845434b4544494e0000000000000000000000000000000000000000000000815250565b5f60c0820190506137a25f830188613098565b6137af60208301876130a7565b6137bc6040830186613089565b6137c860608301613769565b81810360808301526137da81856130c6565b905081810360a08301526137ee81846130c6565b90509695505050505050565b7f4572726f723a2057726f6e672065766964656e6365206974656d2e00000000005f82015250565b5f61382e601b836130b6565b9150613839826137fa565b602082019050919050565b5f6020820190508181035f83015261385b81613822565b9050919050565b7f434845434b45444f5554000000000000000000000000000000000000000000005f82015250565b5f613896600a836135a5565b91506138a182613862565b600a82019050919050565b5f6138b68261388a565b9150819050919050565b7f434845434b45444f555400000000000000000000000000000000000000000000815250565b5f6080820190506138f95f830186613098565b61390660208301856130a7565b6139136040830184613089565b61391f606083016138c0565b949350505050565b7f45766964656e6365206974656d204944206d75737420626520756e69717565005f82015250565b5f61395b601f836130b6565b915061396682613927565b602082019050919050565b5f6020820190508181035f8301526139888161394f565b9050919050565b7f4572726f723a204974656d206d75737420626520636865636b656420696e20745f8201527f6f2062652072656d6f7665642e00000000000000000000000000000000000000602082015250565b5f6139e9602d836130b6565b91506139f48261398f565b604082019050919050565b5f6020820190508181035f830152613a16816139dd565b9050919050565b5f60a082019050613a305f830188613098565b613a3d60208301876130a7565b613a4a6040830186613089565b8181036060830152613a5c81856130c6565b90508181036080830152613a7081846130c6565b90509695505050505050565b5f6020601f8301049050919050565b5f82821b905092915050565b5f60088302613ac67fffffffffffffffffffffffffffffffffffffffffffffffffffffffffffffffff82613a8b565b613ad08683613a8b565b95508019841693508086168417925050509392505050565b5f819050919050565b5f613b0b613b06613b01846125d4565b613ae8565b6125d4565b9050919050565b5f819050919050565b613b2483613af1565b613b38613b3082613b12565b848454613a97565b825550505050565b5f90565b613b4c613b40565b613b57818484613b1b565b505050565b5b81811015613b7a57613b6f5f82613b44565b600181019050613b5d565b5050565b601f821115613bbf57613b908161360d565b613b9984613a7c565b81016020851015613ba8578190505b613bbc613bb485613a7c565b830182613b5c565b50505b505050565b5f82821c905092915050565b5f613bdf5f1984600802613bc4565b1980831691505092915050565b5f613bf78383613bd0565b9150826002028217905092915050565b613c10826126b4565b67ffffffffffffffff811115613c2957613c28612cf8565b5b613c338254613440565b613c3e828285613b7e565b5f60209050601f831160018114613c6f575f8415613c5d578287015190505b613c678582613bec565b865550613cce565b601f198416613c7d8661360d565b5f5b82811015613ca457848901518255600182019150602085019450602081019050613c7f565b86831015613cc15784890151613cbd601f891682613bd0565b8355505b6001600288020188555050505b505050505050565b5f819050815f5260205f209050919050565b601f821115613d2957613cfa81613cd6565b613d0384613a7c565b81016020851015613d12578190505b613d26613d1e85613a7c565b830182613b5c565b50505b505050565b613d378261273e565b67ffffffffffffffff811115613d5057613d4f612cf8565b5b613d5a8254613440565b613d65828285613ce8565b5f60209050601f831160018114613d96575f8415613d84578287015190505b613d8e8582613bec565b865550613df5565b601f198416613da486613cd6565b5f5b82811015613dcb57848901518255600182019150602085019450602081019050613da6565b86831015613de85784890151613de4601f891682613bd0565b8355505b6001600288020188555050505b505050505050565b5f60c082019050613e105f830189613098565b613e1d60208301886130a7565b613e2a6040830187613089565b8181036060830152613e3c81866130c6565b90508181036080830152613e5081856130c6565b905081810360a0830152613e6481846130c6565b9050979650505050505050565b5f819050919050565b613e8b613e8682612632565b613e71565b82525050565b5f8160c01b9050919050565b5f613ea782613e91565b9050919050565b613ebf613eba8261264a565b613e9d565b82525050565b5f8160801b9050919050565b5f613edb82613ec5565b9050919050565b613ef3613eee8261266c565b613ed1565b82525050565b5f8160e01b9050919050565b5f613f0f82613ef9565b9050919050565b613f27613f2282612696565b613f05565b82525050565b5f81905092915050565b5f8154613f4381613440565b613f4d8186613f2d565b9450600182165f8114613f675760018114613f7c57613fae565b60ff1983168652811515820286019350613fae565b613f8585613cd6565b5f5b83811015613fa657815481890152600182019150602081019050613f87565b838801955050505b50505092915050565b5f613fc2828c613e7a565b602082019150613fd2828b613eae565b600882019150613fe2828a613ee2565b601082019150613ff28289613f16565b600482019150614002828861361f565b915061400e828761361f565b915061401a828661361f565b91506140268285613f16565b6004820191506140368284613f37565b91508190509a995050505050505050505056fea2646970667358221220a67129ac5157a08581ed6b25f0f89b9f3487abdf044db49e3deefe08118c2e9964736f6c63430008150033",
  "immutableReferences": {},
  "source": "// SPDX-License-Identifier: MIT\npragma solidity ^0.8.0;\n\ncontract ChainOfCustody {\n    struct Block {\n        bytes32 previousHash;\n        uint64 timestamp;\n        uint128 caseId;\n        uint32 evidenceItemId;\n        string state;\n        string handlerName; // Changed from bytes20 to string\n        string organizationName; // Changed from bytes20 to string\n        string reason;\n        uint32 dataLength;\n        bytes data;\n    }\n\n    Block[] public blockchain;\n    mapping(uint32 => bool) public evidenceExists;\n\n    // Updated event to use strings\n    event EvidenceItemAdded(\n        uint128 caseId,\n        uint32 evidenceItemId,\n        uint64 timestamp,\n        string state,\n        string handlerName,\n        string organizationName\n    );\n\n    // Updated function to accept string parameters\n    function addEvidenceItems(\n        uint128 _caseId,\n        uint32[] memory _itemIds,\n        string memory _handlerName,\n        string memory _organizationName\n    ) public {\n        for (uint i = 0; i < _itemIds.length; i++) {\n            require(\n                !evidenceExists[_itemIds[i]],\n                \"Evidence item ID must be unique\"\n            );\n            addBlock(\n                _caseId,\n                _itemIds[i],\n                \"CHECKEDIN\",\n                _handlerName,\n                _organizationName,\n                \"\",\n                \"\"\n            );\n        }\n    }\n\n    // Updated function to accept string parameters\n    function addBlock(\n        uint128 _caseId,\n        uint32 _evidenceItemId,\n        string memory _state,\n        string memory _handlerName,\n        string memory _organizationName,\n        string memory _reason,\n        bytes memory _data\n    ) private {\n        bytes32 previousHash = blockchain.length > 0\n            ? getLatestBlockHash()\n            : bytes32(0);\n        uint64 timestamp = uint64(block.timestamp);\n        uint32 dataLength = uint32(_data.length);\n\n        Block memory newBlock = Block(\n            previousHash,\n            timestamp,\n            _caseId,\n            _evidenceItemId,\n            _state,\n            _handlerName,\n            _organizationName,\n            _reason,\n            dataLength,\n            _data\n        );\n\n        blockchain.push(newBlock);\n        evidenceExists[_evidenceItemId] = true;\n\n        emit EvidenceItemAdded(\n            _caseId,\n            _evidenceItemId,\n            timestamp,\n            _state,\n            _handlerName,\n            _organizationName\n        );\n    }\n\n    function getLatestBlockHash() private view returns (bytes32) {\n        Block storage lastBlock = blockchain[blockchain.length - 1];\n        return\n            keccak256(\n                abi.encodePacked(\n                    lastBlock.previousHash,\n                    lastBlock.timestamp,\n                    lastBlock.caseId,\n                    lastBlock.evidenceItemId,\n                    lastBlock.state,\n                    lastBlock.handlerName,\n                    lastBlock.organizationName,\n                    lastBlock.dataLength,\n                    lastBlock.data\n                )\n            );\n    }\n\n    event EvidenceItemCheckedOut(\n        uint128 caseId,\n        uint32 evidenceItemId,\n        uint64 timestamp,\n        bytes12 state\n    );\n\n    function checkoutEvidenceItem(uint32 _evidenceItemId) public {\n        require(\n            evidenceExists[_evidenceItemId],\n            \"Error: Evidence item does not exist.\"\n        );\n        Block storage lastBlock = blockchain[blockchain.length - 1];\n        require(\n            lastBlock.evidenceItemId == _evidenceItemId,\n            \"Error: Wrong evidence item.\"\n        );\n        require(\n            keccak256(abi.encodePacked(lastBlock.state)) !=\n                keccak256(abi.encodePacked(\"CHECKEDOUT\")),\n            \"Error: Cannot check out a checked out item. Must check it in first.\"\n        );\n\n        // Assuming 'addBlock' function updates the state and creates a new block in the blockchain\n        addBlock(\n            lastBlock.caseId,\n            _evidenceItemId,\n            \"CHECKEDOUT\",\n            lastBlock.handlerName,\n            lastBlock.organizationName,\n            \"\",\n            lastBlock.data\n        );\n        emit EvidenceItemCheckedOut(\n            lastBlock.caseId,\n            _evidenceItemId,\n            uint64(block.timestamp),\n            \"CHECKEDOUT\"\n        );\n    }\n\n    event EvidenceItemCheckedIn(\n        uint128 caseId,\n        uint32 evidenceItemId,\n        uint64 timestamp,\n        bytes12 state,\n        string handlerName,\n        string organizationName\n    );\n\n    function checkinEvidenceItem(\n        uint32 _evidenceItemId,\n        string memory _handlerName,\n        string memory _organizationName,\n        string memory _reason\n    ) public {\n        require(\n            evidenceExists[_evidenceItemId],\n            \"Error: Evidence item does not exist.\"\n        );\n\n        // Check if the item is not already checked in\n        Block storage lastBlock = blockchain[blockchain.length - 1];\n        require(\n            keccak256(abi.encodePacked(lastBlock.state)) !=\n                keccak256(abi.encodePacked(\"CHECKEDIN\")),\n            \"Error: Cannot check out a checked out item. Must check it in first.\"\n        );\n\n        // Add a new block for checkin\n        addBlock(\n            lastBlock.caseId,\n            _evidenceItemId,\n            \"CHECKEDIN\",\n            _handlerName,\n            _organizationName,\n            _reason,\n            lastBlock.data\n        );\n        emit EvidenceItemCheckedIn(\n            lastBlock.caseId,\n            _evidenceItemId,\n            uint64(block.timestamp),\n            \"CHECKEDIN\",\n            _handlerName,\n            _organizationName\n        );\n    }\n\n    function getCases() public view returns (uint128[] memory) {\n        uint128[] memory cases = new uint128[](blockchain.length);\n        uint count = 0;\n\n        for (uint i = 0; i < blockchain.length; i++) {\n            bool exists = false;\n            for (uint j = 0; j < count; j++) {\n                if (cases[j] == blockchain[i].caseId) {\n                    exists = true;\n                    break;\n                }\n            }\n            if (!exists) {\n                cases[count] = blockchain[i].caseId;\n                count++;\n            }\n        }\n\n        // Resize the array to fit the actual number of unique cases\n        uint128[] memory uniqueCases = new uint128[](count);\n        for (uint i = 0; i < count; i++) {\n            uniqueCases[i] = cases[i];\n        }\n\n        return uniqueCases;\n    }\n\n    function getItemsForCase(\n        uint128 _caseId\n    ) public view returns (uint32[] memory) {\n        uint32[] memory itemsTemp = new uint32[](blockchain.length);\n        uint count = 0;\n\n        for (uint i = 0; i < blockchain.length; i++) {\n            if (blockchain[i].caseId == _caseId) {\n                itemsTemp[count] = blockchain[i].evidenceItemId;\n                count++;\n            }\n        }\n\n        // Resize the array to fit the actual number of items for the case\n        uint32[] memory items = new uint32[](count);\n        for (uint i = 0; i < count; i++) {\n            items[i] = itemsTemp[i];\n        }\n\n        return items;\n    }\n\n    struct BlockInfo {\n        uint64 timestamp;\n        string handlerName;\n        string state;\n    }\n\n    function getItemHistory(\n        uint32 _itemId\n    ) public view returns (BlockInfo[] memory) {\n        BlockInfo[] memory history = new BlockInfo[](blockchain.length);\n        uint count = 0;\n\n        for (uint i = 0; i < blockchain.length; i++) {\n            if (blockchain[i].evidenceItemId == _itemId) {\n                history[count] = BlockInfo(\n                    blockchain[i].timestamp,\n                    blockchain[i].handlerName,\n                    blockchain[i].state\n                );\n                count++;\n            }\n        }\n\n        // Resize the array to fit the actual number of entries for the item\n        BlockInfo[] memory itemHistory = new BlockInfo[](count);\n        for (uint i = 0; i < count; i++) {\n            itemHistory[i] = history[i];\n        }\n\n        return itemHistory;\n    }\n\n    event EvidenceItemRemoved(\n        uint128 caseId,\n        uint32 evidenceItemId,\n        uint64 timestamp,\n        string reason,\n        string ownerInfo\n    );\n\n    function removeEvidenceItem(\n        uint32 _evidenceItemId,\n        string memory _reason,\n        string memory _ownerInfo\n    ) public {\n        require(\n            evidenceExists[_evidenceItemId],\n            \"Error: Evidence item does not exist.\"\n        );\n\n        Block storage lastBlock = blockchain[blockchain.length - 1];\n        require(\n            lastBlock.evidenceItemId == _evidenceItemId &&\n                keccak256(abi.encodePacked(lastBlock.state)) ==\n                keccak256(abi.encodePacked(\"CHECKEDIN\")),\n            \"Error: Item must be checked in to be removed.\"\n        );\n\n        // Assuming 'addBlock' function updates the state and creates a new block in the blockchain\n        addBlock(\n            lastBlock.caseId,\n            _evidenceItemId,\n            _reason, // Include _reason in the call\n            lastBlock.handlerName,\n            lastBlock.organizationName,\n            _ownerInfo, // Include _ownerInfo\n            lastBlock.data\n        );\n\n        emit EvidenceItemRemoved(\n            lastBlock.caseId,\n            _evidenceItemId,\n            uint64(block.timestamp),\n            _reason,\n            _ownerInfo\n        );\n    }\n    // Part of verify: fetches the entire blockchain\n    function getBlockchain() public view returns (Block[] memory) {\n        return blockchain;\n    }\n\n    // Part of verify: fetches an individual block by index\n    function getBlock(uint index) public view returns (Block memory) {\n        require(index < blockchain.length, \"Index out of bounds\");\n        return blockchain[index];\n    }\n\n    function init(uint32 _evidenceItemId) public view returns (bool) {\n    // Check if the blockchain is empty\n    if (blockchain.length == 0) {\n        return false;\n    }\n\n    // Find a block from evidence ID\n    for (uint i = 0; i < blockchain.length; i++) {\n        if (blockchain[i].evidenceItemId == _evidenceItemId) {\n            // Initial block has a previous hash of 0\n            return blockchain[i].previousHash == bytes32(0);\n        }\n    }\n    return false;\n}\n}",
  "sourcePath": "/Users/stephanieblossom/blockchain_chain_of_custody/contracts/ChainOfCustody.sol",
  "compiler": {
    "name": "solc",
    "version": "0.8.21+commit.d9974bed.Emscripten.clang"
  },
  "schemaVersion": "3.4.16",
  "updatedAt": "2023-11-26T23:34:54.358Z",
  "devdoc": {
    "kind": "dev",
    "methods": {},
    "version": 1
  },
  "userdoc": {
    "kind": "user",
    "methods": {},
    "version": 1
  }
}